{"contracts/StudentStartupFund.sol":{"StudentStartupFund":{"abi":[{"inputs":[],"stateMutability":"nonpayable","type":"constructor"},{"anonymous":false,"inputs":[{"indexed":true,"internalType":"uint256","name":"projectId","type":"uint256"},{"indexed":true,"internalType":"address","name":"user","type":"address"},{"indexed":false,"internalType":"uint8","name":"rating","type":"uint8"},{"indexed":false,"internalType":"string","name":"content","type":"string"}],"name":"CommentAdded","type":"event"},{"anonymous":false,"inputs":[{"indexed":true,"internalType":"uint256","name":"projectId","type":"uint256"},{"indexed":true,"internalType":"address","name":"user","type":"address"},{"indexed":false,"internalType":"uint256","name":"amount","type":"uint256"}],"name":"DividendClaimed","type":"event"},{"anonymous":false,"inputs":[{"indexed":true,"internalType":"uint256","name":"projectId","type":"uint256"},{"indexed":true,"internalType":"address","name":"donor","type":"address"},{"indexed":false,"internalType":"uint256","name":"amount","type":"uint256"}],"name":"DonationReceived","type":"event"},{"anonymous":false,"inputs":[{"indexed":true,"internalType":"uint256","name":"projectId","type":"uint256"},{"indexed":false,"internalType":"string","name":"title","type":"string"}],"name":"ProjectCreated","type":"event"},{"anonymous":false,"inputs":[{"indexed":true,"internalType":"uint256","name":"projectId","type":"uint256"},{"indexed":true,"internalType":"address","name":"treasury","type":"address"},{"indexed":false,"internalType":"uint256","name":"treasuryAmount","type":"uint256"},{"indexed":false,"internalType":"uint256","name":"dividendPool","type":"uint256"}],"name":"ProjectDisbursed","type":"event"},{"anonymous":false,"inputs":[{"indexed":true,"internalType":"uint256","name":"projectId","type":"uint256"},{"indexed":true,"internalType":"address","name":"user","type":"address"}],"name":"VotedTrust","type":"event"},{"anonymous":false,"inputs":[{"indexed":true,"internalType":"uint256","name":"projectId","type":"uint256"},{"indexed":true,"internalType":"address","name":"user","type":"address"}],"name":"VotedWithdraw","type":"event"},{"anonymous":false,"inputs":[{"indexed":true,"internalType":"uint256","name":"projectId","type":"uint256"},{"indexed":true,"internalType":"address","name":"to","type":"address"},{"indexed":false,"internalType":"uint256","name":"amount","type":"uint256"}],"name":"Withdrawn","type":"event"},{"inputs":[{"internalType":"uint256","name":"projectId","type":"uint256"},{"internalType":"string","name":"content","type":"string"},{"internalType":"uint8","name":"rating","type":"uint8"}],"name":"addComment","outputs":[],"stateMutability":"nonpayable","type":"function"},{"inputs":[{"internalType":"uint256","name":"projectId","type":"uint256"}],"name":"claimDividends","outputs":[],"stateMutability":"nonpayable","type":"function"},{"inputs":[{"internalType":"uint256","name":"","type":"uint256"},{"internalType":"address","name":"","type":"address"}],"name":"claimedDividends","outputs":[{"internalType":"uint256","name":"","type":"uint256"}],"stateMutability":"view","type":"function"},{"inputs":[{"internalType":"string","name":"title","type":"string"},{"internalType":"string","name":"description","type":"string"},{"internalType":"string","name":"image","type":"string"},{"internalType":"string","name":"teamJson","type":"string"},{"internalType":"string","name":"tokenName","type":"string"},{"internalType":"string","name":"tokenSymbol","type":"string"},{"internalType":"address","name":"tokenAddress","type":"address"},{"internalType":"uint256","name":"tokenPrice","type":"uint256"},{"internalType":"uint256","name":"goal","type":"uint256"},{"internalType":"uint256","name":"projectStart","type":"uint256"},{"internalType":"uint256","name":"projectEnd","type":"uint256"},{"internalType":"uint256","name":"iocStart","type":"uint256"},{"internalType":"uint256","name":"iocEnd","type":"uint256"}],"name":"createProject","outputs":[{"internalType":"uint256","name":"","type":"uint256"}],"stateMutability":"nonpayable","type":"function"},{"inputs":[{"internalType":"uint256","name":"projectId","type":"uint256"}],"name":"donate","outputs":[],"stateMutability":"payable","type":"function"},{"inputs":[{"internalType":"uint256","name":"","type":"uint256"},{"internalType":"address","name":"","type":"address"}],"name":"donatedByUser","outputs":[{"internalType":"uint256","name":"","type":"uint256"}],"stateMutability":"view","type":"function"},{"inputs":[{"internalType":"uint256","name":"projectId","type":"uint256"},{"internalType":"address payable","name":"treasury","type":"address"},{"internalType":"uint256","name":"dividendAmount","type":"uint256"}],"name":"finalizeDividends","outputs":[],"stateMutability":"nonpayable","type":"function"},{"inputs":[{"internalType":"uint256","name":"projectId","type":"uint256"},{"internalType":"address","name":"user","type":"address"}],"name":"getClaimableDividends","outputs":[{"internalType":"uint256","name":"","type":"uint256"}],"stateMutability":"view","type":"function"},{"inputs":[{"internalType":"uint256","name":"projectId","type":"uint256"},{"internalType":"uint256","name":"index","type":"uint256"}],"name":"getComment","outputs":[{"internalType":"address","name":"user","type":"address"},{"internalType":"string","name":"content","type":"string"},{"internalType":"uint8","name":"rating","type":"uint8"},{"internalType":"uint256","name":"timestamp","type":"uint256"}],"stateMutability":"view","type":"function"},{"inputs":[{"internalType":"uint256","name":"projectId","type":"uint256"}],"name":"getCommentsCount","outputs":[{"internalType":"uint256","name":"","type":"uint256"}],"stateMutability":"view","type":"function"},{"inputs":[],"name":"getProjectsCount","outputs":[{"internalType":"uint256","name":"","type":"uint256"}],"stateMutability":"view","type":"function"},{"inputs":[],"name":"owner","outputs":[{"internalType":"address","name":"","type":"address"}],"stateMutability":"view","type":"function"},{"inputs":[],"name":"projectCount","outputs":[{"internalType":"uint256","name":"","type":"uint256"}],"stateMutability":"view","type":"function"},{"inputs":[{"internalType":"uint256","name":"","type":"uint256"}],"name":"projects","outputs":[{"internalType":"uint256","name":"id","type":"uint256"},{"internalType":"string","name":"title","type":"string"},{"internalType":"string","name":"description","type":"string"},{"internalType":"string","name":"image","type":"string"},{"internalType":"string","name":"teamJson","type":"string"},{"internalType":"string","name":"tokenName","type":"string"},{"internalType":"string","name":"tokenSymbol","type":"string"},{"internalType":"address","name":"tokenAddress","type":"address"},{"internalType":"uint256","name":"tokenPrice","type":"uint256"},{"internalType":"uint256","name":"goal","type":"uint256"},{"internalType":"uint256","name":"totalDonated","type":"uint256"},{"internalType":"uint256","name":"projectStart","type":"uint256"},{"internalType":"uint256","name":"projectEnd","type":"uint256"},{"internalType":"uint256","name":"iocStart","type":"uint256"},{"internalType":"uint256","name":"iocEnd","type":"uint256"},{"internalType":"uint256","name":"trustVotes","type":"uint256"},{"internalType":"uint256","name":"withdrawVotes","type":"uint256"},{"internalType":"enum StudentStartupFund.ProjectStatus","name":"status","type":"uint8"},{"internalType":"bool","name":"active","type":"bool"},{"internalType":"uint256","name":"dividendPool","type":"uint256"},{"internalType":"uint256","name":"dividendDenominator","type":"uint256"},{"internalType":"bool","name":"dividendsFinalized","type":"bool"}],"stateMutability":"view","type":"function"},{"inputs":[{"internalType":"uint256","name":"projectId","type":"uint256"},{"internalType":"bool","name":"active","type":"bool"}],"name":"setProjectActive","outputs":[],"stateMutability":"nonpayable","type":"function"},{"inputs":[{"internalType":"uint256","name":"projectId","type":"uint256"}],"name":"voteTrust","outputs":[],"stateMutability":"nonpayable","type":"function"},{"inputs":[{"internalType":"uint256","name":"projectId","type":"uint256"}],"name":"voteWithdraw","outputs":[],"stateMutability":"nonpayable","type":"function"},{"inputs":[{"internalType":"uint256","name":"","type":"uint256"},{"internalType":"address","name":"","type":"address"}],"name":"votedTrust","outputs":[{"internalType":"bool","name":"","type":"bool"}],"stateMutability":"view","type":"function"},{"inputs":[{"internalType":"uint256","name":"","type":"uint256"},{"internalType":"address","name":"","type":"address"}],"name":"votedWithdraw","outputs":[{"internalType":"bool","name":"","type":"bool"}],"stateMutability":"view","type":"function"},{"inputs":[{"internalType":"uint256","name":"projectId","type":"uint256"},{"internalType":"address payable","name":"to","type":"address"},{"internalType":"uint256","name":"amount","type":"uint256"}],"name":"withdraw","outputs":[],"stateMutability":"nonpayable","type":"function"}],"evm":{"bytecode":{"linkReferences":{},"object":"60808060405234602757600080546001600160a01b03191633179055612338908161002d8239f35b600080fdfe6101a0604052600436101561001357600080fd5b60003560e01c8063107046bd14611aa3578063272f04ab1461192e5780632c871447146118285780632f597db5146117ac57806336fbad261461178e57806344b762691461146f578063488927531461139a5780634c9b78da146113615780637ed28f0c1461131957806385576a31146112cc5780638da5cb5b146112a35780639e5c5ff81461069e578063a3cac8a3146104af578063bd7047c4146103cb578063c40619c61461038f578063cff6356714610347578063df3faafe146102fa578063e4a8f18b146102dc578063e63697c8146101e65763f14faf6f146100f957600080fd5b60203660031901126101e1576004356101156001548210611f2a565b610120341515612260565b600a61012b82611d13565b5061013f60ff601183015460081c16611f68565b61015060ff60148301541615611fa7565b600d810154421015806101d3575b61016790612030565b01610173348254612023565b9055806000526004602052604060002060018060a01b03331660005260205260406000206101a2348254612023565b9055604051903482527f0b5b4c52969ff7329ecf7ee536409fda87812b15a8622bc6e8cdeab3aee14a2660203393a3005b50600e81015442111561015e565b600080fd5b346101e1576101f436611f00565b919061020b60018060a01b0360005416331461206e565b6102186001548310611f2a565b6001600160a01b03169161022d8315156120c3565b610238811515612260565b4781116102a05760207fcf7d23a3cbe4e8b36ff82fd1b05b1b17373dc7804b4ebbd6e2356716ef2023729161027d60ff601461027387611d13565b5001541615611fa7565b6102976000808080858a5af161029161210b565b5061213b565b604051908152a3005b60405162461bcd60e51b8152602060048201526014602482015273496e73756666696369656e742062616c616e636560601b6044820152606490fd5b346101e15760003660031901126101e1576020600154604051908152f35b346101e15760403660031901126101e157610313611eea565b600435600052600760205260406000209060018060a01b0316600052602052602060ff604060002054166040519015158152f35b346101e15760403660031901126101e157610360611eea565b600435600052600560205260406000209060018060a01b03166000526020526020604060002054604051908152f35b346101e15760403660031901126101e15760206103c36004356103b0611eea565b906103be6001548210611f2a565b612179565b604051908152f35b346101e15760203660031901126101e1576004356103f560015482106103f081611f2a565b611f2a565b6103ff3382612179565b90811561047757806000526005602052604060002060018060a01b0333166000526020526040600020610433838254612023565b9055610449600080808086335af161029161210b565b6040519182527fa1594d215a577c1905bcb0b5b186a40a0104714277441d4b2ac428c89bf7f4b160203393a3005b60405162461bcd60e51b815260206004820152601060248201526f4e6f7468696e6720746f20636c61696d60801b6044820152606490fd5b346101e1576104bd36611f00565b91906104d460018060a01b0360005416331461206e565b6104e16001548310611f2a565b6104ea82611d13565b5092601484019182549061050160ff831615611fa7565b600e860154421115610669576001600160a01b0316946105228615156120c3565b600a810154938415610631578484116105f457600160119361054486886120fe565b96866012860155601385015560ff19161790550161ff0019815416905581610599575b7fc33b9c84de8be0e2db6e7d47f37c842a16cf90a91afd0329363b576ea8efac7d9160409182519182526020820152a3005b600080808085885af16105aa61210b565b506105675760405162461bcd60e51b815260206004820152601860248201527f5472656173757279207472616e73666572206661696c656400000000000000006044820152606490fd5b60405162461bcd60e51b8152602060048201526015602482015274115e18d959591cc81d1bdd185b08191bdb985d1959605a1b6044820152606490fd5b60405162461bcd60e51b815260206004820152601060248201526f139bc8191bdb985d1a5bdb9cc81e595d60821b6044820152606490fd5b60405162461bcd60e51b815260206004820152600d60248201526c1253d0c81b9bdd08195b991959609a1b6044820152606490fd5b346101e1576101a03660031901126101e1576004356001600160401b0381116101e1576106cf903690600401611ea3565b6024356001600160401b0381116101e1576106ee903690600401611ea3565b906044356001600160401b0381116101e15761070e903690600401611ea3565b906064356001600160401b0381116101e15761072e903690600401611ea3565b916084356001600160401b0381116101e15761074e903690600401611ea3565b60a4356001600160401b0381116101e15761076d903690600401611ea3565b60c4356001600160a01b038116908190036101e1576101043561012435906101443592610164359461018435966107af60018060a01b0360005416331461206e565b878787878d511561126d5787156112355715908161122c575b50611214575b15908161120b575b506111dd575b878710156111a65785851161116a576001549a6107fa8989896122a1565b996040519d8e6102c081019081106001600160401b03821117610d33578f90918f8f90606094604052835260208301526040820152015260808d015260a08c015260c08b015260e08a015260e4356101008a015261012089015260006101408901526101608801526101808701526101a08601526101c085015260006101e085015260006102008501526005811015610c4e5761022084015260016102408401526000610260840152600061028084015260006102a0840152600160401b821015610d3357600182016001556108cf82611d13565b611154578351815560208401518051906001600160401b038211610d335781906108fc6001850154611d48565b601f8111611101575b50602090601f831160011461109057600092611085575b50508160011b916000199060031b1c19161760018201555b60408401518051906001600160401b038211610d335781906109596002850154611d48565b601f8111611032575b50602090601f8311600114610fc157600092610fb6575b50508160011b916000199060031b1c19161760028201555b60608401518051906001600160401b038211610d335781906109b66003850154611d48565b601f8111610f63575b50602090601f8311600114610ef257600092610ee7575b50508160011b916000199060031b1c19161760038201555b60808401518051906001600160401b038211610d33578190610a136004850154611d48565b601f8111610e94575b50602090601f8311600114610e2357600092610e18575b50508160011b916000199060031b1c19161760048201555b60a08401518051906001600160401b038211610d33578190610a706005850154611d48565b601f8111610dc5575b50602090601f8311600114610d5457600092610d49575b50508160011b916000199060031b1c19161760058201555b60c08401518051906001600160401b038211610d33578190610acd6006850154611d48565b601f8111610ce0575b50602090601f8311600114610c6f57600092610c64575b50508160011b916000199060031b1c19161760068201555b60e08401516007820180546001600160a01b0319166001600160a01b039290921691909117905561010084015160088201556101208401516009820155610140840151600a820155610160840151600b820155610180840151600c8201556101a0840151600d8201556101c0840151600e8201556101e0840151600f8201556102008401516010820155610220840151916011820191906005841015610c4e576020956102a06014610c4394610c037fed06d1e70f1faa0e1750def1b3a1d942390a8f47d03679c9025a1c38dc34fe7b978a9960ff80198354169116178155610240860151151561ff00825491151560081b169061ff001916179055565b6102608401516012820155610280840151601382015501910151151560ff8019835416911617905560015460025560405191829187835287830190611e47565b0390a2604051908152f35b634e487b7160e01b600052602160045260246000fd5b015190508680610aed565b92506006840160005280600020906000935b601f1984168510610cc5576001945083601f19811610610cac575b505050811b016006820155610b05565b015160001960f88460031b161c19169055868080610c9c565b81810151835560209485019460019093019290910190610c81565b909150600684016000526020600020601f840160051c810160208510610d2c575b90849392915b601f830160051c82018110610d1d575050610ad6565b60008155859450600101610d07565b5080610d01565b634e487b7160e01b600052604160045260246000fd5b015190508680610a90565b92506005840160005280600020906000935b601f1984168510610daa576001945083601f19811610610d91575b505050811b016005820155610aa8565b015160001960f88460031b161c19169055868080610d81565b81810151835560209485019460019093019290910190610d66565b909150600584016000526020600020601f840160051c810160208510610e11575b90849392915b601f830160051c82018110610e02575050610a79565b60008155859450600101610dec565b5080610de6565b015190508680610a33565b92506004840160005280600020906000935b601f1984168510610e79576001945083601f19811610610e60575b505050811b016004820155610a4b565b015160001960f88460031b161c19169055868080610e50565b81810151835560209485019460019093019290910190610e35565b909150600484016000526020600020601f840160051c810160208510610ee0575b90849392915b601f830160051c82018110610ed1575050610a1c565b60008155859450600101610ebb565b5080610eb5565b0151905086806109d6565b92506003840160005280600020906000935b601f1984168510610f48576001945083601f19811610610f2f575b505050811b0160038201556109ee565b015160001960f88460031b161c19169055868080610f1f565b81810151835560209485019460019093019290910190610f04565b909150600384016000526020600020601f840160051c810160208510610faf575b90849392915b601f830160051c82018110610fa05750506109bf565b60008155859450600101610f8a565b5080610f84565b015190508680610979565b92506002840160005280600020906000935b601f1984168510611017576001945083601f19811610610ffe575b505050811b016002820155610991565b015160001960f88460031b161c19169055868080610fee565b81810151835560209485019460019093019290910190610fd3565b909150600284016000526020600020601f840160051c81016020851061107e575b90849392915b601f830160051c8201811061106f575050610962565b60008155859450600101611059565b5080611053565b01519050868061091c565b92506001840160005280600020906000935b601f19841685106110e6576001945083601f198116106110cd575b505050811b016001820155610934565b015160001960f88460031b161c191690558680806110bd565b818101518355602094850194600190930192909101906110a2565b909150600184016000526020600020601f840160051c81016020851061114d575b90849392915b601f830160051c8201811061113e575050610905565b60008155859450600101611128565b5080611122565b634e487b7160e01b600052600060045260246000fd5b60405162461bcd60e51b8152602060048201526014602482015273141c9bda9958dd081cdd185c9d080f0f48195b9960621b6044820152606490fd5b60405162461bcd60e51b815260206004820152600f60248201526e1253d0c81cdd185c9d080f08195b99608a1b6044820152606490fd5b965042955062278d0086018087116111f557966107dc565b634e487b7160e01b600052601160045260246000fd5b9050158d6107d6565b96504295506276a70086018087116111f557966107ce565b9050158f6107c8565b60405162461bcd60e51b815260206004820152601060248201526f0476f616c206d757374206265203e20360841b6044820152606490fd5b60405162461bcd60e51b815260206004820152600e60248201526d151a5d1b19481c995c5d5a5c995960921b6044820152606490fd5b346101e15760003660031901126101e1576000546040516001600160a01b039091168152602090f35b346101e15760403660031901126101e1576112e5611eea565b600435600052600660205260406000209060018060a01b0316600052602052602060ff604060002054166040519015158152f35b346101e15760403660031901126101e157611332611eea565b600435600052600460205260406000209060018060a01b03166000526020526020604060002054604051908152f35b346101e15760203660031901126101e1576004356113826001548210611f2a565b60005260036020526020604060002054604051908152f35b346101e15760403660031901126101e1576004356024356113be6001548310611f2a565b81600052600360205260406000205481101561143a576113ea91600052600360205260406000206120a7565b5060018060a01b0381541660ff60028301541661140e600160038501549401611da3565b9261142b6040519485948552608060208601526080850190611e47565b91604084015260608301520390f35b60405162461bcd60e51b815260206004820152600d60248201526c092dcecc2d8d2c840d2dcc8caf609b1b6044820152606490fd5b346101e15760603660031901126101e1576004356024356001600160401b0381116101e1576114a2903690600401611ea3565b6044359160ff83168093036101e1576114be6001548210611f2a565b8151156117565760018310158061174b575b15611711576114f160ff60116114e584611d13565b50015460081c16611f68565b806000526003602052604060002092604051608081018181106001600160401b03821117610d335760405233815260208101948486526040820183815260608301914283528054600160401b811015610d3357611553916001820181556120a7565b939093611154575183546001600160a01b0319166001600160a01b03919091161783559551805190969060018401906001600160401b038111610d335761159a8254611d48565b601f81116116c9575b506020601f821160011461163c5790806003959493927f75af7a249fd33f32da5aebdf42415cf43a79f1a958cb5d25980d825bb6c4a541999a9b600092611631575b50508160011b9160001990871b1c19161790555b60ff6002850191511660ff1982541617905551910155604051908152604060208201528061162c33956040830190611e47565b0390a3005b015190508b806115e5565b601f1982169983600052816000209a60005b8181106116b157509a60019284926003989796957f75af7a249fd33f32da5aebdf42415cf43a79f1a958cb5d25980d825bb6c4a5419c9d9e10611699575b505050811b0190556115f9565b015160001983891b60f8161c191690558b808061168c565b838301518d556001909c019b6020938401930161164e565b826000526020600020601f830160051c81019160208410611707575b601f0160051c01905b8181106116fb57506115a3565b600081556001016116ee565b90915081906116e5565b60405162461bcd60e51b8152602060048201526012602482015271526174696e67206d75737420626520312d3560701b6044820152606490fd5b5060058311156114d0565b60405162461bcd60e51b815260206004820152601060248201526f10dbdb9d195b9d081c995c5d5a5c995960821b6044820152606490fd5b346101e15760003660031901126101e1576020600254604051908152f35b346101e15760403660031901126101e15760043560243580151581036101e157601161180c611826936117ea60018060a01b0360005416331461206e565b6117f76001548210611f2a565b61180760ff601461027384611d13565b611d13565b50019061ff00825491151560081b169061ff001916179055565b005b346101e15760203660031901126101e1576004356118496001548210611f2a565b61188f61185582611d13565b5061186960ff601183015460081c16611f68565b61187a60ff60148301541615611fa7565b600d810154421015908161191f575b50612030565b60008181526006602090815260408083203384529091529020546118b69060ff1615611fe7565b60008181526006602090815260408083203384529091529020805460ff19166001179055600f6118e582611d13565b5001805490600182018092116111f5575533907fb31d078aff93840e07bd4feb45e413ef1141e91543e8f7c6f7e17b18963319b0600080a3005b600e9150015442111583611889565b346101e15760203660031901126101e15760043561194f6001548210611f2a565b600e61195a82611d13565b5061196e60ff601183015460081c16611f68565b61197f60ff60148301541615611fa7565b0154421115611a6a57600081815260046020908152604080832033845290915290205415611a375760008181526007602090815260408083203384529091529020546119ce9060ff1615611fe7565b60008181526007602090815260408083203384529091529020805460ff1916600117905560106119fd82611d13565b5001805490600182018092116111f5575533907f5e3e2b315b7a0c8f5b16c6826fea3480c2b34a38cee053a916bd6bc4569756f0600080a3005b60405162461bcd60e51b815260206004820152600b60248201526a2737ba1030903237b737b960a91b6044820152606490fd5b60405162461bcd60e51b81526020600482015260116024820152701253d0c81b9bdd08195b991959081e595d607a1b6044820152606490fd5b346101e15760203660031901126101e1576004356001548110156101e157611aca90611d13565b9061018052506101805154611ae460016101805101611da3565b61012052611af760026101805101611da3565b61014052611b0a60036101805101611da3565b90611b1a60046101805101611da3565b91611b2a60056101805101611da3565b92611b3a60066101805101611da3565b9360018060a01b03600761018051015416610160526008610180510154946009610180510154600a610180510154600b61018051015491611c60600c61018051015494611c4e600d61018051015497611c3d600e6101805101549a611c2b600f6101805101549d60106101805101549f6011610180510154610100526012610180510154608052601361018051015460c05260ff60146101805101541660e05260405160a05260a051526102c0602060a0510152611c19611c046102c060a0510161012051611e47565b60a0518103604060a051015261014051611e47565b9060a0518203606060a0510152611e47565b9060a0518203608060a0510152611e47565b9060a051820360a080510152611e47565b9060a051820360c060a0510152611e47565b986101605160e060a051015261010060a051015261012060a051015261014060a051015261016060a051015261018060a05101526101a060a05101526101c060a05101526101e060a051015261020060a0510152600560ff61010051161015610c4e5760ff610100511661022060a051015260ff6101005160081c16151561024060a051015260805161026060a051015260c05161028060a051015260e05115156102a060a051015260a051900360a051f35b600154811015611d325760016000526015602060002091020190600090565b634e487b7160e01b600052603260045260246000fd5b90600182811c92168015611d78575b6020831014611d6257565b634e487b7160e01b600052602260045260246000fd5b91607f1691611d57565b90601f801991011681019081106001600160401b03821117610d3357604052565b9060405191826000825492611db784611d48565b8084529360018116908115611e255750600114611dde575b50611ddc92500383611d82565b565b90506000929192526020600020906000915b818310611e09575050906020611ddc9282010138611dcf565b6020919350806001915483858901015201910190918492611df0565b905060209250611ddc94915060ff191682840152151560051b82010138611dcf565b919082519283825260005b848110611e73575050826000602080949584010152601f8019910116010190565b80602080928401015182828601015201611e52565b6001600160401b038111610d3357601f01601f191660200190565b81601f820112156101e157803590611eba82611e88565b92611ec86040519485611d82565b828452602083830101116101e157816000926020809301838601378301015290565b602435906001600160a01b03821682036101e157565b60609060031901126101e157600435906024356001600160a01b03811681036101e1579060443590565b15611f3157565b60405162461bcd60e51b815260206004820152600f60248201526e125b9d985b1a59081c1c9bda9958dd608a1b6044820152606490fd5b15611f6f57565b60405162461bcd60e51b815260206004820152601060248201526f50726f6a65637420696e61637469766560801b6044820152606490fd5b15611fae57565b60405162461bcd60e51b8152602060048201526011602482015270105b1c9958591e48199a5b985b1a5e9959607a1b6044820152606490fd5b15611fee57565b60405162461bcd60e51b815260206004820152600d60248201526c105b1c9958591e481d9bdd1959609a1b6044820152606490fd5b919082018092116111f557565b1561203757565b60405162461bcd60e51b815260206004820152600f60248201526e4e6f7420696e20494f432074696d6560881b6044820152606490fd5b1561207557565b60405162461bcd60e51b815260206004820152600a60248201526927b7363c9037bbb732b960b11b6044820152606490fd5b8054821015611d325760005260206000209060021b0190600090565b156120ca57565b60405162461bcd60e51b815260206004820152600c60248201526b5a65726f206164647265737360a01b6044820152606490fd5b919082039182116111f557565b3d15612136573d9061211c82611e88565b9161212a6040519384611d82565b82523d6000602084013e565b606090565b1561214257565b60405162461bcd60e51b815260206004820152600f60248201526e151c985b9cd9995c8819985a5b1959608a1b6044820152606490fd5b9061218382611d13565b5060ff60148201541615612258576012810154908115801561224c575b61224357836000526004602052604060002060018060a01b03841660005260205260406000205491821561223957808302928304036111f55760130154908115612223570491600052600560205260406000209060018060a01b03166000526020526040600020548082111561221c57612219916120fe565b90565b5050600090565b634e487b7160e01b600052601260045260246000fd5b5050505050600090565b50505050600090565b506013810154156121a0565b505050600090565b1561226757565b60405162461bcd60e51b81526020600482015260126024820152710416d6f756e74206d757374206265203e20360741b6044820152606490fd5b9190821515806122f9575b6122f157421015806122e7575b6122e057421190816122d5575b506122d057600090565b600290565b9050421115386122c6565b5050600190565b50804211156122b9565b505050600390565b508242116122ac56fea264697066735822122089a9f72cef76203324e87b522b067bee8fd127aab3b7cbad84ce40ac3849acf864736f6c634300081c0033","opcodes":"PUSH1 0x80 DUP1 PUSH1 0x40 MSTORE CALLVALUE PUSH1 0x27 JUMPI PUSH1 0x0 DUP1 SLOAD PUSH1 0x1 PUSH1 0x1 PUSH1 0xA0 SHL SUB NOT AND CALLER OR SWAP1 SSTORE PUSH2 0x2338 SWAP1 DUP2 PUSH2 0x2D DUP3 CODECOPY RETURN JUMPDEST PUSH1 0x0 DUP1 REVERT INVALID PUSH2 0x1A0 PUSH1 0x40 MSTORE PUSH1 0x4 CALLDATASIZE LT ISZERO PUSH2 0x13 JUMPI PUSH1 0x0 DUP1 REVERT JUMPDEST PUSH1 0x0 CALLDATALOAD PUSH1 0xE0 SHR DUP1 PUSH4 0x107046BD EQ PUSH2 0x1AA3 JUMPI DUP1 PUSH4 0x272F04AB EQ PUSH2 0x192E JUMPI DUP1 PUSH4 0x2C871447 EQ PUSH2 0x1828 JUMPI DUP1 PUSH4 0x2F597DB5 EQ PUSH2 0x17AC JUMPI DUP1 PUSH4 0x36FBAD26 EQ PUSH2 0x178E JUMPI DUP1 PUSH4 0x44B76269 EQ PUSH2 0x146F JUMPI DUP1 PUSH4 0x48892753 EQ PUSH2 0x139A JUMPI DUP1 PUSH4 0x4C9B78DA EQ PUSH2 0x1361 JUMPI DUP1 PUSH4 0x7ED28F0C EQ PUSH2 0x1319 JUMPI DUP1 PUSH4 0x85576A31 EQ PUSH2 0x12CC JUMPI DUP1 PUSH4 0x8DA5CB5B EQ PUSH2 0x12A3 JUMPI DUP1 PUSH4 0x9E5C5FF8 EQ PUSH2 0x69E JUMPI DUP1 PUSH4 0xA3CAC8A3 EQ PUSH2 0x4AF JUMPI DUP1 PUSH4 0xBD7047C4 EQ PUSH2 0x3CB JUMPI DUP1 PUSH4 0xC40619C6 EQ PUSH2 0x38F JUMPI DUP1 PUSH4 0xCFF63567 EQ PUSH2 0x347 JUMPI DUP1 PUSH4 0xDF3FAAFE EQ PUSH2 0x2FA JUMPI DUP1 PUSH4 0xE4A8F18B EQ PUSH2 0x2DC JUMPI DUP1 PUSH4 0xE63697C8 EQ PUSH2 0x1E6 JUMPI PUSH4 0xF14FAF6F EQ PUSH2 0xF9 JUMPI PUSH1 0x0 DUP1 REVERT JUMPDEST PUSH1 0x20 CALLDATASIZE PUSH1 0x3 NOT ADD SLT PUSH2 0x1E1 JUMPI PUSH1 0x4 CALLDATALOAD PUSH2 0x115 PUSH1 0x1 SLOAD DUP3 LT PUSH2 0x1F2A JUMP JUMPDEST PUSH2 0x120 CALLVALUE ISZERO ISZERO PUSH2 0x2260 JUMP JUMPDEST PUSH1 0xA PUSH2 0x12B DUP3 PUSH2 0x1D13 JUMP JUMPDEST POP PUSH2 0x13F PUSH1 0xFF PUSH1 0x11 DUP4 ADD SLOAD PUSH1 0x8 SHR AND PUSH2 0x1F68 JUMP JUMPDEST PUSH2 0x150 PUSH1 0xFF PUSH1 0x14 DUP4 ADD SLOAD AND ISZERO PUSH2 0x1FA7 JUMP JUMPDEST PUSH1 0xD DUP2 ADD SLOAD TIMESTAMP LT ISZERO DUP1 PUSH2 0x1D3 JUMPI JUMPDEST PUSH2 0x167 SWAP1 PUSH2 0x2030 JUMP JUMPDEST ADD PUSH2 0x173 CALLVALUE DUP3 SLOAD PUSH2 0x2023 JUMP JUMPDEST SWAP1 SSTORE DUP1 PUSH1 0x0 MSTORE PUSH1 0x4 PUSH1 0x20 MSTORE PUSH1 0x40 PUSH1 0x0 KECCAK256 PUSH1 0x1 DUP1 PUSH1 0xA0 SHL SUB CALLER AND PUSH1 0x0 MSTORE PUSH1 0x20 MSTORE PUSH1 0x40 PUSH1 0x0 KECCAK256 PUSH2 0x1A2 CALLVALUE DUP3 SLOAD PUSH2 0x2023 JUMP JUMPDEST SWAP1 SSTORE PUSH1 0x40 MLOAD SWAP1 CALLVALUE DUP3 MSTORE PUSH32 0xB5B4C52969FF7329ECF7EE536409FDA87812B15A8622BC6E8CDEAB3AEE14A26 PUSH1 0x20 CALLER SWAP4 LOG3 STOP JUMPDEST POP PUSH1 0xE DUP2 ADD SLOAD TIMESTAMP GT ISZERO PUSH2 0x15E JUMP JUMPDEST PUSH1 0x0 DUP1 REVERT JUMPDEST CALLVALUE PUSH2 0x1E1 JUMPI PUSH2 0x1F4 CALLDATASIZE PUSH2 0x1F00 JUMP JUMPDEST SWAP2 SWAP1 PUSH2 0x20B PUSH1 0x1 DUP1 PUSH1 0xA0 SHL SUB PUSH1 0x0 SLOAD AND CALLER EQ PUSH2 0x206E JUMP JUMPDEST PUSH2 0x218 PUSH1 0x1 SLOAD DUP4 LT PUSH2 0x1F2A JUMP JUMPDEST PUSH1 0x1 PUSH1 0x1 PUSH1 0xA0 SHL SUB AND SWAP2 PUSH2 0x22D DUP4 ISZERO ISZERO PUSH2 0x20C3 JUMP JUMPDEST PUSH2 0x238 DUP2 ISZERO ISZERO PUSH2 0x2260 JUMP JUMPDEST SELFBALANCE DUP2 GT PUSH2 0x2A0 JUMPI PUSH1 0x20 PUSH32 0xCF7D23A3CBE4E8B36FF82FD1B05B1B17373DC7804B4EBBD6E2356716EF202372 SWAP2 PUSH2 0x27D PUSH1 0xFF PUSH1 0x14 PUSH2 0x273 DUP8 PUSH2 0x1D13 JUMP JUMPDEST POP ADD SLOAD AND ISZERO PUSH2 0x1FA7 JUMP JUMPDEST PUSH2 0x297 PUSH1 0x0 DUP1 DUP1 DUP1 DUP6 DUP11 GAS CALL PUSH2 0x291 PUSH2 0x210B JUMP JUMPDEST POP PUSH2 0x213B JUMP JUMPDEST PUSH1 0x40 MLOAD SWAP1 DUP2 MSTORE LOG3 STOP JUMPDEST PUSH1 0x40 MLOAD PUSH3 0x461BCD PUSH1 0xE5 SHL DUP2 MSTORE PUSH1 0x20 PUSH1 0x4 DUP3 ADD MSTORE PUSH1 0x14 PUSH1 0x24 DUP3 ADD MSTORE PUSH20 0x496E73756666696369656E742062616C616E6365 PUSH1 0x60 SHL PUSH1 0x44 DUP3 ADD MSTORE PUSH1 0x64 SWAP1 REVERT JUMPDEST CALLVALUE PUSH2 0x1E1 JUMPI PUSH1 0x0 CALLDATASIZE PUSH1 0x3 NOT ADD SLT PUSH2 0x1E1 JUMPI PUSH1 0x20 PUSH1 0x1 SLOAD PUSH1 0x40 MLOAD SWAP1 DUP2 MSTORE RETURN JUMPDEST CALLVALUE PUSH2 0x1E1 JUMPI PUSH1 0x40 CALLDATASIZE PUSH1 0x3 NOT ADD SLT PUSH2 0x1E1 JUMPI PUSH2 0x313 PUSH2 0x1EEA JUMP JUMPDEST PUSH1 0x4 CALLDATALOAD PUSH1 0x0 MSTORE PUSH1 0x7 PUSH1 0x20 MSTORE PUSH1 0x40 PUSH1 0x0 KECCAK256 SWAP1 PUSH1 0x1 DUP1 PUSH1 0xA0 SHL SUB AND PUSH1 0x0 MSTORE PUSH1 0x20 MSTORE PUSH1 0x20 PUSH1 0xFF PUSH1 0x40 PUSH1 0x0 KECCAK256 SLOAD AND PUSH1 0x40 MLOAD SWAP1 ISZERO ISZERO DUP2 MSTORE RETURN JUMPDEST CALLVALUE PUSH2 0x1E1 JUMPI PUSH1 0x40 CALLDATASIZE PUSH1 0x3 NOT ADD SLT PUSH2 0x1E1 JUMPI PUSH2 0x360 PUSH2 0x1EEA JUMP JUMPDEST PUSH1 0x4 CALLDATALOAD PUSH1 0x0 MSTORE PUSH1 0x5 PUSH1 0x20 MSTORE PUSH1 0x40 PUSH1 0x0 KECCAK256 SWAP1 PUSH1 0x1 DUP1 PUSH1 0xA0 SHL SUB AND PUSH1 0x0 MSTORE PUSH1 0x20 MSTORE PUSH1 0x20 PUSH1 0x40 PUSH1 0x0 KECCAK256 SLOAD PUSH1 0x40 MLOAD SWAP1 DUP2 MSTORE RETURN JUMPDEST CALLVALUE PUSH2 0x1E1 JUMPI PUSH1 0x40 CALLDATASIZE PUSH1 0x3 NOT ADD SLT PUSH2 0x1E1 JUMPI PUSH1 0x20 PUSH2 0x3C3 PUSH1 0x4 CALLDATALOAD PUSH2 0x3B0 PUSH2 0x1EEA JUMP JUMPDEST SWAP1 PUSH2 0x3BE PUSH1 0x1 SLOAD DUP3 LT PUSH2 0x1F2A JUMP JUMPDEST PUSH2 0x2179 JUMP JUMPDEST PUSH1 0x40 MLOAD SWAP1 DUP2 MSTORE RETURN JUMPDEST CALLVALUE PUSH2 0x1E1 JUMPI PUSH1 0x20 CALLDATASIZE PUSH1 0x3 NOT ADD SLT PUSH2 0x1E1 JUMPI PUSH1 0x4 CALLDATALOAD PUSH2 0x3F5 PUSH1 0x1 SLOAD DUP3 LT PUSH2 0x3F0 DUP2 PUSH2 0x1F2A JUMP JUMPDEST PUSH2 0x1F2A JUMP JUMPDEST PUSH2 0x3FF CALLER DUP3 PUSH2 0x2179 JUMP JUMPDEST SWAP1 DUP2 ISZERO PUSH2 0x477 JUMPI DUP1 PUSH1 0x0 MSTORE PUSH1 0x5 PUSH1 0x20 MSTORE PUSH1 0x40 PUSH1 0x0 KECCAK256 PUSH1 0x1 DUP1 PUSH1 0xA0 SHL SUB CALLER AND PUSH1 0x0 MSTORE PUSH1 0x20 MSTORE PUSH1 0x40 PUSH1 0x0 KECCAK256 PUSH2 0x433 DUP4 DUP3 SLOAD PUSH2 0x2023 JUMP JUMPDEST SWAP1 SSTORE PUSH2 0x449 PUSH1 0x0 DUP1 DUP1 DUP1 DUP7 CALLER GAS CALL PUSH2 0x291 PUSH2 0x210B JUMP JUMPDEST PUSH1 0x40 MLOAD SWAP2 DUP3 MSTORE PUSH32 0xA1594D215A577C1905BCB0B5B186A40A0104714277441D4B2AC428C89BF7F4B1 PUSH1 0x20 CALLER SWAP4 LOG3 STOP JUMPDEST PUSH1 0x40 MLOAD PUSH3 0x461BCD PUSH1 0xE5 SHL DUP2 MSTORE PUSH1 0x20 PUSH1 0x4 DUP3 ADD MSTORE PUSH1 0x10 PUSH1 0x24 DUP3 ADD MSTORE PUSH16 0x4E6F7468696E6720746F20636C61696D PUSH1 0x80 SHL PUSH1 0x44 DUP3 ADD MSTORE PUSH1 0x64 SWAP1 REVERT JUMPDEST CALLVALUE PUSH2 0x1E1 JUMPI PUSH2 0x4BD CALLDATASIZE PUSH2 0x1F00 JUMP JUMPDEST SWAP2 SWAP1 PUSH2 0x4D4 PUSH1 0x1 DUP1 PUSH1 0xA0 SHL SUB PUSH1 0x0 SLOAD AND CALLER EQ PUSH2 0x206E JUMP JUMPDEST PUSH2 0x4E1 PUSH1 0x1 SLOAD DUP4 LT PUSH2 0x1F2A JUMP JUMPDEST PUSH2 0x4EA DUP3 PUSH2 0x1D13 JUMP JUMPDEST POP SWAP3 PUSH1 0x14 DUP5 ADD SWAP2 DUP3 SLOAD SWAP1 PUSH2 0x501 PUSH1 0xFF DUP4 AND ISZERO PUSH2 0x1FA7 JUMP JUMPDEST PUSH1 0xE DUP7 ADD SLOAD TIMESTAMP GT ISZERO PUSH2 0x669 JUMPI PUSH1 0x1 PUSH1 0x1 PUSH1 0xA0 SHL SUB AND SWAP5 PUSH2 0x522 DUP7 ISZERO ISZERO PUSH2 0x20C3 JUMP JUMPDEST PUSH1 0xA DUP2 ADD SLOAD SWAP4 DUP5 ISZERO PUSH2 0x631 JUMPI DUP5 DUP5 GT PUSH2 0x5F4 JUMPI PUSH1 0x1 PUSH1 0x11 SWAP4 PUSH2 0x544 DUP7 DUP9 PUSH2 0x20FE JUMP JUMPDEST SWAP7 DUP7 PUSH1 0x12 DUP7 ADD SSTORE PUSH1 0x13 DUP6 ADD SSTORE PUSH1 0xFF NOT AND OR SWAP1 SSTORE ADD PUSH2 0xFF00 NOT DUP2 SLOAD AND SWAP1 SSTORE DUP2 PUSH2 0x599 JUMPI JUMPDEST PUSH32 0xC33B9C84DE8BE0E2DB6E7D47F37C842A16CF90A91AFD0329363B576EA8EFAC7D SWAP2 PUSH1 0x40 SWAP2 DUP3 MLOAD SWAP2 DUP3 MSTORE PUSH1 0x20 DUP3 ADD MSTORE LOG3 STOP JUMPDEST PUSH1 0x0 DUP1 DUP1 DUP1 DUP6 DUP9 GAS CALL PUSH2 0x5AA PUSH2 0x210B JUMP JUMPDEST POP PUSH2 0x567 JUMPI PUSH1 0x40 MLOAD PUSH3 0x461BCD PUSH1 0xE5 SHL DUP2 MSTORE PUSH1 0x20 PUSH1 0x4 DUP3 ADD MSTORE PUSH1 0x18 PUSH1 0x24 DUP3 ADD MSTORE PUSH32 0x5472656173757279207472616E73666572206661696C65640000000000000000 PUSH1 0x44 DUP3 ADD MSTORE PUSH1 0x64 SWAP1 REVERT JUMPDEST PUSH1 0x40 MLOAD PUSH3 0x461BCD PUSH1 0xE5 SHL DUP2 MSTORE PUSH1 0x20 PUSH1 0x4 DUP3 ADD MSTORE PUSH1 0x15 PUSH1 0x24 DUP3 ADD MSTORE PUSH21 0x115E18D959591CC81D1BDD185B08191BDB985D1959 PUSH1 0x5A SHL PUSH1 0x44 DUP3 ADD MSTORE PUSH1 0x64 SWAP1 REVERT JUMPDEST PUSH1 0x40 MLOAD PUSH3 0x461BCD PUSH1 0xE5 SHL DUP2 MSTORE PUSH1 0x20 PUSH1 0x4 DUP3 ADD MSTORE PUSH1 0x10 PUSH1 0x24 DUP3 ADD MSTORE PUSH16 0x139BC8191BDB985D1A5BDB9CC81E595D PUSH1 0x82 SHL PUSH1 0x44 DUP3 ADD MSTORE PUSH1 0x64 SWAP1 REVERT JUMPDEST PUSH1 0x40 MLOAD PUSH3 0x461BCD PUSH1 0xE5 SHL DUP2 MSTORE PUSH1 0x20 PUSH1 0x4 DUP3 ADD MSTORE PUSH1 0xD PUSH1 0x24 DUP3 ADD MSTORE PUSH13 0x1253D0C81B9BDD08195B991959 PUSH1 0x9A SHL PUSH1 0x44 DUP3 ADD MSTORE PUSH1 0x64 SWAP1 REVERT JUMPDEST CALLVALUE PUSH2 0x1E1 JUMPI PUSH2 0x1A0 CALLDATASIZE PUSH1 0x3 NOT ADD SLT PUSH2 0x1E1 JUMPI PUSH1 0x4 CALLDATALOAD PUSH1 0x1 PUSH1 0x1 PUSH1 0x40 SHL SUB DUP2 GT PUSH2 0x1E1 JUMPI PUSH2 0x6CF SWAP1 CALLDATASIZE SWAP1 PUSH1 0x4 ADD PUSH2 0x1EA3 JUMP JUMPDEST PUSH1 0x24 CALLDATALOAD PUSH1 0x1 PUSH1 0x1 PUSH1 0x40 SHL SUB DUP2 GT PUSH2 0x1E1 JUMPI PUSH2 0x6EE SWAP1 CALLDATASIZE SWAP1 PUSH1 0x4 ADD PUSH2 0x1EA3 JUMP JUMPDEST SWAP1 PUSH1 0x44 CALLDATALOAD PUSH1 0x1 PUSH1 0x1 PUSH1 0x40 SHL SUB DUP2 GT PUSH2 0x1E1 JUMPI PUSH2 0x70E SWAP1 CALLDATASIZE SWAP1 PUSH1 0x4 ADD PUSH2 0x1EA3 JUMP JUMPDEST SWAP1 PUSH1 0x64 CALLDATALOAD PUSH1 0x1 PUSH1 0x1 PUSH1 0x40 SHL SUB DUP2 GT PUSH2 0x1E1 JUMPI PUSH2 0x72E SWAP1 CALLDATASIZE SWAP1 PUSH1 0x4 ADD PUSH2 0x1EA3 JUMP JUMPDEST SWAP2 PUSH1 0x84 CALLDATALOAD PUSH1 0x1 PUSH1 0x1 PUSH1 0x40 SHL SUB DUP2 GT PUSH2 0x1E1 JUMPI PUSH2 0x74E SWAP1 CALLDATASIZE SWAP1 PUSH1 0x4 ADD PUSH2 0x1EA3 JUMP JUMPDEST PUSH1 0xA4 CALLDATALOAD PUSH1 0x1 PUSH1 0x1 PUSH1 0x40 SHL SUB DUP2 GT PUSH2 0x1E1 JUMPI PUSH2 0x76D SWAP1 CALLDATASIZE SWAP1 PUSH1 0x4 ADD PUSH2 0x1EA3 JUMP JUMPDEST PUSH1 0xC4 CALLDATALOAD PUSH1 0x1 PUSH1 0x1 PUSH1 0xA0 SHL SUB DUP2 AND SWAP1 DUP2 SWAP1 SUB PUSH2 0x1E1 JUMPI PUSH2 0x104 CALLDATALOAD PUSH2 0x124 CALLDATALOAD SWAP1 PUSH2 0x144 CALLDATALOAD SWAP3 PUSH2 0x164 CALLDATALOAD SWAP5 PUSH2 0x184 CALLDATALOAD SWAP7 PUSH2 0x7AF PUSH1 0x1 DUP1 PUSH1 0xA0 SHL SUB PUSH1 0x0 SLOAD AND CALLER EQ PUSH2 0x206E JUMP JUMPDEST DUP8 DUP8 DUP8 DUP8 DUP14 MLOAD ISZERO PUSH2 0x126D JUMPI DUP8 ISZERO PUSH2 0x1235 JUMPI ISZERO SWAP1 DUP2 PUSH2 0x122C JUMPI JUMPDEST POP PUSH2 0x1214 JUMPI JUMPDEST ISZERO SWAP1 DUP2 PUSH2 0x120B JUMPI JUMPDEST POP PUSH2 0x11DD JUMPI JUMPDEST DUP8 DUP8 LT ISZERO PUSH2 0x11A6 JUMPI DUP6 DUP6 GT PUSH2 0x116A JUMPI PUSH1 0x1 SLOAD SWAP11 PUSH2 0x7FA DUP10 DUP10 DUP10 PUSH2 0x22A1 JUMP JUMPDEST SWAP10 PUSH1 0x40 MLOAD SWAP14 DUP15 PUSH2 0x2C0 DUP2 ADD SWAP1 DUP2 LT PUSH1 0x1 PUSH1 0x1 PUSH1 0x40 SHL SUB DUP3 GT OR PUSH2 0xD33 JUMPI DUP16 SWAP1 SWAP2 DUP16 DUP16 SWAP1 PUSH1 0x60 SWAP5 PUSH1 0x40 MSTORE DUP4 MSTORE PUSH1 0x20 DUP4 ADD MSTORE PUSH1 0x40 DUP3 ADD MSTORE ADD MSTORE PUSH1 0x80 DUP14 ADD MSTORE PUSH1 0xA0 DUP13 ADD MSTORE PUSH1 0xC0 DUP12 ADD MSTORE PUSH1 0xE0 DUP11 ADD MSTORE PUSH1 0xE4 CALLDATALOAD PUSH2 0x100 DUP11 ADD MSTORE PUSH2 0x120 DUP10 ADD MSTORE PUSH1 0x0 PUSH2 0x140 DUP10 ADD MSTORE PUSH2 0x160 DUP9 ADD MSTORE PUSH2 0x180 DUP8 ADD MSTORE PUSH2 0x1A0 DUP7 ADD MSTORE PUSH2 0x1C0 DUP6 ADD MSTORE PUSH1 0x0 PUSH2 0x1E0 DUP6 ADD MSTORE PUSH1 0x0 PUSH2 0x200 DUP6 ADD MSTORE PUSH1 0x5 DUP2 LT ISZERO PUSH2 0xC4E JUMPI PUSH2 0x220 DUP5 ADD MSTORE PUSH1 0x1 PUSH2 0x240 DUP5 ADD MSTORE PUSH1 0x0 PUSH2 0x260 DUP5 ADD MSTORE PUSH1 0x0 PUSH2 0x280 DUP5 ADD MSTORE PUSH1 0x0 PUSH2 0x2A0 DUP5 ADD MSTORE PUSH1 0x1 PUSH1 0x40 SHL DUP3 LT ISZERO PUSH2 0xD33 JUMPI PUSH1 0x1 DUP3 ADD PUSH1 0x1 SSTORE PUSH2 0x8CF DUP3 PUSH2 0x1D13 JUMP JUMPDEST PUSH2 0x1154 JUMPI DUP4 MLOAD DUP2 SSTORE PUSH1 0x20 DUP5 ADD MLOAD DUP1 MLOAD SWAP1 PUSH1 0x1 PUSH1 0x1 PUSH1 0x40 SHL SUB DUP3 GT PUSH2 0xD33 JUMPI DUP2 SWAP1 PUSH2 0x8FC PUSH1 0x1 DUP6 ADD SLOAD PUSH2 0x1D48 JUMP JUMPDEST PUSH1 0x1F DUP2 GT PUSH2 0x1101 JUMPI JUMPDEST POP PUSH1 0x20 SWAP1 PUSH1 0x1F DUP4 GT PUSH1 0x1 EQ PUSH2 0x1090 JUMPI PUSH1 0x0 SWAP3 PUSH2 0x1085 JUMPI JUMPDEST POP POP DUP2 PUSH1 0x1 SHL SWAP2 PUSH1 0x0 NOT SWAP1 PUSH1 0x3 SHL SHR NOT AND OR PUSH1 0x1 DUP3 ADD SSTORE JUMPDEST PUSH1 0x40 DUP5 ADD MLOAD DUP1 MLOAD SWAP1 PUSH1 0x1 PUSH1 0x1 PUSH1 0x40 SHL SUB DUP3 GT PUSH2 0xD33 JUMPI DUP2 SWAP1 PUSH2 0x959 PUSH1 0x2 DUP6 ADD SLOAD PUSH2 0x1D48 JUMP JUMPDEST PUSH1 0x1F DUP2 GT PUSH2 0x1032 JUMPI JUMPDEST POP PUSH1 0x20 SWAP1 PUSH1 0x1F DUP4 GT PUSH1 0x1 EQ PUSH2 0xFC1 JUMPI PUSH1 0x0 SWAP3 PUSH2 0xFB6 JUMPI JUMPDEST POP POP DUP2 PUSH1 0x1 SHL SWAP2 PUSH1 0x0 NOT SWAP1 PUSH1 0x3 SHL SHR NOT AND OR PUSH1 0x2 DUP3 ADD SSTORE JUMPDEST PUSH1 0x60 DUP5 ADD MLOAD DUP1 MLOAD SWAP1 PUSH1 0x1 PUSH1 0x1 PUSH1 0x40 SHL SUB DUP3 GT PUSH2 0xD33 JUMPI DUP2 SWAP1 PUSH2 0x9B6 PUSH1 0x3 DUP6 ADD SLOAD PUSH2 0x1D48 JUMP JUMPDEST PUSH1 0x1F DUP2 GT PUSH2 0xF63 JUMPI JUMPDEST POP PUSH1 0x20 SWAP1 PUSH1 0x1F DUP4 GT PUSH1 0x1 EQ PUSH2 0xEF2 JUMPI PUSH1 0x0 SWAP3 PUSH2 0xEE7 JUMPI JUMPDEST POP POP DUP2 PUSH1 0x1 SHL SWAP2 PUSH1 0x0 NOT SWAP1 PUSH1 0x3 SHL SHR NOT AND OR PUSH1 0x3 DUP3 ADD SSTORE JUMPDEST PUSH1 0x80 DUP5 ADD MLOAD DUP1 MLOAD SWAP1 PUSH1 0x1 PUSH1 0x1 PUSH1 0x40 SHL SUB DUP3 GT PUSH2 0xD33 JUMPI DUP2 SWAP1 PUSH2 0xA13 PUSH1 0x4 DUP6 ADD SLOAD PUSH2 0x1D48 JUMP JUMPDEST PUSH1 0x1F DUP2 GT PUSH2 0xE94 JUMPI JUMPDEST POP PUSH1 0x20 SWAP1 PUSH1 0x1F DUP4 GT PUSH1 0x1 EQ PUSH2 0xE23 JUMPI PUSH1 0x0 SWAP3 PUSH2 0xE18 JUMPI JUMPDEST POP POP DUP2 PUSH1 0x1 SHL SWAP2 PUSH1 0x0 NOT SWAP1 PUSH1 0x3 SHL SHR NOT AND OR PUSH1 0x4 DUP3 ADD SSTORE JUMPDEST PUSH1 0xA0 DUP5 ADD MLOAD DUP1 MLOAD SWAP1 PUSH1 0x1 PUSH1 0x1 PUSH1 0x40 SHL SUB DUP3 GT PUSH2 0xD33 JUMPI DUP2 SWAP1 PUSH2 0xA70 PUSH1 0x5 DUP6 ADD SLOAD PUSH2 0x1D48 JUMP JUMPDEST PUSH1 0x1F DUP2 GT PUSH2 0xDC5 JUMPI JUMPDEST POP PUSH1 0x20 SWAP1 PUSH1 0x1F DUP4 GT PUSH1 0x1 EQ PUSH2 0xD54 JUMPI PUSH1 0x0 SWAP3 PUSH2 0xD49 JUMPI JUMPDEST POP POP DUP2 PUSH1 0x1 SHL SWAP2 PUSH1 0x0 NOT SWAP1 PUSH1 0x3 SHL SHR NOT AND OR PUSH1 0x5 DUP3 ADD SSTORE JUMPDEST PUSH1 0xC0 DUP5 ADD MLOAD DUP1 MLOAD SWAP1 PUSH1 0x1 PUSH1 0x1 PUSH1 0x40 SHL SUB DUP3 GT PUSH2 0xD33 JUMPI DUP2 SWAP1 PUSH2 0xACD PUSH1 0x6 DUP6 ADD SLOAD PUSH2 0x1D48 JUMP JUMPDEST PUSH1 0x1F DUP2 GT PUSH2 0xCE0 JUMPI JUMPDEST POP PUSH1 0x20 SWAP1 PUSH1 0x1F DUP4 GT PUSH1 0x1 EQ PUSH2 0xC6F JUMPI PUSH1 0x0 SWAP3 PUSH2 0xC64 JUMPI JUMPDEST POP POP DUP2 PUSH1 0x1 SHL SWAP2 PUSH1 0x0 NOT SWAP1 PUSH1 0x3 SHL SHR NOT AND OR PUSH1 0x6 DUP3 ADD SSTORE JUMPDEST PUSH1 0xE0 DUP5 ADD MLOAD PUSH1 0x7 DUP3 ADD DUP1 SLOAD PUSH1 0x1 PUSH1 0x1 PUSH1 0xA0 SHL SUB NOT AND PUSH1 0x1 PUSH1 0x1 PUSH1 0xA0 SHL SUB SWAP3 SWAP1 SWAP3 AND SWAP2 SWAP1 SWAP2 OR SWAP1 SSTORE PUSH2 0x100 DUP5 ADD MLOAD PUSH1 0x8 DUP3 ADD SSTORE PUSH2 0x120 DUP5 ADD MLOAD PUSH1 0x9 DUP3 ADD SSTORE PUSH2 0x140 DUP5 ADD MLOAD PUSH1 0xA DUP3 ADD SSTORE PUSH2 0x160 DUP5 ADD MLOAD PUSH1 0xB DUP3 ADD SSTORE PUSH2 0x180 DUP5 ADD MLOAD PUSH1 0xC DUP3 ADD SSTORE PUSH2 0x1A0 DUP5 ADD MLOAD PUSH1 0xD DUP3 ADD SSTORE PUSH2 0x1C0 DUP5 ADD MLOAD PUSH1 0xE DUP3 ADD SSTORE PUSH2 0x1E0 DUP5 ADD MLOAD PUSH1 0xF DUP3 ADD SSTORE PUSH2 0x200 DUP5 ADD MLOAD PUSH1 0x10 DUP3 ADD SSTORE PUSH2 0x220 DUP5 ADD MLOAD SWAP2 PUSH1 0x11 DUP3 ADD SWAP2 SWAP1 PUSH1 0x5 DUP5 LT ISZERO PUSH2 0xC4E JUMPI PUSH1 0x20 SWAP6 PUSH2 0x2A0 PUSH1 0x14 PUSH2 0xC43 SWAP5 PUSH2 0xC03 PUSH32 0xED06D1E70F1FAA0E1750DEF1B3A1D942390A8F47D03679C9025A1C38DC34FE7B SWAP8 DUP11 SWAP10 PUSH1 0xFF DUP1 NOT DUP4 SLOAD AND SWAP2 AND OR DUP2 SSTORE PUSH2 0x240 DUP7 ADD MLOAD ISZERO ISZERO PUSH2 0xFF00 DUP3 SLOAD SWAP2 ISZERO ISZERO PUSH1 0x8 SHL AND SWAP1 PUSH2 0xFF00 NOT AND OR SWAP1 SSTORE JUMP JUMPDEST PUSH2 0x260 DUP5 ADD MLOAD PUSH1 0x12 DUP3 ADD SSTORE PUSH2 0x280 DUP5 ADD MLOAD PUSH1 0x13 DUP3 ADD SSTORE ADD SWAP2 ADD MLOAD ISZERO ISZERO PUSH1 0xFF DUP1 NOT DUP4 SLOAD AND SWAP2 AND OR SWAP1 SSTORE PUSH1 0x1 SLOAD PUSH1 0x2 SSTORE PUSH1 0x40 MLOAD SWAP2 DUP3 SWAP2 DUP8 DUP4 MSTORE DUP8 DUP4 ADD SWAP1 PUSH2 0x1E47 JUMP JUMPDEST SUB SWAP1 LOG2 PUSH1 0x40 MLOAD SWAP1 DUP2 MSTORE RETURN JUMPDEST PUSH4 0x4E487B71 PUSH1 0xE0 SHL PUSH1 0x0 MSTORE PUSH1 0x21 PUSH1 0x4 MSTORE PUSH1 0x24 PUSH1 0x0 REVERT JUMPDEST ADD MLOAD SWAP1 POP DUP7 DUP1 PUSH2 0xAED JUMP JUMPDEST SWAP3 POP PUSH1 0x6 DUP5 ADD PUSH1 0x0 MSTORE DUP1 PUSH1 0x0 KECCAK256 SWAP1 PUSH1 0x0 SWAP4 JUMPDEST PUSH1 0x1F NOT DUP5 AND DUP6 LT PUSH2 0xCC5 JUMPI PUSH1 0x1 SWAP5 POP DUP4 PUSH1 0x1F NOT DUP2 AND LT PUSH2 0xCAC JUMPI JUMPDEST POP POP POP DUP2 SHL ADD PUSH1 0x6 DUP3 ADD SSTORE PUSH2 0xB05 JUMP JUMPDEST ADD MLOAD PUSH1 0x0 NOT PUSH1 0xF8 DUP5 PUSH1 0x3 SHL AND SHR NOT AND SWAP1 SSTORE DUP7 DUP1 DUP1 PUSH2 0xC9C JUMP JUMPDEST DUP2 DUP2 ADD MLOAD DUP4 SSTORE PUSH1 0x20 SWAP5 DUP6 ADD SWAP5 PUSH1 0x1 SWAP1 SWAP4 ADD SWAP3 SWAP1 SWAP2 ADD SWAP1 PUSH2 0xC81 JUMP JUMPDEST SWAP1 SWAP2 POP PUSH1 0x6 DUP5 ADD PUSH1 0x0 MSTORE PUSH1 0x20 PUSH1 0x0 KECCAK256 PUSH1 0x1F DUP5 ADD PUSH1 0x5 SHR DUP2 ADD PUSH1 0x20 DUP6 LT PUSH2 0xD2C JUMPI JUMPDEST SWAP1 DUP5 SWAP4 SWAP3 SWAP2 JUMPDEST PUSH1 0x1F DUP4 ADD PUSH1 0x5 SHR DUP3 ADD DUP2 LT PUSH2 0xD1D JUMPI POP POP PUSH2 0xAD6 JUMP JUMPDEST PUSH1 0x0 DUP2 SSTORE DUP6 SWAP5 POP PUSH1 0x1 ADD PUSH2 0xD07 JUMP JUMPDEST POP DUP1 PUSH2 0xD01 JUMP JUMPDEST PUSH4 0x4E487B71 PUSH1 0xE0 SHL PUSH1 0x0 MSTORE PUSH1 0x41 PUSH1 0x4 MSTORE PUSH1 0x24 PUSH1 0x0 REVERT JUMPDEST ADD MLOAD SWAP1 POP DUP7 DUP1 PUSH2 0xA90 JUMP JUMPDEST SWAP3 POP PUSH1 0x5 DUP5 ADD PUSH1 0x0 MSTORE DUP1 PUSH1 0x0 KECCAK256 SWAP1 PUSH1 0x0 SWAP4 JUMPDEST PUSH1 0x1F NOT DUP5 AND DUP6 LT PUSH2 0xDAA JUMPI PUSH1 0x1 SWAP5 POP DUP4 PUSH1 0x1F NOT DUP2 AND LT PUSH2 0xD91 JUMPI JUMPDEST POP POP POP DUP2 SHL ADD PUSH1 0x5 DUP3 ADD SSTORE PUSH2 0xAA8 JUMP JUMPDEST ADD MLOAD PUSH1 0x0 NOT PUSH1 0xF8 DUP5 PUSH1 0x3 SHL AND SHR NOT AND SWAP1 SSTORE DUP7 DUP1 DUP1 PUSH2 0xD81 JUMP JUMPDEST DUP2 DUP2 ADD MLOAD DUP4 SSTORE PUSH1 0x20 SWAP5 DUP6 ADD SWAP5 PUSH1 0x1 SWAP1 SWAP4 ADD SWAP3 SWAP1 SWAP2 ADD SWAP1 PUSH2 0xD66 JUMP JUMPDEST SWAP1 SWAP2 POP PUSH1 0x5 DUP5 ADD PUSH1 0x0 MSTORE PUSH1 0x20 PUSH1 0x0 KECCAK256 PUSH1 0x1F DUP5 ADD PUSH1 0x5 SHR DUP2 ADD PUSH1 0x20 DUP6 LT PUSH2 0xE11 JUMPI JUMPDEST SWAP1 DUP5 SWAP4 SWAP3 SWAP2 JUMPDEST PUSH1 0x1F DUP4 ADD PUSH1 0x5 SHR DUP3 ADD DUP2 LT PUSH2 0xE02 JUMPI POP POP PUSH2 0xA79 JUMP JUMPDEST PUSH1 0x0 DUP2 SSTORE DUP6 SWAP5 POP PUSH1 0x1 ADD PUSH2 0xDEC JUMP JUMPDEST POP DUP1 PUSH2 0xDE6 JUMP JUMPDEST ADD MLOAD SWAP1 POP DUP7 DUP1 PUSH2 0xA33 JUMP JUMPDEST SWAP3 POP PUSH1 0x4 DUP5 ADD PUSH1 0x0 MSTORE DUP1 PUSH1 0x0 KECCAK256 SWAP1 PUSH1 0x0 SWAP4 JUMPDEST PUSH1 0x1F NOT DUP5 AND DUP6 LT PUSH2 0xE79 JUMPI PUSH1 0x1 SWAP5 POP DUP4 PUSH1 0x1F NOT DUP2 AND LT PUSH2 0xE60 JUMPI JUMPDEST POP POP POP DUP2 SHL ADD PUSH1 0x4 DUP3 ADD SSTORE PUSH2 0xA4B JUMP JUMPDEST ADD MLOAD PUSH1 0x0 NOT PUSH1 0xF8 DUP5 PUSH1 0x3 SHL AND SHR NOT AND SWAP1 SSTORE DUP7 DUP1 DUP1 PUSH2 0xE50 JUMP JUMPDEST DUP2 DUP2 ADD MLOAD DUP4 SSTORE PUSH1 0x20 SWAP5 DUP6 ADD SWAP5 PUSH1 0x1 SWAP1 SWAP4 ADD SWAP3 SWAP1 SWAP2 ADD SWAP1 PUSH2 0xE35 JUMP JUMPDEST SWAP1 SWAP2 POP PUSH1 0x4 DUP5 ADD PUSH1 0x0 MSTORE PUSH1 0x20 PUSH1 0x0 KECCAK256 PUSH1 0x1F DUP5 ADD PUSH1 0x5 SHR DUP2 ADD PUSH1 0x20 DUP6 LT PUSH2 0xEE0 JUMPI JUMPDEST SWAP1 DUP5 SWAP4 SWAP3 SWAP2 JUMPDEST PUSH1 0x1F DUP4 ADD PUSH1 0x5 SHR DUP3 ADD DUP2 LT PUSH2 0xED1 JUMPI POP POP PUSH2 0xA1C JUMP JUMPDEST PUSH1 0x0 DUP2 SSTORE DUP6 SWAP5 POP PUSH1 0x1 ADD PUSH2 0xEBB JUMP JUMPDEST POP DUP1 PUSH2 0xEB5 JUMP JUMPDEST ADD MLOAD SWAP1 POP DUP7 DUP1 PUSH2 0x9D6 JUMP JUMPDEST SWAP3 POP PUSH1 0x3 DUP5 ADD PUSH1 0x0 MSTORE DUP1 PUSH1 0x0 KECCAK256 SWAP1 PUSH1 0x0 SWAP4 JUMPDEST PUSH1 0x1F NOT DUP5 AND DUP6 LT PUSH2 0xF48 JUMPI PUSH1 0x1 SWAP5 POP DUP4 PUSH1 0x1F NOT DUP2 AND LT PUSH2 0xF2F JUMPI JUMPDEST POP POP POP DUP2 SHL ADD PUSH1 0x3 DUP3 ADD SSTORE PUSH2 0x9EE JUMP JUMPDEST ADD MLOAD PUSH1 0x0 NOT PUSH1 0xF8 DUP5 PUSH1 0x3 SHL AND SHR NOT AND SWAP1 SSTORE DUP7 DUP1 DUP1 PUSH2 0xF1F JUMP JUMPDEST DUP2 DUP2 ADD MLOAD DUP4 SSTORE PUSH1 0x20 SWAP5 DUP6 ADD SWAP5 PUSH1 0x1 SWAP1 SWAP4 ADD SWAP3 SWAP1 SWAP2 ADD SWAP1 PUSH2 0xF04 JUMP JUMPDEST SWAP1 SWAP2 POP PUSH1 0x3 DUP5 ADD PUSH1 0x0 MSTORE PUSH1 0x20 PUSH1 0x0 KECCAK256 PUSH1 0x1F DUP5 ADD PUSH1 0x5 SHR DUP2 ADD PUSH1 0x20 DUP6 LT PUSH2 0xFAF JUMPI JUMPDEST SWAP1 DUP5 SWAP4 SWAP3 SWAP2 JUMPDEST PUSH1 0x1F DUP4 ADD PUSH1 0x5 SHR DUP3 ADD DUP2 LT PUSH2 0xFA0 JUMPI POP POP PUSH2 0x9BF JUMP JUMPDEST PUSH1 0x0 DUP2 SSTORE DUP6 SWAP5 POP PUSH1 0x1 ADD PUSH2 0xF8A JUMP JUMPDEST POP DUP1 PUSH2 0xF84 JUMP JUMPDEST ADD MLOAD SWAP1 POP DUP7 DUP1 PUSH2 0x979 JUMP JUMPDEST SWAP3 POP PUSH1 0x2 DUP5 ADD PUSH1 0x0 MSTORE DUP1 PUSH1 0x0 KECCAK256 SWAP1 PUSH1 0x0 SWAP4 JUMPDEST PUSH1 0x1F NOT DUP5 AND DUP6 LT PUSH2 0x1017 JUMPI PUSH1 0x1 SWAP5 POP DUP4 PUSH1 0x1F NOT DUP2 AND LT PUSH2 0xFFE JUMPI JUMPDEST POP POP POP DUP2 SHL ADD PUSH1 0x2 DUP3 ADD SSTORE PUSH2 0x991 JUMP JUMPDEST ADD MLOAD PUSH1 0x0 NOT PUSH1 0xF8 DUP5 PUSH1 0x3 SHL AND SHR NOT AND SWAP1 SSTORE DUP7 DUP1 DUP1 PUSH2 0xFEE JUMP JUMPDEST DUP2 DUP2 ADD MLOAD DUP4 SSTORE PUSH1 0x20 SWAP5 DUP6 ADD SWAP5 PUSH1 0x1 SWAP1 SWAP4 ADD SWAP3 SWAP1 SWAP2 ADD SWAP1 PUSH2 0xFD3 JUMP JUMPDEST SWAP1 SWAP2 POP PUSH1 0x2 DUP5 ADD PUSH1 0x0 MSTORE PUSH1 0x20 PUSH1 0x0 KECCAK256 PUSH1 0x1F DUP5 ADD PUSH1 0x5 SHR DUP2 ADD PUSH1 0x20 DUP6 LT PUSH2 0x107E JUMPI JUMPDEST SWAP1 DUP5 SWAP4 SWAP3 SWAP2 JUMPDEST PUSH1 0x1F DUP4 ADD PUSH1 0x5 SHR DUP3 ADD DUP2 LT PUSH2 0x106F JUMPI POP POP PUSH2 0x962 JUMP JUMPDEST PUSH1 0x0 DUP2 SSTORE DUP6 SWAP5 POP PUSH1 0x1 ADD PUSH2 0x1059 JUMP JUMPDEST POP DUP1 PUSH2 0x1053 JUMP JUMPDEST ADD MLOAD SWAP1 POP DUP7 DUP1 PUSH2 0x91C JUMP JUMPDEST SWAP3 POP PUSH1 0x1 DUP5 ADD PUSH1 0x0 MSTORE DUP1 PUSH1 0x0 KECCAK256 SWAP1 PUSH1 0x0 SWAP4 JUMPDEST PUSH1 0x1F NOT DUP5 AND DUP6 LT PUSH2 0x10E6 JUMPI PUSH1 0x1 SWAP5 POP DUP4 PUSH1 0x1F NOT DUP2 AND LT PUSH2 0x10CD JUMPI JUMPDEST POP POP POP DUP2 SHL ADD PUSH1 0x1 DUP3 ADD SSTORE PUSH2 0x934 JUMP JUMPDEST ADD MLOAD PUSH1 0x0 NOT PUSH1 0xF8 DUP5 PUSH1 0x3 SHL AND SHR NOT AND SWAP1 SSTORE DUP7 DUP1 DUP1 PUSH2 0x10BD JUMP JUMPDEST DUP2 DUP2 ADD MLOAD DUP4 SSTORE PUSH1 0x20 SWAP5 DUP6 ADD SWAP5 PUSH1 0x1 SWAP1 SWAP4 ADD SWAP3 SWAP1 SWAP2 ADD SWAP1 PUSH2 0x10A2 JUMP JUMPDEST SWAP1 SWAP2 POP PUSH1 0x1 DUP5 ADD PUSH1 0x0 MSTORE PUSH1 0x20 PUSH1 0x0 KECCAK256 PUSH1 0x1F DUP5 ADD PUSH1 0x5 SHR DUP2 ADD PUSH1 0x20 DUP6 LT PUSH2 0x114D JUMPI JUMPDEST SWAP1 DUP5 SWAP4 SWAP3 SWAP2 JUMPDEST PUSH1 0x1F DUP4 ADD PUSH1 0x5 SHR DUP3 ADD DUP2 LT PUSH2 0x113E JUMPI POP POP PUSH2 0x905 JUMP JUMPDEST PUSH1 0x0 DUP2 SSTORE DUP6 SWAP5 POP PUSH1 0x1 ADD PUSH2 0x1128 JUMP JUMPDEST POP DUP1 PUSH2 0x1122 JUMP JUMPDEST PUSH4 0x4E487B71 PUSH1 0xE0 SHL PUSH1 0x0 MSTORE PUSH1 0x0 PUSH1 0x4 MSTORE PUSH1 0x24 PUSH1 0x0 REVERT JUMPDEST PUSH1 0x40 MLOAD PUSH3 0x461BCD PUSH1 0xE5 SHL DUP2 MSTORE PUSH1 0x20 PUSH1 0x4 DUP3 ADD MSTORE PUSH1 0x14 PUSH1 0x24 DUP3 ADD MSTORE PUSH20 0x141C9BDA9958DD081CDD185C9D080F0F48195B99 PUSH1 0x62 SHL PUSH1 0x44 DUP3 ADD MSTORE PUSH1 0x64 SWAP1 REVERT JUMPDEST PUSH1 0x40 MLOAD PUSH3 0x461BCD PUSH1 0xE5 SHL DUP2 MSTORE PUSH1 0x20 PUSH1 0x4 DUP3 ADD MSTORE PUSH1 0xF PUSH1 0x24 DUP3 ADD MSTORE PUSH15 0x1253D0C81CDD185C9D080F08195B99 PUSH1 0x8A SHL PUSH1 0x44 DUP3 ADD MSTORE PUSH1 0x64 SWAP1 REVERT JUMPDEST SWAP7 POP TIMESTAMP SWAP6 POP PUSH3 0x278D00 DUP7 ADD DUP1 DUP8 GT PUSH2 0x11F5 JUMPI SWAP7 PUSH2 0x7DC JUMP JUMPDEST PUSH4 0x4E487B71 PUSH1 0xE0 SHL PUSH1 0x0 MSTORE PUSH1 0x11 PUSH1 0x4 MSTORE PUSH1 0x24 PUSH1 0x0 REVERT JUMPDEST SWAP1 POP ISZERO DUP14 PUSH2 0x7D6 JUMP JUMPDEST SWAP7 POP TIMESTAMP SWAP6 POP PUSH3 0x76A700 DUP7 ADD DUP1 DUP8 GT PUSH2 0x11F5 JUMPI SWAP7 PUSH2 0x7CE JUMP JUMPDEST SWAP1 POP ISZERO DUP16 PUSH2 0x7C8 JUMP JUMPDEST PUSH1 0x40 MLOAD PUSH3 0x461BCD PUSH1 0xE5 SHL DUP2 MSTORE PUSH1 0x20 PUSH1 0x4 DUP3 ADD MSTORE PUSH1 0x10 PUSH1 0x24 DUP3 ADD MSTORE PUSH16 0x476F616C206D757374206265203E203 PUSH1 0x84 SHL PUSH1 0x44 DUP3 ADD MSTORE PUSH1 0x64 SWAP1 REVERT JUMPDEST PUSH1 0x40 MLOAD PUSH3 0x461BCD PUSH1 0xE5 SHL DUP2 MSTORE PUSH1 0x20 PUSH1 0x4 DUP3 ADD MSTORE PUSH1 0xE PUSH1 0x24 DUP3 ADD MSTORE PUSH14 0x151A5D1B19481C995C5D5A5C9959 PUSH1 0x92 SHL PUSH1 0x44 DUP3 ADD MSTORE PUSH1 0x64 SWAP1 REVERT JUMPDEST CALLVALUE PUSH2 0x1E1 JUMPI PUSH1 0x0 CALLDATASIZE PUSH1 0x3 NOT ADD SLT PUSH2 0x1E1 JUMPI PUSH1 0x0 SLOAD PUSH1 0x40 MLOAD PUSH1 0x1 PUSH1 0x1 PUSH1 0xA0 SHL SUB SWAP1 SWAP2 AND DUP2 MSTORE PUSH1 0x20 SWAP1 RETURN JUMPDEST CALLVALUE PUSH2 0x1E1 JUMPI PUSH1 0x40 CALLDATASIZE PUSH1 0x3 NOT ADD SLT PUSH2 0x1E1 JUMPI PUSH2 0x12E5 PUSH2 0x1EEA JUMP JUMPDEST PUSH1 0x4 CALLDATALOAD PUSH1 0x0 MSTORE PUSH1 0x6 PUSH1 0x20 MSTORE PUSH1 0x40 PUSH1 0x0 KECCAK256 SWAP1 PUSH1 0x1 DUP1 PUSH1 0xA0 SHL SUB AND PUSH1 0x0 MSTORE PUSH1 0x20 MSTORE PUSH1 0x20 PUSH1 0xFF PUSH1 0x40 PUSH1 0x0 KECCAK256 SLOAD AND PUSH1 0x40 MLOAD SWAP1 ISZERO ISZERO DUP2 MSTORE RETURN JUMPDEST CALLVALUE PUSH2 0x1E1 JUMPI PUSH1 0x40 CALLDATASIZE PUSH1 0x3 NOT ADD SLT PUSH2 0x1E1 JUMPI PUSH2 0x1332 PUSH2 0x1EEA JUMP JUMPDEST PUSH1 0x4 CALLDATALOAD PUSH1 0x0 MSTORE PUSH1 0x4 PUSH1 0x20 MSTORE PUSH1 0x40 PUSH1 0x0 KECCAK256 SWAP1 PUSH1 0x1 DUP1 PUSH1 0xA0 SHL SUB AND PUSH1 0x0 MSTORE PUSH1 0x20 MSTORE PUSH1 0x20 PUSH1 0x40 PUSH1 0x0 KECCAK256 SLOAD PUSH1 0x40 MLOAD SWAP1 DUP2 MSTORE RETURN JUMPDEST CALLVALUE PUSH2 0x1E1 JUMPI PUSH1 0x20 CALLDATASIZE PUSH1 0x3 NOT ADD SLT PUSH2 0x1E1 JUMPI PUSH1 0x4 CALLDATALOAD PUSH2 0x1382 PUSH1 0x1 SLOAD DUP3 LT PUSH2 0x1F2A JUMP JUMPDEST PUSH1 0x0 MSTORE PUSH1 0x3 PUSH1 0x20 MSTORE PUSH1 0x20 PUSH1 0x40 PUSH1 0x0 KECCAK256 SLOAD PUSH1 0x40 MLOAD SWAP1 DUP2 MSTORE RETURN JUMPDEST CALLVALUE PUSH2 0x1E1 JUMPI PUSH1 0x40 CALLDATASIZE PUSH1 0x3 NOT ADD SLT PUSH2 0x1E1 JUMPI PUSH1 0x4 CALLDATALOAD PUSH1 0x24 CALLDATALOAD PUSH2 0x13BE PUSH1 0x1 SLOAD DUP4 LT PUSH2 0x1F2A JUMP JUMPDEST DUP2 PUSH1 0x0 MSTORE PUSH1 0x3 PUSH1 0x20 MSTORE PUSH1 0x40 PUSH1 0x0 KECCAK256 SLOAD DUP2 LT ISZERO PUSH2 0x143A JUMPI PUSH2 0x13EA SWAP2 PUSH1 0x0 MSTORE PUSH1 0x3 PUSH1 0x20 MSTORE PUSH1 0x40 PUSH1 0x0 KECCAK256 PUSH2 0x20A7 JUMP JUMPDEST POP PUSH1 0x1 DUP1 PUSH1 0xA0 SHL SUB DUP2 SLOAD AND PUSH1 0xFF PUSH1 0x2 DUP4 ADD SLOAD AND PUSH2 0x140E PUSH1 0x1 PUSH1 0x3 DUP6 ADD SLOAD SWAP5 ADD PUSH2 0x1DA3 JUMP JUMPDEST SWAP3 PUSH2 0x142B PUSH1 0x40 MLOAD SWAP5 DUP6 SWAP5 DUP6 MSTORE PUSH1 0x80 PUSH1 0x20 DUP7 ADD MSTORE PUSH1 0x80 DUP6 ADD SWAP1 PUSH2 0x1E47 JUMP JUMPDEST SWAP2 PUSH1 0x40 DUP5 ADD MSTORE PUSH1 0x60 DUP4 ADD MSTORE SUB SWAP1 RETURN JUMPDEST PUSH1 0x40 MLOAD PUSH3 0x461BCD PUSH1 0xE5 SHL DUP2 MSTORE PUSH1 0x20 PUSH1 0x4 DUP3 ADD MSTORE PUSH1 0xD PUSH1 0x24 DUP3 ADD MSTORE PUSH13 0x92DCECC2D8D2C840D2DCC8CAF PUSH1 0x9B SHL PUSH1 0x44 DUP3 ADD MSTORE PUSH1 0x64 SWAP1 REVERT JUMPDEST CALLVALUE PUSH2 0x1E1 JUMPI PUSH1 0x60 CALLDATASIZE PUSH1 0x3 NOT ADD SLT PUSH2 0x1E1 JUMPI PUSH1 0x4 CALLDATALOAD PUSH1 0x24 CALLDATALOAD PUSH1 0x1 PUSH1 0x1 PUSH1 0x40 SHL SUB DUP2 GT PUSH2 0x1E1 JUMPI PUSH2 0x14A2 SWAP1 CALLDATASIZE SWAP1 PUSH1 0x4 ADD PUSH2 0x1EA3 JUMP JUMPDEST PUSH1 0x44 CALLDATALOAD SWAP2 PUSH1 0xFF DUP4 AND DUP1 SWAP4 SUB PUSH2 0x1E1 JUMPI PUSH2 0x14BE PUSH1 0x1 SLOAD DUP3 LT PUSH2 0x1F2A JUMP JUMPDEST DUP2 MLOAD ISZERO PUSH2 0x1756 JUMPI PUSH1 0x1 DUP4 LT ISZERO DUP1 PUSH2 0x174B JUMPI JUMPDEST ISZERO PUSH2 0x1711 JUMPI PUSH2 0x14F1 PUSH1 0xFF PUSH1 0x11 PUSH2 0x14E5 DUP5 PUSH2 0x1D13 JUMP JUMPDEST POP ADD SLOAD PUSH1 0x8 SHR AND PUSH2 0x1F68 JUMP JUMPDEST DUP1 PUSH1 0x0 MSTORE PUSH1 0x3 PUSH1 0x20 MSTORE PUSH1 0x40 PUSH1 0x0 KECCAK256 SWAP3 PUSH1 0x40 MLOAD PUSH1 0x80 DUP2 ADD DUP2 DUP2 LT PUSH1 0x1 PUSH1 0x1 PUSH1 0x40 SHL SUB DUP3 GT OR PUSH2 0xD33 JUMPI PUSH1 0x40 MSTORE CALLER DUP2 MSTORE PUSH1 0x20 DUP2 ADD SWAP5 DUP5 DUP7 MSTORE PUSH1 0x40 DUP3 ADD DUP4 DUP2 MSTORE PUSH1 0x60 DUP4 ADD SWAP2 TIMESTAMP DUP4 MSTORE DUP1 SLOAD PUSH1 0x1 PUSH1 0x40 SHL DUP2 LT ISZERO PUSH2 0xD33 JUMPI PUSH2 0x1553 SWAP2 PUSH1 0x1 DUP3 ADD DUP2 SSTORE PUSH2 0x20A7 JUMP JUMPDEST SWAP4 SWAP1 SWAP4 PUSH2 0x1154 JUMPI MLOAD DUP4 SLOAD PUSH1 0x1 PUSH1 0x1 PUSH1 0xA0 SHL SUB NOT AND PUSH1 0x1 PUSH1 0x1 PUSH1 0xA0 SHL SUB SWAP2 SWAP1 SWAP2 AND OR DUP4 SSTORE SWAP6 MLOAD DUP1 MLOAD SWAP1 SWAP7 SWAP1 PUSH1 0x1 DUP5 ADD SWAP1 PUSH1 0x1 PUSH1 0x1 PUSH1 0x40 SHL SUB DUP2 GT PUSH2 0xD33 JUMPI PUSH2 0x159A DUP3 SLOAD PUSH2 0x1D48 JUMP JUMPDEST PUSH1 0x1F DUP2 GT PUSH2 0x16C9 JUMPI JUMPDEST POP PUSH1 0x20 PUSH1 0x1F DUP3 GT PUSH1 0x1 EQ PUSH2 0x163C JUMPI SWAP1 DUP1 PUSH1 0x3 SWAP6 SWAP5 SWAP4 SWAP3 PUSH32 0x75AF7A249FD33F32DA5AEBDF42415CF43A79F1A958CB5D25980D825BB6C4A541 SWAP10 SWAP11 SWAP12 PUSH1 0x0 SWAP3 PUSH2 0x1631 JUMPI JUMPDEST POP POP DUP2 PUSH1 0x1 SHL SWAP2 PUSH1 0x0 NOT SWAP1 DUP8 SHL SHR NOT AND OR SWAP1 SSTORE JUMPDEST PUSH1 0xFF PUSH1 0x2 DUP6 ADD SWAP2 MLOAD AND PUSH1 0xFF NOT DUP3 SLOAD AND OR SWAP1 SSTORE MLOAD SWAP2 ADD SSTORE PUSH1 0x40 MLOAD SWAP1 DUP2 MSTORE PUSH1 0x40 PUSH1 0x20 DUP3 ADD MSTORE DUP1 PUSH2 0x162C CALLER SWAP6 PUSH1 0x40 DUP4 ADD SWAP1 PUSH2 0x1E47 JUMP JUMPDEST SUB SWAP1 LOG3 STOP JUMPDEST ADD MLOAD SWAP1 POP DUP12 DUP1 PUSH2 0x15E5 JUMP JUMPDEST PUSH1 0x1F NOT DUP3 AND SWAP10 DUP4 PUSH1 0x0 MSTORE DUP2 PUSH1 0x0 KECCAK256 SWAP11 PUSH1 0x0 JUMPDEST DUP2 DUP2 LT PUSH2 0x16B1 JUMPI POP SWAP11 PUSH1 0x1 SWAP3 DUP5 SWAP3 PUSH1 0x3 SWAP9 SWAP8 SWAP7 SWAP6 PUSH32 0x75AF7A249FD33F32DA5AEBDF42415CF43A79F1A958CB5D25980D825BB6C4A541 SWAP13 SWAP14 SWAP15 LT PUSH2 0x1699 JUMPI JUMPDEST POP POP POP DUP2 SHL ADD SWAP1 SSTORE PUSH2 0x15F9 JUMP JUMPDEST ADD MLOAD PUSH1 0x0 NOT DUP4 DUP10 SHL PUSH1 0xF8 AND SHR NOT AND SWAP1 SSTORE DUP12 DUP1 DUP1 PUSH2 0x168C JUMP JUMPDEST DUP4 DUP4 ADD MLOAD DUP14 SSTORE PUSH1 0x1 SWAP1 SWAP13 ADD SWAP12 PUSH1 0x20 SWAP4 DUP5 ADD SWAP4 ADD PUSH2 0x164E JUMP JUMPDEST DUP3 PUSH1 0x0 MSTORE PUSH1 0x20 PUSH1 0x0 KECCAK256 PUSH1 0x1F DUP4 ADD PUSH1 0x5 SHR DUP2 ADD SWAP2 PUSH1 0x20 DUP5 LT PUSH2 0x1707 JUMPI JUMPDEST PUSH1 0x1F ADD PUSH1 0x5 SHR ADD SWAP1 JUMPDEST DUP2 DUP2 LT PUSH2 0x16FB JUMPI POP PUSH2 0x15A3 JUMP JUMPDEST PUSH1 0x0 DUP2 SSTORE PUSH1 0x1 ADD PUSH2 0x16EE JUMP JUMPDEST SWAP1 SWAP2 POP DUP2 SWAP1 PUSH2 0x16E5 JUMP JUMPDEST PUSH1 0x40 MLOAD PUSH3 0x461BCD PUSH1 0xE5 SHL DUP2 MSTORE PUSH1 0x20 PUSH1 0x4 DUP3 ADD MSTORE PUSH1 0x12 PUSH1 0x24 DUP3 ADD MSTORE PUSH18 0x526174696E67206D75737420626520312D35 PUSH1 0x70 SHL PUSH1 0x44 DUP3 ADD MSTORE PUSH1 0x64 SWAP1 REVERT JUMPDEST POP PUSH1 0x5 DUP4 GT ISZERO PUSH2 0x14D0 JUMP JUMPDEST PUSH1 0x40 MLOAD PUSH3 0x461BCD PUSH1 0xE5 SHL DUP2 MSTORE PUSH1 0x20 PUSH1 0x4 DUP3 ADD MSTORE PUSH1 0x10 PUSH1 0x24 DUP3 ADD MSTORE PUSH16 0x10DBDB9D195B9D081C995C5D5A5C9959 PUSH1 0x82 SHL PUSH1 0x44 DUP3 ADD MSTORE PUSH1 0x64 SWAP1 REVERT JUMPDEST CALLVALUE PUSH2 0x1E1 JUMPI PUSH1 0x0 CALLDATASIZE PUSH1 0x3 NOT ADD SLT PUSH2 0x1E1 JUMPI PUSH1 0x20 PUSH1 0x2 SLOAD PUSH1 0x40 MLOAD SWAP1 DUP2 MSTORE RETURN JUMPDEST CALLVALUE PUSH2 0x1E1 JUMPI PUSH1 0x40 CALLDATASIZE PUSH1 0x3 NOT ADD SLT PUSH2 0x1E1 JUMPI PUSH1 0x4 CALLDATALOAD PUSH1 0x24 CALLDATALOAD DUP1 ISZERO ISZERO DUP2 SUB PUSH2 0x1E1 JUMPI PUSH1 0x11 PUSH2 0x180C PUSH2 0x1826 SWAP4 PUSH2 0x17EA PUSH1 0x1 DUP1 PUSH1 0xA0 SHL SUB PUSH1 0x0 SLOAD AND CALLER EQ PUSH2 0x206E JUMP JUMPDEST PUSH2 0x17F7 PUSH1 0x1 SLOAD DUP3 LT PUSH2 0x1F2A JUMP JUMPDEST PUSH2 0x1807 PUSH1 0xFF PUSH1 0x14 PUSH2 0x273 DUP5 PUSH2 0x1D13 JUMP JUMPDEST PUSH2 0x1D13 JUMP JUMPDEST POP ADD SWAP1 PUSH2 0xFF00 DUP3 SLOAD SWAP2 ISZERO ISZERO PUSH1 0x8 SHL AND SWAP1 PUSH2 0xFF00 NOT AND OR SWAP1 SSTORE JUMP JUMPDEST STOP JUMPDEST CALLVALUE PUSH2 0x1E1 JUMPI PUSH1 0x20 CALLDATASIZE PUSH1 0x3 NOT ADD SLT PUSH2 0x1E1 JUMPI PUSH1 0x4 CALLDATALOAD PUSH2 0x1849 PUSH1 0x1 SLOAD DUP3 LT PUSH2 0x1F2A JUMP JUMPDEST PUSH2 0x188F PUSH2 0x1855 DUP3 PUSH2 0x1D13 JUMP JUMPDEST POP PUSH2 0x1869 PUSH1 0xFF PUSH1 0x11 DUP4 ADD SLOAD PUSH1 0x8 SHR AND PUSH2 0x1F68 JUMP JUMPDEST PUSH2 0x187A PUSH1 0xFF PUSH1 0x14 DUP4 ADD SLOAD AND ISZERO PUSH2 0x1FA7 JUMP JUMPDEST PUSH1 0xD DUP2 ADD SLOAD TIMESTAMP LT ISZERO SWAP1 DUP2 PUSH2 0x191F JUMPI JUMPDEST POP PUSH2 0x2030 JUMP JUMPDEST PUSH1 0x0 DUP2 DUP2 MSTORE PUSH1 0x6 PUSH1 0x20 SWAP1 DUP2 MSTORE PUSH1 0x40 DUP1 DUP4 KECCAK256 CALLER DUP5 MSTORE SWAP1 SWAP2 MSTORE SWAP1 KECCAK256 SLOAD PUSH2 0x18B6 SWAP1 PUSH1 0xFF AND ISZERO PUSH2 0x1FE7 JUMP JUMPDEST PUSH1 0x0 DUP2 DUP2 MSTORE PUSH1 0x6 PUSH1 0x20 SWAP1 DUP2 MSTORE PUSH1 0x40 DUP1 DUP4 KECCAK256 CALLER DUP5 MSTORE SWAP1 SWAP2 MSTORE SWAP1 KECCAK256 DUP1 SLOAD PUSH1 0xFF NOT AND PUSH1 0x1 OR SWAP1 SSTORE PUSH1 0xF PUSH2 0x18E5 DUP3 PUSH2 0x1D13 JUMP JUMPDEST POP ADD DUP1 SLOAD SWAP1 PUSH1 0x1 DUP3 ADD DUP1 SWAP3 GT PUSH2 0x11F5 JUMPI SSTORE CALLER SWAP1 PUSH32 0xB31D078AFF93840E07BD4FEB45E413EF1141E91543E8F7C6F7E17B18963319B0 PUSH1 0x0 DUP1 LOG3 STOP JUMPDEST PUSH1 0xE SWAP2 POP ADD SLOAD TIMESTAMP GT ISZERO DUP4 PUSH2 0x1889 JUMP JUMPDEST CALLVALUE PUSH2 0x1E1 JUMPI PUSH1 0x20 CALLDATASIZE PUSH1 0x3 NOT ADD SLT PUSH2 0x1E1 JUMPI PUSH1 0x4 CALLDATALOAD PUSH2 0x194F PUSH1 0x1 SLOAD DUP3 LT PUSH2 0x1F2A JUMP JUMPDEST PUSH1 0xE PUSH2 0x195A DUP3 PUSH2 0x1D13 JUMP JUMPDEST POP PUSH2 0x196E PUSH1 0xFF PUSH1 0x11 DUP4 ADD SLOAD PUSH1 0x8 SHR AND PUSH2 0x1F68 JUMP JUMPDEST PUSH2 0x197F PUSH1 0xFF PUSH1 0x14 DUP4 ADD SLOAD AND ISZERO PUSH2 0x1FA7 JUMP JUMPDEST ADD SLOAD TIMESTAMP GT ISZERO PUSH2 0x1A6A JUMPI PUSH1 0x0 DUP2 DUP2 MSTORE PUSH1 0x4 PUSH1 0x20 SWAP1 DUP2 MSTORE PUSH1 0x40 DUP1 DUP4 KECCAK256 CALLER DUP5 MSTORE SWAP1 SWAP2 MSTORE SWAP1 KECCAK256 SLOAD ISZERO PUSH2 0x1A37 JUMPI PUSH1 0x0 DUP2 DUP2 MSTORE PUSH1 0x7 PUSH1 0x20 SWAP1 DUP2 MSTORE PUSH1 0x40 DUP1 DUP4 KECCAK256 CALLER DUP5 MSTORE SWAP1 SWAP2 MSTORE SWAP1 KECCAK256 SLOAD PUSH2 0x19CE SWAP1 PUSH1 0xFF AND ISZERO PUSH2 0x1FE7 JUMP JUMPDEST PUSH1 0x0 DUP2 DUP2 MSTORE PUSH1 0x7 PUSH1 0x20 SWAP1 DUP2 MSTORE PUSH1 0x40 DUP1 DUP4 KECCAK256 CALLER DUP5 MSTORE SWAP1 SWAP2 MSTORE SWAP1 KECCAK256 DUP1 SLOAD PUSH1 0xFF NOT AND PUSH1 0x1 OR SWAP1 SSTORE PUSH1 0x10 PUSH2 0x19FD DUP3 PUSH2 0x1D13 JUMP JUMPDEST POP ADD DUP1 SLOAD SWAP1 PUSH1 0x1 DUP3 ADD DUP1 SWAP3 GT PUSH2 0x11F5 JUMPI SSTORE CALLER SWAP1 PUSH32 0x5E3E2B315B7A0C8F5B16C6826FEA3480C2B34A38CEE053A916BD6BC4569756F0 PUSH1 0x0 DUP1 LOG3 STOP JUMPDEST PUSH1 0x40 MLOAD PUSH3 0x461BCD PUSH1 0xE5 SHL DUP2 MSTORE PUSH1 0x20 PUSH1 0x4 DUP3 ADD MSTORE PUSH1 0xB PUSH1 0x24 DUP3 ADD MSTORE PUSH11 0x2737BA1030903237B737B9 PUSH1 0xA9 SHL PUSH1 0x44 DUP3 ADD MSTORE PUSH1 0x64 SWAP1 REVERT JUMPDEST PUSH1 0x40 MLOAD PUSH3 0x461BCD PUSH1 0xE5 SHL DUP2 MSTORE PUSH1 0x20 PUSH1 0x4 DUP3 ADD MSTORE PUSH1 0x11 PUSH1 0x24 DUP3 ADD MSTORE PUSH17 0x1253D0C81B9BDD08195B991959081E595D PUSH1 0x7A SHL PUSH1 0x44 DUP3 ADD MSTORE PUSH1 0x64 SWAP1 REVERT JUMPDEST CALLVALUE PUSH2 0x1E1 JUMPI PUSH1 0x20 CALLDATASIZE PUSH1 0x3 NOT ADD SLT PUSH2 0x1E1 JUMPI PUSH1 0x4 CALLDATALOAD PUSH1 0x1 SLOAD DUP2 LT ISZERO PUSH2 0x1E1 JUMPI PUSH2 0x1ACA SWAP1 PUSH2 0x1D13 JUMP JUMPDEST SWAP1 PUSH2 0x180 MSTORE POP PUSH2 0x180 MLOAD SLOAD PUSH2 0x1AE4 PUSH1 0x1 PUSH2 0x180 MLOAD ADD PUSH2 0x1DA3 JUMP JUMPDEST PUSH2 0x120 MSTORE PUSH2 0x1AF7 PUSH1 0x2 PUSH2 0x180 MLOAD ADD PUSH2 0x1DA3 JUMP JUMPDEST PUSH2 0x140 MSTORE PUSH2 0x1B0A PUSH1 0x3 PUSH2 0x180 MLOAD ADD PUSH2 0x1DA3 JUMP JUMPDEST SWAP1 PUSH2 0x1B1A PUSH1 0x4 PUSH2 0x180 MLOAD ADD PUSH2 0x1DA3 JUMP JUMPDEST SWAP2 PUSH2 0x1B2A PUSH1 0x5 PUSH2 0x180 MLOAD ADD PUSH2 0x1DA3 JUMP JUMPDEST SWAP3 PUSH2 0x1B3A PUSH1 0x6 PUSH2 0x180 MLOAD ADD PUSH2 0x1DA3 JUMP JUMPDEST SWAP4 PUSH1 0x1 DUP1 PUSH1 0xA0 SHL SUB PUSH1 0x7 PUSH2 0x180 MLOAD ADD SLOAD AND PUSH2 0x160 MSTORE PUSH1 0x8 PUSH2 0x180 MLOAD ADD SLOAD SWAP5 PUSH1 0x9 PUSH2 0x180 MLOAD ADD SLOAD PUSH1 0xA PUSH2 0x180 MLOAD ADD SLOAD PUSH1 0xB PUSH2 0x180 MLOAD ADD SLOAD SWAP2 PUSH2 0x1C60 PUSH1 0xC PUSH2 0x180 MLOAD ADD SLOAD SWAP5 PUSH2 0x1C4E PUSH1 0xD PUSH2 0x180 MLOAD ADD SLOAD SWAP8 PUSH2 0x1C3D PUSH1 0xE PUSH2 0x180 MLOAD ADD SLOAD SWAP11 PUSH2 0x1C2B PUSH1 0xF PUSH2 0x180 MLOAD ADD SLOAD SWAP14 PUSH1 0x10 PUSH2 0x180 MLOAD ADD SLOAD SWAP16 PUSH1 0x11 PUSH2 0x180 MLOAD ADD SLOAD PUSH2 0x100 MSTORE PUSH1 0x12 PUSH2 0x180 MLOAD ADD SLOAD PUSH1 0x80 MSTORE PUSH1 0x13 PUSH2 0x180 MLOAD ADD SLOAD PUSH1 0xC0 MSTORE PUSH1 0xFF PUSH1 0x14 PUSH2 0x180 MLOAD ADD SLOAD AND PUSH1 0xE0 MSTORE PUSH1 0x40 MLOAD PUSH1 0xA0 MSTORE PUSH1 0xA0 MLOAD MSTORE PUSH2 0x2C0 PUSH1 0x20 PUSH1 0xA0 MLOAD ADD MSTORE PUSH2 0x1C19 PUSH2 0x1C04 PUSH2 0x2C0 PUSH1 0xA0 MLOAD ADD PUSH2 0x120 MLOAD PUSH2 0x1E47 JUMP JUMPDEST PUSH1 0xA0 MLOAD DUP2 SUB PUSH1 0x40 PUSH1 0xA0 MLOAD ADD MSTORE PUSH2 0x140 MLOAD PUSH2 0x1E47 JUMP JUMPDEST SWAP1 PUSH1 0xA0 MLOAD DUP3 SUB PUSH1 0x60 PUSH1 0xA0 MLOAD ADD MSTORE PUSH2 0x1E47 JUMP JUMPDEST SWAP1 PUSH1 0xA0 MLOAD DUP3 SUB PUSH1 0x80 PUSH1 0xA0 MLOAD ADD MSTORE PUSH2 0x1E47 JUMP JUMPDEST SWAP1 PUSH1 0xA0 MLOAD DUP3 SUB PUSH1 0xA0 DUP1 MLOAD ADD MSTORE PUSH2 0x1E47 JUMP JUMPDEST SWAP1 PUSH1 0xA0 MLOAD DUP3 SUB PUSH1 0xC0 PUSH1 0xA0 MLOAD ADD MSTORE PUSH2 0x1E47 JUMP JUMPDEST SWAP9 PUSH2 0x160 MLOAD PUSH1 0xE0 PUSH1 0xA0 MLOAD ADD MSTORE PUSH2 0x100 PUSH1 0xA0 MLOAD ADD MSTORE PUSH2 0x120 PUSH1 0xA0 MLOAD ADD MSTORE PUSH2 0x140 PUSH1 0xA0 MLOAD ADD MSTORE PUSH2 0x160 PUSH1 0xA0 MLOAD ADD MSTORE PUSH2 0x180 PUSH1 0xA0 MLOAD ADD MSTORE PUSH2 0x1A0 PUSH1 0xA0 MLOAD ADD MSTORE PUSH2 0x1C0 PUSH1 0xA0 MLOAD ADD MSTORE PUSH2 0x1E0 PUSH1 0xA0 MLOAD ADD MSTORE PUSH2 0x200 PUSH1 0xA0 MLOAD ADD MSTORE PUSH1 0x5 PUSH1 0xFF PUSH2 0x100 MLOAD AND LT ISZERO PUSH2 0xC4E JUMPI PUSH1 0xFF PUSH2 0x100 MLOAD AND PUSH2 0x220 PUSH1 0xA0 MLOAD ADD MSTORE PUSH1 0xFF PUSH2 0x100 MLOAD PUSH1 0x8 SHR AND ISZERO ISZERO PUSH2 0x240 PUSH1 0xA0 MLOAD ADD MSTORE PUSH1 0x80 MLOAD PUSH2 0x260 PUSH1 0xA0 MLOAD ADD MSTORE PUSH1 0xC0 MLOAD PUSH2 0x280 PUSH1 0xA0 MLOAD ADD MSTORE PUSH1 0xE0 MLOAD ISZERO ISZERO PUSH2 0x2A0 PUSH1 0xA0 MLOAD ADD MSTORE PUSH1 0xA0 MLOAD SWAP1 SUB PUSH1 0xA0 MLOAD RETURN JUMPDEST PUSH1 0x1 SLOAD DUP2 LT ISZERO PUSH2 0x1D32 JUMPI PUSH1 0x1 PUSH1 0x0 MSTORE PUSH1 0x15 PUSH1 0x20 PUSH1 0x0 KECCAK256 SWAP2 MUL ADD SWAP1 PUSH1 0x0 SWAP1 JUMP JUMPDEST PUSH4 0x4E487B71 PUSH1 0xE0 SHL PUSH1 0x0 MSTORE PUSH1 0x32 PUSH1 0x4 MSTORE PUSH1 0x24 PUSH1 0x0 REVERT JUMPDEST SWAP1 PUSH1 0x1 DUP3 DUP2 SHR SWAP3 AND DUP1 ISZERO PUSH2 0x1D78 JUMPI JUMPDEST PUSH1 0x20 DUP4 LT EQ PUSH2 0x1D62 JUMPI JUMP JUMPDEST PUSH4 0x4E487B71 PUSH1 0xE0 SHL PUSH1 0x0 MSTORE PUSH1 0x22 PUSH1 0x4 MSTORE PUSH1 0x24 PUSH1 0x0 REVERT JUMPDEST SWAP2 PUSH1 0x7F AND SWAP2 PUSH2 0x1D57 JUMP JUMPDEST SWAP1 PUSH1 0x1F DUP1 NOT SWAP2 ADD AND DUP2 ADD SWAP1 DUP2 LT PUSH1 0x1 PUSH1 0x1 PUSH1 0x40 SHL SUB DUP3 GT OR PUSH2 0xD33 JUMPI PUSH1 0x40 MSTORE JUMP JUMPDEST SWAP1 PUSH1 0x40 MLOAD SWAP2 DUP3 PUSH1 0x0 DUP3 SLOAD SWAP3 PUSH2 0x1DB7 DUP5 PUSH2 0x1D48 JUMP JUMPDEST DUP1 DUP5 MSTORE SWAP4 PUSH1 0x1 DUP2 AND SWAP1 DUP2 ISZERO PUSH2 0x1E25 JUMPI POP PUSH1 0x1 EQ PUSH2 0x1DDE JUMPI JUMPDEST POP PUSH2 0x1DDC SWAP3 POP SUB DUP4 PUSH2 0x1D82 JUMP JUMPDEST JUMP JUMPDEST SWAP1 POP PUSH1 0x0 SWAP3 SWAP2 SWAP3 MSTORE PUSH1 0x20 PUSH1 0x0 KECCAK256 SWAP1 PUSH1 0x0 SWAP2 JUMPDEST DUP2 DUP4 LT PUSH2 0x1E09 JUMPI POP POP SWAP1 PUSH1 0x20 PUSH2 0x1DDC SWAP3 DUP3 ADD ADD CODESIZE PUSH2 0x1DCF JUMP JUMPDEST PUSH1 0x20 SWAP2 SWAP4 POP DUP1 PUSH1 0x1 SWAP2 SLOAD DUP4 DUP6 DUP10 ADD ADD MSTORE ADD SWAP2 ADD SWAP1 SWAP2 DUP5 SWAP3 PUSH2 0x1DF0 JUMP JUMPDEST SWAP1 POP PUSH1 0x20 SWAP3 POP PUSH2 0x1DDC SWAP5 SWAP2 POP PUSH1 0xFF NOT AND DUP3 DUP5 ADD MSTORE ISZERO ISZERO PUSH1 0x5 SHL DUP3 ADD ADD CODESIZE PUSH2 0x1DCF JUMP JUMPDEST SWAP2 SWAP1 DUP3 MLOAD SWAP3 DUP4 DUP3 MSTORE PUSH1 0x0 JUMPDEST DUP5 DUP2 LT PUSH2 0x1E73 JUMPI POP POP DUP3 PUSH1 0x0 PUSH1 0x20 DUP1 SWAP5 SWAP6 DUP5 ADD ADD MSTORE PUSH1 0x1F DUP1 NOT SWAP2 ADD AND ADD ADD SWAP1 JUMP JUMPDEST DUP1 PUSH1 0x20 DUP1 SWAP3 DUP5 ADD ADD MLOAD DUP3 DUP3 DUP7 ADD ADD MSTORE ADD PUSH2 0x1E52 JUMP JUMPDEST PUSH1 0x1 PUSH1 0x1 PUSH1 0x40 SHL SUB DUP2 GT PUSH2 0xD33 JUMPI PUSH1 0x1F ADD PUSH1 0x1F NOT AND PUSH1 0x20 ADD SWAP1 JUMP JUMPDEST DUP2 PUSH1 0x1F DUP3 ADD SLT ISZERO PUSH2 0x1E1 JUMPI DUP1 CALLDATALOAD SWAP1 PUSH2 0x1EBA DUP3 PUSH2 0x1E88 JUMP JUMPDEST SWAP3 PUSH2 0x1EC8 PUSH1 0x40 MLOAD SWAP5 DUP6 PUSH2 0x1D82 JUMP JUMPDEST DUP3 DUP5 MSTORE PUSH1 0x20 DUP4 DUP4 ADD ADD GT PUSH2 0x1E1 JUMPI DUP2 PUSH1 0x0 SWAP3 PUSH1 0x20 DUP1 SWAP4 ADD DUP4 DUP7 ADD CALLDATACOPY DUP4 ADD ADD MSTORE SWAP1 JUMP JUMPDEST PUSH1 0x24 CALLDATALOAD SWAP1 PUSH1 0x1 PUSH1 0x1 PUSH1 0xA0 SHL SUB DUP3 AND DUP3 SUB PUSH2 0x1E1 JUMPI JUMP JUMPDEST PUSH1 0x60 SWAP1 PUSH1 0x3 NOT ADD SLT PUSH2 0x1E1 JUMPI PUSH1 0x4 CALLDATALOAD SWAP1 PUSH1 0x24 CALLDATALOAD PUSH1 0x1 PUSH1 0x1 PUSH1 0xA0 SHL SUB DUP2 AND DUP2 SUB PUSH2 0x1E1 JUMPI SWAP1 PUSH1 0x44 CALLDATALOAD SWAP1 JUMP JUMPDEST ISZERO PUSH2 0x1F31 JUMPI JUMP JUMPDEST PUSH1 0x40 MLOAD PUSH3 0x461BCD PUSH1 0xE5 SHL DUP2 MSTORE PUSH1 0x20 PUSH1 0x4 DUP3 ADD MSTORE PUSH1 0xF PUSH1 0x24 DUP3 ADD MSTORE PUSH15 0x125B9D985B1A59081C1C9BDA9958DD PUSH1 0x8A SHL PUSH1 0x44 DUP3 ADD MSTORE PUSH1 0x64 SWAP1 REVERT JUMPDEST ISZERO PUSH2 0x1F6F JUMPI JUMP JUMPDEST PUSH1 0x40 MLOAD PUSH3 0x461BCD PUSH1 0xE5 SHL DUP2 MSTORE PUSH1 0x20 PUSH1 0x4 DUP3 ADD MSTORE PUSH1 0x10 PUSH1 0x24 DUP3 ADD MSTORE PUSH16 0x50726F6A65637420696E616374697665 PUSH1 0x80 SHL PUSH1 0x44 DUP3 ADD MSTORE PUSH1 0x64 SWAP1 REVERT JUMPDEST ISZERO PUSH2 0x1FAE JUMPI JUMP JUMPDEST PUSH1 0x40 MLOAD PUSH3 0x461BCD PUSH1 0xE5 SHL DUP2 MSTORE PUSH1 0x20 PUSH1 0x4 DUP3 ADD MSTORE PUSH1 0x11 PUSH1 0x24 DUP3 ADD MSTORE PUSH17 0x105B1C9958591E48199A5B985B1A5E9959 PUSH1 0x7A SHL PUSH1 0x44 DUP3 ADD MSTORE PUSH1 0x64 SWAP1 REVERT JUMPDEST ISZERO PUSH2 0x1FEE JUMPI JUMP JUMPDEST PUSH1 0x40 MLOAD PUSH3 0x461BCD PUSH1 0xE5 SHL DUP2 MSTORE PUSH1 0x20 PUSH1 0x4 DUP3 ADD MSTORE PUSH1 0xD PUSH1 0x24 DUP3 ADD MSTORE PUSH13 0x105B1C9958591E481D9BDD1959 PUSH1 0x9A SHL PUSH1 0x44 DUP3 ADD MSTORE PUSH1 0x64 SWAP1 REVERT JUMPDEST SWAP2 SWAP1 DUP3 ADD DUP1 SWAP3 GT PUSH2 0x11F5 JUMPI JUMP JUMPDEST ISZERO PUSH2 0x2037 JUMPI JUMP JUMPDEST PUSH1 0x40 MLOAD PUSH3 0x461BCD PUSH1 0xE5 SHL DUP2 MSTORE PUSH1 0x20 PUSH1 0x4 DUP3 ADD MSTORE PUSH1 0xF PUSH1 0x24 DUP3 ADD MSTORE PUSH15 0x4E6F7420696E20494F432074696D65 PUSH1 0x88 SHL PUSH1 0x44 DUP3 ADD MSTORE PUSH1 0x64 SWAP1 REVERT JUMPDEST ISZERO PUSH2 0x2075 JUMPI JUMP JUMPDEST PUSH1 0x40 MLOAD PUSH3 0x461BCD PUSH1 0xE5 SHL DUP2 MSTORE PUSH1 0x20 PUSH1 0x4 DUP3 ADD MSTORE PUSH1 0xA PUSH1 0x24 DUP3 ADD MSTORE PUSH10 0x27B7363C9037BBB732B9 PUSH1 0xB1 SHL PUSH1 0x44 DUP3 ADD MSTORE PUSH1 0x64 SWAP1 REVERT JUMPDEST DUP1 SLOAD DUP3 LT ISZERO PUSH2 0x1D32 JUMPI PUSH1 0x0 MSTORE PUSH1 0x20 PUSH1 0x0 KECCAK256 SWAP1 PUSH1 0x2 SHL ADD SWAP1 PUSH1 0x0 SWAP1 JUMP JUMPDEST ISZERO PUSH2 0x20CA JUMPI JUMP JUMPDEST PUSH1 0x40 MLOAD PUSH3 0x461BCD PUSH1 0xE5 SHL DUP2 MSTORE PUSH1 0x20 PUSH1 0x4 DUP3 ADD MSTORE PUSH1 0xC PUSH1 0x24 DUP3 ADD MSTORE PUSH12 0x5A65726F2061646472657373 PUSH1 0xA0 SHL PUSH1 0x44 DUP3 ADD MSTORE PUSH1 0x64 SWAP1 REVERT JUMPDEST SWAP2 SWAP1 DUP3 SUB SWAP2 DUP3 GT PUSH2 0x11F5 JUMPI JUMP JUMPDEST RETURNDATASIZE ISZERO PUSH2 0x2136 JUMPI RETURNDATASIZE SWAP1 PUSH2 0x211C DUP3 PUSH2 0x1E88 JUMP JUMPDEST SWAP2 PUSH2 0x212A PUSH1 0x40 MLOAD SWAP4 DUP5 PUSH2 0x1D82 JUMP JUMPDEST DUP3 MSTORE RETURNDATASIZE PUSH1 0x0 PUSH1 0x20 DUP5 ADD RETURNDATACOPY JUMP JUMPDEST PUSH1 0x60 SWAP1 JUMP JUMPDEST ISZERO PUSH2 0x2142 JUMPI JUMP JUMPDEST PUSH1 0x40 MLOAD PUSH3 0x461BCD PUSH1 0xE5 SHL DUP2 MSTORE PUSH1 0x20 PUSH1 0x4 DUP3 ADD MSTORE PUSH1 0xF PUSH1 0x24 DUP3 ADD MSTORE PUSH15 0x151C985B9CD9995C8819985A5B1959 PUSH1 0x8A SHL PUSH1 0x44 DUP3 ADD MSTORE PUSH1 0x64 SWAP1 REVERT JUMPDEST SWAP1 PUSH2 0x2183 DUP3 PUSH2 0x1D13 JUMP JUMPDEST POP PUSH1 0xFF PUSH1 0x14 DUP3 ADD SLOAD AND ISZERO PUSH2 0x2258 JUMPI PUSH1 0x12 DUP2 ADD SLOAD SWAP1 DUP2 ISZERO DUP1 ISZERO PUSH2 0x224C JUMPI JUMPDEST PUSH2 0x2243 JUMPI DUP4 PUSH1 0x0 MSTORE PUSH1 0x4 PUSH1 0x20 MSTORE PUSH1 0x40 PUSH1 0x0 KECCAK256 PUSH1 0x1 DUP1 PUSH1 0xA0 SHL SUB DUP5 AND PUSH1 0x0 MSTORE PUSH1 0x20 MSTORE PUSH1 0x40 PUSH1 0x0 KECCAK256 SLOAD SWAP2 DUP3 ISZERO PUSH2 0x2239 JUMPI DUP1 DUP4 MUL SWAP3 DUP4 DIV SUB PUSH2 0x11F5 JUMPI PUSH1 0x13 ADD SLOAD SWAP1 DUP2 ISZERO PUSH2 0x2223 JUMPI DIV SWAP2 PUSH1 0x0 MSTORE PUSH1 0x5 PUSH1 0x20 MSTORE PUSH1 0x40 PUSH1 0x0 KECCAK256 SWAP1 PUSH1 0x1 DUP1 PUSH1 0xA0 SHL SUB AND PUSH1 0x0 MSTORE PUSH1 0x20 MSTORE PUSH1 0x40 PUSH1 0x0 KECCAK256 SLOAD DUP1 DUP3 GT ISZERO PUSH2 0x221C JUMPI PUSH2 0x2219 SWAP2 PUSH2 0x20FE JUMP JUMPDEST SWAP1 JUMP JUMPDEST POP POP PUSH1 0x0 SWAP1 JUMP JUMPDEST PUSH4 0x4E487B71 PUSH1 0xE0 SHL PUSH1 0x0 MSTORE PUSH1 0x12 PUSH1 0x4 MSTORE PUSH1 0x24 PUSH1 0x0 REVERT JUMPDEST POP POP POP POP POP PUSH1 0x0 SWAP1 JUMP JUMPDEST POP POP POP POP PUSH1 0x0 SWAP1 JUMP JUMPDEST POP PUSH1 0x13 DUP2 ADD SLOAD ISZERO PUSH2 0x21A0 JUMP JUMPDEST POP POP POP PUSH1 0x0 SWAP1 JUMP JUMPDEST ISZERO PUSH2 0x2267 JUMPI JUMP JUMPDEST PUSH1 0x40 MLOAD PUSH3 0x461BCD PUSH1 0xE5 SHL DUP2 MSTORE PUSH1 0x20 PUSH1 0x4 DUP3 ADD MSTORE PUSH1 0x12 PUSH1 0x24 DUP3 ADD MSTORE PUSH18 0x416D6F756E74206D757374206265203E203 PUSH1 0x74 SHL PUSH1 0x44 DUP3 ADD MSTORE PUSH1 0x64 SWAP1 REVERT JUMPDEST SWAP2 SWAP1 DUP3 ISZERO ISZERO DUP1 PUSH2 0x22F9 JUMPI JUMPDEST PUSH2 0x22F1 JUMPI TIMESTAMP LT ISZERO DUP1 PUSH2 0x22E7 JUMPI JUMPDEST PUSH2 0x22E0 JUMPI TIMESTAMP GT SWAP1 DUP2 PUSH2 0x22D5 JUMPI JUMPDEST POP PUSH2 0x22D0 JUMPI PUSH1 0x0 SWAP1 JUMP JUMPDEST PUSH1 0x2 SWAP1 JUMP JUMPDEST SWAP1 POP TIMESTAMP GT ISZERO CODESIZE PUSH2 0x22C6 JUMP JUMPDEST POP POP PUSH1 0x1 SWAP1 JUMP JUMPDEST POP DUP1 TIMESTAMP GT ISZERO PUSH2 0x22B9 JUMP JUMPDEST POP POP POP PUSH1 0x3 SWAP1 JUMP JUMPDEST POP DUP3 TIMESTAMP GT PUSH2 0x22AC JUMP INVALID LOG2 PUSH5 0x6970667358 0x22 SLT KECCAK256 DUP10 0xA9 0xF7 0x2C 0xEF PUSH23 0x203324E87B522B067BEE8FD127AAB3B7CBAD84CE40AC38 BLOBHASH 0xAC 0xF8 PUSH5 0x736F6C6343 STOP ADDMOD SHR STOP CALLER "},"methodIdentifiers":{"addComment(uint256,string,uint8)":"44b76269","claimDividends(uint256)":"bd7047c4","claimedDividends(uint256,address)":"cff63567","createProject(string,string,string,string,string,string,address,uint256,uint256,uint256,uint256,uint256,uint256)":"9e5c5ff8","donate(uint256)":"f14faf6f","donatedByUser(uint256,address)":"7ed28f0c","finalizeDividends(uint256,address,uint256)":"a3cac8a3","getClaimableDividends(uint256,address)":"c40619c6","getComment(uint256,uint256)":"48892753","getCommentsCount(uint256)":"4c9b78da","getProjectsCount()":"e4a8f18b","owner()":"8da5cb5b","projectCount()":"36fbad26","projects(uint256)":"107046bd","setProjectActive(uint256,bool)":"2f597db5","voteTrust(uint256)":"2c871447","voteWithdraw(uint256)":"272f04ab","votedTrust(uint256,address)":"85576a31","votedWithdraw(uint256,address)":"df3faafe","withdraw(uint256,address,uint256)":"e63697c8"}}}}}