{"contracts/StudentStartupFund.sol":{"StudentStartupFund":{"abi":[{"inputs":[],"stateMutability":"nonpayable","type":"constructor"},{"anonymous":false,"inputs":[{"indexed":true,"internalType":"uint256","name":"projectId","type":"uint256"},{"indexed":true,"internalType":"address","name":"user","type":"address"},{"indexed":false,"internalType":"uint8","name":"rating","type":"uint8"},{"indexed":false,"internalType":"string","name":"content","type":"string"}],"name":"CommentAdded","type":"event"},{"anonymous":false,"inputs":[{"indexed":true,"internalType":"uint256","name":"projectId","type":"uint256"},{"indexed":true,"internalType":"address","name":"donor","type":"address"},{"indexed":false,"internalType":"uint256","name":"amount","type":"uint256"}],"name":"DonationReceived","type":"event"},{"anonymous":false,"inputs":[{"indexed":true,"internalType":"uint256","name":"projectId","type":"uint256"},{"indexed":false,"internalType":"string","name":"title","type":"string"}],"name":"ProjectCreated","type":"event"},{"anonymous":false,"inputs":[{"indexed":true,"internalType":"uint256","name":"projectId","type":"uint256"},{"indexed":true,"internalType":"address","name":"user","type":"address"}],"name":"VotedTrust","type":"event"},{"anonymous":false,"inputs":[{"indexed":true,"internalType":"uint256","name":"projectId","type":"uint256"},{"indexed":true,"internalType":"address","name":"user","type":"address"}],"name":"VotedWithdraw","type":"event"},{"anonymous":false,"inputs":[{"indexed":true,"internalType":"uint256","name":"projectId","type":"uint256"},{"indexed":true,"internalType":"address","name":"to","type":"address"},{"indexed":false,"internalType":"uint256","name":"amount","type":"uint256"}],"name":"Withdrawn","type":"event"},{"inputs":[{"internalType":"uint256","name":"projectId","type":"uint256"},{"internalType":"string","name":"content","type":"string"},{"internalType":"uint8","name":"rating","type":"uint8"}],"name":"addComment","outputs":[],"stateMutability":"nonpayable","type":"function"},{"inputs":[{"internalType":"string","name":"title","type":"string"},{"internalType":"string","name":"description","type":"string"},{"internalType":"string","name":"image","type":"string"},{"internalType":"string","name":"teamJson","type":"string"},{"internalType":"string","name":"tokenName","type":"string"},{"internalType":"string","name":"tokenSymbol","type":"string"},{"internalType":"address","name":"tokenAddress","type":"address"},{"internalType":"uint256","name":"tokenPrice","type":"uint256"},{"internalType":"uint256","name":"goal","type":"uint256"},{"internalType":"uint256","name":"projectStart","type":"uint256"},{"internalType":"uint256","name":"projectEnd","type":"uint256"},{"internalType":"uint256","name":"iocStart","type":"uint256"},{"internalType":"uint256","name":"iocEnd","type":"uint256"}],"name":"createProject","outputs":[{"internalType":"uint256","name":"","type":"uint256"}],"stateMutability":"nonpayable","type":"function"},{"inputs":[{"internalType":"uint256","name":"projectId","type":"uint256"}],"name":"donate","outputs":[],"stateMutability":"payable","type":"function"},{"inputs":[{"internalType":"uint256","name":"projectId","type":"uint256"},{"internalType":"uint256","name":"index","type":"uint256"}],"name":"getComment","outputs":[{"internalType":"address","name":"user","type":"address"},{"internalType":"string","name":"content","type":"string"},{"internalType":"uint8","name":"rating","type":"uint8"},{"internalType":"uint256","name":"timestamp","type":"uint256"}],"stateMutability":"view","type":"function"},{"inputs":[{"internalType":"uint256","name":"projectId","type":"uint256"}],"name":"getCommentsCount","outputs":[{"internalType":"uint256","name":"","type":"uint256"}],"stateMutability":"view","type":"function"},{"inputs":[],"name":"getProjectsCount","outputs":[{"internalType":"uint256","name":"","type":"uint256"}],"stateMutability":"view","type":"function"},{"inputs":[],"name":"owner","outputs":[{"internalType":"address","name":"","type":"address"}],"stateMutability":"view","type":"function"},{"inputs":[],"name":"projectCount","outputs":[{"internalType":"uint256","name":"","type":"uint256"}],"stateMutability":"view","type":"function"},{"inputs":[{"internalType":"uint256","name":"","type":"uint256"}],"name":"projects","outputs":[{"internalType":"uint256","name":"id","type":"uint256"},{"internalType":"string","name":"title","type":"string"},{"internalType":"string","name":"description","type":"string"},{"internalType":"string","name":"image","type":"string"},{"internalType":"string","name":"teamJson","type":"string"},{"internalType":"string","name":"tokenName","type":"string"},{"internalType":"string","name":"tokenSymbol","type":"string"},{"internalType":"address","name":"tokenAddress","type":"address"},{"internalType":"uint256","name":"tokenPrice","type":"uint256"},{"internalType":"uint256","name":"goal","type":"uint256"},{"internalType":"uint256","name":"totalDonated","type":"uint256"},{"internalType":"uint256","name":"projectStart","type":"uint256"},{"internalType":"uint256","name":"projectEnd","type":"uint256"},{"internalType":"uint256","name":"iocStart","type":"uint256"},{"internalType":"uint256","name":"iocEnd","type":"uint256"},{"internalType":"uint256","name":"trustVotes","type":"uint256"},{"internalType":"uint256","name":"withdrawVotes","type":"uint256"},{"internalType":"enum StudentStartupFund.ProjectStatus","name":"status","type":"uint8"},{"internalType":"bool","name":"active","type":"bool"}],"stateMutability":"view","type":"function"},{"inputs":[{"internalType":"uint256","name":"projectId","type":"uint256"},{"internalType":"bool","name":"active","type":"bool"}],"name":"setProjectActive","outputs":[],"stateMutability":"nonpayable","type":"function"},{"inputs":[{"internalType":"uint256","name":"projectId","type":"uint256"}],"name":"voteTrust","outputs":[],"stateMutability":"nonpayable","type":"function"},{"inputs":[{"internalType":"uint256","name":"projectId","type":"uint256"}],"name":"voteWithdraw","outputs":[],"stateMutability":"nonpayable","type":"function"},{"inputs":[{"internalType":"uint256","name":"","type":"uint256"},{"internalType":"address","name":"","type":"address"}],"name":"votedTrust","outputs":[{"internalType":"bool","name":"","type":"bool"}],"stateMutability":"view","type":"function"},{"inputs":[{"internalType":"uint256","name":"","type":"uint256"},{"internalType":"address","name":"","type":"address"}],"name":"votedWithdraw","outputs":[{"internalType":"bool","name":"","type":"bool"}],"stateMutability":"view","type":"function"},{"inputs":[{"internalType":"uint256","name":"projectId","type":"uint256"},{"internalType":"address payable","name":"to","type":"address"},{"internalType":"uint256","name":"amount","type":"uint256"}],"name":"withdraw","outputs":[],"stateMutability":"nonpayable","type":"function"}],"evm":{"bytecode":{"linkReferences":{},"object":"60808060405234602757600080546001600160a01b03191633179055611ac5908161002d8239f35b600080fdfe610100604052600436101561001357600080fd5b60003560e01c8063107046bd1461158a578063272f04ab146114d95780632c871447146114285780632f597db5146113bc57806336fbad261461139e57806344b76269146110a35780634889275314610fce5780634c9b78da14610f9557806385576a3114610f485780638da5cb5b14610f1f5780639e5c5ff814610404578063df3faafe146103b7578063e4a8f18b14610399578063e63697c8146102235763f14faf6f146100c257600080fd5b602036600319011261021e576004356100de6001548210611953565b34156101e4576100ed81611772565b5060ff601182015460081c16156101ac57600d8101544210158061019e575b1561016757600a018054903482018092116101515755604051903482527f0b5b4c52969ff7329ecf7ee536409fda87812b15a8622bc6e8cdeab3aee14a2660203393a3005b634e487b7160e01b600052601160045260246000fd5b60405162461bcd60e51b815260206004820152600f60248201526e4e6f7420696e20494f432074696d6560881b6044820152606490fd5b50600e81015442111561010c565b60405162461bcd60e51b815260206004820152601060248201526f50726f6a65637420696e61637469766560801b6044820152606490fd5b60405162461bcd60e51b81526020600482015260126024820152710416d6f756e74206d757374206265203e20360741b6044820152606490fd5b600080fd5b3461021e57606036600319011261021e576024356001600160a01b038116906004359082900361021e5760443561026560018060a01b036000541633146119cd565b6102726001548310611953565b821561036557478111610329576003601061028c84611772565b500154106102f1576000818481156102e7575b600092839283928392f1156102db5760207fcf7d23a3cbe4e8b36ff82fd1b05b1b17373dc7804b4ebbd6e2356716ef20237291604051908152a3005b6040513d6000823e3d90fd5b6108fc925061029f565b60405162461bcd60e51b815260206004820152601060248201526f4e6f7420656e6f75676820766f74657360801b6044820152606490fd5b60405162461bcd60e51b8152602060048201526014602482015273496e73756666696369656e742062616c616e636560601b6044820152606490fd5b60405162461bcd60e51b815260206004820152600c60248201526b5a65726f206164647265737360a01b6044820152606490fd5b3461021e57600036600319011261021e576020600154604051908152f35b3461021e57604036600319011261021e576103d061193d565b600435600052600560205260406000209060018060a01b0316600052602052602060ff604060002054166040519015158152f35b3461021e576101a036600319011261021e576004356001600160401b03811161021e576104359036906004016118e7565b6024356001600160401b03811161021e576104549036906004016118e7565b6044356001600160401b03811161021e576104739036906004016118e7565b906064356001600160401b03811161021e576104939036906004016118e7565b916084356001600160401b03811161021e576104b39036906004016118e7565b60a4356001600160401b03811161021e576104d29036906004016118e7565b60c4356001600160a01b0381169081900361021e5761010435610124359061014435926101643594610184359661051460018060a01b036000541633146119cd565b8b5115610ee9578315610eb15787871015610e7a57858511610e3e576001549a61053f898989611a22565b996040519b6102608d018d81106001600160401b03821117610a1f578f908f8f906020926040528152015260408d015260608c015260808b015260a08a015260c089015260e088015260e43561010088015261012087015260006101408701526101608601526101808501526101a08401526101c083015260006101e083015260006102008301526005811015610941576102208201526001610240820152600160401b821015610a1f57600182016001556105fa82611772565b610e28578151815560208201518051906001600160401b038211610a1f57819061062760018501546117a7565b601f8111610dd5575b50602090601f8311600114610d6457600092610d59575b50508160011b916000199060031b1c19161760018201555b60408201518051906001600160401b038211610a1f57819061068460028501546117a7565b601f8111610d06575b50602090601f8311600114610c9557600092610c8a575b50508160011b916000199060031b1c19161760028201555b60608201518051906001600160401b038211610a1f5781906106e160038501546117a7565b601f8111610c37575b50602090601f8311600114610bc657600092610bbb575b50508160011b916000199060031b1c19161760038201555b6004810160808301518051906001600160401b038211610a1f57819061073f84546117a7565b601f8111610b68575b50602090601f8311600114610b0357600092610af8575b50508160011b916000199060031b1c19161790555b6005810160a08301518051906001600160401b038211610a1f57819061079a84546117a7565b601f8111610aa5575b50602090601f8311600114610a4057600092610a35575b50508160011b916000199060031b1c19161790555b60c08201518051906001600160401b038211610a1f576107f260068401546117a7565b601f81116109d4575b50602090601f831160011461096257601193929160009183610957575b50508160011b916000199060031b1c19161760068201555b60e08301516007820180546001600160a01b0319166001600160a01b039290921691909117905561010083015160088201556101208301516009820155610140830151600a820155610160830151600b820155610180830151600c8201556101a0830151600d8201556101c0830151600e8201556101e0830151600f82015561020083015160108201556102208301519101906005811015610941578154610240939093015161ffff1990931660ff9091161791151560081b61ff001691909117905560209181907fed06d1e70f1faa0e1750def1b3a1d942390a8f47d03679c9025a1c38dc34fe7b9061093690600154600255604051918291878352878301906118a6565b0390a2604051908152f35b634e487b7160e01b600052602160045260246000fd5b015190508780610818565b9060068401600052806000209160005b601f19851681106109bc575091839160019360119695601f198116106109a3575b505050811b016006820155610830565b015160001960f88460031b161c19169055878080610993565b91926020600181928685015181550194019201610972565b600684016000526020600020601f840160051c81019160208510610a15575b601f0160051c01905b818110610a0957506107fb565b600081556001016109fc565b90915081906109f3565b634e487b7160e01b600052604160045260246000fd5b0151905087806107ba565b60008581528281209350601f198516905b818110610a8d5750908460019594939210610a74575b505050811b0190556107cf565b015160001960f88460031b161c19169055878080610a67565b92936020600181928786015181550195019301610a51565b909150836000526020600020601f840160051c81019160208510610aee575b90601f859493920160051c01905b818110610adf57506107a3565b60008155849350600101610ad2565b9091508190610ac4565b01519050878061075f565b60008581528281209350601f198516905b818110610b505750908460019594939210610b37575b505050811b019055610774565b015160001960f88460031b161c19169055878080610b2a565b92936020600181928786015181550195019301610b14565b909150836000526020600020601f840160051c81019160208510610bb1575b90601f859493920160051c01905b818110610ba25750610748565b60008155849350600101610b95565b9091508190610b87565b015190508680610701565b92506003840160005280600020906000935b601f1984168510610c1c576001945083601f19811610610c03575b505050811b016003820155610719565b015160001960f88460031b161c19169055868080610bf3565b81810151835560209485019460019093019290910190610bd8565b909150600384016000526020600020601f840160051c810160208510610c83575b90849392915b601f830160051c82018110610c745750506106ea565b60008155859450600101610c5e565b5080610c58565b0151905086806106a4565b92506002840160005280600020906000935b601f1984168510610ceb576001945083601f19811610610cd2575b505050811b0160028201556106bc565b015160001960f88460031b161c19169055868080610cc2565b81810151835560209485019460019093019290910190610ca7565b909150600284016000526020600020601f840160051c810160208510610d52575b90849392915b601f830160051c82018110610d4357505061068d565b60008155859450600101610d2d565b5080610d27565b015190508680610647565b92506001840160005280600020906000935b601f1984168510610dba576001945083601f19811610610da1575b505050811b01600182015561065f565b015160001960f88460031b161c19169055868080610d91565b81810151835560209485019460019093019290910190610d76565b909150600184016000526020600020601f840160051c810160208510610e21575b90849392915b601f830160051c82018110610e12575050610630565b60008155859450600101610dfc565b5080610df6565b634e487b7160e01b600052600060045260246000fd5b60405162461bcd60e51b8152602060048201526014602482015273141c9bda9958dd081cdd185c9d080f0f48195b9960621b6044820152606490fd5b60405162461bcd60e51b815260206004820152600f60248201526e1253d0c81cdd185c9d080f08195b99608a1b6044820152606490fd5b60405162461bcd60e51b815260206004820152601060248201526f0476f616c206d757374206265203e20360841b6044820152606490fd5b60405162461bcd60e51b815260206004820152600e60248201526d151a5d1b19481c995c5d5a5c995960921b6044820152606490fd5b3461021e57600036600319011261021e576000546040516001600160a01b039091168152602090f35b3461021e57604036600319011261021e57610f6161193d565b600435600052600460205260406000209060018060a01b0316600052602052602060ff604060002054166040519015158152f35b3461021e57602036600319011261021e57600435610fb66001548210611953565b60005260036020526020604060002054604051908152f35b3461021e57604036600319011261021e57600435602435610ff26001548310611953565b81600052600360205260406000205481101561106e5761101e9160005260036020526040600020611a06565b5060018060a01b0381541660ff600283015416611042600160038501549401611802565b9261105f60405194859485526080602086015260808501906118a6565b91604084015260608301520390f35b60405162461bcd60e51b815260206004820152600d60248201526c092dcecc2d8d2c840d2dcc8caf609b1b6044820152606490fd5b3461021e57606036600319011261021e576004356024356001600160401b03811161021e576110d69036906004016118e7565b6044359160ff831680930361021e576110f26001548210611953565b8151156113665760018310158061135b575b1561132957806000526003602052604060002092604051608081018181106001600160401b03821117610a1f5760405233815260208101948486526040820183815260608301914283528054600160401b811015610a1f5761116b91600182018155611a06565b939093610e28575183546001600160a01b0319166001600160a01b03919091161783559551805190969060018401906001600160401b038111610a1f576111b282546117a7565b601f81116112e1575b506020601f82116001146112545790806003959493927f75af7a249fd33f32da5aebdf42415cf43a79f1a958cb5d25980d825bb6c4a541999a9b600092611249575b50508160011b9160001990871b1c19161790555b60ff6002850191511660ff19825416179055519101556040519081526040602082015280611244339560408301906118a6565b0390a3005b015190508b806111fd565b601f1982169983600052816000209a60005b8181106112c957509a60019284926003989796957f75af7a249fd33f32da5aebdf42415cf43a79f1a958cb5d25980d825bb6c4a5419c9d9e106112b1575b505050811b019055611211565b015160001983891b60f8161c191690558b80806112a4565b838301518d556001909c019b60209384019301611266565b826000526020600020601f830160051c8101916020841061131f575b601f0160051c01905b81811061131357506111bb565b60008155600101611306565b90915081906112fd565b60405162461bcd60e51b815260206004820152600a602482015269526174696e6720312d3560b01b6044820152606490fd5b506005831115611104565b60405162461bcd60e51b815260206004820152601060248201526f10dbdb9d195b9d081c995c5d5a5c995960821b6044820152606490fd5b3461021e57600036600319011261021e576020600254604051908152f35b3461021e57604036600319011261021e57600435602435801515810361021e57601161140c611426936113fa60018060a01b036000541633146119cd565b6114076001548210611953565b611772565b50019061ff00825491151560081b169061ff001916179055565b005b3461021e57602036600319011261021e576004356114496001548210611953565b60008181526004602090815260408083203384529091529020546114709060ff1615611991565b60008181526004602090815260408083203384529091529020805460ff19166001179055600f61149f82611772565b500180549060018201809211610151575533907fb31d078aff93840e07bd4feb45e413ef1141e91543e8f7c6f7e17b18963319b0600080a3005b3461021e57602036600319011261021e576004356114fa6001548210611953565b60008181526005602090815260408083203384529091529020546115219060ff1615611991565b60008181526005602090815260408083203384529091529020805460ff19166001179055601061155082611772565b500180549060018201809211610151575533907f5e3e2b315b7a0c8f5b16c6826fea3480c2b34a38cee053a916bd6bc4569756f0600080a3005b3461021e57602036600319011261021e5760043560015481101561021e576115b190611772565b508054906115c160018201611802565b60e052806115d160028201611802565b926115de60038301611802565b936115eb60048401611802565b946115f860058501611802565b9561160560068601611802565b96600160a01b60019003600787015416608052600886015497600987015490600a88015492600b89015494600c8a015496600d8b015498600e8c01549a600f8d01549c601001549d6011015460c05260405160a05260a0515260a051602001610260905260a0516102600160e0519061167d916118a6565b60a051810360a05160400152611692916118a6565b60a051810360a051606001526116a7916118a6565b60a051810360a051608001526116bc916118a6565b60a051810360a05160a001526116d1916118a6565b60a051810360a05160c001526116e6916118a6565b9860805160a05160e0015260a051610100015260a051610120015260a051610140015260a051610160015260a051610180015260a0516101a0015260a0516101c0015260a0516101e0015260a051610200015260c05160ff16600511156109415760ff60c0511661022060a051015260ff60c05160081c16151561024060a051015260a051900360a051f35b6001548110156117915760016000526012602060002091020190600090565b634e487b7160e01b600052603260045260246000fd5b90600182811c921680156117d7575b60208310146117c157565b634e487b7160e01b600052602260045260246000fd5b91607f16916117b6565b90601f801991011681019081106001600160401b03821117610a1f57604052565b9060405191826000825492611816846117a7565b8084529360018116908115611884575060011461183d575b5061183b925003836117e1565b565b90506000929192526020600020906000915b81831061186857505090602061183b928201013861182e565b602091935080600191548385890101520191019091849261184f565b90506020925061183b94915060ff191682840152151560051b8201013861182e565b919082519283825260005b8481106118d2575050826000602080949584010152601f8019910116010190565b806020809284010151828286010152016118b1565b81601f8201121561021e578035906001600160401b038211610a1f576040519261191b601f8401601f1916602001856117e1565b8284526020838301011161021e57816000926020809301838601378301015290565b602435906001600160a01b038216820361021e57565b1561195a57565b60405162461bcd60e51b815260206004820152600f60248201526e125b9d985b1a59081c1c9bda9958dd608a1b6044820152606490fd5b1561199857565b60405162461bcd60e51b815260206004820152600d60248201526c105b1c9958591e481d9bdd1959609a1b6044820152606490fd5b156119d457565b60405162461bcd60e51b815260206004820152600a60248201526927b7363c9037bbb732b960b11b6044820152606490fd5b80548210156117915760005260206000209060021b0190600090565b9081151580611a86575b611a7e57421091821580611a74575b611a6c5742119081611a61575b50611a5b57611a5657600090565b600090565b50600290565b905042111538611a48565b505050600190565b5080421115611a3b565b505050600390565b50814211611a2c56fea26469706673582212204e54c0ce41b3fcb37208c20664dce2c0ae99b57d3cccdf83159f6487ab0e551964736f6c634300081c0033","opcodes":"PUSH1 0x80 DUP1 PUSH1 0x40 MSTORE CALLVALUE PUSH1 0x27 JUMPI PUSH1 0x0 DUP1 SLOAD PUSH1 0x1 PUSH1 0x1 PUSH1 0xA0 SHL SUB NOT AND CALLER OR SWAP1 SSTORE PUSH2 0x1AC5 SWAP1 DUP2 PUSH2 0x2D DUP3 CODECOPY RETURN JUMPDEST PUSH1 0x0 DUP1 REVERT INVALID PUSH2 0x100 PUSH1 0x40 MSTORE PUSH1 0x4 CALLDATASIZE LT ISZERO PUSH2 0x13 JUMPI PUSH1 0x0 DUP1 REVERT JUMPDEST PUSH1 0x0 CALLDATALOAD PUSH1 0xE0 SHR DUP1 PUSH4 0x107046BD EQ PUSH2 0x158A JUMPI DUP1 PUSH4 0x272F04AB EQ PUSH2 0x14D9 JUMPI DUP1 PUSH4 0x2C871447 EQ PUSH2 0x1428 JUMPI DUP1 PUSH4 0x2F597DB5 EQ PUSH2 0x13BC JUMPI DUP1 PUSH4 0x36FBAD26 EQ PUSH2 0x139E JUMPI DUP1 PUSH4 0x44B76269 EQ PUSH2 0x10A3 JUMPI DUP1 PUSH4 0x48892753 EQ PUSH2 0xFCE JUMPI DUP1 PUSH4 0x4C9B78DA EQ PUSH2 0xF95 JUMPI DUP1 PUSH4 0x85576A31 EQ PUSH2 0xF48 JUMPI DUP1 PUSH4 0x8DA5CB5B EQ PUSH2 0xF1F JUMPI DUP1 PUSH4 0x9E5C5FF8 EQ PUSH2 0x404 JUMPI DUP1 PUSH4 0xDF3FAAFE EQ PUSH2 0x3B7 JUMPI DUP1 PUSH4 0xE4A8F18B EQ PUSH2 0x399 JUMPI DUP1 PUSH4 0xE63697C8 EQ PUSH2 0x223 JUMPI PUSH4 0xF14FAF6F EQ PUSH2 0xC2 JUMPI PUSH1 0x0 DUP1 REVERT JUMPDEST PUSH1 0x20 CALLDATASIZE PUSH1 0x3 NOT ADD SLT PUSH2 0x21E JUMPI PUSH1 0x4 CALLDATALOAD PUSH2 0xDE PUSH1 0x1 SLOAD DUP3 LT PUSH2 0x1953 JUMP JUMPDEST CALLVALUE ISZERO PUSH2 0x1E4 JUMPI PUSH2 0xED DUP2 PUSH2 0x1772 JUMP JUMPDEST POP PUSH1 0xFF PUSH1 0x11 DUP3 ADD SLOAD PUSH1 0x8 SHR AND ISZERO PUSH2 0x1AC JUMPI PUSH1 0xD DUP2 ADD SLOAD TIMESTAMP LT ISZERO DUP1 PUSH2 0x19E JUMPI JUMPDEST ISZERO PUSH2 0x167 JUMPI PUSH1 0xA ADD DUP1 SLOAD SWAP1 CALLVALUE DUP3 ADD DUP1 SWAP3 GT PUSH2 0x151 JUMPI SSTORE PUSH1 0x40 MLOAD SWAP1 CALLVALUE DUP3 MSTORE PUSH32 0xB5B4C52969FF7329ECF7EE536409FDA87812B15A8622BC6E8CDEAB3AEE14A26 PUSH1 0x20 CALLER SWAP4 LOG3 STOP JUMPDEST PUSH4 0x4E487B71 PUSH1 0xE0 SHL PUSH1 0x0 MSTORE PUSH1 0x11 PUSH1 0x4 MSTORE PUSH1 0x24 PUSH1 0x0 REVERT JUMPDEST PUSH1 0x40 MLOAD PUSH3 0x461BCD PUSH1 0xE5 SHL DUP2 MSTORE PUSH1 0x20 PUSH1 0x4 DUP3 ADD MSTORE PUSH1 0xF PUSH1 0x24 DUP3 ADD MSTORE PUSH15 0x4E6F7420696E20494F432074696D65 PUSH1 0x88 SHL PUSH1 0x44 DUP3 ADD MSTORE PUSH1 0x64 SWAP1 REVERT JUMPDEST POP PUSH1 0xE DUP2 ADD SLOAD TIMESTAMP GT ISZERO PUSH2 0x10C JUMP JUMPDEST PUSH1 0x40 MLOAD PUSH3 0x461BCD PUSH1 0xE5 SHL DUP2 MSTORE PUSH1 0x20 PUSH1 0x4 DUP3 ADD MSTORE PUSH1 0x10 PUSH1 0x24 DUP3 ADD MSTORE PUSH16 0x50726F6A65637420696E616374697665 PUSH1 0x80 SHL PUSH1 0x44 DUP3 ADD MSTORE PUSH1 0x64 SWAP1 REVERT JUMPDEST PUSH1 0x40 MLOAD PUSH3 0x461BCD PUSH1 0xE5 SHL DUP2 MSTORE PUSH1 0x20 PUSH1 0x4 DUP3 ADD MSTORE PUSH1 0x12 PUSH1 0x24 DUP3 ADD MSTORE PUSH18 0x416D6F756E74206D757374206265203E203 PUSH1 0x74 SHL PUSH1 0x44 DUP3 ADD MSTORE PUSH1 0x64 SWAP1 REVERT JUMPDEST PUSH1 0x0 DUP1 REVERT JUMPDEST CALLVALUE PUSH2 0x21E JUMPI PUSH1 0x60 CALLDATASIZE PUSH1 0x3 NOT ADD SLT PUSH2 0x21E JUMPI PUSH1 0x24 CALLDATALOAD PUSH1 0x1 PUSH1 0x1 PUSH1 0xA0 SHL SUB DUP2 AND SWAP1 PUSH1 0x4 CALLDATALOAD SWAP1 DUP3 SWAP1 SUB PUSH2 0x21E JUMPI PUSH1 0x44 CALLDATALOAD PUSH2 0x265 PUSH1 0x1 DUP1 PUSH1 0xA0 SHL SUB PUSH1 0x0 SLOAD AND CALLER EQ PUSH2 0x19CD JUMP JUMPDEST PUSH2 0x272 PUSH1 0x1 SLOAD DUP4 LT PUSH2 0x1953 JUMP JUMPDEST DUP3 ISZERO PUSH2 0x365 JUMPI SELFBALANCE DUP2 GT PUSH2 0x329 JUMPI PUSH1 0x3 PUSH1 0x10 PUSH2 0x28C DUP5 PUSH2 0x1772 JUMP JUMPDEST POP ADD SLOAD LT PUSH2 0x2F1 JUMPI PUSH1 0x0 DUP2 DUP5 DUP2 ISZERO PUSH2 0x2E7 JUMPI JUMPDEST PUSH1 0x0 SWAP3 DUP4 SWAP3 DUP4 SWAP3 DUP4 SWAP3 CALL ISZERO PUSH2 0x2DB JUMPI PUSH1 0x20 PUSH32 0xCF7D23A3CBE4E8B36FF82FD1B05B1B17373DC7804B4EBBD6E2356716EF202372 SWAP2 PUSH1 0x40 MLOAD SWAP1 DUP2 MSTORE LOG3 STOP JUMPDEST PUSH1 0x40 MLOAD RETURNDATASIZE PUSH1 0x0 DUP3 RETURNDATACOPY RETURNDATASIZE SWAP1 REVERT JUMPDEST PUSH2 0x8FC SWAP3 POP PUSH2 0x29F JUMP JUMPDEST PUSH1 0x40 MLOAD PUSH3 0x461BCD PUSH1 0xE5 SHL DUP2 MSTORE PUSH1 0x20 PUSH1 0x4 DUP3 ADD MSTORE PUSH1 0x10 PUSH1 0x24 DUP3 ADD MSTORE PUSH16 0x4E6F7420656E6F75676820766F746573 PUSH1 0x80 SHL PUSH1 0x44 DUP3 ADD MSTORE PUSH1 0x64 SWAP1 REVERT JUMPDEST PUSH1 0x40 MLOAD PUSH3 0x461BCD PUSH1 0xE5 SHL DUP2 MSTORE PUSH1 0x20 PUSH1 0x4 DUP3 ADD MSTORE PUSH1 0x14 PUSH1 0x24 DUP3 ADD MSTORE PUSH20 0x496E73756666696369656E742062616C616E6365 PUSH1 0x60 SHL PUSH1 0x44 DUP3 ADD MSTORE PUSH1 0x64 SWAP1 REVERT JUMPDEST PUSH1 0x40 MLOAD PUSH3 0x461BCD PUSH1 0xE5 SHL DUP2 MSTORE PUSH1 0x20 PUSH1 0x4 DUP3 ADD MSTORE PUSH1 0xC PUSH1 0x24 DUP3 ADD MSTORE PUSH12 0x5A65726F2061646472657373 PUSH1 0xA0 SHL PUSH1 0x44 DUP3 ADD MSTORE PUSH1 0x64 SWAP1 REVERT JUMPDEST CALLVALUE PUSH2 0x21E JUMPI PUSH1 0x0 CALLDATASIZE PUSH1 0x3 NOT ADD SLT PUSH2 0x21E JUMPI PUSH1 0x20 PUSH1 0x1 SLOAD PUSH1 0x40 MLOAD SWAP1 DUP2 MSTORE RETURN JUMPDEST CALLVALUE PUSH2 0x21E JUMPI PUSH1 0x40 CALLDATASIZE PUSH1 0x3 NOT ADD SLT PUSH2 0x21E JUMPI PUSH2 0x3D0 PUSH2 0x193D JUMP JUMPDEST PUSH1 0x4 CALLDATALOAD PUSH1 0x0 MSTORE PUSH1 0x5 PUSH1 0x20 MSTORE PUSH1 0x40 PUSH1 0x0 KECCAK256 SWAP1 PUSH1 0x1 DUP1 PUSH1 0xA0 SHL SUB AND PUSH1 0x0 MSTORE PUSH1 0x20 MSTORE PUSH1 0x20 PUSH1 0xFF PUSH1 0x40 PUSH1 0x0 KECCAK256 SLOAD AND PUSH1 0x40 MLOAD SWAP1 ISZERO ISZERO DUP2 MSTORE RETURN JUMPDEST CALLVALUE PUSH2 0x21E JUMPI PUSH2 0x1A0 CALLDATASIZE PUSH1 0x3 NOT ADD SLT PUSH2 0x21E JUMPI PUSH1 0x4 CALLDATALOAD PUSH1 0x1 PUSH1 0x1 PUSH1 0x40 SHL SUB DUP2 GT PUSH2 0x21E JUMPI PUSH2 0x435 SWAP1 CALLDATASIZE SWAP1 PUSH1 0x4 ADD PUSH2 0x18E7 JUMP JUMPDEST PUSH1 0x24 CALLDATALOAD PUSH1 0x1 PUSH1 0x1 PUSH1 0x40 SHL SUB DUP2 GT PUSH2 0x21E JUMPI PUSH2 0x454 SWAP1 CALLDATASIZE SWAP1 PUSH1 0x4 ADD PUSH2 0x18E7 JUMP JUMPDEST PUSH1 0x44 CALLDATALOAD PUSH1 0x1 PUSH1 0x1 PUSH1 0x40 SHL SUB DUP2 GT PUSH2 0x21E JUMPI PUSH2 0x473 SWAP1 CALLDATASIZE SWAP1 PUSH1 0x4 ADD PUSH2 0x18E7 JUMP JUMPDEST SWAP1 PUSH1 0x64 CALLDATALOAD PUSH1 0x1 PUSH1 0x1 PUSH1 0x40 SHL SUB DUP2 GT PUSH2 0x21E JUMPI PUSH2 0x493 SWAP1 CALLDATASIZE SWAP1 PUSH1 0x4 ADD PUSH2 0x18E7 JUMP JUMPDEST SWAP2 PUSH1 0x84 CALLDATALOAD PUSH1 0x1 PUSH1 0x1 PUSH1 0x40 SHL SUB DUP2 GT PUSH2 0x21E JUMPI PUSH2 0x4B3 SWAP1 CALLDATASIZE SWAP1 PUSH1 0x4 ADD PUSH2 0x18E7 JUMP JUMPDEST PUSH1 0xA4 CALLDATALOAD PUSH1 0x1 PUSH1 0x1 PUSH1 0x40 SHL SUB DUP2 GT PUSH2 0x21E JUMPI PUSH2 0x4D2 SWAP1 CALLDATASIZE SWAP1 PUSH1 0x4 ADD PUSH2 0x18E7 JUMP JUMPDEST PUSH1 0xC4 CALLDATALOAD PUSH1 0x1 PUSH1 0x1 PUSH1 0xA0 SHL SUB DUP2 AND SWAP1 DUP2 SWAP1 SUB PUSH2 0x21E JUMPI PUSH2 0x104 CALLDATALOAD PUSH2 0x124 CALLDATALOAD SWAP1 PUSH2 0x144 CALLDATALOAD SWAP3 PUSH2 0x164 CALLDATALOAD SWAP5 PUSH2 0x184 CALLDATALOAD SWAP7 PUSH2 0x514 PUSH1 0x1 DUP1 PUSH1 0xA0 SHL SUB PUSH1 0x0 SLOAD AND CALLER EQ PUSH2 0x19CD JUMP JUMPDEST DUP12 MLOAD ISZERO PUSH2 0xEE9 JUMPI DUP4 ISZERO PUSH2 0xEB1 JUMPI DUP8 DUP8 LT ISZERO PUSH2 0xE7A JUMPI DUP6 DUP6 GT PUSH2 0xE3E JUMPI PUSH1 0x1 SLOAD SWAP11 PUSH2 0x53F DUP10 DUP10 DUP10 PUSH2 0x1A22 JUMP JUMPDEST SWAP10 PUSH1 0x40 MLOAD SWAP12 PUSH2 0x260 DUP14 ADD DUP14 DUP2 LT PUSH1 0x1 PUSH1 0x1 PUSH1 0x40 SHL SUB DUP3 GT OR PUSH2 0xA1F JUMPI DUP16 SWAP1 DUP16 DUP16 SWAP1 PUSH1 0x20 SWAP3 PUSH1 0x40 MSTORE DUP2 MSTORE ADD MSTORE PUSH1 0x40 DUP14 ADD MSTORE PUSH1 0x60 DUP13 ADD MSTORE PUSH1 0x80 DUP12 ADD MSTORE PUSH1 0xA0 DUP11 ADD MSTORE PUSH1 0xC0 DUP10 ADD MSTORE PUSH1 0xE0 DUP9 ADD MSTORE PUSH1 0xE4 CALLDATALOAD PUSH2 0x100 DUP9 ADD MSTORE PUSH2 0x120 DUP8 ADD MSTORE PUSH1 0x0 PUSH2 0x140 DUP8 ADD MSTORE PUSH2 0x160 DUP7 ADD MSTORE PUSH2 0x180 DUP6 ADD MSTORE PUSH2 0x1A0 DUP5 ADD MSTORE PUSH2 0x1C0 DUP4 ADD MSTORE PUSH1 0x0 PUSH2 0x1E0 DUP4 ADD MSTORE PUSH1 0x0 PUSH2 0x200 DUP4 ADD MSTORE PUSH1 0x5 DUP2 LT ISZERO PUSH2 0x941 JUMPI PUSH2 0x220 DUP3 ADD MSTORE PUSH1 0x1 PUSH2 0x240 DUP3 ADD MSTORE PUSH1 0x1 PUSH1 0x40 SHL DUP3 LT ISZERO PUSH2 0xA1F JUMPI PUSH1 0x1 DUP3 ADD PUSH1 0x1 SSTORE PUSH2 0x5FA DUP3 PUSH2 0x1772 JUMP JUMPDEST PUSH2 0xE28 JUMPI DUP2 MLOAD DUP2 SSTORE PUSH1 0x20 DUP3 ADD MLOAD DUP1 MLOAD SWAP1 PUSH1 0x1 PUSH1 0x1 PUSH1 0x40 SHL SUB DUP3 GT PUSH2 0xA1F JUMPI DUP2 SWAP1 PUSH2 0x627 PUSH1 0x1 DUP6 ADD SLOAD PUSH2 0x17A7 JUMP JUMPDEST PUSH1 0x1F DUP2 GT PUSH2 0xDD5 JUMPI JUMPDEST POP PUSH1 0x20 SWAP1 PUSH1 0x1F DUP4 GT PUSH1 0x1 EQ PUSH2 0xD64 JUMPI PUSH1 0x0 SWAP3 PUSH2 0xD59 JUMPI JUMPDEST POP POP DUP2 PUSH1 0x1 SHL SWAP2 PUSH1 0x0 NOT SWAP1 PUSH1 0x3 SHL SHR NOT AND OR PUSH1 0x1 DUP3 ADD SSTORE JUMPDEST PUSH1 0x40 DUP3 ADD MLOAD DUP1 MLOAD SWAP1 PUSH1 0x1 PUSH1 0x1 PUSH1 0x40 SHL SUB DUP3 GT PUSH2 0xA1F JUMPI DUP2 SWAP1 PUSH2 0x684 PUSH1 0x2 DUP6 ADD SLOAD PUSH2 0x17A7 JUMP JUMPDEST PUSH1 0x1F DUP2 GT PUSH2 0xD06 JUMPI JUMPDEST POP PUSH1 0x20 SWAP1 PUSH1 0x1F DUP4 GT PUSH1 0x1 EQ PUSH2 0xC95 JUMPI PUSH1 0x0 SWAP3 PUSH2 0xC8A JUMPI JUMPDEST POP POP DUP2 PUSH1 0x1 SHL SWAP2 PUSH1 0x0 NOT SWAP1 PUSH1 0x3 SHL SHR NOT AND OR PUSH1 0x2 DUP3 ADD SSTORE JUMPDEST PUSH1 0x60 DUP3 ADD MLOAD DUP1 MLOAD SWAP1 PUSH1 0x1 PUSH1 0x1 PUSH1 0x40 SHL SUB DUP3 GT PUSH2 0xA1F JUMPI DUP2 SWAP1 PUSH2 0x6E1 PUSH1 0x3 DUP6 ADD SLOAD PUSH2 0x17A7 JUMP JUMPDEST PUSH1 0x1F DUP2 GT PUSH2 0xC37 JUMPI JUMPDEST POP PUSH1 0x20 SWAP1 PUSH1 0x1F DUP4 GT PUSH1 0x1 EQ PUSH2 0xBC6 JUMPI PUSH1 0x0 SWAP3 PUSH2 0xBBB JUMPI JUMPDEST POP POP DUP2 PUSH1 0x1 SHL SWAP2 PUSH1 0x0 NOT SWAP1 PUSH1 0x3 SHL SHR NOT AND OR PUSH1 0x3 DUP3 ADD SSTORE JUMPDEST PUSH1 0x4 DUP2 ADD PUSH1 0x80 DUP4 ADD MLOAD DUP1 MLOAD SWAP1 PUSH1 0x1 PUSH1 0x1 PUSH1 0x40 SHL SUB DUP3 GT PUSH2 0xA1F JUMPI DUP2 SWAP1 PUSH2 0x73F DUP5 SLOAD PUSH2 0x17A7 JUMP JUMPDEST PUSH1 0x1F DUP2 GT PUSH2 0xB68 JUMPI JUMPDEST POP PUSH1 0x20 SWAP1 PUSH1 0x1F DUP4 GT PUSH1 0x1 EQ PUSH2 0xB03 JUMPI PUSH1 0x0 SWAP3 PUSH2 0xAF8 JUMPI JUMPDEST POP POP DUP2 PUSH1 0x1 SHL SWAP2 PUSH1 0x0 NOT SWAP1 PUSH1 0x3 SHL SHR NOT AND OR SWAP1 SSTORE JUMPDEST PUSH1 0x5 DUP2 ADD PUSH1 0xA0 DUP4 ADD MLOAD DUP1 MLOAD SWAP1 PUSH1 0x1 PUSH1 0x1 PUSH1 0x40 SHL SUB DUP3 GT PUSH2 0xA1F JUMPI DUP2 SWAP1 PUSH2 0x79A DUP5 SLOAD PUSH2 0x17A7 JUMP JUMPDEST PUSH1 0x1F DUP2 GT PUSH2 0xAA5 JUMPI JUMPDEST POP PUSH1 0x20 SWAP1 PUSH1 0x1F DUP4 GT PUSH1 0x1 EQ PUSH2 0xA40 JUMPI PUSH1 0x0 SWAP3 PUSH2 0xA35 JUMPI JUMPDEST POP POP DUP2 PUSH1 0x1 SHL SWAP2 PUSH1 0x0 NOT SWAP1 PUSH1 0x3 SHL SHR NOT AND OR SWAP1 SSTORE JUMPDEST PUSH1 0xC0 DUP3 ADD MLOAD DUP1 MLOAD SWAP1 PUSH1 0x1 PUSH1 0x1 PUSH1 0x40 SHL SUB DUP3 GT PUSH2 0xA1F JUMPI PUSH2 0x7F2 PUSH1 0x6 DUP5 ADD SLOAD PUSH2 0x17A7 JUMP JUMPDEST PUSH1 0x1F DUP2 GT PUSH2 0x9D4 JUMPI JUMPDEST POP PUSH1 0x20 SWAP1 PUSH1 0x1F DUP4 GT PUSH1 0x1 EQ PUSH2 0x962 JUMPI PUSH1 0x11 SWAP4 SWAP3 SWAP2 PUSH1 0x0 SWAP2 DUP4 PUSH2 0x957 JUMPI JUMPDEST POP POP DUP2 PUSH1 0x1 SHL SWAP2 PUSH1 0x0 NOT SWAP1 PUSH1 0x3 SHL SHR NOT AND OR PUSH1 0x6 DUP3 ADD SSTORE JUMPDEST PUSH1 0xE0 DUP4 ADD MLOAD PUSH1 0x7 DUP3 ADD DUP1 SLOAD PUSH1 0x1 PUSH1 0x1 PUSH1 0xA0 SHL SUB NOT AND PUSH1 0x1 PUSH1 0x1 PUSH1 0xA0 SHL SUB SWAP3 SWAP1 SWAP3 AND SWAP2 SWAP1 SWAP2 OR SWAP1 SSTORE PUSH2 0x100 DUP4 ADD MLOAD PUSH1 0x8 DUP3 ADD SSTORE PUSH2 0x120 DUP4 ADD MLOAD PUSH1 0x9 DUP3 ADD SSTORE PUSH2 0x140 DUP4 ADD MLOAD PUSH1 0xA DUP3 ADD SSTORE PUSH2 0x160 DUP4 ADD MLOAD PUSH1 0xB DUP3 ADD SSTORE PUSH2 0x180 DUP4 ADD MLOAD PUSH1 0xC DUP3 ADD SSTORE PUSH2 0x1A0 DUP4 ADD MLOAD PUSH1 0xD DUP3 ADD SSTORE PUSH2 0x1C0 DUP4 ADD MLOAD PUSH1 0xE DUP3 ADD SSTORE PUSH2 0x1E0 DUP4 ADD MLOAD PUSH1 0xF DUP3 ADD SSTORE PUSH2 0x200 DUP4 ADD MLOAD PUSH1 0x10 DUP3 ADD SSTORE PUSH2 0x220 DUP4 ADD MLOAD SWAP2 ADD SWAP1 PUSH1 0x5 DUP2 LT ISZERO PUSH2 0x941 JUMPI DUP2 SLOAD PUSH2 0x240 SWAP4 SWAP1 SWAP4 ADD MLOAD PUSH2 0xFFFF NOT SWAP1 SWAP4 AND PUSH1 0xFF SWAP1 SWAP2 AND OR SWAP2 ISZERO ISZERO PUSH1 0x8 SHL PUSH2 0xFF00 AND SWAP2 SWAP1 SWAP2 OR SWAP1 SSTORE PUSH1 0x20 SWAP2 DUP2 SWAP1 PUSH32 0xED06D1E70F1FAA0E1750DEF1B3A1D942390A8F47D03679C9025A1C38DC34FE7B SWAP1 PUSH2 0x936 SWAP1 PUSH1 0x1 SLOAD PUSH1 0x2 SSTORE PUSH1 0x40 MLOAD SWAP2 DUP3 SWAP2 DUP8 DUP4 MSTORE DUP8 DUP4 ADD SWAP1 PUSH2 0x18A6 JUMP JUMPDEST SUB SWAP1 LOG2 PUSH1 0x40 MLOAD SWAP1 DUP2 MSTORE RETURN JUMPDEST PUSH4 0x4E487B71 PUSH1 0xE0 SHL PUSH1 0x0 MSTORE PUSH1 0x21 PUSH1 0x4 MSTORE PUSH1 0x24 PUSH1 0x0 REVERT JUMPDEST ADD MLOAD SWAP1 POP DUP8 DUP1 PUSH2 0x818 JUMP JUMPDEST SWAP1 PUSH1 0x6 DUP5 ADD PUSH1 0x0 MSTORE DUP1 PUSH1 0x0 KECCAK256 SWAP2 PUSH1 0x0 JUMPDEST PUSH1 0x1F NOT DUP6 AND DUP2 LT PUSH2 0x9BC JUMPI POP SWAP2 DUP4 SWAP2 PUSH1 0x1 SWAP4 PUSH1 0x11 SWAP7 SWAP6 PUSH1 0x1F NOT DUP2 AND LT PUSH2 0x9A3 JUMPI JUMPDEST POP POP POP DUP2 SHL ADD PUSH1 0x6 DUP3 ADD SSTORE PUSH2 0x830 JUMP JUMPDEST ADD MLOAD PUSH1 0x0 NOT PUSH1 0xF8 DUP5 PUSH1 0x3 SHL AND SHR NOT AND SWAP1 SSTORE DUP8 DUP1 DUP1 PUSH2 0x993 JUMP JUMPDEST SWAP2 SWAP3 PUSH1 0x20 PUSH1 0x1 DUP2 SWAP3 DUP7 DUP6 ADD MLOAD DUP2 SSTORE ADD SWAP5 ADD SWAP3 ADD PUSH2 0x972 JUMP JUMPDEST PUSH1 0x6 DUP5 ADD PUSH1 0x0 MSTORE PUSH1 0x20 PUSH1 0x0 KECCAK256 PUSH1 0x1F DUP5 ADD PUSH1 0x5 SHR DUP2 ADD SWAP2 PUSH1 0x20 DUP6 LT PUSH2 0xA15 JUMPI JUMPDEST PUSH1 0x1F ADD PUSH1 0x5 SHR ADD SWAP1 JUMPDEST DUP2 DUP2 LT PUSH2 0xA09 JUMPI POP PUSH2 0x7FB JUMP JUMPDEST PUSH1 0x0 DUP2 SSTORE PUSH1 0x1 ADD PUSH2 0x9FC JUMP JUMPDEST SWAP1 SWAP2 POP DUP2 SWAP1 PUSH2 0x9F3 JUMP JUMPDEST PUSH4 0x4E487B71 PUSH1 0xE0 SHL PUSH1 0x0 MSTORE PUSH1 0x41 PUSH1 0x4 MSTORE PUSH1 0x24 PUSH1 0x0 REVERT JUMPDEST ADD MLOAD SWAP1 POP DUP8 DUP1 PUSH2 0x7BA JUMP JUMPDEST PUSH1 0x0 DUP6 DUP2 MSTORE DUP3 DUP2 KECCAK256 SWAP4 POP PUSH1 0x1F NOT DUP6 AND SWAP1 JUMPDEST DUP2 DUP2 LT PUSH2 0xA8D JUMPI POP SWAP1 DUP5 PUSH1 0x1 SWAP6 SWAP5 SWAP4 SWAP3 LT PUSH2 0xA74 JUMPI JUMPDEST POP POP POP DUP2 SHL ADD SWAP1 SSTORE PUSH2 0x7CF JUMP JUMPDEST ADD MLOAD PUSH1 0x0 NOT PUSH1 0xF8 DUP5 PUSH1 0x3 SHL AND SHR NOT AND SWAP1 SSTORE DUP8 DUP1 DUP1 PUSH2 0xA67 JUMP JUMPDEST SWAP3 SWAP4 PUSH1 0x20 PUSH1 0x1 DUP2 SWAP3 DUP8 DUP7 ADD MLOAD DUP2 SSTORE ADD SWAP6 ADD SWAP4 ADD PUSH2 0xA51 JUMP JUMPDEST SWAP1 SWAP2 POP DUP4 PUSH1 0x0 MSTORE PUSH1 0x20 PUSH1 0x0 KECCAK256 PUSH1 0x1F DUP5 ADD PUSH1 0x5 SHR DUP2 ADD SWAP2 PUSH1 0x20 DUP6 LT PUSH2 0xAEE JUMPI JUMPDEST SWAP1 PUSH1 0x1F DUP6 SWAP5 SWAP4 SWAP3 ADD PUSH1 0x5 SHR ADD SWAP1 JUMPDEST DUP2 DUP2 LT PUSH2 0xADF JUMPI POP PUSH2 0x7A3 JUMP JUMPDEST PUSH1 0x0 DUP2 SSTORE DUP5 SWAP4 POP PUSH1 0x1 ADD PUSH2 0xAD2 JUMP JUMPDEST SWAP1 SWAP2 POP DUP2 SWAP1 PUSH2 0xAC4 JUMP JUMPDEST ADD MLOAD SWAP1 POP DUP8 DUP1 PUSH2 0x75F JUMP JUMPDEST PUSH1 0x0 DUP6 DUP2 MSTORE DUP3 DUP2 KECCAK256 SWAP4 POP PUSH1 0x1F NOT DUP6 AND SWAP1 JUMPDEST DUP2 DUP2 LT PUSH2 0xB50 JUMPI POP SWAP1 DUP5 PUSH1 0x1 SWAP6 SWAP5 SWAP4 SWAP3 LT PUSH2 0xB37 JUMPI JUMPDEST POP POP POP DUP2 SHL ADD SWAP1 SSTORE PUSH2 0x774 JUMP JUMPDEST ADD MLOAD PUSH1 0x0 NOT PUSH1 0xF8 DUP5 PUSH1 0x3 SHL AND SHR NOT AND SWAP1 SSTORE DUP8 DUP1 DUP1 PUSH2 0xB2A JUMP JUMPDEST SWAP3 SWAP4 PUSH1 0x20 PUSH1 0x1 DUP2 SWAP3 DUP8 DUP7 ADD MLOAD DUP2 SSTORE ADD SWAP6 ADD SWAP4 ADD PUSH2 0xB14 JUMP JUMPDEST SWAP1 SWAP2 POP DUP4 PUSH1 0x0 MSTORE PUSH1 0x20 PUSH1 0x0 KECCAK256 PUSH1 0x1F DUP5 ADD PUSH1 0x5 SHR DUP2 ADD SWAP2 PUSH1 0x20 DUP6 LT PUSH2 0xBB1 JUMPI JUMPDEST SWAP1 PUSH1 0x1F DUP6 SWAP5 SWAP4 SWAP3 ADD PUSH1 0x5 SHR ADD SWAP1 JUMPDEST DUP2 DUP2 LT PUSH2 0xBA2 JUMPI POP PUSH2 0x748 JUMP JUMPDEST PUSH1 0x0 DUP2 SSTORE DUP5 SWAP4 POP PUSH1 0x1 ADD PUSH2 0xB95 JUMP JUMPDEST SWAP1 SWAP2 POP DUP2 SWAP1 PUSH2 0xB87 JUMP JUMPDEST ADD MLOAD SWAP1 POP DUP7 DUP1 PUSH2 0x701 JUMP JUMPDEST SWAP3 POP PUSH1 0x3 DUP5 ADD PUSH1 0x0 MSTORE DUP1 PUSH1 0x0 KECCAK256 SWAP1 PUSH1 0x0 SWAP4 JUMPDEST PUSH1 0x1F NOT DUP5 AND DUP6 LT PUSH2 0xC1C JUMPI PUSH1 0x1 SWAP5 POP DUP4 PUSH1 0x1F NOT DUP2 AND LT PUSH2 0xC03 JUMPI JUMPDEST POP POP POP DUP2 SHL ADD PUSH1 0x3 DUP3 ADD SSTORE PUSH2 0x719 JUMP JUMPDEST ADD MLOAD PUSH1 0x0 NOT PUSH1 0xF8 DUP5 PUSH1 0x3 SHL AND SHR NOT AND SWAP1 SSTORE DUP7 DUP1 DUP1 PUSH2 0xBF3 JUMP JUMPDEST DUP2 DUP2 ADD MLOAD DUP4 SSTORE PUSH1 0x20 SWAP5 DUP6 ADD SWAP5 PUSH1 0x1 SWAP1 SWAP4 ADD SWAP3 SWAP1 SWAP2 ADD SWAP1 PUSH2 0xBD8 JUMP JUMPDEST SWAP1 SWAP2 POP PUSH1 0x3 DUP5 ADD PUSH1 0x0 MSTORE PUSH1 0x20 PUSH1 0x0 KECCAK256 PUSH1 0x1F DUP5 ADD PUSH1 0x5 SHR DUP2 ADD PUSH1 0x20 DUP6 LT PUSH2 0xC83 JUMPI JUMPDEST SWAP1 DUP5 SWAP4 SWAP3 SWAP2 JUMPDEST PUSH1 0x1F DUP4 ADD PUSH1 0x5 SHR DUP3 ADD DUP2 LT PUSH2 0xC74 JUMPI POP POP PUSH2 0x6EA JUMP JUMPDEST PUSH1 0x0 DUP2 SSTORE DUP6 SWAP5 POP PUSH1 0x1 ADD PUSH2 0xC5E JUMP JUMPDEST POP DUP1 PUSH2 0xC58 JUMP JUMPDEST ADD MLOAD SWAP1 POP DUP7 DUP1 PUSH2 0x6A4 JUMP JUMPDEST SWAP3 POP PUSH1 0x2 DUP5 ADD PUSH1 0x0 MSTORE DUP1 PUSH1 0x0 KECCAK256 SWAP1 PUSH1 0x0 SWAP4 JUMPDEST PUSH1 0x1F NOT DUP5 AND DUP6 LT PUSH2 0xCEB JUMPI PUSH1 0x1 SWAP5 POP DUP4 PUSH1 0x1F NOT DUP2 AND LT PUSH2 0xCD2 JUMPI JUMPDEST POP POP POP DUP2 SHL ADD PUSH1 0x2 DUP3 ADD SSTORE PUSH2 0x6BC JUMP JUMPDEST ADD MLOAD PUSH1 0x0 NOT PUSH1 0xF8 DUP5 PUSH1 0x3 SHL AND SHR NOT AND SWAP1 SSTORE DUP7 DUP1 DUP1 PUSH2 0xCC2 JUMP JUMPDEST DUP2 DUP2 ADD MLOAD DUP4 SSTORE PUSH1 0x20 SWAP5 DUP6 ADD SWAP5 PUSH1 0x1 SWAP1 SWAP4 ADD SWAP3 SWAP1 SWAP2 ADD SWAP1 PUSH2 0xCA7 JUMP JUMPDEST SWAP1 SWAP2 POP PUSH1 0x2 DUP5 ADD PUSH1 0x0 MSTORE PUSH1 0x20 PUSH1 0x0 KECCAK256 PUSH1 0x1F DUP5 ADD PUSH1 0x5 SHR DUP2 ADD PUSH1 0x20 DUP6 LT PUSH2 0xD52 JUMPI JUMPDEST SWAP1 DUP5 SWAP4 SWAP3 SWAP2 JUMPDEST PUSH1 0x1F DUP4 ADD PUSH1 0x5 SHR DUP3 ADD DUP2 LT PUSH2 0xD43 JUMPI POP POP PUSH2 0x68D JUMP JUMPDEST PUSH1 0x0 DUP2 SSTORE DUP6 SWAP5 POP PUSH1 0x1 ADD PUSH2 0xD2D JUMP JUMPDEST POP DUP1 PUSH2 0xD27 JUMP JUMPDEST ADD MLOAD SWAP1 POP DUP7 DUP1 PUSH2 0x647 JUMP JUMPDEST SWAP3 POP PUSH1 0x1 DUP5 ADD PUSH1 0x0 MSTORE DUP1 PUSH1 0x0 KECCAK256 SWAP1 PUSH1 0x0 SWAP4 JUMPDEST PUSH1 0x1F NOT DUP5 AND DUP6 LT PUSH2 0xDBA JUMPI PUSH1 0x1 SWAP5 POP DUP4 PUSH1 0x1F NOT DUP2 AND LT PUSH2 0xDA1 JUMPI JUMPDEST POP POP POP DUP2 SHL ADD PUSH1 0x1 DUP3 ADD SSTORE PUSH2 0x65F JUMP JUMPDEST ADD MLOAD PUSH1 0x0 NOT PUSH1 0xF8 DUP5 PUSH1 0x3 SHL AND SHR NOT AND SWAP1 SSTORE DUP7 DUP1 DUP1 PUSH2 0xD91 JUMP JUMPDEST DUP2 DUP2 ADD MLOAD DUP4 SSTORE PUSH1 0x20 SWAP5 DUP6 ADD SWAP5 PUSH1 0x1 SWAP1 SWAP4 ADD SWAP3 SWAP1 SWAP2 ADD SWAP1 PUSH2 0xD76 JUMP JUMPDEST SWAP1 SWAP2 POP PUSH1 0x1 DUP5 ADD PUSH1 0x0 MSTORE PUSH1 0x20 PUSH1 0x0 KECCAK256 PUSH1 0x1F DUP5 ADD PUSH1 0x5 SHR DUP2 ADD PUSH1 0x20 DUP6 LT PUSH2 0xE21 JUMPI JUMPDEST SWAP1 DUP5 SWAP4 SWAP3 SWAP2 JUMPDEST PUSH1 0x1F DUP4 ADD PUSH1 0x5 SHR DUP3 ADD DUP2 LT PUSH2 0xE12 JUMPI POP POP PUSH2 0x630 JUMP JUMPDEST PUSH1 0x0 DUP2 SSTORE DUP6 SWAP5 POP PUSH1 0x1 ADD PUSH2 0xDFC JUMP JUMPDEST POP DUP1 PUSH2 0xDF6 JUMP JUMPDEST PUSH4 0x4E487B71 PUSH1 0xE0 SHL PUSH1 0x0 MSTORE PUSH1 0x0 PUSH1 0x4 MSTORE PUSH1 0x24 PUSH1 0x0 REVERT JUMPDEST PUSH1 0x40 MLOAD PUSH3 0x461BCD PUSH1 0xE5 SHL DUP2 MSTORE PUSH1 0x20 PUSH1 0x4 DUP3 ADD MSTORE PUSH1 0x14 PUSH1 0x24 DUP3 ADD MSTORE PUSH20 0x141C9BDA9958DD081CDD185C9D080F0F48195B99 PUSH1 0x62 SHL PUSH1 0x44 DUP3 ADD MSTORE PUSH1 0x64 SWAP1 REVERT JUMPDEST PUSH1 0x40 MLOAD PUSH3 0x461BCD PUSH1 0xE5 SHL DUP2 MSTORE PUSH1 0x20 PUSH1 0x4 DUP3 ADD MSTORE PUSH1 0xF PUSH1 0x24 DUP3 ADD MSTORE PUSH15 0x1253D0C81CDD185C9D080F08195B99 PUSH1 0x8A SHL PUSH1 0x44 DUP3 ADD MSTORE PUSH1 0x64 SWAP1 REVERT JUMPDEST PUSH1 0x40 MLOAD PUSH3 0x461BCD PUSH1 0xE5 SHL DUP2 MSTORE PUSH1 0x20 PUSH1 0x4 DUP3 ADD MSTORE PUSH1 0x10 PUSH1 0x24 DUP3 ADD MSTORE PUSH16 0x476F616C206D757374206265203E203 PUSH1 0x84 SHL PUSH1 0x44 DUP3 ADD MSTORE PUSH1 0x64 SWAP1 REVERT JUMPDEST PUSH1 0x40 MLOAD PUSH3 0x461BCD PUSH1 0xE5 SHL DUP2 MSTORE PUSH1 0x20 PUSH1 0x4 DUP3 ADD MSTORE PUSH1 0xE PUSH1 0x24 DUP3 ADD MSTORE PUSH14 0x151A5D1B19481C995C5D5A5C9959 PUSH1 0x92 SHL PUSH1 0x44 DUP3 ADD MSTORE PUSH1 0x64 SWAP1 REVERT JUMPDEST CALLVALUE PUSH2 0x21E JUMPI PUSH1 0x0 CALLDATASIZE PUSH1 0x3 NOT ADD SLT PUSH2 0x21E JUMPI PUSH1 0x0 SLOAD PUSH1 0x40 MLOAD PUSH1 0x1 PUSH1 0x1 PUSH1 0xA0 SHL SUB SWAP1 SWAP2 AND DUP2 MSTORE PUSH1 0x20 SWAP1 RETURN JUMPDEST CALLVALUE PUSH2 0x21E JUMPI PUSH1 0x40 CALLDATASIZE PUSH1 0x3 NOT ADD SLT PUSH2 0x21E JUMPI PUSH2 0xF61 PUSH2 0x193D JUMP JUMPDEST PUSH1 0x4 CALLDATALOAD PUSH1 0x0 MSTORE PUSH1 0x4 PUSH1 0x20 MSTORE PUSH1 0x40 PUSH1 0x0 KECCAK256 SWAP1 PUSH1 0x1 DUP1 PUSH1 0xA0 SHL SUB AND PUSH1 0x0 MSTORE PUSH1 0x20 MSTORE PUSH1 0x20 PUSH1 0xFF PUSH1 0x40 PUSH1 0x0 KECCAK256 SLOAD AND PUSH1 0x40 MLOAD SWAP1 ISZERO ISZERO DUP2 MSTORE RETURN JUMPDEST CALLVALUE PUSH2 0x21E JUMPI PUSH1 0x20 CALLDATASIZE PUSH1 0x3 NOT ADD SLT PUSH2 0x21E JUMPI PUSH1 0x4 CALLDATALOAD PUSH2 0xFB6 PUSH1 0x1 SLOAD DUP3 LT PUSH2 0x1953 JUMP JUMPDEST PUSH1 0x0 MSTORE PUSH1 0x3 PUSH1 0x20 MSTORE PUSH1 0x20 PUSH1 0x40 PUSH1 0x0 KECCAK256 SLOAD PUSH1 0x40 MLOAD SWAP1 DUP2 MSTORE RETURN JUMPDEST CALLVALUE PUSH2 0x21E JUMPI PUSH1 0x40 CALLDATASIZE PUSH1 0x3 NOT ADD SLT PUSH2 0x21E JUMPI PUSH1 0x4 CALLDATALOAD PUSH1 0x24 CALLDATALOAD PUSH2 0xFF2 PUSH1 0x1 SLOAD DUP4 LT PUSH2 0x1953 JUMP JUMPDEST DUP2 PUSH1 0x0 MSTORE PUSH1 0x3 PUSH1 0x20 MSTORE PUSH1 0x40 PUSH1 0x0 KECCAK256 SLOAD DUP2 LT ISZERO PUSH2 0x106E JUMPI PUSH2 0x101E SWAP2 PUSH1 0x0 MSTORE PUSH1 0x3 PUSH1 0x20 MSTORE PUSH1 0x40 PUSH1 0x0 KECCAK256 PUSH2 0x1A06 JUMP JUMPDEST POP PUSH1 0x1 DUP1 PUSH1 0xA0 SHL SUB DUP2 SLOAD AND PUSH1 0xFF PUSH1 0x2 DUP4 ADD SLOAD AND PUSH2 0x1042 PUSH1 0x1 PUSH1 0x3 DUP6 ADD SLOAD SWAP5 ADD PUSH2 0x1802 JUMP JUMPDEST SWAP3 PUSH2 0x105F PUSH1 0x40 MLOAD SWAP5 DUP6 SWAP5 DUP6 MSTORE PUSH1 0x80 PUSH1 0x20 DUP7 ADD MSTORE PUSH1 0x80 DUP6 ADD SWAP1 PUSH2 0x18A6 JUMP JUMPDEST SWAP2 PUSH1 0x40 DUP5 ADD MSTORE PUSH1 0x60 DUP4 ADD MSTORE SUB SWAP1 RETURN JUMPDEST PUSH1 0x40 MLOAD PUSH3 0x461BCD PUSH1 0xE5 SHL DUP2 MSTORE PUSH1 0x20 PUSH1 0x4 DUP3 ADD MSTORE PUSH1 0xD PUSH1 0x24 DUP3 ADD MSTORE PUSH13 0x92DCECC2D8D2C840D2DCC8CAF PUSH1 0x9B SHL PUSH1 0x44 DUP3 ADD MSTORE PUSH1 0x64 SWAP1 REVERT JUMPDEST CALLVALUE PUSH2 0x21E JUMPI PUSH1 0x60 CALLDATASIZE PUSH1 0x3 NOT ADD SLT PUSH2 0x21E JUMPI PUSH1 0x4 CALLDATALOAD PUSH1 0x24 CALLDATALOAD PUSH1 0x1 PUSH1 0x1 PUSH1 0x40 SHL SUB DUP2 GT PUSH2 0x21E JUMPI PUSH2 0x10D6 SWAP1 CALLDATASIZE SWAP1 PUSH1 0x4 ADD PUSH2 0x18E7 JUMP JUMPDEST PUSH1 0x44 CALLDATALOAD SWAP2 PUSH1 0xFF DUP4 AND DUP1 SWAP4 SUB PUSH2 0x21E JUMPI PUSH2 0x10F2 PUSH1 0x1 SLOAD DUP3 LT PUSH2 0x1953 JUMP JUMPDEST DUP2 MLOAD ISZERO PUSH2 0x1366 JUMPI PUSH1 0x1 DUP4 LT ISZERO DUP1 PUSH2 0x135B JUMPI JUMPDEST ISZERO PUSH2 0x1329 JUMPI DUP1 PUSH1 0x0 MSTORE PUSH1 0x3 PUSH1 0x20 MSTORE PUSH1 0x40 PUSH1 0x0 KECCAK256 SWAP3 PUSH1 0x40 MLOAD PUSH1 0x80 DUP2 ADD DUP2 DUP2 LT PUSH1 0x1 PUSH1 0x1 PUSH1 0x40 SHL SUB DUP3 GT OR PUSH2 0xA1F JUMPI PUSH1 0x40 MSTORE CALLER DUP2 MSTORE PUSH1 0x20 DUP2 ADD SWAP5 DUP5 DUP7 MSTORE PUSH1 0x40 DUP3 ADD DUP4 DUP2 MSTORE PUSH1 0x60 DUP4 ADD SWAP2 TIMESTAMP DUP4 MSTORE DUP1 SLOAD PUSH1 0x1 PUSH1 0x40 SHL DUP2 LT ISZERO PUSH2 0xA1F JUMPI PUSH2 0x116B SWAP2 PUSH1 0x1 DUP3 ADD DUP2 SSTORE PUSH2 0x1A06 JUMP JUMPDEST SWAP4 SWAP1 SWAP4 PUSH2 0xE28 JUMPI MLOAD DUP4 SLOAD PUSH1 0x1 PUSH1 0x1 PUSH1 0xA0 SHL SUB NOT AND PUSH1 0x1 PUSH1 0x1 PUSH1 0xA0 SHL SUB SWAP2 SWAP1 SWAP2 AND OR DUP4 SSTORE SWAP6 MLOAD DUP1 MLOAD SWAP1 SWAP7 SWAP1 PUSH1 0x1 DUP5 ADD SWAP1 PUSH1 0x1 PUSH1 0x1 PUSH1 0x40 SHL SUB DUP2 GT PUSH2 0xA1F JUMPI PUSH2 0x11B2 DUP3 SLOAD PUSH2 0x17A7 JUMP JUMPDEST PUSH1 0x1F DUP2 GT PUSH2 0x12E1 JUMPI JUMPDEST POP PUSH1 0x20 PUSH1 0x1F DUP3 GT PUSH1 0x1 EQ PUSH2 0x1254 JUMPI SWAP1 DUP1 PUSH1 0x3 SWAP6 SWAP5 SWAP4 SWAP3 PUSH32 0x75AF7A249FD33F32DA5AEBDF42415CF43A79F1A958CB5D25980D825BB6C4A541 SWAP10 SWAP11 SWAP12 PUSH1 0x0 SWAP3 PUSH2 0x1249 JUMPI JUMPDEST POP POP DUP2 PUSH1 0x1 SHL SWAP2 PUSH1 0x0 NOT SWAP1 DUP8 SHL SHR NOT AND OR SWAP1 SSTORE JUMPDEST PUSH1 0xFF PUSH1 0x2 DUP6 ADD SWAP2 MLOAD AND PUSH1 0xFF NOT DUP3 SLOAD AND OR SWAP1 SSTORE MLOAD SWAP2 ADD SSTORE PUSH1 0x40 MLOAD SWAP1 DUP2 MSTORE PUSH1 0x40 PUSH1 0x20 DUP3 ADD MSTORE DUP1 PUSH2 0x1244 CALLER SWAP6 PUSH1 0x40 DUP4 ADD SWAP1 PUSH2 0x18A6 JUMP JUMPDEST SUB SWAP1 LOG3 STOP JUMPDEST ADD MLOAD SWAP1 POP DUP12 DUP1 PUSH2 0x11FD JUMP JUMPDEST PUSH1 0x1F NOT DUP3 AND SWAP10 DUP4 PUSH1 0x0 MSTORE DUP2 PUSH1 0x0 KECCAK256 SWAP11 PUSH1 0x0 JUMPDEST DUP2 DUP2 LT PUSH2 0x12C9 JUMPI POP SWAP11 PUSH1 0x1 SWAP3 DUP5 SWAP3 PUSH1 0x3 SWAP9 SWAP8 SWAP7 SWAP6 PUSH32 0x75AF7A249FD33F32DA5AEBDF42415CF43A79F1A958CB5D25980D825BB6C4A541 SWAP13 SWAP14 SWAP15 LT PUSH2 0x12B1 JUMPI JUMPDEST POP POP POP DUP2 SHL ADD SWAP1 SSTORE PUSH2 0x1211 JUMP JUMPDEST ADD MLOAD PUSH1 0x0 NOT DUP4 DUP10 SHL PUSH1 0xF8 AND SHR NOT AND SWAP1 SSTORE DUP12 DUP1 DUP1 PUSH2 0x12A4 JUMP JUMPDEST DUP4 DUP4 ADD MLOAD DUP14 SSTORE PUSH1 0x1 SWAP1 SWAP13 ADD SWAP12 PUSH1 0x20 SWAP4 DUP5 ADD SWAP4 ADD PUSH2 0x1266 JUMP JUMPDEST DUP3 PUSH1 0x0 MSTORE PUSH1 0x20 PUSH1 0x0 KECCAK256 PUSH1 0x1F DUP4 ADD PUSH1 0x5 SHR DUP2 ADD SWAP2 PUSH1 0x20 DUP5 LT PUSH2 0x131F JUMPI JUMPDEST PUSH1 0x1F ADD PUSH1 0x5 SHR ADD SWAP1 JUMPDEST DUP2 DUP2 LT PUSH2 0x1313 JUMPI POP PUSH2 0x11BB JUMP JUMPDEST PUSH1 0x0 DUP2 SSTORE PUSH1 0x1 ADD PUSH2 0x1306 JUMP JUMPDEST SWAP1 SWAP2 POP DUP2 SWAP1 PUSH2 0x12FD JUMP JUMPDEST PUSH1 0x40 MLOAD PUSH3 0x461BCD PUSH1 0xE5 SHL DUP2 MSTORE PUSH1 0x20 PUSH1 0x4 DUP3 ADD MSTORE PUSH1 0xA PUSH1 0x24 DUP3 ADD MSTORE PUSH10 0x526174696E6720312D35 PUSH1 0xB0 SHL PUSH1 0x44 DUP3 ADD MSTORE PUSH1 0x64 SWAP1 REVERT JUMPDEST POP PUSH1 0x5 DUP4 GT ISZERO PUSH2 0x1104 JUMP JUMPDEST PUSH1 0x40 MLOAD PUSH3 0x461BCD PUSH1 0xE5 SHL DUP2 MSTORE PUSH1 0x20 PUSH1 0x4 DUP3 ADD MSTORE PUSH1 0x10 PUSH1 0x24 DUP3 ADD MSTORE PUSH16 0x10DBDB9D195B9D081C995C5D5A5C9959 PUSH1 0x82 SHL PUSH1 0x44 DUP3 ADD MSTORE PUSH1 0x64 SWAP1 REVERT JUMPDEST CALLVALUE PUSH2 0x21E JUMPI PUSH1 0x0 CALLDATASIZE PUSH1 0x3 NOT ADD SLT PUSH2 0x21E JUMPI PUSH1 0x20 PUSH1 0x2 SLOAD PUSH1 0x40 MLOAD SWAP1 DUP2 MSTORE RETURN JUMPDEST CALLVALUE PUSH2 0x21E JUMPI PUSH1 0x40 CALLDATASIZE PUSH1 0x3 NOT ADD SLT PUSH2 0x21E JUMPI PUSH1 0x4 CALLDATALOAD PUSH1 0x24 CALLDATALOAD DUP1 ISZERO ISZERO DUP2 SUB PUSH2 0x21E JUMPI PUSH1 0x11 PUSH2 0x140C PUSH2 0x1426 SWAP4 PUSH2 0x13FA PUSH1 0x1 DUP1 PUSH1 0xA0 SHL SUB PUSH1 0x0 SLOAD AND CALLER EQ PUSH2 0x19CD JUMP JUMPDEST PUSH2 0x1407 PUSH1 0x1 SLOAD DUP3 LT PUSH2 0x1953 JUMP JUMPDEST PUSH2 0x1772 JUMP JUMPDEST POP ADD SWAP1 PUSH2 0xFF00 DUP3 SLOAD SWAP2 ISZERO ISZERO PUSH1 0x8 SHL AND SWAP1 PUSH2 0xFF00 NOT AND OR SWAP1 SSTORE JUMP JUMPDEST STOP JUMPDEST CALLVALUE PUSH2 0x21E JUMPI PUSH1 0x20 CALLDATASIZE PUSH1 0x3 NOT ADD SLT PUSH2 0x21E JUMPI PUSH1 0x4 CALLDATALOAD PUSH2 0x1449 PUSH1 0x1 SLOAD DUP3 LT PUSH2 0x1953 JUMP JUMPDEST PUSH1 0x0 DUP2 DUP2 MSTORE PUSH1 0x4 PUSH1 0x20 SWAP1 DUP2 MSTORE PUSH1 0x40 DUP1 DUP4 KECCAK256 CALLER DUP5 MSTORE SWAP1 SWAP2 MSTORE SWAP1 KECCAK256 SLOAD PUSH2 0x1470 SWAP1 PUSH1 0xFF AND ISZERO PUSH2 0x1991 JUMP JUMPDEST PUSH1 0x0 DUP2 DUP2 MSTORE PUSH1 0x4 PUSH1 0x20 SWAP1 DUP2 MSTORE PUSH1 0x40 DUP1 DUP4 KECCAK256 CALLER DUP5 MSTORE SWAP1 SWAP2 MSTORE SWAP1 KECCAK256 DUP1 SLOAD PUSH1 0xFF NOT AND PUSH1 0x1 OR SWAP1 SSTORE PUSH1 0xF PUSH2 0x149F DUP3 PUSH2 0x1772 JUMP JUMPDEST POP ADD DUP1 SLOAD SWAP1 PUSH1 0x1 DUP3 ADD DUP1 SWAP3 GT PUSH2 0x151 JUMPI SSTORE CALLER SWAP1 PUSH32 0xB31D078AFF93840E07BD4FEB45E413EF1141E91543E8F7C6F7E17B18963319B0 PUSH1 0x0 DUP1 LOG3 STOP JUMPDEST CALLVALUE PUSH2 0x21E JUMPI PUSH1 0x20 CALLDATASIZE PUSH1 0x3 NOT ADD SLT PUSH2 0x21E JUMPI PUSH1 0x4 CALLDATALOAD PUSH2 0x14FA PUSH1 0x1 SLOAD DUP3 LT PUSH2 0x1953 JUMP JUMPDEST PUSH1 0x0 DUP2 DUP2 MSTORE PUSH1 0x5 PUSH1 0x20 SWAP1 DUP2 MSTORE PUSH1 0x40 DUP1 DUP4 KECCAK256 CALLER DUP5 MSTORE SWAP1 SWAP2 MSTORE SWAP1 KECCAK256 SLOAD PUSH2 0x1521 SWAP1 PUSH1 0xFF AND ISZERO PUSH2 0x1991 JUMP JUMPDEST PUSH1 0x0 DUP2 DUP2 MSTORE PUSH1 0x5 PUSH1 0x20 SWAP1 DUP2 MSTORE PUSH1 0x40 DUP1 DUP4 KECCAK256 CALLER DUP5 MSTORE SWAP1 SWAP2 MSTORE SWAP1 KECCAK256 DUP1 SLOAD PUSH1 0xFF NOT AND PUSH1 0x1 OR SWAP1 SSTORE PUSH1 0x10 PUSH2 0x1550 DUP3 PUSH2 0x1772 JUMP JUMPDEST POP ADD DUP1 SLOAD SWAP1 PUSH1 0x1 DUP3 ADD DUP1 SWAP3 GT PUSH2 0x151 JUMPI SSTORE CALLER SWAP1 PUSH32 0x5E3E2B315B7A0C8F5B16C6826FEA3480C2B34A38CEE053A916BD6BC4569756F0 PUSH1 0x0 DUP1 LOG3 STOP JUMPDEST CALLVALUE PUSH2 0x21E JUMPI PUSH1 0x20 CALLDATASIZE PUSH1 0x3 NOT ADD SLT PUSH2 0x21E JUMPI PUSH1 0x4 CALLDATALOAD PUSH1 0x1 SLOAD DUP2 LT ISZERO PUSH2 0x21E JUMPI PUSH2 0x15B1 SWAP1 PUSH2 0x1772 JUMP JUMPDEST POP DUP1 SLOAD SWAP1 PUSH2 0x15C1 PUSH1 0x1 DUP3 ADD PUSH2 0x1802 JUMP JUMPDEST PUSH1 0xE0 MSTORE DUP1 PUSH2 0x15D1 PUSH1 0x2 DUP3 ADD PUSH2 0x1802 JUMP JUMPDEST SWAP3 PUSH2 0x15DE PUSH1 0x3 DUP4 ADD PUSH2 0x1802 JUMP JUMPDEST SWAP4 PUSH2 0x15EB PUSH1 0x4 DUP5 ADD PUSH2 0x1802 JUMP JUMPDEST SWAP5 PUSH2 0x15F8 PUSH1 0x5 DUP6 ADD PUSH2 0x1802 JUMP JUMPDEST SWAP6 PUSH2 0x1605 PUSH1 0x6 DUP7 ADD PUSH2 0x1802 JUMP JUMPDEST SWAP7 PUSH1 0x1 PUSH1 0xA0 SHL PUSH1 0x1 SWAP1 SUB PUSH1 0x7 DUP8 ADD SLOAD AND PUSH1 0x80 MSTORE PUSH1 0x8 DUP7 ADD SLOAD SWAP8 PUSH1 0x9 DUP8 ADD SLOAD SWAP1 PUSH1 0xA DUP9 ADD SLOAD SWAP3 PUSH1 0xB DUP10 ADD SLOAD SWAP5 PUSH1 0xC DUP11 ADD SLOAD SWAP7 PUSH1 0xD DUP12 ADD SLOAD SWAP9 PUSH1 0xE DUP13 ADD SLOAD SWAP11 PUSH1 0xF DUP14 ADD SLOAD SWAP13 PUSH1 0x10 ADD SLOAD SWAP14 PUSH1 0x11 ADD SLOAD PUSH1 0xC0 MSTORE PUSH1 0x40 MLOAD PUSH1 0xA0 MSTORE PUSH1 0xA0 MLOAD MSTORE PUSH1 0xA0 MLOAD PUSH1 0x20 ADD PUSH2 0x260 SWAP1 MSTORE PUSH1 0xA0 MLOAD PUSH2 0x260 ADD PUSH1 0xE0 MLOAD SWAP1 PUSH2 0x167D SWAP2 PUSH2 0x18A6 JUMP JUMPDEST PUSH1 0xA0 MLOAD DUP2 SUB PUSH1 0xA0 MLOAD PUSH1 0x40 ADD MSTORE PUSH2 0x1692 SWAP2 PUSH2 0x18A6 JUMP JUMPDEST PUSH1 0xA0 MLOAD DUP2 SUB PUSH1 0xA0 MLOAD PUSH1 0x60 ADD MSTORE PUSH2 0x16A7 SWAP2 PUSH2 0x18A6 JUMP JUMPDEST PUSH1 0xA0 MLOAD DUP2 SUB PUSH1 0xA0 MLOAD PUSH1 0x80 ADD MSTORE PUSH2 0x16BC SWAP2 PUSH2 0x18A6 JUMP JUMPDEST PUSH1 0xA0 MLOAD DUP2 SUB PUSH1 0xA0 MLOAD PUSH1 0xA0 ADD MSTORE PUSH2 0x16D1 SWAP2 PUSH2 0x18A6 JUMP JUMPDEST PUSH1 0xA0 MLOAD DUP2 SUB PUSH1 0xA0 MLOAD PUSH1 0xC0 ADD MSTORE PUSH2 0x16E6 SWAP2 PUSH2 0x18A6 JUMP JUMPDEST SWAP9 PUSH1 0x80 MLOAD PUSH1 0xA0 MLOAD PUSH1 0xE0 ADD MSTORE PUSH1 0xA0 MLOAD PUSH2 0x100 ADD MSTORE PUSH1 0xA0 MLOAD PUSH2 0x120 ADD MSTORE PUSH1 0xA0 MLOAD PUSH2 0x140 ADD MSTORE PUSH1 0xA0 MLOAD PUSH2 0x160 ADD MSTORE PUSH1 0xA0 MLOAD PUSH2 0x180 ADD MSTORE PUSH1 0xA0 MLOAD PUSH2 0x1A0 ADD MSTORE PUSH1 0xA0 MLOAD PUSH2 0x1C0 ADD MSTORE PUSH1 0xA0 MLOAD PUSH2 0x1E0 ADD MSTORE PUSH1 0xA0 MLOAD PUSH2 0x200 ADD MSTORE PUSH1 0xC0 MLOAD PUSH1 0xFF AND PUSH1 0x5 GT ISZERO PUSH2 0x941 JUMPI PUSH1 0xFF PUSH1 0xC0 MLOAD AND PUSH2 0x220 PUSH1 0xA0 MLOAD ADD MSTORE PUSH1 0xFF PUSH1 0xC0 MLOAD PUSH1 0x8 SHR AND ISZERO ISZERO PUSH2 0x240 PUSH1 0xA0 MLOAD ADD MSTORE PUSH1 0xA0 MLOAD SWAP1 SUB PUSH1 0xA0 MLOAD RETURN JUMPDEST PUSH1 0x1 SLOAD DUP2 LT ISZERO PUSH2 0x1791 JUMPI PUSH1 0x1 PUSH1 0x0 MSTORE PUSH1 0x12 PUSH1 0x20 PUSH1 0x0 KECCAK256 SWAP2 MUL ADD SWAP1 PUSH1 0x0 SWAP1 JUMP JUMPDEST PUSH4 0x4E487B71 PUSH1 0xE0 SHL PUSH1 0x0 MSTORE PUSH1 0x32 PUSH1 0x4 MSTORE PUSH1 0x24 PUSH1 0x0 REVERT JUMPDEST SWAP1 PUSH1 0x1 DUP3 DUP2 SHR SWAP3 AND DUP1 ISZERO PUSH2 0x17D7 JUMPI JUMPDEST PUSH1 0x20 DUP4 LT EQ PUSH2 0x17C1 JUMPI JUMP JUMPDEST PUSH4 0x4E487B71 PUSH1 0xE0 SHL PUSH1 0x0 MSTORE PUSH1 0x22 PUSH1 0x4 MSTORE PUSH1 0x24 PUSH1 0x0 REVERT JUMPDEST SWAP2 PUSH1 0x7F AND SWAP2 PUSH2 0x17B6 JUMP JUMPDEST SWAP1 PUSH1 0x1F DUP1 NOT SWAP2 ADD AND DUP2 ADD SWAP1 DUP2 LT PUSH1 0x1 PUSH1 0x1 PUSH1 0x40 SHL SUB DUP3 GT OR PUSH2 0xA1F JUMPI PUSH1 0x40 MSTORE JUMP JUMPDEST SWAP1 PUSH1 0x40 MLOAD SWAP2 DUP3 PUSH1 0x0 DUP3 SLOAD SWAP3 PUSH2 0x1816 DUP5 PUSH2 0x17A7 JUMP JUMPDEST DUP1 DUP5 MSTORE SWAP4 PUSH1 0x1 DUP2 AND SWAP1 DUP2 ISZERO PUSH2 0x1884 JUMPI POP PUSH1 0x1 EQ PUSH2 0x183D JUMPI JUMPDEST POP PUSH2 0x183B SWAP3 POP SUB DUP4 PUSH2 0x17E1 JUMP JUMPDEST JUMP JUMPDEST SWAP1 POP PUSH1 0x0 SWAP3 SWAP2 SWAP3 MSTORE PUSH1 0x20 PUSH1 0x0 KECCAK256 SWAP1 PUSH1 0x0 SWAP2 JUMPDEST DUP2 DUP4 LT PUSH2 0x1868 JUMPI POP POP SWAP1 PUSH1 0x20 PUSH2 0x183B SWAP3 DUP3 ADD ADD CODESIZE PUSH2 0x182E JUMP JUMPDEST PUSH1 0x20 SWAP2 SWAP4 POP DUP1 PUSH1 0x1 SWAP2 SLOAD DUP4 DUP6 DUP10 ADD ADD MSTORE ADD SWAP2 ADD SWAP1 SWAP2 DUP5 SWAP3 PUSH2 0x184F JUMP JUMPDEST SWAP1 POP PUSH1 0x20 SWAP3 POP PUSH2 0x183B SWAP5 SWAP2 POP PUSH1 0xFF NOT AND DUP3 DUP5 ADD MSTORE ISZERO ISZERO PUSH1 0x5 SHL DUP3 ADD ADD CODESIZE PUSH2 0x182E JUMP JUMPDEST SWAP2 SWAP1 DUP3 MLOAD SWAP3 DUP4 DUP3 MSTORE PUSH1 0x0 JUMPDEST DUP5 DUP2 LT PUSH2 0x18D2 JUMPI POP POP DUP3 PUSH1 0x0 PUSH1 0x20 DUP1 SWAP5 SWAP6 DUP5 ADD ADD MSTORE PUSH1 0x1F DUP1 NOT SWAP2 ADD AND ADD ADD SWAP1 JUMP JUMPDEST DUP1 PUSH1 0x20 DUP1 SWAP3 DUP5 ADD ADD MLOAD DUP3 DUP3 DUP7 ADD ADD MSTORE ADD PUSH2 0x18B1 JUMP JUMPDEST DUP2 PUSH1 0x1F DUP3 ADD SLT ISZERO PUSH2 0x21E JUMPI DUP1 CALLDATALOAD SWAP1 PUSH1 0x1 PUSH1 0x1 PUSH1 0x40 SHL SUB DUP3 GT PUSH2 0xA1F JUMPI PUSH1 0x40 MLOAD SWAP3 PUSH2 0x191B PUSH1 0x1F DUP5 ADD PUSH1 0x1F NOT AND PUSH1 0x20 ADD DUP6 PUSH2 0x17E1 JUMP JUMPDEST DUP3 DUP5 MSTORE PUSH1 0x20 DUP4 DUP4 ADD ADD GT PUSH2 0x21E JUMPI DUP2 PUSH1 0x0 SWAP3 PUSH1 0x20 DUP1 SWAP4 ADD DUP4 DUP7 ADD CALLDATACOPY DUP4 ADD ADD MSTORE SWAP1 JUMP JUMPDEST PUSH1 0x24 CALLDATALOAD SWAP1 PUSH1 0x1 PUSH1 0x1 PUSH1 0xA0 SHL SUB DUP3 AND DUP3 SUB PUSH2 0x21E JUMPI JUMP JUMPDEST ISZERO PUSH2 0x195A JUMPI JUMP JUMPDEST PUSH1 0x40 MLOAD PUSH3 0x461BCD PUSH1 0xE5 SHL DUP2 MSTORE PUSH1 0x20 PUSH1 0x4 DUP3 ADD MSTORE PUSH1 0xF PUSH1 0x24 DUP3 ADD MSTORE PUSH15 0x125B9D985B1A59081C1C9BDA9958DD PUSH1 0x8A SHL PUSH1 0x44 DUP3 ADD MSTORE PUSH1 0x64 SWAP1 REVERT JUMPDEST ISZERO PUSH2 0x1998 JUMPI JUMP JUMPDEST PUSH1 0x40 MLOAD PUSH3 0x461BCD PUSH1 0xE5 SHL DUP2 MSTORE PUSH1 0x20 PUSH1 0x4 DUP3 ADD MSTORE PUSH1 0xD PUSH1 0x24 DUP3 ADD MSTORE PUSH13 0x105B1C9958591E481D9BDD1959 PUSH1 0x9A SHL PUSH1 0x44 DUP3 ADD MSTORE PUSH1 0x64 SWAP1 REVERT JUMPDEST ISZERO PUSH2 0x19D4 JUMPI JUMP JUMPDEST PUSH1 0x40 MLOAD PUSH3 0x461BCD PUSH1 0xE5 SHL DUP2 MSTORE PUSH1 0x20 PUSH1 0x4 DUP3 ADD MSTORE PUSH1 0xA PUSH1 0x24 DUP3 ADD MSTORE PUSH10 0x27B7363C9037BBB732B9 PUSH1 0xB1 SHL PUSH1 0x44 DUP3 ADD MSTORE PUSH1 0x64 SWAP1 REVERT JUMPDEST DUP1 SLOAD DUP3 LT ISZERO PUSH2 0x1791 JUMPI PUSH1 0x0 MSTORE PUSH1 0x20 PUSH1 0x0 KECCAK256 SWAP1 PUSH1 0x2 SHL ADD SWAP1 PUSH1 0x0 SWAP1 JUMP JUMPDEST SWAP1 DUP2 ISZERO ISZERO DUP1 PUSH2 0x1A86 JUMPI JUMPDEST PUSH2 0x1A7E JUMPI TIMESTAMP LT SWAP2 DUP3 ISZERO DUP1 PUSH2 0x1A74 JUMPI JUMPDEST PUSH2 0x1A6C JUMPI TIMESTAMP GT SWAP1 DUP2 PUSH2 0x1A61 JUMPI JUMPDEST POP PUSH2 0x1A5B JUMPI PUSH2 0x1A56 JUMPI PUSH1 0x0 SWAP1 JUMP JUMPDEST PUSH1 0x0 SWAP1 JUMP JUMPDEST POP PUSH1 0x2 SWAP1 JUMP JUMPDEST SWAP1 POP TIMESTAMP GT ISZERO CODESIZE PUSH2 0x1A48 JUMP JUMPDEST POP POP POP PUSH1 0x1 SWAP1 JUMP JUMPDEST POP DUP1 TIMESTAMP GT ISZERO PUSH2 0x1A3B JUMP JUMPDEST POP POP POP PUSH1 0x3 SWAP1 JUMP JUMPDEST POP DUP2 TIMESTAMP GT PUSH2 0x1A2C JUMP INVALID LOG2 PUSH5 0x6970667358 0x22 SLT KECCAK256 0x4E SLOAD 0xC0 0xCE COINBASE 0xB3 0xFC 0xB3 PUSH19 0x8C20664DCE2C0AE99B57D3CCCDF83159F6487 0xAB 0xE SSTORE NOT PUSH5 0x736F6C6343 STOP ADDMOD SHR STOP CALLER "},"methodIdentifiers":{"addComment(uint256,string,uint8)":"44b76269","createProject(string,string,string,string,string,string,address,uint256,uint256,uint256,uint256,uint256,uint256)":"9e5c5ff8","donate(uint256)":"f14faf6f","getComment(uint256,uint256)":"48892753","getCommentsCount(uint256)":"4c9b78da","getProjectsCount()":"e4a8f18b","owner()":"8da5cb5b","projectCount()":"36fbad26","projects(uint256)":"107046bd","setProjectActive(uint256,bool)":"2f597db5","voteTrust(uint256)":"2c871447","voteWithdraw(uint256)":"272f04ab","votedTrust(uint256,address)":"85576a31","votedWithdraw(uint256,address)":"df3faafe","withdraw(uint256,address,uint256)":"e63697c8"}}}}}