{"contracts/StudentStartupFund.sol":{"StudentStartupFund":{"abi":[{"inputs":[],"stateMutability":"nonpayable","type":"constructor"},{"anonymous":false,"inputs":[{"indexed":true,"internalType":"uint256","name":"projectId","type":"uint256"},{"indexed":true,"internalType":"address","name":"user","type":"address"},{"indexed":false,"internalType":"uint8","name":"rating","type":"uint8"},{"indexed":false,"internalType":"string","name":"content","type":"string"}],"name":"CommentAdded","type":"event"},{"anonymous":false,"inputs":[{"indexed":true,"internalType":"uint256","name":"projectId","type":"uint256"},{"indexed":true,"internalType":"address","name":"user","type":"address"},{"indexed":false,"internalType":"uint256","name":"amount","type":"uint256"}],"name":"DividendClaimed","type":"event"},{"anonymous":false,"inputs":[{"indexed":true,"internalType":"uint256","name":"projectId","type":"uint256"},{"indexed":true,"internalType":"address","name":"donor","type":"address"},{"indexed":false,"internalType":"uint256","name":"amount","type":"uint256"}],"name":"DonationReceived","type":"event"},{"anonymous":false,"inputs":[{"indexed":true,"internalType":"uint256","name":"projectId","type":"uint256"},{"indexed":false,"internalType":"string","name":"title","type":"string"}],"name":"ProjectCreated","type":"event"},{"anonymous":false,"inputs":[{"indexed":true,"internalType":"uint256","name":"projectId","type":"uint256"},{"indexed":true,"internalType":"address","name":"treasury","type":"address"},{"indexed":false,"internalType":"uint256","name":"treasuryAmount","type":"uint256"},{"indexed":false,"internalType":"uint256","name":"dividendPool","type":"uint256"}],"name":"ProjectDisbursed","type":"event"},{"anonymous":false,"inputs":[{"indexed":true,"internalType":"uint256","name":"projectId","type":"uint256"},{"indexed":true,"internalType":"address","name":"user","type":"address"}],"name":"VotedTrust","type":"event"},{"anonymous":false,"inputs":[{"indexed":true,"internalType":"uint256","name":"projectId","type":"uint256"},{"indexed":true,"internalType":"address","name":"user","type":"address"}],"name":"VotedWithdraw","type":"event"},{"anonymous":false,"inputs":[{"indexed":true,"internalType":"uint256","name":"projectId","type":"uint256"},{"indexed":true,"internalType":"address","name":"to","type":"address"},{"indexed":false,"internalType":"uint256","name":"amount","type":"uint256"}],"name":"Withdrawn","type":"event"},{"inputs":[{"internalType":"uint256","name":"projectId","type":"uint256"},{"internalType":"string","name":"content","type":"string"},{"internalType":"uint8","name":"rating","type":"uint8"}],"name":"addComment","outputs":[],"stateMutability":"nonpayable","type":"function"},{"inputs":[{"internalType":"uint256","name":"projectId","type":"uint256"}],"name":"claimDividends","outputs":[],"stateMutability":"nonpayable","type":"function"},{"inputs":[{"internalType":"uint256","name":"","type":"uint256"},{"internalType":"address","name":"","type":"address"}],"name":"claimedDividends","outputs":[{"internalType":"uint256","name":"","type":"uint256"}],"stateMutability":"view","type":"function"},{"inputs":[{"internalType":"string","name":"title","type":"string"},{"internalType":"string","name":"description","type":"string"},{"internalType":"string","name":"image","type":"string"},{"internalType":"string","name":"teamJson","type":"string"},{"internalType":"string","name":"tokenName","type":"string"},{"internalType":"string","name":"tokenSymbol","type":"string"},{"internalType":"address","name":"tokenAddress","type":"address"},{"internalType":"uint256","name":"tokenPrice","type":"uint256"},{"internalType":"uint256","name":"goal","type":"uint256"},{"internalType":"uint256","name":"projectStart","type":"uint256"},{"internalType":"uint256","name":"projectEnd","type":"uint256"},{"internalType":"uint256","name":"iocStart","type":"uint256"},{"internalType":"uint256","name":"iocEnd","type":"uint256"}],"name":"createProject","outputs":[{"internalType":"uint256","name":"","type":"uint256"}],"stateMutability":"nonpayable","type":"function"},{"inputs":[{"internalType":"uint256","name":"projectId","type":"uint256"},{"internalType":"address payable","name":"treasury","type":"address"},{"internalType":"uint256","name":"treasuryAmount","type":"uint256"}],"name":"disburseAndFinalizeDividends","outputs":[],"stateMutability":"nonpayable","type":"function"},{"inputs":[{"internalType":"uint256","name":"projectId","type":"uint256"}],"name":"donate","outputs":[],"stateMutability":"payable","type":"function"},{"inputs":[{"internalType":"uint256","name":"","type":"uint256"},{"internalType":"address","name":"","type":"address"}],"name":"donatedByUser","outputs":[{"internalType":"uint256","name":"","type":"uint256"}],"stateMutability":"view","type":"function"},{"inputs":[{"internalType":"uint256","name":"projectId","type":"uint256"},{"internalType":"uint256","name":"index","type":"uint256"}],"name":"getComment","outputs":[{"internalType":"address","name":"user","type":"address"},{"internalType":"string","name":"content","type":"string"},{"internalType":"uint8","name":"rating","type":"uint8"},{"internalType":"uint256","name":"timestamp","type":"uint256"}],"stateMutability":"view","type":"function"},{"inputs":[{"internalType":"uint256","name":"projectId","type":"uint256"}],"name":"getCommentsCount","outputs":[{"internalType":"uint256","name":"","type":"uint256"}],"stateMutability":"view","type":"function"},{"inputs":[],"name":"getProjectsCount","outputs":[{"internalType":"uint256","name":"","type":"uint256"}],"stateMutability":"view","type":"function"},{"inputs":[],"name":"owner","outputs":[{"internalType":"address","name":"","type":"address"}],"stateMutability":"view","type":"function"},{"inputs":[],"name":"projectCount","outputs":[{"internalType":"uint256","name":"","type":"uint256"}],"stateMutability":"view","type":"function"},{"inputs":[{"internalType":"uint256","name":"","type":"uint256"}],"name":"projects","outputs":[{"internalType":"uint256","name":"id","type":"uint256"},{"internalType":"string","name":"title","type":"string"},{"internalType":"string","name":"description","type":"string"},{"internalType":"string","name":"image","type":"string"},{"internalType":"string","name":"teamJson","type":"string"},{"internalType":"string","name":"tokenName","type":"string"},{"internalType":"string","name":"tokenSymbol","type":"string"},{"internalType":"address","name":"tokenAddress","type":"address"},{"internalType":"uint256","name":"tokenPrice","type":"uint256"},{"internalType":"uint256","name":"goal","type":"uint256"},{"internalType":"uint256","name":"totalDonated","type":"uint256"},{"internalType":"uint256","name":"projectStart","type":"uint256"},{"internalType":"uint256","name":"projectEnd","type":"uint256"},{"internalType":"uint256","name":"iocStart","type":"uint256"},{"internalType":"uint256","name":"iocEnd","type":"uint256"},{"internalType":"uint256","name":"trustVotes","type":"uint256"},{"internalType":"uint256","name":"withdrawVotes","type":"uint256"},{"internalType":"enum StudentStartupFund.ProjectStatus","name":"status","type":"uint8"},{"internalType":"bool","name":"active","type":"bool"},{"internalType":"uint256","name":"dividendPool","type":"uint256"},{"internalType":"uint256","name":"dividendDenominator","type":"uint256"},{"internalType":"bool","name":"dividendsFinalized","type":"bool"}],"stateMutability":"view","type":"function"},{"inputs":[{"internalType":"uint256","name":"projectId","type":"uint256"},{"internalType":"bool","name":"active","type":"bool"}],"name":"setProjectActive","outputs":[],"stateMutability":"nonpayable","type":"function"},{"inputs":[{"internalType":"uint256","name":"projectId","type":"uint256"}],"name":"voteTrust","outputs":[],"stateMutability":"nonpayable","type":"function"},{"inputs":[{"internalType":"uint256","name":"projectId","type":"uint256"}],"name":"voteWithdraw","outputs":[],"stateMutability":"nonpayable","type":"function"},{"inputs":[{"internalType":"uint256","name":"","type":"uint256"},{"internalType":"address","name":"","type":"address"}],"name":"votedTrust","outputs":[{"internalType":"bool","name":"","type":"bool"}],"stateMutability":"view","type":"function"},{"inputs":[{"internalType":"uint256","name":"","type":"uint256"},{"internalType":"address","name":"","type":"address"}],"name":"votedWithdraw","outputs":[{"internalType":"bool","name":"","type":"bool"}],"stateMutability":"view","type":"function"},{"inputs":[{"internalType":"uint256","name":"projectId","type":"uint256"},{"internalType":"address payable","name":"to","type":"address"},{"internalType":"uint256","name":"amount","type":"uint256"}],"name":"withdraw","outputs":[],"stateMutability":"nonpayable","type":"function"}],"evm":{"bytecode":{"linkReferences":{},"object":"60808060405234602757600080546001600160a01b03191633179055612385908161002d8239f35b600080fdfe6101a0604052600436101561001357600080fd5b60003560e01c8063107046bd14611bcc578063272f04ab14611b1b5780632c87144714611a6a5780632f597db5146119b057806336fbad261461199257806344b762691461169757806348892753146115c25780634c9b78da146115895780637ed28f0c1461154157806385576a31146114f45780638da5cb5b146114cb5780639e5c5ff8146108dc578063bd7047c41461066b578063cff6356714610623578063df3faafe146105d6578063e4a8f18b146105b8578063e63697c814610441578063f14faf6f146103025763fe9c19a2146100ee57600080fd5b346102fd576100fc36612029565b61011460018060a09594951b036000541633146120da565b6101216001548310612053565b61012a82611e3c565b509260118401805461014160ff8260081c166122a3565b6014860180549661015560ff891615612261565b600a8101549461016b60098301548710156121e6565b61017a600e8301544211612225565b61018b6003601084015410156121a7565b6001600160a01b0316976101a089151561216c565b861515806102f3575b156102ae576101b8878761212f565b95804710610269576013838860126001960155015560ff191617905561ff0019169055600080808085885af16101ec61213c565b5015610224577fc33b9c84de8be0e2db6e7d47f37c842a16cf90a91afd0329363b576ea8efac7d9160409182519182526020820152a3005b60405162461bcd60e51b815260206004820152601860248201527f5472656173757279207472616e73666572206661696c656400000000000000006044820152606490fd5b60405162461bcd60e51b815260206004820152601d60248201527f496e73756666696369656e7420636f6e74726163742062616c616e63650000006044820152606490fd5b60405162461bcd60e51b815260206004820152601760248201527f496e76616c696420747265617375727920616d6f756e740000000000000000006044820152606490fd5b50858711156101a9565b600080fd5b60203660031901126102fd5760043561031e6001548210612053565b34156104075761032d81611e3c565b5061034160ff601183015460081c166122a3565b600d810154421015806103f9575b156103c257600a016103623482546120cd565b9055806000526004602052604060002060018060a01b03331660005260205260406000206103913482546120cd565b9055604051903482527f0b5b4c52969ff7329ecf7ee536409fda87812b15a8622bc6e8cdeab3aee14a2660203393a3005b60405162461bcd60e51b815260206004820152600f60248201526e4e6f7420696e20494f432074696d6560881b6044820152606490fd5b50600e81015442111561034f565b60405162461bcd60e51b81526020600482015260126024820152710416d6f756e74206d757374206265203e20360741b6044820152606490fd5b346102fd5761044f36612029565b919061046660018060a01b036000541633146120da565b6104736001548310612053565b6001600160a01b03169161048883151561216c565b47811161057c576104a96003601061049f85611e3c565b50015410156121a7565b6104cf600a6104b784611e3c565b50015460096104c585611e3c565b50015411156121e6565b6104e7600e6104dd84611e3c565b5001544211612225565b61050160ff60146104f785611e3c565b5001541615612261565b600080808084875af161051261213c565b50156105455760207fcf7d23a3cbe4e8b36ff82fd1b05b1b17373dc7804b4ebbd6e2356716ef20237291604051908152a3005b60405162461bcd60e51b815260206004820152600f60248201526e151c985b9cd9995c8819985a5b1959608a1b6044820152606490fd5b60405162461bcd60e51b8152602060048201526014602482015273496e73756666696369656e742062616c616e636560601b6044820152606490fd5b346102fd5760003660031901126102fd576020600154604051908152f35b346102fd5760403660031901126102fd576105ef612013565b600435600052600760205260406000209060018060a01b0316600052602052602060ff604060002054166040519015158152f35b346102fd5760403660031901126102fd5761063c612013565b600435600052600560205260406000209060018060a01b03166000526020526020604060002054604051908152f35b346102fd5760203660031901126102fd5760043561068c6001548210612053565b61069581611e3c565b5060ff6014820154161561089757601281015490811561086357600083815260046020908152604080832033845290915290205491821561082f57808302928304036108195760130154908115610803570490806000526005602052604060002060018060a01b033316600052602052604060002054808311156107cb5761071d908361212f565b91816000526005602052604060002060018060a01b033316600052602052604060002055600080808085335af161075261213c565b5015610786576040519182527fa1594d215a577c1905bcb0b5b186a40a0104714277441d4b2ac428c89bf7f4b160203393a3005b60405162461bcd60e51b815260206004820152601860248201527f4469766964656e64207472616e73666572206661696c656400000000000000006044820152606490fd5b60405162461bcd60e51b815260206004820152601060248201526f4e6f7468696e6720746f20636c61696d60801b6044820152606490fd5b634e487b7160e01b600052601260045260246000fd5b634e487b7160e01b600052601160045260246000fd5b60405162461bcd60e51b815260206004820152600c60248201526b4e6f20646f6e6174696f6e7360a01b6044820152606490fd5b60405162461bcd60e51b815260206004820152600c60248201526b4e6f206469766964656e647360a01b6044820152606490fd5b60405162461bcd60e51b815260206004820152601760248201527f4469766964656e6473206e6f742066696e616c697a65640000000000000000006044820152606490fd5b346102fd576101a03660031901126102fd576004356001600160401b0381116102fd5761090d903690600401611fcc565b6024356001600160401b0381116102fd5761092c903690600401611fcc565b906044356001600160401b0381116102fd5761094c903690600401611fcc565b906064356001600160401b0381116102fd5761096c903690600401611fcc565b916084356001600160401b0381116102fd5761098c903690600401611fcc565b60a4356001600160401b0381116102fd576109ab903690600401611fcc565b60c4356001600160a01b038116908190036102fd576101043561012435906101443592610164359461018435966109ed60018060a01b036000541633146120da565b878787878d511561149557871561145d57159081611454575b5061143c575b159081611433575b5061141b575b878710156113e4578585116113a8576001549a610a388989896122e2565b996040519d8e6102c081019081106001600160401b03821117610f71578f90918f8f90606094604052835260208301526040820152015260808d015260a08c015260c08b015260e08a015260e4356101008a015261012089015260006101408901526101608801526101808701526101a08601526101c085015260006101e085015260006102008501526005811015610e8c5761022084015260016102408401526000610260840152600061028084015260006102a0840152600160401b821015610f715760018201600155610b0d82611e3c565b611392578351815560208401518051906001600160401b038211610f71578190610b3a6001850154611e71565b601f811161133f575b50602090601f83116001146112ce576000926112c3575b50508160011b916000199060031b1c19161760018201555b60408401518051906001600160401b038211610f71578190610b976002850154611e71565b601f8111611270575b50602090601f83116001146111ff576000926111f4575b50508160011b916000199060031b1c19161760028201555b60608401518051906001600160401b038211610f71578190610bf46003850154611e71565b601f81116111a1575b50602090601f831160011461113057600092611125575b50508160011b916000199060031b1c19161760038201555b60808401518051906001600160401b038211610f71578190610c516004850154611e71565b601f81116110d2575b50602090601f831160011461106157600092611056575b50508160011b916000199060031b1c19161760048201555b60a08401518051906001600160401b038211610f71578190610cae6005850154611e71565b601f8111611003575b50602090601f8311600114610f9257600092610f87575b50508160011b916000199060031b1c19161760058201555b60c08401518051906001600160401b038211610f71578190610d0b6006850154611e71565b601f8111610f1e575b50602090601f8311600114610ead57600092610ea2575b50508160011b916000199060031b1c19161760068201555b60e08401516007820180546001600160a01b0319166001600160a01b039290921691909117905561010084015160088201556101208401516009820155610140840151600a820155610160840151600b820155610180840151600c8201556101a0840151600d8201556101c0840151600e8201556101e0840151600f8201556102008401516010820155610220840151916011820191906005841015610e8c576020956102a06014610e8194610e417fed06d1e70f1faa0e1750def1b3a1d942390a8f47d03679c9025a1c38dc34fe7b978a9960ff80198354169116178155610240860151151561ff00825491151560081b169061ff001916179055565b6102608401516012820155610280840151601382015501910151151560ff8019835416911617905560015460025560405191829187835287830190611f70565b0390a2604051908152f35b634e487b7160e01b600052602160045260246000fd5b015190508680610d2b565b92506006840160005280600020906000935b601f1984168510610f03576001945083601f19811610610eea575b505050811b016006820155610d43565b015160001960f88460031b161c19169055868080610eda565b81810151835560209485019460019093019290910190610ebf565b909150600684016000526020600020601f840160051c810160208510610f6a575b90849392915b601f830160051c82018110610f5b575050610d14565b60008155859450600101610f45565b5080610f3f565b634e487b7160e01b600052604160045260246000fd5b015190508680610cce565b92506005840160005280600020906000935b601f1984168510610fe8576001945083601f19811610610fcf575b505050811b016005820155610ce6565b015160001960f88460031b161c19169055868080610fbf565b81810151835560209485019460019093019290910190610fa4565b909150600584016000526020600020601f840160051c81016020851061104f575b90849392915b601f830160051c82018110611040575050610cb7565b6000815585945060010161102a565b5080611024565b015190508680610c71565b92506004840160005280600020906000935b601f19841685106110b7576001945083601f1981161061109e575b505050811b016004820155610c89565b015160001960f88460031b161c1916905586808061108e565b81810151835560209485019460019093019290910190611073565b909150600484016000526020600020601f840160051c81016020851061111e575b90849392915b601f830160051c8201811061110f575050610c5a565b600081558594506001016110f9565b50806110f3565b015190508680610c14565b92506003840160005280600020906000935b601f1984168510611186576001945083601f1981161061116d575b505050811b016003820155610c2c565b015160001960f88460031b161c1916905586808061115d565b81810151835560209485019460019093019290910190611142565b909150600384016000526020600020601f840160051c8101602085106111ed575b90849392915b601f830160051c820181106111de575050610bfd565b600081558594506001016111c8565b50806111c2565b015190508680610bb7565b92506002840160005280600020906000935b601f1984168510611255576001945083601f1981161061123c575b505050811b016002820155610bcf565b015160001960f88460031b161c1916905586808061122c565b81810151835560209485019460019093019290910190611211565b909150600284016000526020600020601f840160051c8101602085106112bc575b90849392915b601f830160051c820181106112ad575050610ba0565b60008155859450600101611297565b5080611291565b015190508680610b5a565b92506001840160005280600020906000935b601f1984168510611324576001945083601f1981161061130b575b505050811b016001820155610b72565b015160001960f88460031b161c191690558680806112fb565b818101518355602094850194600190930192909101906112e0565b909150600184016000526020600020601f840160051c81016020851061138b575b90849392915b601f830160051c8201811061137c575050610b43565b60008155859450600101611366565b5080611360565b634e487b7160e01b600052600060045260246000fd5b60405162461bcd60e51b8152602060048201526014602482015273141c9bda9958dd081cdd185c9d080f0f48195b9960621b6044820152606490fd5b60405162461bcd60e51b815260206004820152600f60248201526e1253d0c81cdd185c9d080f08195b99608a1b6044820152606490fd5b965042955062278d0086018087116108195796610a1a565b9050158d610a14565b96504295506276a70086018087116108195796610a0c565b9050158f610a06565b60405162461bcd60e51b815260206004820152601060248201526f0476f616c206d757374206265203e20360841b6044820152606490fd5b60405162461bcd60e51b815260206004820152600e60248201526d151a5d1b19481c995c5d5a5c995960921b6044820152606490fd5b346102fd5760003660031901126102fd576000546040516001600160a01b039091168152602090f35b346102fd5760403660031901126102fd5761150d612013565b600435600052600660205260406000209060018060a01b0316600052602052602060ff604060002054166040519015158152f35b346102fd5760403660031901126102fd5761155a612013565b600435600052600460205260406000209060018060a01b03166000526020526020604060002054604051908152f35b346102fd5760203660031901126102fd576004356115aa6001548210612053565b60005260036020526020604060002054604051908152f35b346102fd5760403660031901126102fd576004356024356115e66001548310612053565b816000526003602052604060002054811015611662576116129160005260036020526040600020612113565b5060018060a01b0381541660ff600283015416611636600160038501549401611ecc565b926116536040519485948552608060208601526080850190611f70565b91604084015260608301520390f35b60405162461bcd60e51b815260206004820152600d60248201526c092dcecc2d8d2c840d2dcc8caf609b1b6044820152606490fd5b346102fd5760603660031901126102fd576004356024356001600160401b0381116102fd576116ca903690600401611fcc565b6044359160ff83168093036102fd576116e66001548210612053565b81511561195a5760018310158061194f575b1561191d57806000526003602052604060002092604051608081018181106001600160401b03821117610f715760405233815260208101948486526040820183815260608301914283528054600160401b811015610f715761175f91600182018155612113565b939093611392575183546001600160a01b0319166001600160a01b03919091161783559551805190969060018401906001600160401b038111610f71576117a68254611e71565b601f81116118d5575b506020601f82116001146118485790806003959493927f75af7a249fd33f32da5aebdf42415cf43a79f1a958cb5d25980d825bb6c4a541999a9b60009261183d575b50508160011b9160001990871b1c19161790555b60ff6002850191511660ff1982541617905551910155604051908152604060208201528061183833956040830190611f70565b0390a3005b015190508b806117f1565b601f1982169983600052816000209a60005b8181106118bd57509a60019284926003989796957f75af7a249fd33f32da5aebdf42415cf43a79f1a958cb5d25980d825bb6c4a5419c9d9e106118a5575b505050811b019055611805565b015160001983891b60f8161c191690558b8080611898565b838301518d556001909c019b6020938401930161185a565b826000526020600020601f830160051c81019160208410611913575b601f0160051c01905b81811061190757506117af565b600081556001016118fa565b90915081906118f1565b60405162461bcd60e51b815260206004820152600a602482015269526174696e6720312d3560b01b6044820152606490fd5b5060058311156116f8565b60405162461bcd60e51b815260206004820152601060248201526f10dbdb9d195b9d081c995c5d5a5c995960821b6044820152606490fd5b346102fd5760003660031901126102fd576020600254604051908152f35b346102fd5760403660031901126102fd5760043560243580151581036102fd576119e560018060a01b036000541633146120da565b6119f26001548310612053565b60ff60146119ff84611e3c565b50015416611a31576011611a15611a2f93611e3c565b50019061ff00825491151560081b169061ff001916179055565b005b60405162461bcd60e51b8152602060048201526011602482015270141c9bda9958dd08199a5b985b1a5e9959607a1b6044820152606490fd5b346102fd5760203660031901126102fd57600435611a8b6001548210612053565b6000818152600660209081526040808320338452909152902054611ab29060ff1615612091565b60008181526006602090815260408083203384529091529020805460ff19166001179055600f611ae182611e3c565b500180549060018201809211610819575533907fb31d078aff93840e07bd4feb45e413ef1141e91543e8f7c6f7e17b18963319b0600080a3005b346102fd5760203660031901126102fd57600435611b3c6001548210612053565b6000818152600760209081526040808320338452909152902054611b639060ff1615612091565b60008181526007602090815260408083203384529091529020805460ff191660011790556010611b9282611e3c565b500180549060018201809211610819575533907f5e3e2b315b7a0c8f5b16c6826fea3480c2b34a38cee053a916bd6bc4569756f0600080a3005b346102fd5760203660031901126102fd576004356001548110156102fd57611bf390611e3c565b9061018052506101805154611c0d60016101805101611ecc565b61012052611c2060026101805101611ecc565b61014052611c3360036101805101611ecc565b90611c4360046101805101611ecc565b91611c5360056101805101611ecc565b92611c6360066101805101611ecc565b9360018060a01b03600761018051015416610160526008610180510154946009610180510154600a610180510154600b61018051015491611d89600c61018051015494611d77600d61018051015497611d66600e6101805101549a611d54600f6101805101549d60106101805101549f6011610180510154610100526012610180510154608052601361018051015460c05260ff60146101805101541660e05260405160a05260a051526102c0602060a0510152611d42611d2d6102c060a0510161012051611f70565b60a0518103604060a051015261014051611f70565b9060a0518203606060a0510152611f70565b9060a0518203608060a0510152611f70565b9060a051820360a080510152611f70565b9060a051820360c060a0510152611f70565b986101605160e060a051015261010060a051015261012060a051015261014060a051015261016060a051015261018060a05101526101a060a05101526101c060a05101526101e060a051015261020060a0510152600560ff61010051161015610e8c5760ff610100511661022060a051015260ff6101005160081c16151561024060a051015260805161026060a051015260c05161028060a051015260e05115156102a060a051015260a051900360a051f35b600154811015611e5b5760016000526015602060002091020190600090565b634e487b7160e01b600052603260045260246000fd5b90600182811c92168015611ea1575b6020831014611e8b57565b634e487b7160e01b600052602260045260246000fd5b91607f1691611e80565b90601f801991011681019081106001600160401b03821117610f7157604052565b9060405191826000825492611ee084611e71565b8084529360018116908115611f4e5750600114611f07575b50611f0592500383611eab565b565b90506000929192526020600020906000915b818310611f32575050906020611f059282010138611ef8565b6020919350806001915483858901015201910190918492611f19565b905060209250611f0594915060ff191682840152151560051b82010138611ef8565b919082519283825260005b848110611f9c575050826000602080949584010152601f8019910116010190565b80602080928401015182828601015201611f7b565b6001600160401b038111610f7157601f01601f191660200190565b81601f820112156102fd57803590611fe382611fb1565b92611ff16040519485611eab565b828452602083830101116102fd57816000926020809301838601378301015290565b602435906001600160a01b03821682036102fd57565b60609060031901126102fd57600435906024356001600160a01b03811681036102fd579060443590565b1561205a57565b60405162461bcd60e51b815260206004820152600f60248201526e125b9d985b1a59081c1c9bda9958dd608a1b6044820152606490fd5b1561209857565b60405162461bcd60e51b815260206004820152600d60248201526c105b1c9958591e481d9bdd1959609a1b6044820152606490fd5b9190820180921161081957565b156120e157565b60405162461bcd60e51b815260206004820152600a60248201526927b7363c9037bbb732b960b11b6044820152606490fd5b8054821015611e5b5760005260206000209060021b0190600090565b9190820391821161081957565b3d15612167573d9061214d82611fb1565b9161215b6040519384611eab565b82523d6000602084013e565b606090565b1561217357565b60405162461bcd60e51b815260206004820152600c60248201526b5a65726f206164647265737360a01b6044820152606490fd5b156121ae57565b60405162461bcd60e51b815260206004820152601060248201526f4e6f7420656e6f75676820766f74657360801b6044820152606490fd5b156121ed57565b60405162461bcd60e51b815260206004820152601060248201526f11dbd85b081b9bdd081c995858da195960821b6044820152606490fd5b1561222c57565b60405162461bcd60e51b815260206004820152600d60248201526c1253d0c81b9bdd08195b991959609a1b6044820152606490fd5b1561226857565b60405162461bcd60e51b8152602060048201526013602482015272111a5d9a59195b991cc8199a5b985b1a5e9959606a1b6044820152606490fd5b156122aa57565b60405162461bcd60e51b815260206004820152601060248201526f50726f6a65637420696e61637469766560801b6044820152606490fd5b9081151580612346575b61233e57421091821580612334575b61232c5742119081612321575b5061231b5761231657600090565b600090565b50600290565b905042111538612308565b505050600190565b50804211156122fb565b505050600390565b508142116122ec56fea2646970667358221220eda0729497ad392aa535fc9ccc8972b176382bd6de5ce822add87c15e7d1ac9664736f6c634300081c0033","opcodes":"PUSH1 0x80 DUP1 PUSH1 0x40 MSTORE CALLVALUE PUSH1 0x27 JUMPI PUSH1 0x0 DUP1 SLOAD PUSH1 0x1 PUSH1 0x1 PUSH1 0xA0 SHL SUB NOT AND CALLER OR SWAP1 SSTORE PUSH2 0x2385 SWAP1 DUP2 PUSH2 0x2D DUP3 CODECOPY RETURN JUMPDEST PUSH1 0x0 DUP1 REVERT INVALID PUSH2 0x1A0 PUSH1 0x40 MSTORE PUSH1 0x4 CALLDATASIZE LT ISZERO PUSH2 0x13 JUMPI PUSH1 0x0 DUP1 REVERT JUMPDEST PUSH1 0x0 CALLDATALOAD PUSH1 0xE0 SHR DUP1 PUSH4 0x107046BD EQ PUSH2 0x1BCC JUMPI DUP1 PUSH4 0x272F04AB EQ PUSH2 0x1B1B JUMPI DUP1 PUSH4 0x2C871447 EQ PUSH2 0x1A6A JUMPI DUP1 PUSH4 0x2F597DB5 EQ PUSH2 0x19B0 JUMPI DUP1 PUSH4 0x36FBAD26 EQ PUSH2 0x1992 JUMPI DUP1 PUSH4 0x44B76269 EQ PUSH2 0x1697 JUMPI DUP1 PUSH4 0x48892753 EQ PUSH2 0x15C2 JUMPI DUP1 PUSH4 0x4C9B78DA EQ PUSH2 0x1589 JUMPI DUP1 PUSH4 0x7ED28F0C EQ PUSH2 0x1541 JUMPI DUP1 PUSH4 0x85576A31 EQ PUSH2 0x14F4 JUMPI DUP1 PUSH4 0x8DA5CB5B EQ PUSH2 0x14CB JUMPI DUP1 PUSH4 0x9E5C5FF8 EQ PUSH2 0x8DC JUMPI DUP1 PUSH4 0xBD7047C4 EQ PUSH2 0x66B JUMPI DUP1 PUSH4 0xCFF63567 EQ PUSH2 0x623 JUMPI DUP1 PUSH4 0xDF3FAAFE EQ PUSH2 0x5D6 JUMPI DUP1 PUSH4 0xE4A8F18B EQ PUSH2 0x5B8 JUMPI DUP1 PUSH4 0xE63697C8 EQ PUSH2 0x441 JUMPI DUP1 PUSH4 0xF14FAF6F EQ PUSH2 0x302 JUMPI PUSH4 0xFE9C19A2 EQ PUSH2 0xEE JUMPI PUSH1 0x0 DUP1 REVERT JUMPDEST CALLVALUE PUSH2 0x2FD JUMPI PUSH2 0xFC CALLDATASIZE PUSH2 0x2029 JUMP JUMPDEST PUSH2 0x114 PUSH1 0x1 DUP1 PUSH1 0xA0 SWAP6 SWAP5 SWAP6 SHL SUB PUSH1 0x0 SLOAD AND CALLER EQ PUSH2 0x20DA JUMP JUMPDEST PUSH2 0x121 PUSH1 0x1 SLOAD DUP4 LT PUSH2 0x2053 JUMP JUMPDEST PUSH2 0x12A DUP3 PUSH2 0x1E3C JUMP JUMPDEST POP SWAP3 PUSH1 0x11 DUP5 ADD DUP1 SLOAD PUSH2 0x141 PUSH1 0xFF DUP3 PUSH1 0x8 SHR AND PUSH2 0x22A3 JUMP JUMPDEST PUSH1 0x14 DUP7 ADD DUP1 SLOAD SWAP7 PUSH2 0x155 PUSH1 0xFF DUP10 AND ISZERO PUSH2 0x2261 JUMP JUMPDEST PUSH1 0xA DUP2 ADD SLOAD SWAP5 PUSH2 0x16B PUSH1 0x9 DUP4 ADD SLOAD DUP8 LT ISZERO PUSH2 0x21E6 JUMP JUMPDEST PUSH2 0x17A PUSH1 0xE DUP4 ADD SLOAD TIMESTAMP GT PUSH2 0x2225 JUMP JUMPDEST PUSH2 0x18B PUSH1 0x3 PUSH1 0x10 DUP5 ADD SLOAD LT ISZERO PUSH2 0x21A7 JUMP JUMPDEST PUSH1 0x1 PUSH1 0x1 PUSH1 0xA0 SHL SUB AND SWAP8 PUSH2 0x1A0 DUP10 ISZERO ISZERO PUSH2 0x216C JUMP JUMPDEST DUP7 ISZERO ISZERO DUP1 PUSH2 0x2F3 JUMPI JUMPDEST ISZERO PUSH2 0x2AE JUMPI PUSH2 0x1B8 DUP8 DUP8 PUSH2 0x212F JUMP JUMPDEST SWAP6 DUP1 SELFBALANCE LT PUSH2 0x269 JUMPI PUSH1 0x13 DUP4 DUP9 PUSH1 0x12 PUSH1 0x1 SWAP7 ADD SSTORE ADD SSTORE PUSH1 0xFF NOT AND OR SWAP1 SSTORE PUSH2 0xFF00 NOT AND SWAP1 SSTORE PUSH1 0x0 DUP1 DUP1 DUP1 DUP6 DUP9 GAS CALL PUSH2 0x1EC PUSH2 0x213C JUMP JUMPDEST POP ISZERO PUSH2 0x224 JUMPI PUSH32 0xC33B9C84DE8BE0E2DB6E7D47F37C842A16CF90A91AFD0329363B576EA8EFAC7D SWAP2 PUSH1 0x40 SWAP2 DUP3 MLOAD SWAP2 DUP3 MSTORE PUSH1 0x20 DUP3 ADD MSTORE LOG3 STOP JUMPDEST PUSH1 0x40 MLOAD PUSH3 0x461BCD PUSH1 0xE5 SHL DUP2 MSTORE PUSH1 0x20 PUSH1 0x4 DUP3 ADD MSTORE PUSH1 0x18 PUSH1 0x24 DUP3 ADD MSTORE PUSH32 0x5472656173757279207472616E73666572206661696C65640000000000000000 PUSH1 0x44 DUP3 ADD MSTORE PUSH1 0x64 SWAP1 REVERT JUMPDEST PUSH1 0x40 MLOAD PUSH3 0x461BCD PUSH1 0xE5 SHL DUP2 MSTORE PUSH1 0x20 PUSH1 0x4 DUP3 ADD MSTORE PUSH1 0x1D PUSH1 0x24 DUP3 ADD MSTORE PUSH32 0x496E73756666696369656E7420636F6E74726163742062616C616E6365000000 PUSH1 0x44 DUP3 ADD MSTORE PUSH1 0x64 SWAP1 REVERT JUMPDEST PUSH1 0x40 MLOAD PUSH3 0x461BCD PUSH1 0xE5 SHL DUP2 MSTORE PUSH1 0x20 PUSH1 0x4 DUP3 ADD MSTORE PUSH1 0x17 PUSH1 0x24 DUP3 ADD MSTORE PUSH32 0x496E76616C696420747265617375727920616D6F756E74000000000000000000 PUSH1 0x44 DUP3 ADD MSTORE PUSH1 0x64 SWAP1 REVERT JUMPDEST POP DUP6 DUP8 GT ISZERO PUSH2 0x1A9 JUMP JUMPDEST PUSH1 0x0 DUP1 REVERT JUMPDEST PUSH1 0x20 CALLDATASIZE PUSH1 0x3 NOT ADD SLT PUSH2 0x2FD JUMPI PUSH1 0x4 CALLDATALOAD PUSH2 0x31E PUSH1 0x1 SLOAD DUP3 LT PUSH2 0x2053 JUMP JUMPDEST CALLVALUE ISZERO PUSH2 0x407 JUMPI PUSH2 0x32D DUP2 PUSH2 0x1E3C JUMP JUMPDEST POP PUSH2 0x341 PUSH1 0xFF PUSH1 0x11 DUP4 ADD SLOAD PUSH1 0x8 SHR AND PUSH2 0x22A3 JUMP JUMPDEST PUSH1 0xD DUP2 ADD SLOAD TIMESTAMP LT ISZERO DUP1 PUSH2 0x3F9 JUMPI JUMPDEST ISZERO PUSH2 0x3C2 JUMPI PUSH1 0xA ADD PUSH2 0x362 CALLVALUE DUP3 SLOAD PUSH2 0x20CD JUMP JUMPDEST SWAP1 SSTORE DUP1 PUSH1 0x0 MSTORE PUSH1 0x4 PUSH1 0x20 MSTORE PUSH1 0x40 PUSH1 0x0 KECCAK256 PUSH1 0x1 DUP1 PUSH1 0xA0 SHL SUB CALLER AND PUSH1 0x0 MSTORE PUSH1 0x20 MSTORE PUSH1 0x40 PUSH1 0x0 KECCAK256 PUSH2 0x391 CALLVALUE DUP3 SLOAD PUSH2 0x20CD JUMP JUMPDEST SWAP1 SSTORE PUSH1 0x40 MLOAD SWAP1 CALLVALUE DUP3 MSTORE PUSH32 0xB5B4C52969FF7329ECF7EE536409FDA87812B15A8622BC6E8CDEAB3AEE14A26 PUSH1 0x20 CALLER SWAP4 LOG3 STOP JUMPDEST PUSH1 0x40 MLOAD PUSH3 0x461BCD PUSH1 0xE5 SHL DUP2 MSTORE PUSH1 0x20 PUSH1 0x4 DUP3 ADD MSTORE PUSH1 0xF PUSH1 0x24 DUP3 ADD MSTORE PUSH15 0x4E6F7420696E20494F432074696D65 PUSH1 0x88 SHL PUSH1 0x44 DUP3 ADD MSTORE PUSH1 0x64 SWAP1 REVERT JUMPDEST POP PUSH1 0xE DUP2 ADD SLOAD TIMESTAMP GT ISZERO PUSH2 0x34F JUMP JUMPDEST PUSH1 0x40 MLOAD PUSH3 0x461BCD PUSH1 0xE5 SHL DUP2 MSTORE PUSH1 0x20 PUSH1 0x4 DUP3 ADD MSTORE PUSH1 0x12 PUSH1 0x24 DUP3 ADD MSTORE PUSH18 0x416D6F756E74206D757374206265203E203 PUSH1 0x74 SHL PUSH1 0x44 DUP3 ADD MSTORE PUSH1 0x64 SWAP1 REVERT JUMPDEST CALLVALUE PUSH2 0x2FD JUMPI PUSH2 0x44F CALLDATASIZE PUSH2 0x2029 JUMP JUMPDEST SWAP2 SWAP1 PUSH2 0x466 PUSH1 0x1 DUP1 PUSH1 0xA0 SHL SUB PUSH1 0x0 SLOAD AND CALLER EQ PUSH2 0x20DA JUMP JUMPDEST PUSH2 0x473 PUSH1 0x1 SLOAD DUP4 LT PUSH2 0x2053 JUMP JUMPDEST PUSH1 0x1 PUSH1 0x1 PUSH1 0xA0 SHL SUB AND SWAP2 PUSH2 0x488 DUP4 ISZERO ISZERO PUSH2 0x216C JUMP JUMPDEST SELFBALANCE DUP2 GT PUSH2 0x57C JUMPI PUSH2 0x4A9 PUSH1 0x3 PUSH1 0x10 PUSH2 0x49F DUP6 PUSH2 0x1E3C JUMP JUMPDEST POP ADD SLOAD LT ISZERO PUSH2 0x21A7 JUMP JUMPDEST PUSH2 0x4CF PUSH1 0xA PUSH2 0x4B7 DUP5 PUSH2 0x1E3C JUMP JUMPDEST POP ADD SLOAD PUSH1 0x9 PUSH2 0x4C5 DUP6 PUSH2 0x1E3C JUMP JUMPDEST POP ADD SLOAD GT ISZERO PUSH2 0x21E6 JUMP JUMPDEST PUSH2 0x4E7 PUSH1 0xE PUSH2 0x4DD DUP5 PUSH2 0x1E3C JUMP JUMPDEST POP ADD SLOAD TIMESTAMP GT PUSH2 0x2225 JUMP JUMPDEST PUSH2 0x501 PUSH1 0xFF PUSH1 0x14 PUSH2 0x4F7 DUP6 PUSH2 0x1E3C JUMP JUMPDEST POP ADD SLOAD AND ISZERO PUSH2 0x2261 JUMP JUMPDEST PUSH1 0x0 DUP1 DUP1 DUP1 DUP5 DUP8 GAS CALL PUSH2 0x512 PUSH2 0x213C JUMP JUMPDEST POP ISZERO PUSH2 0x545 JUMPI PUSH1 0x20 PUSH32 0xCF7D23A3CBE4E8B36FF82FD1B05B1B17373DC7804B4EBBD6E2356716EF202372 SWAP2 PUSH1 0x40 MLOAD SWAP1 DUP2 MSTORE LOG3 STOP JUMPDEST PUSH1 0x40 MLOAD PUSH3 0x461BCD PUSH1 0xE5 SHL DUP2 MSTORE PUSH1 0x20 PUSH1 0x4 DUP3 ADD MSTORE PUSH1 0xF PUSH1 0x24 DUP3 ADD MSTORE PUSH15 0x151C985B9CD9995C8819985A5B1959 PUSH1 0x8A SHL PUSH1 0x44 DUP3 ADD MSTORE PUSH1 0x64 SWAP1 REVERT JUMPDEST PUSH1 0x40 MLOAD PUSH3 0x461BCD PUSH1 0xE5 SHL DUP2 MSTORE PUSH1 0x20 PUSH1 0x4 DUP3 ADD MSTORE PUSH1 0x14 PUSH1 0x24 DUP3 ADD MSTORE PUSH20 0x496E73756666696369656E742062616C616E6365 PUSH1 0x60 SHL PUSH1 0x44 DUP3 ADD MSTORE PUSH1 0x64 SWAP1 REVERT JUMPDEST CALLVALUE PUSH2 0x2FD JUMPI PUSH1 0x0 CALLDATASIZE PUSH1 0x3 NOT ADD SLT PUSH2 0x2FD JUMPI PUSH1 0x20 PUSH1 0x1 SLOAD PUSH1 0x40 MLOAD SWAP1 DUP2 MSTORE RETURN JUMPDEST CALLVALUE PUSH2 0x2FD JUMPI PUSH1 0x40 CALLDATASIZE PUSH1 0x3 NOT ADD SLT PUSH2 0x2FD JUMPI PUSH2 0x5EF PUSH2 0x2013 JUMP JUMPDEST PUSH1 0x4 CALLDATALOAD PUSH1 0x0 MSTORE PUSH1 0x7 PUSH1 0x20 MSTORE PUSH1 0x40 PUSH1 0x0 KECCAK256 SWAP1 PUSH1 0x1 DUP1 PUSH1 0xA0 SHL SUB AND PUSH1 0x0 MSTORE PUSH1 0x20 MSTORE PUSH1 0x20 PUSH1 0xFF PUSH1 0x40 PUSH1 0x0 KECCAK256 SLOAD AND PUSH1 0x40 MLOAD SWAP1 ISZERO ISZERO DUP2 MSTORE RETURN JUMPDEST CALLVALUE PUSH2 0x2FD JUMPI PUSH1 0x40 CALLDATASIZE PUSH1 0x3 NOT ADD SLT PUSH2 0x2FD JUMPI PUSH2 0x63C PUSH2 0x2013 JUMP JUMPDEST PUSH1 0x4 CALLDATALOAD PUSH1 0x0 MSTORE PUSH1 0x5 PUSH1 0x20 MSTORE PUSH1 0x40 PUSH1 0x0 KECCAK256 SWAP1 PUSH1 0x1 DUP1 PUSH1 0xA0 SHL SUB AND PUSH1 0x0 MSTORE PUSH1 0x20 MSTORE PUSH1 0x20 PUSH1 0x40 PUSH1 0x0 KECCAK256 SLOAD PUSH1 0x40 MLOAD SWAP1 DUP2 MSTORE RETURN JUMPDEST CALLVALUE PUSH2 0x2FD JUMPI PUSH1 0x20 CALLDATASIZE PUSH1 0x3 NOT ADD SLT PUSH2 0x2FD JUMPI PUSH1 0x4 CALLDATALOAD PUSH2 0x68C PUSH1 0x1 SLOAD DUP3 LT PUSH2 0x2053 JUMP JUMPDEST PUSH2 0x695 DUP2 PUSH2 0x1E3C JUMP JUMPDEST POP PUSH1 0xFF PUSH1 0x14 DUP3 ADD SLOAD AND ISZERO PUSH2 0x897 JUMPI PUSH1 0x12 DUP2 ADD SLOAD SWAP1 DUP2 ISZERO PUSH2 0x863 JUMPI PUSH1 0x0 DUP4 DUP2 MSTORE PUSH1 0x4 PUSH1 0x20 SWAP1 DUP2 MSTORE PUSH1 0x40 DUP1 DUP4 KECCAK256 CALLER DUP5 MSTORE SWAP1 SWAP2 MSTORE SWAP1 KECCAK256 SLOAD SWAP2 DUP3 ISZERO PUSH2 0x82F JUMPI DUP1 DUP4 MUL SWAP3 DUP4 DIV SUB PUSH2 0x819 JUMPI PUSH1 0x13 ADD SLOAD SWAP1 DUP2 ISZERO PUSH2 0x803 JUMPI DIV SWAP1 DUP1 PUSH1 0x0 MSTORE PUSH1 0x5 PUSH1 0x20 MSTORE PUSH1 0x40 PUSH1 0x0 KECCAK256 PUSH1 0x1 DUP1 PUSH1 0xA0 SHL SUB CALLER AND PUSH1 0x0 MSTORE PUSH1 0x20 MSTORE PUSH1 0x40 PUSH1 0x0 KECCAK256 SLOAD DUP1 DUP4 GT ISZERO PUSH2 0x7CB JUMPI PUSH2 0x71D SWAP1 DUP4 PUSH2 0x212F JUMP JUMPDEST SWAP2 DUP2 PUSH1 0x0 MSTORE PUSH1 0x5 PUSH1 0x20 MSTORE PUSH1 0x40 PUSH1 0x0 KECCAK256 PUSH1 0x1 DUP1 PUSH1 0xA0 SHL SUB CALLER AND PUSH1 0x0 MSTORE PUSH1 0x20 MSTORE PUSH1 0x40 PUSH1 0x0 KECCAK256 SSTORE PUSH1 0x0 DUP1 DUP1 DUP1 DUP6 CALLER GAS CALL PUSH2 0x752 PUSH2 0x213C JUMP JUMPDEST POP ISZERO PUSH2 0x786 JUMPI PUSH1 0x40 MLOAD SWAP2 DUP3 MSTORE PUSH32 0xA1594D215A577C1905BCB0B5B186A40A0104714277441D4B2AC428C89BF7F4B1 PUSH1 0x20 CALLER SWAP4 LOG3 STOP JUMPDEST PUSH1 0x40 MLOAD PUSH3 0x461BCD PUSH1 0xE5 SHL DUP2 MSTORE PUSH1 0x20 PUSH1 0x4 DUP3 ADD MSTORE PUSH1 0x18 PUSH1 0x24 DUP3 ADD MSTORE PUSH32 0x4469766964656E64207472616E73666572206661696C65640000000000000000 PUSH1 0x44 DUP3 ADD MSTORE PUSH1 0x64 SWAP1 REVERT JUMPDEST PUSH1 0x40 MLOAD PUSH3 0x461BCD PUSH1 0xE5 SHL DUP2 MSTORE PUSH1 0x20 PUSH1 0x4 DUP3 ADD MSTORE PUSH1 0x10 PUSH1 0x24 DUP3 ADD MSTORE PUSH16 0x4E6F7468696E6720746F20636C61696D PUSH1 0x80 SHL PUSH1 0x44 DUP3 ADD MSTORE PUSH1 0x64 SWAP1 REVERT JUMPDEST PUSH4 0x4E487B71 PUSH1 0xE0 SHL PUSH1 0x0 MSTORE PUSH1 0x12 PUSH1 0x4 MSTORE PUSH1 0x24 PUSH1 0x0 REVERT JUMPDEST PUSH4 0x4E487B71 PUSH1 0xE0 SHL PUSH1 0x0 MSTORE PUSH1 0x11 PUSH1 0x4 MSTORE PUSH1 0x24 PUSH1 0x0 REVERT JUMPDEST PUSH1 0x40 MLOAD PUSH3 0x461BCD PUSH1 0xE5 SHL DUP2 MSTORE PUSH1 0x20 PUSH1 0x4 DUP3 ADD MSTORE PUSH1 0xC PUSH1 0x24 DUP3 ADD MSTORE PUSH12 0x4E6F20646F6E6174696F6E73 PUSH1 0xA0 SHL PUSH1 0x44 DUP3 ADD MSTORE PUSH1 0x64 SWAP1 REVERT JUMPDEST PUSH1 0x40 MLOAD PUSH3 0x461BCD PUSH1 0xE5 SHL DUP2 MSTORE PUSH1 0x20 PUSH1 0x4 DUP3 ADD MSTORE PUSH1 0xC PUSH1 0x24 DUP3 ADD MSTORE PUSH12 0x4E6F206469766964656E6473 PUSH1 0xA0 SHL PUSH1 0x44 DUP3 ADD MSTORE PUSH1 0x64 SWAP1 REVERT JUMPDEST PUSH1 0x40 MLOAD PUSH3 0x461BCD PUSH1 0xE5 SHL DUP2 MSTORE PUSH1 0x20 PUSH1 0x4 DUP3 ADD MSTORE PUSH1 0x17 PUSH1 0x24 DUP3 ADD MSTORE PUSH32 0x4469766964656E6473206E6F742066696E616C697A6564000000000000000000 PUSH1 0x44 DUP3 ADD MSTORE PUSH1 0x64 SWAP1 REVERT JUMPDEST CALLVALUE PUSH2 0x2FD JUMPI PUSH2 0x1A0 CALLDATASIZE PUSH1 0x3 NOT ADD SLT PUSH2 0x2FD JUMPI PUSH1 0x4 CALLDATALOAD PUSH1 0x1 PUSH1 0x1 PUSH1 0x40 SHL SUB DUP2 GT PUSH2 0x2FD JUMPI PUSH2 0x90D SWAP1 CALLDATASIZE SWAP1 PUSH1 0x4 ADD PUSH2 0x1FCC JUMP JUMPDEST PUSH1 0x24 CALLDATALOAD PUSH1 0x1 PUSH1 0x1 PUSH1 0x40 SHL SUB DUP2 GT PUSH2 0x2FD JUMPI PUSH2 0x92C SWAP1 CALLDATASIZE SWAP1 PUSH1 0x4 ADD PUSH2 0x1FCC JUMP JUMPDEST SWAP1 PUSH1 0x44 CALLDATALOAD PUSH1 0x1 PUSH1 0x1 PUSH1 0x40 SHL SUB DUP2 GT PUSH2 0x2FD JUMPI PUSH2 0x94C SWAP1 CALLDATASIZE SWAP1 PUSH1 0x4 ADD PUSH2 0x1FCC JUMP JUMPDEST SWAP1 PUSH1 0x64 CALLDATALOAD PUSH1 0x1 PUSH1 0x1 PUSH1 0x40 SHL SUB DUP2 GT PUSH2 0x2FD JUMPI PUSH2 0x96C SWAP1 CALLDATASIZE SWAP1 PUSH1 0x4 ADD PUSH2 0x1FCC JUMP JUMPDEST SWAP2 PUSH1 0x84 CALLDATALOAD PUSH1 0x1 PUSH1 0x1 PUSH1 0x40 SHL SUB DUP2 GT PUSH2 0x2FD JUMPI PUSH2 0x98C SWAP1 CALLDATASIZE SWAP1 PUSH1 0x4 ADD PUSH2 0x1FCC JUMP JUMPDEST PUSH1 0xA4 CALLDATALOAD PUSH1 0x1 PUSH1 0x1 PUSH1 0x40 SHL SUB DUP2 GT PUSH2 0x2FD JUMPI PUSH2 0x9AB SWAP1 CALLDATASIZE SWAP1 PUSH1 0x4 ADD PUSH2 0x1FCC JUMP JUMPDEST PUSH1 0xC4 CALLDATALOAD PUSH1 0x1 PUSH1 0x1 PUSH1 0xA0 SHL SUB DUP2 AND SWAP1 DUP2 SWAP1 SUB PUSH2 0x2FD JUMPI PUSH2 0x104 CALLDATALOAD PUSH2 0x124 CALLDATALOAD SWAP1 PUSH2 0x144 CALLDATALOAD SWAP3 PUSH2 0x164 CALLDATALOAD SWAP5 PUSH2 0x184 CALLDATALOAD SWAP7 PUSH2 0x9ED PUSH1 0x1 DUP1 PUSH1 0xA0 SHL SUB PUSH1 0x0 SLOAD AND CALLER EQ PUSH2 0x20DA JUMP JUMPDEST DUP8 DUP8 DUP8 DUP8 DUP14 MLOAD ISZERO PUSH2 0x1495 JUMPI DUP8 ISZERO PUSH2 0x145D JUMPI ISZERO SWAP1 DUP2 PUSH2 0x1454 JUMPI JUMPDEST POP PUSH2 0x143C JUMPI JUMPDEST ISZERO SWAP1 DUP2 PUSH2 0x1433 JUMPI JUMPDEST POP PUSH2 0x141B JUMPI JUMPDEST DUP8 DUP8 LT ISZERO PUSH2 0x13E4 JUMPI DUP6 DUP6 GT PUSH2 0x13A8 JUMPI PUSH1 0x1 SLOAD SWAP11 PUSH2 0xA38 DUP10 DUP10 DUP10 PUSH2 0x22E2 JUMP JUMPDEST SWAP10 PUSH1 0x40 MLOAD SWAP14 DUP15 PUSH2 0x2C0 DUP2 ADD SWAP1 DUP2 LT PUSH1 0x1 PUSH1 0x1 PUSH1 0x40 SHL SUB DUP3 GT OR PUSH2 0xF71 JUMPI DUP16 SWAP1 SWAP2 DUP16 DUP16 SWAP1 PUSH1 0x60 SWAP5 PUSH1 0x40 MSTORE DUP4 MSTORE PUSH1 0x20 DUP4 ADD MSTORE PUSH1 0x40 DUP3 ADD MSTORE ADD MSTORE PUSH1 0x80 DUP14 ADD MSTORE PUSH1 0xA0 DUP13 ADD MSTORE PUSH1 0xC0 DUP12 ADD MSTORE PUSH1 0xE0 DUP11 ADD MSTORE PUSH1 0xE4 CALLDATALOAD PUSH2 0x100 DUP11 ADD MSTORE PUSH2 0x120 DUP10 ADD MSTORE PUSH1 0x0 PUSH2 0x140 DUP10 ADD MSTORE PUSH2 0x160 DUP9 ADD MSTORE PUSH2 0x180 DUP8 ADD MSTORE PUSH2 0x1A0 DUP7 ADD MSTORE PUSH2 0x1C0 DUP6 ADD MSTORE PUSH1 0x0 PUSH2 0x1E0 DUP6 ADD MSTORE PUSH1 0x0 PUSH2 0x200 DUP6 ADD MSTORE PUSH1 0x5 DUP2 LT ISZERO PUSH2 0xE8C JUMPI PUSH2 0x220 DUP5 ADD MSTORE PUSH1 0x1 PUSH2 0x240 DUP5 ADD MSTORE PUSH1 0x0 PUSH2 0x260 DUP5 ADD MSTORE PUSH1 0x0 PUSH2 0x280 DUP5 ADD MSTORE PUSH1 0x0 PUSH2 0x2A0 DUP5 ADD MSTORE PUSH1 0x1 PUSH1 0x40 SHL DUP3 LT ISZERO PUSH2 0xF71 JUMPI PUSH1 0x1 DUP3 ADD PUSH1 0x1 SSTORE PUSH2 0xB0D DUP3 PUSH2 0x1E3C JUMP JUMPDEST PUSH2 0x1392 JUMPI DUP4 MLOAD DUP2 SSTORE PUSH1 0x20 DUP5 ADD MLOAD DUP1 MLOAD SWAP1 PUSH1 0x1 PUSH1 0x1 PUSH1 0x40 SHL SUB DUP3 GT PUSH2 0xF71 JUMPI DUP2 SWAP1 PUSH2 0xB3A PUSH1 0x1 DUP6 ADD SLOAD PUSH2 0x1E71 JUMP JUMPDEST PUSH1 0x1F DUP2 GT PUSH2 0x133F JUMPI JUMPDEST POP PUSH1 0x20 SWAP1 PUSH1 0x1F DUP4 GT PUSH1 0x1 EQ PUSH2 0x12CE JUMPI PUSH1 0x0 SWAP3 PUSH2 0x12C3 JUMPI JUMPDEST POP POP DUP2 PUSH1 0x1 SHL SWAP2 PUSH1 0x0 NOT SWAP1 PUSH1 0x3 SHL SHR NOT AND OR PUSH1 0x1 DUP3 ADD SSTORE JUMPDEST PUSH1 0x40 DUP5 ADD MLOAD DUP1 MLOAD SWAP1 PUSH1 0x1 PUSH1 0x1 PUSH1 0x40 SHL SUB DUP3 GT PUSH2 0xF71 JUMPI DUP2 SWAP1 PUSH2 0xB97 PUSH1 0x2 DUP6 ADD SLOAD PUSH2 0x1E71 JUMP JUMPDEST PUSH1 0x1F DUP2 GT PUSH2 0x1270 JUMPI JUMPDEST POP PUSH1 0x20 SWAP1 PUSH1 0x1F DUP4 GT PUSH1 0x1 EQ PUSH2 0x11FF JUMPI PUSH1 0x0 SWAP3 PUSH2 0x11F4 JUMPI JUMPDEST POP POP DUP2 PUSH1 0x1 SHL SWAP2 PUSH1 0x0 NOT SWAP1 PUSH1 0x3 SHL SHR NOT AND OR PUSH1 0x2 DUP3 ADD SSTORE JUMPDEST PUSH1 0x60 DUP5 ADD MLOAD DUP1 MLOAD SWAP1 PUSH1 0x1 PUSH1 0x1 PUSH1 0x40 SHL SUB DUP3 GT PUSH2 0xF71 JUMPI DUP2 SWAP1 PUSH2 0xBF4 PUSH1 0x3 DUP6 ADD SLOAD PUSH2 0x1E71 JUMP JUMPDEST PUSH1 0x1F DUP2 GT PUSH2 0x11A1 JUMPI JUMPDEST POP PUSH1 0x20 SWAP1 PUSH1 0x1F DUP4 GT PUSH1 0x1 EQ PUSH2 0x1130 JUMPI PUSH1 0x0 SWAP3 PUSH2 0x1125 JUMPI JUMPDEST POP POP DUP2 PUSH1 0x1 SHL SWAP2 PUSH1 0x0 NOT SWAP1 PUSH1 0x3 SHL SHR NOT AND OR PUSH1 0x3 DUP3 ADD SSTORE JUMPDEST PUSH1 0x80 DUP5 ADD MLOAD DUP1 MLOAD SWAP1 PUSH1 0x1 PUSH1 0x1 PUSH1 0x40 SHL SUB DUP3 GT PUSH2 0xF71 JUMPI DUP2 SWAP1 PUSH2 0xC51 PUSH1 0x4 DUP6 ADD SLOAD PUSH2 0x1E71 JUMP JUMPDEST PUSH1 0x1F DUP2 GT PUSH2 0x10D2 JUMPI JUMPDEST POP PUSH1 0x20 SWAP1 PUSH1 0x1F DUP4 GT PUSH1 0x1 EQ PUSH2 0x1061 JUMPI PUSH1 0x0 SWAP3 PUSH2 0x1056 JUMPI JUMPDEST POP POP DUP2 PUSH1 0x1 SHL SWAP2 PUSH1 0x0 NOT SWAP1 PUSH1 0x3 SHL SHR NOT AND OR PUSH1 0x4 DUP3 ADD SSTORE JUMPDEST PUSH1 0xA0 DUP5 ADD MLOAD DUP1 MLOAD SWAP1 PUSH1 0x1 PUSH1 0x1 PUSH1 0x40 SHL SUB DUP3 GT PUSH2 0xF71 JUMPI DUP2 SWAP1 PUSH2 0xCAE PUSH1 0x5 DUP6 ADD SLOAD PUSH2 0x1E71 JUMP JUMPDEST PUSH1 0x1F DUP2 GT PUSH2 0x1003 JUMPI JUMPDEST POP PUSH1 0x20 SWAP1 PUSH1 0x1F DUP4 GT PUSH1 0x1 EQ PUSH2 0xF92 JUMPI PUSH1 0x0 SWAP3 PUSH2 0xF87 JUMPI JUMPDEST POP POP DUP2 PUSH1 0x1 SHL SWAP2 PUSH1 0x0 NOT SWAP1 PUSH1 0x3 SHL SHR NOT AND OR PUSH1 0x5 DUP3 ADD SSTORE JUMPDEST PUSH1 0xC0 DUP5 ADD MLOAD DUP1 MLOAD SWAP1 PUSH1 0x1 PUSH1 0x1 PUSH1 0x40 SHL SUB DUP3 GT PUSH2 0xF71 JUMPI DUP2 SWAP1 PUSH2 0xD0B PUSH1 0x6 DUP6 ADD SLOAD PUSH2 0x1E71 JUMP JUMPDEST PUSH1 0x1F DUP2 GT PUSH2 0xF1E JUMPI JUMPDEST POP PUSH1 0x20 SWAP1 PUSH1 0x1F DUP4 GT PUSH1 0x1 EQ PUSH2 0xEAD JUMPI PUSH1 0x0 SWAP3 PUSH2 0xEA2 JUMPI JUMPDEST POP POP DUP2 PUSH1 0x1 SHL SWAP2 PUSH1 0x0 NOT SWAP1 PUSH1 0x3 SHL SHR NOT AND OR PUSH1 0x6 DUP3 ADD SSTORE JUMPDEST PUSH1 0xE0 DUP5 ADD MLOAD PUSH1 0x7 DUP3 ADD DUP1 SLOAD PUSH1 0x1 PUSH1 0x1 PUSH1 0xA0 SHL SUB NOT AND PUSH1 0x1 PUSH1 0x1 PUSH1 0xA0 SHL SUB SWAP3 SWAP1 SWAP3 AND SWAP2 SWAP1 SWAP2 OR SWAP1 SSTORE PUSH2 0x100 DUP5 ADD MLOAD PUSH1 0x8 DUP3 ADD SSTORE PUSH2 0x120 DUP5 ADD MLOAD PUSH1 0x9 DUP3 ADD SSTORE PUSH2 0x140 DUP5 ADD MLOAD PUSH1 0xA DUP3 ADD SSTORE PUSH2 0x160 DUP5 ADD MLOAD PUSH1 0xB DUP3 ADD SSTORE PUSH2 0x180 DUP5 ADD MLOAD PUSH1 0xC DUP3 ADD SSTORE PUSH2 0x1A0 DUP5 ADD MLOAD PUSH1 0xD DUP3 ADD SSTORE PUSH2 0x1C0 DUP5 ADD MLOAD PUSH1 0xE DUP3 ADD SSTORE PUSH2 0x1E0 DUP5 ADD MLOAD PUSH1 0xF DUP3 ADD SSTORE PUSH2 0x200 DUP5 ADD MLOAD PUSH1 0x10 DUP3 ADD SSTORE PUSH2 0x220 DUP5 ADD MLOAD SWAP2 PUSH1 0x11 DUP3 ADD SWAP2 SWAP1 PUSH1 0x5 DUP5 LT ISZERO PUSH2 0xE8C JUMPI PUSH1 0x20 SWAP6 PUSH2 0x2A0 PUSH1 0x14 PUSH2 0xE81 SWAP5 PUSH2 0xE41 PUSH32 0xED06D1E70F1FAA0E1750DEF1B3A1D942390A8F47D03679C9025A1C38DC34FE7B SWAP8 DUP11 SWAP10 PUSH1 0xFF DUP1 NOT DUP4 SLOAD AND SWAP2 AND OR DUP2 SSTORE PUSH2 0x240 DUP7 ADD MLOAD ISZERO ISZERO PUSH2 0xFF00 DUP3 SLOAD SWAP2 ISZERO ISZERO PUSH1 0x8 SHL AND SWAP1 PUSH2 0xFF00 NOT AND OR SWAP1 SSTORE JUMP JUMPDEST PUSH2 0x260 DUP5 ADD MLOAD PUSH1 0x12 DUP3 ADD SSTORE PUSH2 0x280 DUP5 ADD MLOAD PUSH1 0x13 DUP3 ADD SSTORE ADD SWAP2 ADD MLOAD ISZERO ISZERO PUSH1 0xFF DUP1 NOT DUP4 SLOAD AND SWAP2 AND OR SWAP1 SSTORE PUSH1 0x1 SLOAD PUSH1 0x2 SSTORE PUSH1 0x40 MLOAD SWAP2 DUP3 SWAP2 DUP8 DUP4 MSTORE DUP8 DUP4 ADD SWAP1 PUSH2 0x1F70 JUMP JUMPDEST SUB SWAP1 LOG2 PUSH1 0x40 MLOAD SWAP1 DUP2 MSTORE RETURN JUMPDEST PUSH4 0x4E487B71 PUSH1 0xE0 SHL PUSH1 0x0 MSTORE PUSH1 0x21 PUSH1 0x4 MSTORE PUSH1 0x24 PUSH1 0x0 REVERT JUMPDEST ADD MLOAD SWAP1 POP DUP7 DUP1 PUSH2 0xD2B JUMP JUMPDEST SWAP3 POP PUSH1 0x6 DUP5 ADD PUSH1 0x0 MSTORE DUP1 PUSH1 0x0 KECCAK256 SWAP1 PUSH1 0x0 SWAP4 JUMPDEST PUSH1 0x1F NOT DUP5 AND DUP6 LT PUSH2 0xF03 JUMPI PUSH1 0x1 SWAP5 POP DUP4 PUSH1 0x1F NOT DUP2 AND LT PUSH2 0xEEA JUMPI JUMPDEST POP POP POP DUP2 SHL ADD PUSH1 0x6 DUP3 ADD SSTORE PUSH2 0xD43 JUMP JUMPDEST ADD MLOAD PUSH1 0x0 NOT PUSH1 0xF8 DUP5 PUSH1 0x3 SHL AND SHR NOT AND SWAP1 SSTORE DUP7 DUP1 DUP1 PUSH2 0xEDA JUMP JUMPDEST DUP2 DUP2 ADD MLOAD DUP4 SSTORE PUSH1 0x20 SWAP5 DUP6 ADD SWAP5 PUSH1 0x1 SWAP1 SWAP4 ADD SWAP3 SWAP1 SWAP2 ADD SWAP1 PUSH2 0xEBF JUMP JUMPDEST SWAP1 SWAP2 POP PUSH1 0x6 DUP5 ADD PUSH1 0x0 MSTORE PUSH1 0x20 PUSH1 0x0 KECCAK256 PUSH1 0x1F DUP5 ADD PUSH1 0x5 SHR DUP2 ADD PUSH1 0x20 DUP6 LT PUSH2 0xF6A JUMPI JUMPDEST SWAP1 DUP5 SWAP4 SWAP3 SWAP2 JUMPDEST PUSH1 0x1F DUP4 ADD PUSH1 0x5 SHR DUP3 ADD DUP2 LT PUSH2 0xF5B JUMPI POP POP PUSH2 0xD14 JUMP JUMPDEST PUSH1 0x0 DUP2 SSTORE DUP6 SWAP5 POP PUSH1 0x1 ADD PUSH2 0xF45 JUMP JUMPDEST POP DUP1 PUSH2 0xF3F JUMP JUMPDEST PUSH4 0x4E487B71 PUSH1 0xE0 SHL PUSH1 0x0 MSTORE PUSH1 0x41 PUSH1 0x4 MSTORE PUSH1 0x24 PUSH1 0x0 REVERT JUMPDEST ADD MLOAD SWAP1 POP DUP7 DUP1 PUSH2 0xCCE JUMP JUMPDEST SWAP3 POP PUSH1 0x5 DUP5 ADD PUSH1 0x0 MSTORE DUP1 PUSH1 0x0 KECCAK256 SWAP1 PUSH1 0x0 SWAP4 JUMPDEST PUSH1 0x1F NOT DUP5 AND DUP6 LT PUSH2 0xFE8 JUMPI PUSH1 0x1 SWAP5 POP DUP4 PUSH1 0x1F NOT DUP2 AND LT PUSH2 0xFCF JUMPI JUMPDEST POP POP POP DUP2 SHL ADD PUSH1 0x5 DUP3 ADD SSTORE PUSH2 0xCE6 JUMP JUMPDEST ADD MLOAD PUSH1 0x0 NOT PUSH1 0xF8 DUP5 PUSH1 0x3 SHL AND SHR NOT AND SWAP1 SSTORE DUP7 DUP1 DUP1 PUSH2 0xFBF JUMP JUMPDEST DUP2 DUP2 ADD MLOAD DUP4 SSTORE PUSH1 0x20 SWAP5 DUP6 ADD SWAP5 PUSH1 0x1 SWAP1 SWAP4 ADD SWAP3 SWAP1 SWAP2 ADD SWAP1 PUSH2 0xFA4 JUMP JUMPDEST SWAP1 SWAP2 POP PUSH1 0x5 DUP5 ADD PUSH1 0x0 MSTORE PUSH1 0x20 PUSH1 0x0 KECCAK256 PUSH1 0x1F DUP5 ADD PUSH1 0x5 SHR DUP2 ADD PUSH1 0x20 DUP6 LT PUSH2 0x104F JUMPI JUMPDEST SWAP1 DUP5 SWAP4 SWAP3 SWAP2 JUMPDEST PUSH1 0x1F DUP4 ADD PUSH1 0x5 SHR DUP3 ADD DUP2 LT PUSH2 0x1040 JUMPI POP POP PUSH2 0xCB7 JUMP JUMPDEST PUSH1 0x0 DUP2 SSTORE DUP6 SWAP5 POP PUSH1 0x1 ADD PUSH2 0x102A JUMP JUMPDEST POP DUP1 PUSH2 0x1024 JUMP JUMPDEST ADD MLOAD SWAP1 POP DUP7 DUP1 PUSH2 0xC71 JUMP JUMPDEST SWAP3 POP PUSH1 0x4 DUP5 ADD PUSH1 0x0 MSTORE DUP1 PUSH1 0x0 KECCAK256 SWAP1 PUSH1 0x0 SWAP4 JUMPDEST PUSH1 0x1F NOT DUP5 AND DUP6 LT PUSH2 0x10B7 JUMPI PUSH1 0x1 SWAP5 POP DUP4 PUSH1 0x1F NOT DUP2 AND LT PUSH2 0x109E JUMPI JUMPDEST POP POP POP DUP2 SHL ADD PUSH1 0x4 DUP3 ADD SSTORE PUSH2 0xC89 JUMP JUMPDEST ADD MLOAD PUSH1 0x0 NOT PUSH1 0xF8 DUP5 PUSH1 0x3 SHL AND SHR NOT AND SWAP1 SSTORE DUP7 DUP1 DUP1 PUSH2 0x108E JUMP JUMPDEST DUP2 DUP2 ADD MLOAD DUP4 SSTORE PUSH1 0x20 SWAP5 DUP6 ADD SWAP5 PUSH1 0x1 SWAP1 SWAP4 ADD SWAP3 SWAP1 SWAP2 ADD SWAP1 PUSH2 0x1073 JUMP JUMPDEST SWAP1 SWAP2 POP PUSH1 0x4 DUP5 ADD PUSH1 0x0 MSTORE PUSH1 0x20 PUSH1 0x0 KECCAK256 PUSH1 0x1F DUP5 ADD PUSH1 0x5 SHR DUP2 ADD PUSH1 0x20 DUP6 LT PUSH2 0x111E JUMPI JUMPDEST SWAP1 DUP5 SWAP4 SWAP3 SWAP2 JUMPDEST PUSH1 0x1F DUP4 ADD PUSH1 0x5 SHR DUP3 ADD DUP2 LT PUSH2 0x110F JUMPI POP POP PUSH2 0xC5A JUMP JUMPDEST PUSH1 0x0 DUP2 SSTORE DUP6 SWAP5 POP PUSH1 0x1 ADD PUSH2 0x10F9 JUMP JUMPDEST POP DUP1 PUSH2 0x10F3 JUMP JUMPDEST ADD MLOAD SWAP1 POP DUP7 DUP1 PUSH2 0xC14 JUMP JUMPDEST SWAP3 POP PUSH1 0x3 DUP5 ADD PUSH1 0x0 MSTORE DUP1 PUSH1 0x0 KECCAK256 SWAP1 PUSH1 0x0 SWAP4 JUMPDEST PUSH1 0x1F NOT DUP5 AND DUP6 LT PUSH2 0x1186 JUMPI PUSH1 0x1 SWAP5 POP DUP4 PUSH1 0x1F NOT DUP2 AND LT PUSH2 0x116D JUMPI JUMPDEST POP POP POP DUP2 SHL ADD PUSH1 0x3 DUP3 ADD SSTORE PUSH2 0xC2C JUMP JUMPDEST ADD MLOAD PUSH1 0x0 NOT PUSH1 0xF8 DUP5 PUSH1 0x3 SHL AND SHR NOT AND SWAP1 SSTORE DUP7 DUP1 DUP1 PUSH2 0x115D JUMP JUMPDEST DUP2 DUP2 ADD MLOAD DUP4 SSTORE PUSH1 0x20 SWAP5 DUP6 ADD SWAP5 PUSH1 0x1 SWAP1 SWAP4 ADD SWAP3 SWAP1 SWAP2 ADD SWAP1 PUSH2 0x1142 JUMP JUMPDEST SWAP1 SWAP2 POP PUSH1 0x3 DUP5 ADD PUSH1 0x0 MSTORE PUSH1 0x20 PUSH1 0x0 KECCAK256 PUSH1 0x1F DUP5 ADD PUSH1 0x5 SHR DUP2 ADD PUSH1 0x20 DUP6 LT PUSH2 0x11ED JUMPI JUMPDEST SWAP1 DUP5 SWAP4 SWAP3 SWAP2 JUMPDEST PUSH1 0x1F DUP4 ADD PUSH1 0x5 SHR DUP3 ADD DUP2 LT PUSH2 0x11DE JUMPI POP POP PUSH2 0xBFD JUMP JUMPDEST PUSH1 0x0 DUP2 SSTORE DUP6 SWAP5 POP PUSH1 0x1 ADD PUSH2 0x11C8 JUMP JUMPDEST POP DUP1 PUSH2 0x11C2 JUMP JUMPDEST ADD MLOAD SWAP1 POP DUP7 DUP1 PUSH2 0xBB7 JUMP JUMPDEST SWAP3 POP PUSH1 0x2 DUP5 ADD PUSH1 0x0 MSTORE DUP1 PUSH1 0x0 KECCAK256 SWAP1 PUSH1 0x0 SWAP4 JUMPDEST PUSH1 0x1F NOT DUP5 AND DUP6 LT PUSH2 0x1255 JUMPI PUSH1 0x1 SWAP5 POP DUP4 PUSH1 0x1F NOT DUP2 AND LT PUSH2 0x123C JUMPI JUMPDEST POP POP POP DUP2 SHL ADD PUSH1 0x2 DUP3 ADD SSTORE PUSH2 0xBCF JUMP JUMPDEST ADD MLOAD PUSH1 0x0 NOT PUSH1 0xF8 DUP5 PUSH1 0x3 SHL AND SHR NOT AND SWAP1 SSTORE DUP7 DUP1 DUP1 PUSH2 0x122C JUMP JUMPDEST DUP2 DUP2 ADD MLOAD DUP4 SSTORE PUSH1 0x20 SWAP5 DUP6 ADD SWAP5 PUSH1 0x1 SWAP1 SWAP4 ADD SWAP3 SWAP1 SWAP2 ADD SWAP1 PUSH2 0x1211 JUMP JUMPDEST SWAP1 SWAP2 POP PUSH1 0x2 DUP5 ADD PUSH1 0x0 MSTORE PUSH1 0x20 PUSH1 0x0 KECCAK256 PUSH1 0x1F DUP5 ADD PUSH1 0x5 SHR DUP2 ADD PUSH1 0x20 DUP6 LT PUSH2 0x12BC JUMPI JUMPDEST SWAP1 DUP5 SWAP4 SWAP3 SWAP2 JUMPDEST PUSH1 0x1F DUP4 ADD PUSH1 0x5 SHR DUP3 ADD DUP2 LT PUSH2 0x12AD JUMPI POP POP PUSH2 0xBA0 JUMP JUMPDEST PUSH1 0x0 DUP2 SSTORE DUP6 SWAP5 POP PUSH1 0x1 ADD PUSH2 0x1297 JUMP JUMPDEST POP DUP1 PUSH2 0x1291 JUMP JUMPDEST ADD MLOAD SWAP1 POP DUP7 DUP1 PUSH2 0xB5A JUMP JUMPDEST SWAP3 POP PUSH1 0x1 DUP5 ADD PUSH1 0x0 MSTORE DUP1 PUSH1 0x0 KECCAK256 SWAP1 PUSH1 0x0 SWAP4 JUMPDEST PUSH1 0x1F NOT DUP5 AND DUP6 LT PUSH2 0x1324 JUMPI PUSH1 0x1 SWAP5 POP DUP4 PUSH1 0x1F NOT DUP2 AND LT PUSH2 0x130B JUMPI JUMPDEST POP POP POP DUP2 SHL ADD PUSH1 0x1 DUP3 ADD SSTORE PUSH2 0xB72 JUMP JUMPDEST ADD MLOAD PUSH1 0x0 NOT PUSH1 0xF8 DUP5 PUSH1 0x3 SHL AND SHR NOT AND SWAP1 SSTORE DUP7 DUP1 DUP1 PUSH2 0x12FB JUMP JUMPDEST DUP2 DUP2 ADD MLOAD DUP4 SSTORE PUSH1 0x20 SWAP5 DUP6 ADD SWAP5 PUSH1 0x1 SWAP1 SWAP4 ADD SWAP3 SWAP1 SWAP2 ADD SWAP1 PUSH2 0x12E0 JUMP JUMPDEST SWAP1 SWAP2 POP PUSH1 0x1 DUP5 ADD PUSH1 0x0 MSTORE PUSH1 0x20 PUSH1 0x0 KECCAK256 PUSH1 0x1F DUP5 ADD PUSH1 0x5 SHR DUP2 ADD PUSH1 0x20 DUP6 LT PUSH2 0x138B JUMPI JUMPDEST SWAP1 DUP5 SWAP4 SWAP3 SWAP2 JUMPDEST PUSH1 0x1F DUP4 ADD PUSH1 0x5 SHR DUP3 ADD DUP2 LT PUSH2 0x137C JUMPI POP POP PUSH2 0xB43 JUMP JUMPDEST PUSH1 0x0 DUP2 SSTORE DUP6 SWAP5 POP PUSH1 0x1 ADD PUSH2 0x1366 JUMP JUMPDEST POP DUP1 PUSH2 0x1360 JUMP JUMPDEST PUSH4 0x4E487B71 PUSH1 0xE0 SHL PUSH1 0x0 MSTORE PUSH1 0x0 PUSH1 0x4 MSTORE PUSH1 0x24 PUSH1 0x0 REVERT JUMPDEST PUSH1 0x40 MLOAD PUSH3 0x461BCD PUSH1 0xE5 SHL DUP2 MSTORE PUSH1 0x20 PUSH1 0x4 DUP3 ADD MSTORE PUSH1 0x14 PUSH1 0x24 DUP3 ADD MSTORE PUSH20 0x141C9BDA9958DD081CDD185C9D080F0F48195B99 PUSH1 0x62 SHL PUSH1 0x44 DUP3 ADD MSTORE PUSH1 0x64 SWAP1 REVERT JUMPDEST PUSH1 0x40 MLOAD PUSH3 0x461BCD PUSH1 0xE5 SHL DUP2 MSTORE PUSH1 0x20 PUSH1 0x4 DUP3 ADD MSTORE PUSH1 0xF PUSH1 0x24 DUP3 ADD MSTORE PUSH15 0x1253D0C81CDD185C9D080F08195B99 PUSH1 0x8A SHL PUSH1 0x44 DUP3 ADD MSTORE PUSH1 0x64 SWAP1 REVERT JUMPDEST SWAP7 POP TIMESTAMP SWAP6 POP PUSH3 0x278D00 DUP7 ADD DUP1 DUP8 GT PUSH2 0x819 JUMPI SWAP7 PUSH2 0xA1A JUMP JUMPDEST SWAP1 POP ISZERO DUP14 PUSH2 0xA14 JUMP JUMPDEST SWAP7 POP TIMESTAMP SWAP6 POP PUSH3 0x76A700 DUP7 ADD DUP1 DUP8 GT PUSH2 0x819 JUMPI SWAP7 PUSH2 0xA0C JUMP JUMPDEST SWAP1 POP ISZERO DUP16 PUSH2 0xA06 JUMP JUMPDEST PUSH1 0x40 MLOAD PUSH3 0x461BCD PUSH1 0xE5 SHL DUP2 MSTORE PUSH1 0x20 PUSH1 0x4 DUP3 ADD MSTORE PUSH1 0x10 PUSH1 0x24 DUP3 ADD MSTORE PUSH16 0x476F616C206D757374206265203E203 PUSH1 0x84 SHL PUSH1 0x44 DUP3 ADD MSTORE PUSH1 0x64 SWAP1 REVERT JUMPDEST PUSH1 0x40 MLOAD PUSH3 0x461BCD PUSH1 0xE5 SHL DUP2 MSTORE PUSH1 0x20 PUSH1 0x4 DUP3 ADD MSTORE PUSH1 0xE PUSH1 0x24 DUP3 ADD MSTORE PUSH14 0x151A5D1B19481C995C5D5A5C9959 PUSH1 0x92 SHL PUSH1 0x44 DUP3 ADD MSTORE PUSH1 0x64 SWAP1 REVERT JUMPDEST CALLVALUE PUSH2 0x2FD JUMPI PUSH1 0x0 CALLDATASIZE PUSH1 0x3 NOT ADD SLT PUSH2 0x2FD JUMPI PUSH1 0x0 SLOAD PUSH1 0x40 MLOAD PUSH1 0x1 PUSH1 0x1 PUSH1 0xA0 SHL SUB SWAP1 SWAP2 AND DUP2 MSTORE PUSH1 0x20 SWAP1 RETURN JUMPDEST CALLVALUE PUSH2 0x2FD JUMPI PUSH1 0x40 CALLDATASIZE PUSH1 0x3 NOT ADD SLT PUSH2 0x2FD JUMPI PUSH2 0x150D PUSH2 0x2013 JUMP JUMPDEST PUSH1 0x4 CALLDATALOAD PUSH1 0x0 MSTORE PUSH1 0x6 PUSH1 0x20 MSTORE PUSH1 0x40 PUSH1 0x0 KECCAK256 SWAP1 PUSH1 0x1 DUP1 PUSH1 0xA0 SHL SUB AND PUSH1 0x0 MSTORE PUSH1 0x20 MSTORE PUSH1 0x20 PUSH1 0xFF PUSH1 0x40 PUSH1 0x0 KECCAK256 SLOAD AND PUSH1 0x40 MLOAD SWAP1 ISZERO ISZERO DUP2 MSTORE RETURN JUMPDEST CALLVALUE PUSH2 0x2FD JUMPI PUSH1 0x40 CALLDATASIZE PUSH1 0x3 NOT ADD SLT PUSH2 0x2FD JUMPI PUSH2 0x155A PUSH2 0x2013 JUMP JUMPDEST PUSH1 0x4 CALLDATALOAD PUSH1 0x0 MSTORE PUSH1 0x4 PUSH1 0x20 MSTORE PUSH1 0x40 PUSH1 0x0 KECCAK256 SWAP1 PUSH1 0x1 DUP1 PUSH1 0xA0 SHL SUB AND PUSH1 0x0 MSTORE PUSH1 0x20 MSTORE PUSH1 0x20 PUSH1 0x40 PUSH1 0x0 KECCAK256 SLOAD PUSH1 0x40 MLOAD SWAP1 DUP2 MSTORE RETURN JUMPDEST CALLVALUE PUSH2 0x2FD JUMPI PUSH1 0x20 CALLDATASIZE PUSH1 0x3 NOT ADD SLT PUSH2 0x2FD JUMPI PUSH1 0x4 CALLDATALOAD PUSH2 0x15AA PUSH1 0x1 SLOAD DUP3 LT PUSH2 0x2053 JUMP JUMPDEST PUSH1 0x0 MSTORE PUSH1 0x3 PUSH1 0x20 MSTORE PUSH1 0x20 PUSH1 0x40 PUSH1 0x0 KECCAK256 SLOAD PUSH1 0x40 MLOAD SWAP1 DUP2 MSTORE RETURN JUMPDEST CALLVALUE PUSH2 0x2FD JUMPI PUSH1 0x40 CALLDATASIZE PUSH1 0x3 NOT ADD SLT PUSH2 0x2FD JUMPI PUSH1 0x4 CALLDATALOAD PUSH1 0x24 CALLDATALOAD PUSH2 0x15E6 PUSH1 0x1 SLOAD DUP4 LT PUSH2 0x2053 JUMP JUMPDEST DUP2 PUSH1 0x0 MSTORE PUSH1 0x3 PUSH1 0x20 MSTORE PUSH1 0x40 PUSH1 0x0 KECCAK256 SLOAD DUP2 LT ISZERO PUSH2 0x1662 JUMPI PUSH2 0x1612 SWAP2 PUSH1 0x0 MSTORE PUSH1 0x3 PUSH1 0x20 MSTORE PUSH1 0x40 PUSH1 0x0 KECCAK256 PUSH2 0x2113 JUMP JUMPDEST POP PUSH1 0x1 DUP1 PUSH1 0xA0 SHL SUB DUP2 SLOAD AND PUSH1 0xFF PUSH1 0x2 DUP4 ADD SLOAD AND PUSH2 0x1636 PUSH1 0x1 PUSH1 0x3 DUP6 ADD SLOAD SWAP5 ADD PUSH2 0x1ECC JUMP JUMPDEST SWAP3 PUSH2 0x1653 PUSH1 0x40 MLOAD SWAP5 DUP6 SWAP5 DUP6 MSTORE PUSH1 0x80 PUSH1 0x20 DUP7 ADD MSTORE PUSH1 0x80 DUP6 ADD SWAP1 PUSH2 0x1F70 JUMP JUMPDEST SWAP2 PUSH1 0x40 DUP5 ADD MSTORE PUSH1 0x60 DUP4 ADD MSTORE SUB SWAP1 RETURN JUMPDEST PUSH1 0x40 MLOAD PUSH3 0x461BCD PUSH1 0xE5 SHL DUP2 MSTORE PUSH1 0x20 PUSH1 0x4 DUP3 ADD MSTORE PUSH1 0xD PUSH1 0x24 DUP3 ADD MSTORE PUSH13 0x92DCECC2D8D2C840D2DCC8CAF PUSH1 0x9B SHL PUSH1 0x44 DUP3 ADD MSTORE PUSH1 0x64 SWAP1 REVERT JUMPDEST CALLVALUE PUSH2 0x2FD JUMPI PUSH1 0x60 CALLDATASIZE PUSH1 0x3 NOT ADD SLT PUSH2 0x2FD JUMPI PUSH1 0x4 CALLDATALOAD PUSH1 0x24 CALLDATALOAD PUSH1 0x1 PUSH1 0x1 PUSH1 0x40 SHL SUB DUP2 GT PUSH2 0x2FD JUMPI PUSH2 0x16CA SWAP1 CALLDATASIZE SWAP1 PUSH1 0x4 ADD PUSH2 0x1FCC JUMP JUMPDEST PUSH1 0x44 CALLDATALOAD SWAP2 PUSH1 0xFF DUP4 AND DUP1 SWAP4 SUB PUSH2 0x2FD JUMPI PUSH2 0x16E6 PUSH1 0x1 SLOAD DUP3 LT PUSH2 0x2053 JUMP JUMPDEST DUP2 MLOAD ISZERO PUSH2 0x195A JUMPI PUSH1 0x1 DUP4 LT ISZERO DUP1 PUSH2 0x194F JUMPI JUMPDEST ISZERO PUSH2 0x191D JUMPI DUP1 PUSH1 0x0 MSTORE PUSH1 0x3 PUSH1 0x20 MSTORE PUSH1 0x40 PUSH1 0x0 KECCAK256 SWAP3 PUSH1 0x40 MLOAD PUSH1 0x80 DUP2 ADD DUP2 DUP2 LT PUSH1 0x1 PUSH1 0x1 PUSH1 0x40 SHL SUB DUP3 GT OR PUSH2 0xF71 JUMPI PUSH1 0x40 MSTORE CALLER DUP2 MSTORE PUSH1 0x20 DUP2 ADD SWAP5 DUP5 DUP7 MSTORE PUSH1 0x40 DUP3 ADD DUP4 DUP2 MSTORE PUSH1 0x60 DUP4 ADD SWAP2 TIMESTAMP DUP4 MSTORE DUP1 SLOAD PUSH1 0x1 PUSH1 0x40 SHL DUP2 LT ISZERO PUSH2 0xF71 JUMPI PUSH2 0x175F SWAP2 PUSH1 0x1 DUP3 ADD DUP2 SSTORE PUSH2 0x2113 JUMP JUMPDEST SWAP4 SWAP1 SWAP4 PUSH2 0x1392 JUMPI MLOAD DUP4 SLOAD PUSH1 0x1 PUSH1 0x1 PUSH1 0xA0 SHL SUB NOT AND PUSH1 0x1 PUSH1 0x1 PUSH1 0xA0 SHL SUB SWAP2 SWAP1 SWAP2 AND OR DUP4 SSTORE SWAP6 MLOAD DUP1 MLOAD SWAP1 SWAP7 SWAP1 PUSH1 0x1 DUP5 ADD SWAP1 PUSH1 0x1 PUSH1 0x1 PUSH1 0x40 SHL SUB DUP2 GT PUSH2 0xF71 JUMPI PUSH2 0x17A6 DUP3 SLOAD PUSH2 0x1E71 JUMP JUMPDEST PUSH1 0x1F DUP2 GT PUSH2 0x18D5 JUMPI JUMPDEST POP PUSH1 0x20 PUSH1 0x1F DUP3 GT PUSH1 0x1 EQ PUSH2 0x1848 JUMPI SWAP1 DUP1 PUSH1 0x3 SWAP6 SWAP5 SWAP4 SWAP3 PUSH32 0x75AF7A249FD33F32DA5AEBDF42415CF43A79F1A958CB5D25980D825BB6C4A541 SWAP10 SWAP11 SWAP12 PUSH1 0x0 SWAP3 PUSH2 0x183D JUMPI JUMPDEST POP POP DUP2 PUSH1 0x1 SHL SWAP2 PUSH1 0x0 NOT SWAP1 DUP8 SHL SHR NOT AND OR SWAP1 SSTORE JUMPDEST PUSH1 0xFF PUSH1 0x2 DUP6 ADD SWAP2 MLOAD AND PUSH1 0xFF NOT DUP3 SLOAD AND OR SWAP1 SSTORE MLOAD SWAP2 ADD SSTORE PUSH1 0x40 MLOAD SWAP1 DUP2 MSTORE PUSH1 0x40 PUSH1 0x20 DUP3 ADD MSTORE DUP1 PUSH2 0x1838 CALLER SWAP6 PUSH1 0x40 DUP4 ADD SWAP1 PUSH2 0x1F70 JUMP JUMPDEST SUB SWAP1 LOG3 STOP JUMPDEST ADD MLOAD SWAP1 POP DUP12 DUP1 PUSH2 0x17F1 JUMP JUMPDEST PUSH1 0x1F NOT DUP3 AND SWAP10 DUP4 PUSH1 0x0 MSTORE DUP2 PUSH1 0x0 KECCAK256 SWAP11 PUSH1 0x0 JUMPDEST DUP2 DUP2 LT PUSH2 0x18BD JUMPI POP SWAP11 PUSH1 0x1 SWAP3 DUP5 SWAP3 PUSH1 0x3 SWAP9 SWAP8 SWAP7 SWAP6 PUSH32 0x75AF7A249FD33F32DA5AEBDF42415CF43A79F1A958CB5D25980D825BB6C4A541 SWAP13 SWAP14 SWAP15 LT PUSH2 0x18A5 JUMPI JUMPDEST POP POP POP DUP2 SHL ADD SWAP1 SSTORE PUSH2 0x1805 JUMP JUMPDEST ADD MLOAD PUSH1 0x0 NOT DUP4 DUP10 SHL PUSH1 0xF8 AND SHR NOT AND SWAP1 SSTORE DUP12 DUP1 DUP1 PUSH2 0x1898 JUMP JUMPDEST DUP4 DUP4 ADD MLOAD DUP14 SSTORE PUSH1 0x1 SWAP1 SWAP13 ADD SWAP12 PUSH1 0x20 SWAP4 DUP5 ADD SWAP4 ADD PUSH2 0x185A JUMP JUMPDEST DUP3 PUSH1 0x0 MSTORE PUSH1 0x20 PUSH1 0x0 KECCAK256 PUSH1 0x1F DUP4 ADD PUSH1 0x5 SHR DUP2 ADD SWAP2 PUSH1 0x20 DUP5 LT PUSH2 0x1913 JUMPI JUMPDEST PUSH1 0x1F ADD PUSH1 0x5 SHR ADD SWAP1 JUMPDEST DUP2 DUP2 LT PUSH2 0x1907 JUMPI POP PUSH2 0x17AF JUMP JUMPDEST PUSH1 0x0 DUP2 SSTORE PUSH1 0x1 ADD PUSH2 0x18FA JUMP JUMPDEST SWAP1 SWAP2 POP DUP2 SWAP1 PUSH2 0x18F1 JUMP JUMPDEST PUSH1 0x40 MLOAD PUSH3 0x461BCD PUSH1 0xE5 SHL DUP2 MSTORE PUSH1 0x20 PUSH1 0x4 DUP3 ADD MSTORE PUSH1 0xA PUSH1 0x24 DUP3 ADD MSTORE PUSH10 0x526174696E6720312D35 PUSH1 0xB0 SHL PUSH1 0x44 DUP3 ADD MSTORE PUSH1 0x64 SWAP1 REVERT JUMPDEST POP PUSH1 0x5 DUP4 GT ISZERO PUSH2 0x16F8 JUMP JUMPDEST PUSH1 0x40 MLOAD PUSH3 0x461BCD PUSH1 0xE5 SHL DUP2 MSTORE PUSH1 0x20 PUSH1 0x4 DUP3 ADD MSTORE PUSH1 0x10 PUSH1 0x24 DUP3 ADD MSTORE PUSH16 0x10DBDB9D195B9D081C995C5D5A5C9959 PUSH1 0x82 SHL PUSH1 0x44 DUP3 ADD MSTORE PUSH1 0x64 SWAP1 REVERT JUMPDEST CALLVALUE PUSH2 0x2FD JUMPI PUSH1 0x0 CALLDATASIZE PUSH1 0x3 NOT ADD SLT PUSH2 0x2FD JUMPI PUSH1 0x20 PUSH1 0x2 SLOAD PUSH1 0x40 MLOAD SWAP1 DUP2 MSTORE RETURN JUMPDEST CALLVALUE PUSH2 0x2FD JUMPI PUSH1 0x40 CALLDATASIZE PUSH1 0x3 NOT ADD SLT PUSH2 0x2FD JUMPI PUSH1 0x4 CALLDATALOAD PUSH1 0x24 CALLDATALOAD DUP1 ISZERO ISZERO DUP2 SUB PUSH2 0x2FD JUMPI PUSH2 0x19E5 PUSH1 0x1 DUP1 PUSH1 0xA0 SHL SUB PUSH1 0x0 SLOAD AND CALLER EQ PUSH2 0x20DA JUMP JUMPDEST PUSH2 0x19F2 PUSH1 0x1 SLOAD DUP4 LT PUSH2 0x2053 JUMP JUMPDEST PUSH1 0xFF PUSH1 0x14 PUSH2 0x19FF DUP5 PUSH2 0x1E3C JUMP JUMPDEST POP ADD SLOAD AND PUSH2 0x1A31 JUMPI PUSH1 0x11 PUSH2 0x1A15 PUSH2 0x1A2F SWAP4 PUSH2 0x1E3C JUMP JUMPDEST POP ADD SWAP1 PUSH2 0xFF00 DUP3 SLOAD SWAP2 ISZERO ISZERO PUSH1 0x8 SHL AND SWAP1 PUSH2 0xFF00 NOT AND OR SWAP1 SSTORE JUMP JUMPDEST STOP JUMPDEST PUSH1 0x40 MLOAD PUSH3 0x461BCD PUSH1 0xE5 SHL DUP2 MSTORE PUSH1 0x20 PUSH1 0x4 DUP3 ADD MSTORE PUSH1 0x11 PUSH1 0x24 DUP3 ADD MSTORE PUSH17 0x141C9BDA9958DD08199A5B985B1A5E9959 PUSH1 0x7A SHL PUSH1 0x44 DUP3 ADD MSTORE PUSH1 0x64 SWAP1 REVERT JUMPDEST CALLVALUE PUSH2 0x2FD JUMPI PUSH1 0x20 CALLDATASIZE PUSH1 0x3 NOT ADD SLT PUSH2 0x2FD JUMPI PUSH1 0x4 CALLDATALOAD PUSH2 0x1A8B PUSH1 0x1 SLOAD DUP3 LT PUSH2 0x2053 JUMP JUMPDEST PUSH1 0x0 DUP2 DUP2 MSTORE PUSH1 0x6 PUSH1 0x20 SWAP1 DUP2 MSTORE PUSH1 0x40 DUP1 DUP4 KECCAK256 CALLER DUP5 MSTORE SWAP1 SWAP2 MSTORE SWAP1 KECCAK256 SLOAD PUSH2 0x1AB2 SWAP1 PUSH1 0xFF AND ISZERO PUSH2 0x2091 JUMP JUMPDEST PUSH1 0x0 DUP2 DUP2 MSTORE PUSH1 0x6 PUSH1 0x20 SWAP1 DUP2 MSTORE PUSH1 0x40 DUP1 DUP4 KECCAK256 CALLER DUP5 MSTORE SWAP1 SWAP2 MSTORE SWAP1 KECCAK256 DUP1 SLOAD PUSH1 0xFF NOT AND PUSH1 0x1 OR SWAP1 SSTORE PUSH1 0xF PUSH2 0x1AE1 DUP3 PUSH2 0x1E3C JUMP JUMPDEST POP ADD DUP1 SLOAD SWAP1 PUSH1 0x1 DUP3 ADD DUP1 SWAP3 GT PUSH2 0x819 JUMPI SSTORE CALLER SWAP1 PUSH32 0xB31D078AFF93840E07BD4FEB45E413EF1141E91543E8F7C6F7E17B18963319B0 PUSH1 0x0 DUP1 LOG3 STOP JUMPDEST CALLVALUE PUSH2 0x2FD JUMPI PUSH1 0x20 CALLDATASIZE PUSH1 0x3 NOT ADD SLT PUSH2 0x2FD JUMPI PUSH1 0x4 CALLDATALOAD PUSH2 0x1B3C PUSH1 0x1 SLOAD DUP3 LT PUSH2 0x2053 JUMP JUMPDEST PUSH1 0x0 DUP2 DUP2 MSTORE PUSH1 0x7 PUSH1 0x20 SWAP1 DUP2 MSTORE PUSH1 0x40 DUP1 DUP4 KECCAK256 CALLER DUP5 MSTORE SWAP1 SWAP2 MSTORE SWAP1 KECCAK256 SLOAD PUSH2 0x1B63 SWAP1 PUSH1 0xFF AND ISZERO PUSH2 0x2091 JUMP JUMPDEST PUSH1 0x0 DUP2 DUP2 MSTORE PUSH1 0x7 PUSH1 0x20 SWAP1 DUP2 MSTORE PUSH1 0x40 DUP1 DUP4 KECCAK256 CALLER DUP5 MSTORE SWAP1 SWAP2 MSTORE SWAP1 KECCAK256 DUP1 SLOAD PUSH1 0xFF NOT AND PUSH1 0x1 OR SWAP1 SSTORE PUSH1 0x10 PUSH2 0x1B92 DUP3 PUSH2 0x1E3C JUMP JUMPDEST POP ADD DUP1 SLOAD SWAP1 PUSH1 0x1 DUP3 ADD DUP1 SWAP3 GT PUSH2 0x819 JUMPI SSTORE CALLER SWAP1 PUSH32 0x5E3E2B315B7A0C8F5B16C6826FEA3480C2B34A38CEE053A916BD6BC4569756F0 PUSH1 0x0 DUP1 LOG3 STOP JUMPDEST CALLVALUE PUSH2 0x2FD JUMPI PUSH1 0x20 CALLDATASIZE PUSH1 0x3 NOT ADD SLT PUSH2 0x2FD JUMPI PUSH1 0x4 CALLDATALOAD PUSH1 0x1 SLOAD DUP2 LT ISZERO PUSH2 0x2FD JUMPI PUSH2 0x1BF3 SWAP1 PUSH2 0x1E3C JUMP JUMPDEST SWAP1 PUSH2 0x180 MSTORE POP PUSH2 0x180 MLOAD SLOAD PUSH2 0x1C0D PUSH1 0x1 PUSH2 0x180 MLOAD ADD PUSH2 0x1ECC JUMP JUMPDEST PUSH2 0x120 MSTORE PUSH2 0x1C20 PUSH1 0x2 PUSH2 0x180 MLOAD ADD PUSH2 0x1ECC JUMP JUMPDEST PUSH2 0x140 MSTORE PUSH2 0x1C33 PUSH1 0x3 PUSH2 0x180 MLOAD ADD PUSH2 0x1ECC JUMP JUMPDEST SWAP1 PUSH2 0x1C43 PUSH1 0x4 PUSH2 0x180 MLOAD ADD PUSH2 0x1ECC JUMP JUMPDEST SWAP2 PUSH2 0x1C53 PUSH1 0x5 PUSH2 0x180 MLOAD ADD PUSH2 0x1ECC JUMP JUMPDEST SWAP3 PUSH2 0x1C63 PUSH1 0x6 PUSH2 0x180 MLOAD ADD PUSH2 0x1ECC JUMP JUMPDEST SWAP4 PUSH1 0x1 DUP1 PUSH1 0xA0 SHL SUB PUSH1 0x7 PUSH2 0x180 MLOAD ADD SLOAD AND PUSH2 0x160 MSTORE PUSH1 0x8 PUSH2 0x180 MLOAD ADD SLOAD SWAP5 PUSH1 0x9 PUSH2 0x180 MLOAD ADD SLOAD PUSH1 0xA PUSH2 0x180 MLOAD ADD SLOAD PUSH1 0xB PUSH2 0x180 MLOAD ADD SLOAD SWAP2 PUSH2 0x1D89 PUSH1 0xC PUSH2 0x180 MLOAD ADD SLOAD SWAP5 PUSH2 0x1D77 PUSH1 0xD PUSH2 0x180 MLOAD ADD SLOAD SWAP8 PUSH2 0x1D66 PUSH1 0xE PUSH2 0x180 MLOAD ADD SLOAD SWAP11 PUSH2 0x1D54 PUSH1 0xF PUSH2 0x180 MLOAD ADD SLOAD SWAP14 PUSH1 0x10 PUSH2 0x180 MLOAD ADD SLOAD SWAP16 PUSH1 0x11 PUSH2 0x180 MLOAD ADD SLOAD PUSH2 0x100 MSTORE PUSH1 0x12 PUSH2 0x180 MLOAD ADD SLOAD PUSH1 0x80 MSTORE PUSH1 0x13 PUSH2 0x180 MLOAD ADD SLOAD PUSH1 0xC0 MSTORE PUSH1 0xFF PUSH1 0x14 PUSH2 0x180 MLOAD ADD SLOAD AND PUSH1 0xE0 MSTORE PUSH1 0x40 MLOAD PUSH1 0xA0 MSTORE PUSH1 0xA0 MLOAD MSTORE PUSH2 0x2C0 PUSH1 0x20 PUSH1 0xA0 MLOAD ADD MSTORE PUSH2 0x1D42 PUSH2 0x1D2D PUSH2 0x2C0 PUSH1 0xA0 MLOAD ADD PUSH2 0x120 MLOAD PUSH2 0x1F70 JUMP JUMPDEST PUSH1 0xA0 MLOAD DUP2 SUB PUSH1 0x40 PUSH1 0xA0 MLOAD ADD MSTORE PUSH2 0x140 MLOAD PUSH2 0x1F70 JUMP JUMPDEST SWAP1 PUSH1 0xA0 MLOAD DUP3 SUB PUSH1 0x60 PUSH1 0xA0 MLOAD ADD MSTORE PUSH2 0x1F70 JUMP JUMPDEST SWAP1 PUSH1 0xA0 MLOAD DUP3 SUB PUSH1 0x80 PUSH1 0xA0 MLOAD ADD MSTORE PUSH2 0x1F70 JUMP JUMPDEST SWAP1 PUSH1 0xA0 MLOAD DUP3 SUB PUSH1 0xA0 DUP1 MLOAD ADD MSTORE PUSH2 0x1F70 JUMP JUMPDEST SWAP1 PUSH1 0xA0 MLOAD DUP3 SUB PUSH1 0xC0 PUSH1 0xA0 MLOAD ADD MSTORE PUSH2 0x1F70 JUMP JUMPDEST SWAP9 PUSH2 0x160 MLOAD PUSH1 0xE0 PUSH1 0xA0 MLOAD ADD MSTORE PUSH2 0x100 PUSH1 0xA0 MLOAD ADD MSTORE PUSH2 0x120 PUSH1 0xA0 MLOAD ADD MSTORE PUSH2 0x140 PUSH1 0xA0 MLOAD ADD MSTORE PUSH2 0x160 PUSH1 0xA0 MLOAD ADD MSTORE PUSH2 0x180 PUSH1 0xA0 MLOAD ADD MSTORE PUSH2 0x1A0 PUSH1 0xA0 MLOAD ADD MSTORE PUSH2 0x1C0 PUSH1 0xA0 MLOAD ADD MSTORE PUSH2 0x1E0 PUSH1 0xA0 MLOAD ADD MSTORE PUSH2 0x200 PUSH1 0xA0 MLOAD ADD MSTORE PUSH1 0x5 PUSH1 0xFF PUSH2 0x100 MLOAD AND LT ISZERO PUSH2 0xE8C JUMPI PUSH1 0xFF PUSH2 0x100 MLOAD AND PUSH2 0x220 PUSH1 0xA0 MLOAD ADD MSTORE PUSH1 0xFF PUSH2 0x100 MLOAD PUSH1 0x8 SHR AND ISZERO ISZERO PUSH2 0x240 PUSH1 0xA0 MLOAD ADD MSTORE PUSH1 0x80 MLOAD PUSH2 0x260 PUSH1 0xA0 MLOAD ADD MSTORE PUSH1 0xC0 MLOAD PUSH2 0x280 PUSH1 0xA0 MLOAD ADD MSTORE PUSH1 0xE0 MLOAD ISZERO ISZERO PUSH2 0x2A0 PUSH1 0xA0 MLOAD ADD MSTORE PUSH1 0xA0 MLOAD SWAP1 SUB PUSH1 0xA0 MLOAD RETURN JUMPDEST PUSH1 0x1 SLOAD DUP2 LT ISZERO PUSH2 0x1E5B JUMPI PUSH1 0x1 PUSH1 0x0 MSTORE PUSH1 0x15 PUSH1 0x20 PUSH1 0x0 KECCAK256 SWAP2 MUL ADD SWAP1 PUSH1 0x0 SWAP1 JUMP JUMPDEST PUSH4 0x4E487B71 PUSH1 0xE0 SHL PUSH1 0x0 MSTORE PUSH1 0x32 PUSH1 0x4 MSTORE PUSH1 0x24 PUSH1 0x0 REVERT JUMPDEST SWAP1 PUSH1 0x1 DUP3 DUP2 SHR SWAP3 AND DUP1 ISZERO PUSH2 0x1EA1 JUMPI JUMPDEST PUSH1 0x20 DUP4 LT EQ PUSH2 0x1E8B JUMPI JUMP JUMPDEST PUSH4 0x4E487B71 PUSH1 0xE0 SHL PUSH1 0x0 MSTORE PUSH1 0x22 PUSH1 0x4 MSTORE PUSH1 0x24 PUSH1 0x0 REVERT JUMPDEST SWAP2 PUSH1 0x7F AND SWAP2 PUSH2 0x1E80 JUMP JUMPDEST SWAP1 PUSH1 0x1F DUP1 NOT SWAP2 ADD AND DUP2 ADD SWAP1 DUP2 LT PUSH1 0x1 PUSH1 0x1 PUSH1 0x40 SHL SUB DUP3 GT OR PUSH2 0xF71 JUMPI PUSH1 0x40 MSTORE JUMP JUMPDEST SWAP1 PUSH1 0x40 MLOAD SWAP2 DUP3 PUSH1 0x0 DUP3 SLOAD SWAP3 PUSH2 0x1EE0 DUP5 PUSH2 0x1E71 JUMP JUMPDEST DUP1 DUP5 MSTORE SWAP4 PUSH1 0x1 DUP2 AND SWAP1 DUP2 ISZERO PUSH2 0x1F4E JUMPI POP PUSH1 0x1 EQ PUSH2 0x1F07 JUMPI JUMPDEST POP PUSH2 0x1F05 SWAP3 POP SUB DUP4 PUSH2 0x1EAB JUMP JUMPDEST JUMP JUMPDEST SWAP1 POP PUSH1 0x0 SWAP3 SWAP2 SWAP3 MSTORE PUSH1 0x20 PUSH1 0x0 KECCAK256 SWAP1 PUSH1 0x0 SWAP2 JUMPDEST DUP2 DUP4 LT PUSH2 0x1F32 JUMPI POP POP SWAP1 PUSH1 0x20 PUSH2 0x1F05 SWAP3 DUP3 ADD ADD CODESIZE PUSH2 0x1EF8 JUMP JUMPDEST PUSH1 0x20 SWAP2 SWAP4 POP DUP1 PUSH1 0x1 SWAP2 SLOAD DUP4 DUP6 DUP10 ADD ADD MSTORE ADD SWAP2 ADD SWAP1 SWAP2 DUP5 SWAP3 PUSH2 0x1F19 JUMP JUMPDEST SWAP1 POP PUSH1 0x20 SWAP3 POP PUSH2 0x1F05 SWAP5 SWAP2 POP PUSH1 0xFF NOT AND DUP3 DUP5 ADD MSTORE ISZERO ISZERO PUSH1 0x5 SHL DUP3 ADD ADD CODESIZE PUSH2 0x1EF8 JUMP JUMPDEST SWAP2 SWAP1 DUP3 MLOAD SWAP3 DUP4 DUP3 MSTORE PUSH1 0x0 JUMPDEST DUP5 DUP2 LT PUSH2 0x1F9C JUMPI POP POP DUP3 PUSH1 0x0 PUSH1 0x20 DUP1 SWAP5 SWAP6 DUP5 ADD ADD MSTORE PUSH1 0x1F DUP1 NOT SWAP2 ADD AND ADD ADD SWAP1 JUMP JUMPDEST DUP1 PUSH1 0x20 DUP1 SWAP3 DUP5 ADD ADD MLOAD DUP3 DUP3 DUP7 ADD ADD MSTORE ADD PUSH2 0x1F7B JUMP JUMPDEST PUSH1 0x1 PUSH1 0x1 PUSH1 0x40 SHL SUB DUP2 GT PUSH2 0xF71 JUMPI PUSH1 0x1F ADD PUSH1 0x1F NOT AND PUSH1 0x20 ADD SWAP1 JUMP JUMPDEST DUP2 PUSH1 0x1F DUP3 ADD SLT ISZERO PUSH2 0x2FD JUMPI DUP1 CALLDATALOAD SWAP1 PUSH2 0x1FE3 DUP3 PUSH2 0x1FB1 JUMP JUMPDEST SWAP3 PUSH2 0x1FF1 PUSH1 0x40 MLOAD SWAP5 DUP6 PUSH2 0x1EAB JUMP JUMPDEST DUP3 DUP5 MSTORE PUSH1 0x20 DUP4 DUP4 ADD ADD GT PUSH2 0x2FD JUMPI DUP2 PUSH1 0x0 SWAP3 PUSH1 0x20 DUP1 SWAP4 ADD DUP4 DUP7 ADD CALLDATACOPY DUP4 ADD ADD MSTORE SWAP1 JUMP JUMPDEST PUSH1 0x24 CALLDATALOAD SWAP1 PUSH1 0x1 PUSH1 0x1 PUSH1 0xA0 SHL SUB DUP3 AND DUP3 SUB PUSH2 0x2FD JUMPI JUMP JUMPDEST PUSH1 0x60 SWAP1 PUSH1 0x3 NOT ADD SLT PUSH2 0x2FD JUMPI PUSH1 0x4 CALLDATALOAD SWAP1 PUSH1 0x24 CALLDATALOAD PUSH1 0x1 PUSH1 0x1 PUSH1 0xA0 SHL SUB DUP2 AND DUP2 SUB PUSH2 0x2FD JUMPI SWAP1 PUSH1 0x44 CALLDATALOAD SWAP1 JUMP JUMPDEST ISZERO PUSH2 0x205A JUMPI JUMP JUMPDEST PUSH1 0x40 MLOAD PUSH3 0x461BCD PUSH1 0xE5 SHL DUP2 MSTORE PUSH1 0x20 PUSH1 0x4 DUP3 ADD MSTORE PUSH1 0xF PUSH1 0x24 DUP3 ADD MSTORE PUSH15 0x125B9D985B1A59081C1C9BDA9958DD PUSH1 0x8A SHL PUSH1 0x44 DUP3 ADD MSTORE PUSH1 0x64 SWAP1 REVERT JUMPDEST ISZERO PUSH2 0x2098 JUMPI JUMP JUMPDEST PUSH1 0x40 MLOAD PUSH3 0x461BCD PUSH1 0xE5 SHL DUP2 MSTORE PUSH1 0x20 PUSH1 0x4 DUP3 ADD MSTORE PUSH1 0xD PUSH1 0x24 DUP3 ADD MSTORE PUSH13 0x105B1C9958591E481D9BDD1959 PUSH1 0x9A SHL PUSH1 0x44 DUP3 ADD MSTORE PUSH1 0x64 SWAP1 REVERT JUMPDEST SWAP2 SWAP1 DUP3 ADD DUP1 SWAP3 GT PUSH2 0x819 JUMPI JUMP JUMPDEST ISZERO PUSH2 0x20E1 JUMPI JUMP JUMPDEST PUSH1 0x40 MLOAD PUSH3 0x461BCD PUSH1 0xE5 SHL DUP2 MSTORE PUSH1 0x20 PUSH1 0x4 DUP3 ADD MSTORE PUSH1 0xA PUSH1 0x24 DUP3 ADD MSTORE PUSH10 0x27B7363C9037BBB732B9 PUSH1 0xB1 SHL PUSH1 0x44 DUP3 ADD MSTORE PUSH1 0x64 SWAP1 REVERT JUMPDEST DUP1 SLOAD DUP3 LT ISZERO PUSH2 0x1E5B JUMPI PUSH1 0x0 MSTORE PUSH1 0x20 PUSH1 0x0 KECCAK256 SWAP1 PUSH1 0x2 SHL ADD SWAP1 PUSH1 0x0 SWAP1 JUMP JUMPDEST SWAP2 SWAP1 DUP3 SUB SWAP2 DUP3 GT PUSH2 0x819 JUMPI JUMP JUMPDEST RETURNDATASIZE ISZERO PUSH2 0x2167 JUMPI RETURNDATASIZE SWAP1 PUSH2 0x214D DUP3 PUSH2 0x1FB1 JUMP JUMPDEST SWAP2 PUSH2 0x215B PUSH1 0x40 MLOAD SWAP4 DUP5 PUSH2 0x1EAB JUMP JUMPDEST DUP3 MSTORE RETURNDATASIZE PUSH1 0x0 PUSH1 0x20 DUP5 ADD RETURNDATACOPY JUMP JUMPDEST PUSH1 0x60 SWAP1 JUMP JUMPDEST ISZERO PUSH2 0x2173 JUMPI JUMP JUMPDEST PUSH1 0x40 MLOAD PUSH3 0x461BCD PUSH1 0xE5 SHL DUP2 MSTORE PUSH1 0x20 PUSH1 0x4 DUP3 ADD MSTORE PUSH1 0xC PUSH1 0x24 DUP3 ADD MSTORE PUSH12 0x5A65726F2061646472657373 PUSH1 0xA0 SHL PUSH1 0x44 DUP3 ADD MSTORE PUSH1 0x64 SWAP1 REVERT JUMPDEST ISZERO PUSH2 0x21AE JUMPI JUMP JUMPDEST PUSH1 0x40 MLOAD PUSH3 0x461BCD PUSH1 0xE5 SHL DUP2 MSTORE PUSH1 0x20 PUSH1 0x4 DUP3 ADD MSTORE PUSH1 0x10 PUSH1 0x24 DUP3 ADD MSTORE PUSH16 0x4E6F7420656E6F75676820766F746573 PUSH1 0x80 SHL PUSH1 0x44 DUP3 ADD MSTORE PUSH1 0x64 SWAP1 REVERT JUMPDEST ISZERO PUSH2 0x21ED JUMPI JUMP JUMPDEST PUSH1 0x40 MLOAD PUSH3 0x461BCD PUSH1 0xE5 SHL DUP2 MSTORE PUSH1 0x20 PUSH1 0x4 DUP3 ADD MSTORE PUSH1 0x10 PUSH1 0x24 DUP3 ADD MSTORE PUSH16 0x11DBD85B081B9BDD081C995858DA1959 PUSH1 0x82 SHL PUSH1 0x44 DUP3 ADD MSTORE PUSH1 0x64 SWAP1 REVERT JUMPDEST ISZERO PUSH2 0x222C JUMPI JUMP JUMPDEST PUSH1 0x40 MLOAD PUSH3 0x461BCD PUSH1 0xE5 SHL DUP2 MSTORE PUSH1 0x20 PUSH1 0x4 DUP3 ADD MSTORE PUSH1 0xD PUSH1 0x24 DUP3 ADD MSTORE PUSH13 0x1253D0C81B9BDD08195B991959 PUSH1 0x9A SHL PUSH1 0x44 DUP3 ADD MSTORE PUSH1 0x64 SWAP1 REVERT JUMPDEST ISZERO PUSH2 0x2268 JUMPI JUMP JUMPDEST PUSH1 0x40 MLOAD PUSH3 0x461BCD PUSH1 0xE5 SHL DUP2 MSTORE PUSH1 0x20 PUSH1 0x4 DUP3 ADD MSTORE PUSH1 0x13 PUSH1 0x24 DUP3 ADD MSTORE PUSH19 0x111A5D9A59195B991CC8199A5B985B1A5E9959 PUSH1 0x6A SHL PUSH1 0x44 DUP3 ADD MSTORE PUSH1 0x64 SWAP1 REVERT JUMPDEST ISZERO PUSH2 0x22AA JUMPI JUMP JUMPDEST PUSH1 0x40 MLOAD PUSH3 0x461BCD PUSH1 0xE5 SHL DUP2 MSTORE PUSH1 0x20 PUSH1 0x4 DUP3 ADD MSTORE PUSH1 0x10 PUSH1 0x24 DUP3 ADD MSTORE PUSH16 0x50726F6A65637420696E616374697665 PUSH1 0x80 SHL PUSH1 0x44 DUP3 ADD MSTORE PUSH1 0x64 SWAP1 REVERT JUMPDEST SWAP1 DUP2 ISZERO ISZERO DUP1 PUSH2 0x2346 JUMPI JUMPDEST PUSH2 0x233E JUMPI TIMESTAMP LT SWAP2 DUP3 ISZERO DUP1 PUSH2 0x2334 JUMPI JUMPDEST PUSH2 0x232C JUMPI TIMESTAMP GT SWAP1 DUP2 PUSH2 0x2321 JUMPI JUMPDEST POP PUSH2 0x231B JUMPI PUSH2 0x2316 JUMPI PUSH1 0x0 SWAP1 JUMP JUMPDEST PUSH1 0x0 SWAP1 JUMP JUMPDEST POP PUSH1 0x2 SWAP1 JUMP JUMPDEST SWAP1 POP TIMESTAMP GT ISZERO CODESIZE PUSH2 0x2308 JUMP JUMPDEST POP POP POP PUSH1 0x1 SWAP1 JUMP JUMPDEST POP DUP1 TIMESTAMP GT ISZERO PUSH2 0x22FB JUMP JUMPDEST POP POP POP PUSH1 0x3 SWAP1 JUMP JUMPDEST POP DUP2 TIMESTAMP GT PUSH2 0x22EC JUMP INVALID LOG2 PUSH5 0x6970667358 0x22 SLT KECCAK256 0xED LOG0 PUSH19 0x9497AD392AA535FC9CCC8972B176382BD6DE5C 0xE8 0x22 0xAD 0xD8 PUSH29 0x15E7D1AC9664736F6C634300081C003300000000000000000000000000 "},"methodIdentifiers":{"addComment(uint256,string,uint8)":"44b76269","claimDividends(uint256)":"bd7047c4","claimedDividends(uint256,address)":"cff63567","createProject(string,string,string,string,string,string,address,uint256,uint256,uint256,uint256,uint256,uint256)":"9e5c5ff8","disburseAndFinalizeDividends(uint256,address,uint256)":"fe9c19a2","donate(uint256)":"f14faf6f","donatedByUser(uint256,address)":"7ed28f0c","getComment(uint256,uint256)":"48892753","getCommentsCount(uint256)":"4c9b78da","getProjectsCount()":"e4a8f18b","owner()":"8da5cb5b","projectCount()":"36fbad26","projects(uint256)":"107046bd","setProjectActive(uint256,bool)":"2f597db5","voteTrust(uint256)":"2c871447","voteWithdraw(uint256)":"272f04ab","votedTrust(uint256,address)":"85576a31","votedWithdraw(uint256,address)":"df3faafe","withdraw(uint256,address,uint256)":"e63697c8"}}}}}