{
  "_format": "hh-sol-artifact-1",
  "contractName": "StudentToken",
  "sourceName": "contracts/StudentToken.sol",
  "abi": [
    {
      "inputs": [],
      "stateMutability": "nonpayable",
      "type": "constructor"
    },
    {
      "inputs": [
        {
          "internalType": "uint256",
          "name": "increasedSupply",
          "type": "uint256"
        },
        {
          "internalType": "uint256",
          "name": "cap",
          "type": "uint256"
        }
      ],
      "name": "ERC20ExceededCap",
      "type": "error"
    },
    {
      "inputs": [
        {
          "internalType": "address",
          "name": "spender",
          "type": "address"
        },
        {
          "internalType": "uint256",
          "name": "allowance",
          "type": "uint256"
        },
        {
          "internalType": "uint256",
          "name": "needed",
          "type": "uint256"
        }
      ],
      "name": "ERC20InsufficientAllowance",
      "type": "error"
    },
    {
      "inputs": [
        {
          "internalType": "address",
          "name": "sender",
          "type": "address"
        },
        {
          "internalType": "uint256",
          "name": "balance",
          "type": "uint256"
        },
        {
          "internalType": "uint256",
          "name": "needed",
          "type": "uint256"
        }
      ],
      "name": "ERC20InsufficientBalance",
      "type": "error"
    },
    {
      "inputs": [
        {
          "internalType": "address",
          "name": "approver",
          "type": "address"
        }
      ],
      "name": "ERC20InvalidApprover",
      "type": "error"
    },
    {
      "inputs": [
        {
          "internalType": "uint256",
          "name": "cap",
          "type": "uint256"
        }
      ],
      "name": "ERC20InvalidCap",
      "type": "error"
    },
    {
      "inputs": [
        {
          "internalType": "address",
          "name": "receiver",
          "type": "address"
        }
      ],
      "name": "ERC20InvalidReceiver",
      "type": "error"
    },
    {
      "inputs": [
        {
          "internalType": "address",
          "name": "sender",
          "type": "address"
        }
      ],
      "name": "ERC20InvalidSender",
      "type": "error"
    },
    {
      "inputs": [
        {
          "internalType": "address",
          "name": "spender",
          "type": "address"
        }
      ],
      "name": "ERC20InvalidSpender",
      "type": "error"
    },
    {
      "inputs": [],
      "name": "EnforcedPause",
      "type": "error"
    },
    {
      "inputs": [],
      "name": "ExpectedPause",
      "type": "error"
    },
    {
      "inputs": [
        {
          "internalType": "address",
          "name": "owner",
          "type": "address"
        }
      ],
      "name": "OwnableInvalidOwner",
      "type": "error"
    },
    {
      "inputs": [
        {
          "internalType": "address",
          "name": "account",
          "type": "address"
        }
      ],
      "name": "OwnableUnauthorizedAccount",
      "type": "error"
    },
    {
      "anonymous": false,
      "inputs": [
        {
          "indexed": true,
          "internalType": "address",
          "name": "owner",
          "type": "address"
        },
        {
          "indexed": true,
          "internalType": "address",
          "name": "spender",
          "type": "address"
        },
        {
          "indexed": false,
          "internalType": "uint256",
          "name": "value",
          "type": "uint256"
        }
      ],
      "name": "Approval",
      "type": "event"
    },
    {
      "anonymous": false,
      "inputs": [
        {
          "indexed": true,
          "internalType": "address",
          "name": "previousOwner",
          "type": "address"
        },
        {
          "indexed": true,
          "internalType": "address",
          "name": "newOwner",
          "type": "address"
        }
      ],
      "name": "OwnershipTransferred",
      "type": "event"
    },
    {
      "anonymous": false,
      "inputs": [
        {
          "indexed": false,
          "internalType": "address",
          "name": "account",
          "type": "address"
        }
      ],
      "name": "Paused",
      "type": "event"
    },
    {
      "anonymous": false,
      "inputs": [
        {
          "indexed": true,
          "internalType": "address",
          "name": "from",
          "type": "address"
        },
        {
          "indexed": true,
          "internalType": "address",
          "name": "to",
          "type": "address"
        },
        {
          "indexed": false,
          "internalType": "uint256",
          "name": "value",
          "type": "uint256"
        }
      ],
      "name": "Transfer",
      "type": "event"
    },
    {
      "anonymous": false,
      "inputs": [
        {
          "indexed": false,
          "internalType": "address",
          "name": "account",
          "type": "address"
        }
      ],
      "name": "Unpaused",
      "type": "event"
    },
    {
      "inputs": [
        {
          "internalType": "address",
          "name": "owner",
          "type": "address"
        },
        {
          "internalType": "address",
          "name": "spender",
          "type": "address"
        }
      ],
      "name": "allowance",
      "outputs": [
        {
          "internalType": "uint256",
          "name": "",
          "type": "uint256"
        }
      ],
      "stateMutability": "view",
      "type": "function"
    },
    {
      "inputs": [
        {
          "internalType": "address",
          "name": "spender",
          "type": "address"
        },
        {
          "internalType": "uint256",
          "name": "value",
          "type": "uint256"
        }
      ],
      "name": "approve",
      "outputs": [
        {
          "internalType": "bool",
          "name": "",
          "type": "bool"
        }
      ],
      "stateMutability": "nonpayable",
      "type": "function"
    },
    {
      "inputs": [
        {
          "internalType": "address",
          "name": "account",
          "type": "address"
        }
      ],
      "name": "balanceOf",
      "outputs": [
        {
          "internalType": "uint256",
          "name": "",
          "type": "uint256"
        }
      ],
      "stateMutability": "view",
      "type": "function"
    },
    {
      "inputs": [
        {
          "internalType": "uint256",
          "name": "value",
          "type": "uint256"
        }
      ],
      "name": "burn",
      "outputs": [],
      "stateMutability": "nonpayable",
      "type": "function"
    },
    {
      "inputs": [
        {
          "internalType": "address",
          "name": "account",
          "type": "address"
        },
        {
          "internalType": "uint256",
          "name": "value",
          "type": "uint256"
        }
      ],
      "name": "burnFrom",
      "outputs": [],
      "stateMutability": "nonpayable",
      "type": "function"
    },
    {
      "inputs": [],
      "name": "cap",
      "outputs": [
        {
          "internalType": "uint256",
          "name": "",
          "type": "uint256"
        }
      ],
      "stateMutability": "view",
      "type": "function"
    },
    {
      "inputs": [],
      "name": "decimals",
      "outputs": [
        {
          "internalType": "uint8",
          "name": "",
          "type": "uint8"
        }
      ],
      "stateMutability": "view",
      "type": "function"
    },
    {
      "inputs": [
        {
          "internalType": "address",
          "name": "to",
          "type": "address"
        },
        {
          "internalType": "uint256",
          "name": "amount",
          "type": "uint256"
        }
      ],
      "name": "mint",
      "outputs": [],
      "stateMutability": "nonpayable",
      "type": "function"
    },
    {
      "inputs": [],
      "name": "name",
      "outputs": [
        {
          "internalType": "string",
          "name": "",
          "type": "string"
        }
      ],
      "stateMutability": "view",
      "type": "function"
    },
    {
      "inputs": [],
      "name": "owner",
      "outputs": [
        {
          "internalType": "address",
          "name": "",
          "type": "address"
        }
      ],
      "stateMutability": "view",
      "type": "function"
    },
    {
      "inputs": [],
      "name": "pause",
      "outputs": [],
      "stateMutability": "nonpayable",
      "type": "function"
    },
    {
      "inputs": [],
      "name": "paused",
      "outputs": [
        {
          "internalType": "bool",
          "name": "",
          "type": "bool"
        }
      ],
      "stateMutability": "view",
      "type": "function"
    },
    {
      "inputs": [],
      "name": "renounceOwnership",
      "outputs": [],
      "stateMutability": "nonpayable",
      "type": "function"
    },
    {
      "inputs": [],
      "name": "symbol",
      "outputs": [
        {
          "internalType": "string",
          "name": "",
          "type": "string"
        }
      ],
      "stateMutability": "view",
      "type": "function"
    },
    {
      "inputs": [],
      "name": "totalSupply",
      "outputs": [
        {
          "internalType": "uint256",
          "name": "",
          "type": "uint256"
        }
      ],
      "stateMutability": "view",
      "type": "function"
    },
    {
      "inputs": [
        {
          "internalType": "address",
          "name": "to",
          "type": "address"
        },
        {
          "internalType": "uint256",
          "name": "value",
          "type": "uint256"
        }
      ],
      "name": "transfer",
      "outputs": [
        {
          "internalType": "bool",
          "name": "",
          "type": "bool"
        }
      ],
      "stateMutability": "nonpayable",
      "type": "function"
    },
    {
      "inputs": [
        {
          "internalType": "address",
          "name": "from",
          "type": "address"
        },
        {
          "internalType": "address",
          "name": "to",
          "type": "address"
        },
        {
          "internalType": "uint256",
          "name": "value",
          "type": "uint256"
        }
      ],
      "name": "transferFrom",
      "outputs": [
        {
          "internalType": "bool",
          "name": "",
          "type": "bool"
        }
      ],
      "stateMutability": "nonpayable",
      "type": "function"
    },
    {
      "inputs": [
        {
          "internalType": "address",
          "name": "newOwner",
          "type": "address"
        }
      ],
      "name": "transferOwnership",
      "outputs": [],
      "stateMutability": "nonpayable",
      "type": "function"
    },
    {
      "inputs": [],
      "name": "unpause",
      "outputs": [],
      "stateMutability": "nonpayable",
      "type": "function"
    }
  ],
  "bytecode": "0x60a06040523461049157604080519081016001600160401b0381118282101761039c576040908152601582527f53747564656e74205374617274757020546f6b656e0000000000000000000000602083015280519081016001600160401b0381118282101761039c57604052600381526214d4d560ea1b602082015281516001600160401b03811161039c57600354600181811c91168015610487575b602082101461037c57601f8111610422575b50602092601f82116001146103bd57928192936000926103b2575b50508160011b916000199060031b1c1916176003555b80516001600160401b03811161039c57600454600181811c91168015610392575b602082101461037c57601f8111610317575b50602091601f82116001146102b3579181926000926102a8575b50508160011b916000199060031b1c1916176004555b69d3c21bcecceda100000060805233156102925760058054610100600160a81b0319811633600881811b610100600160a81b03169290921790935590919082901c6001600160a01b03167f8be0079c531659141344cd1fd0a4f28419497f9722a3daafe3b4186f6b6457e0600080a360ff6000911661028357600254693f870857a3e0e3800000810180911161026f57600255503360005260006020526040600020693f870857a3e0e38000008154019055604051693f870857a3e0e3800000815260007fddf252ad1be2c89b69c2b068fc378daa952ba7f163c4a11628f55a4df523b3ef60203393a360805160025481811161025857604051610b419081610497823960805181818161055c01526106480152f35b63279e7e1560e21b60005260045260245260446000fd5b634e487b7160e01b82526011600452602482fd5b63d93c066560e01b8152600490fd5b631e4fbdf760e01b600052600060045260246000fd5b01519050388061012c565b601f198216926004600052806000209160005b8581106102ff575083600195106102e6575b505050811b01600455610142565b015160001960f88460031b161c191690553880806102d8565b919260206001819286850151815501940192016102c6565b60046000527f8a35acfbc15ff81a39ae7d344fd709f28e8600b4aa8c65c6b64bfe7fe36bd19b601f830160051c81019160208410610372575b601f0160051c01905b8181106103665750610112565b60008155600101610359565b9091508190610350565b634e487b7160e01b600052602260045260246000fd5b90607f1690610100565b634e487b7160e01b600052604160045260246000fd5b0151905038806100c9565b601f198216936003600052806000209160005b86811061040a57508360019596106103f1575b505050811b016003556100df565b015160001960f88460031b161c191690553880806103e3565b919260206001819286850151815501940192016103d0565b60036000527fc2575a0e9e593c00f959f8c92f12db2869c3395a3b0502d05e2516446f71f85b601f830160051c8101916020841061047d575b601f0160051c01905b81811061047157506100ae565b60008155600101610464565b909150819061045b565b90607f169061009c565b600080fdfe608080604052600436101561001357600080fd5b60003560e01c90816306fdde031461078f57508063095ea7b3146106dd57806318160ddd146106bf57806323b872dd14610687578063313ce5671461066b578063355274ea146106305780633f4ba83a146105c757806340c10f19146104c957806342966c68146104ac5780635c975abb1461048957806370a082311461044f578063715018a6146103ee57806379cc6790146103bc5780638456cb59146103625780638da5cb5b1461033557806395d89b4114610214578063a9059cbb146101e3578063dd62ed3e146101925763f2fde38b146100f057600080fd5b3461018d57602036600319011261018d576101096108ab565b610111610a39565b6001600160a01b0381169081156101775760058054610100600160a81b03198116600893841b610100600160a81b031617909155901c6001600160a01b03167f8be0079c531659141344cd1fd0a4f28419497f9722a3daafe3b4186f6b6457e0600080a3005b631e4fbdf760e01b600052600060045260246000fd5b600080fd5b3461018d57604036600319011261018d576101ab6108ab565b6101b36108c1565b6001600160a01b039182166000908152600160209081526040808320949093168252928352819020549051908152f35b3461018d57604036600319011261018d576102096101ff6108ab565b6024359033610982565b602060405160018152f35b3461018d57600036600319011261018d5760405160006004548060011c9060018116801561032b575b602083108114610317578285529081156102fb57506001146102a4575b50819003601f01601f191681019067ffffffffffffffff82118183101761028e5761028a82918260405282610862565b0390f35b634e487b7160e01b600052604160045260246000fd5b905060046000527f8a35acfbc15ff81a39ae7d344fd709f28e8600b4aa8c65c6b64bfe7fe36bd19b6000905b8282106102e55750602091508201018261025a565b60018160209254838588010152019101906102d0565b90506020925060ff191682840152151560051b8201018261025a565b634e487b7160e01b84526022600452602484fd5b91607f169161023d565b3461018d57600036600319011261018d5760055460405160089190911c6001600160a01b03168152602090f35b3461018d57600036600319011261018d5761037b610a39565b610383610aee565b600160ff1960055416176005557f62e78cea01bee320cd4e420270b5ea74000d11b0c9f74754ebdbfc544b05a2586020604051338152a1005b3461018d57604036600319011261018d576103ec6103d86108ab565b602435906103e78233836108d7565b610a65565b005b3461018d57600036600319011261018d57610407610a39565b60058054610100600160a81b0319811690915560009060081c6001600160a01b03167f8be0079c531659141344cd1fd0a4f28419497f9722a3daafe3b4186f6b6457e08280a3005b3461018d57602036600319011261018d576001600160a01b036104706108ab565b1660005260006020526020604060002054604051908152f35b3461018d57600036600319011261018d57602060ff600554166040519015158152f35b3461018d57602036600319011261018d576103ec60043533610a65565b3461018d57604036600319011261018d576104e26108ab565b602435906104ee610a39565b6001600160a01b031680156105b157610505610aee565b6002549180830180931161059b576020926002557fddf252ad1be2c89b69c2b068fc378daa952ba7f163c4a11628f55a4df523b3ef600093849284845283825260408420818154019055604051908152a3600254907f0000000000000000000000000000000000000000000000000000000000000000808311610586575080f35b60449263279e7e1560e21b8352600452602452fd5b634e487b7160e01b600052601160045260246000fd5b63ec442f0560e01b600052600060045260246000fd5b3461018d57600036600319011261018d576105e0610a39565b60055460ff81161561061f5760ff19166005557f5db9ee0a495bf2e6ff9c91a7834c1ba4fdd244a5e8aa4e537bd38aeae4b073aa6020604051338152a1005b638dfc202b60e01b60005260046000fd5b3461018d57600036600319011261018d5760206040517f00000000000000000000000000000000000000000000000000000000000000008152f35b3461018d57600036600319011261018d57602060405160128152f35b3461018d57606036600319011261018d576102096106a36108ab565b6106ab6108c1565b604435916106ba8333836108d7565b610982565b3461018d57600036600319011261018d576020600254604051908152f35b3461018d57604036600319011261018d576106f66108ab565b602435903315610779576001600160a01b031690811561076357336000526001602052604060002082600052602052806040600020556040519081527f8c5be1e5ebec7d5bd14f71427d1e84f3dd0314c0f7b2291e5b200ac8c7c3b92560203392a3602060405160018152f35b634a1406b160e11b600052600060045260246000fd5b63e602df0560e01b600052600060045260246000fd5b3461018d57600036600319011261018d5760006003548060011c90600181168015610858575b602083108114610317578285529081156102fb57506001146108015750819003601f01601f191681019067ffffffffffffffff82118183101761028e5761028a82918260405282610862565b905060036000527fc2575a0e9e593c00f959f8c92f12db2869c3395a3b0502d05e2516446f71f85b6000905b8282106108425750602091508201018261025a565b600181602092548385880101520191019061082d565b91607f16916107b5565b91909160208152825180602083015260005b818110610895575060409293506000838284010152601f8019910116010190565b8060208092870101516040828601015201610874565b600435906001600160a01b038216820361018d57565b602435906001600160a01b038216820361018d57565b6001600160a01b039081166000818152600160209081526040808320948616835293905291909120549291906000198410610913575b50505050565b82841061095d578015610779576001600160a01b0382161561076357600052600160205260406000209060018060a01b03166000526020526040600020910390553880808061090d565b508290637dc7a0d960e11b60005260018060a01b031660045260245260445260646000fd5b6001600160a01b0316908115610a23576001600160a01b03169182156105b1576109aa610aee565b6000828152806020526040812054828110610a095791604082827fddf252ad1be2c89b69c2b068fc378daa952ba7f163c4a11628f55a4df523b3ef958760209652828652038282205586815280845220818154019055604051908152a3565b916064928463391434e360e21b8452600452602452604452fd5b634b637e8f60e11b600052600060045260246000fd5b60055460081c6001600160a01b03163303610a5057565b63118cdaa760e01b6000523360045260246000fd5b6001600160a01b03168015610a2357610a7c610aee565b600091818352826020526040832054818110610ad557817fddf252ad1be2c89b69c2b068fc378daa952ba7f163c4a11628f55a4df523b3ef926020928587528684520360408620558060025403600255604051908152a3565b6064939263391434e360e21b8452600452602452604452fd5b60ff60055416610afa57565b63d93c066560e01b60005260046000fdfea26469706673582212200ce7b0da5560b7555532e43865a11473359d07a3fcea31bf2aa468954dc7f86d64736f6c634300081c0033",
  "linkReferences": {},
  "deployedLinkReferences": {}
}