{
  "contracts/StudentStartupFund.sol": {
    "StudentStartupFund": {
      "abi": [
        {
          "inputs": [],
          "stateMutability": "nonpayable",
          "type": "constructor"
        },
        {
          "anonymous": false,
          "inputs": [
            {
              "indexed": true,
              "internalType": "uint256",
              "name": "projectId",
              "type": "uint256"
            },
            {
              "indexed": true,
              "internalType": "address",
              "name": "user",
              "type": "address"
            },
            {
              "indexed": false,
              "internalType": "uint8",
              "name": "rating",
              "type": "uint8"
            },
            {
              "indexed": false,
              "internalType": "string",
              "name": "content",
              "type": "string"
            }
          ],
          "name": "CommentAdded",
          "type": "event"
        },
        {
          "anonymous": false,
          "inputs": [
            {
              "indexed": true,
              "internalType": "uint256",
              "name": "projectId",
              "type": "uint256"
            },
            {
              "indexed": true,
              "internalType": "address",
              "name": "donor",
              "type": "address"
            },
            {
              "indexed": false,
              "internalType": "uint256",
              "name": "amount",
              "type": "uint256"
            }
          ],
          "name": "DonationReceived",
          "type": "event"
        },
        {
          "anonymous": false,
          "inputs": [
            {
              "indexed": false,
              "internalType": "uint256",
              "name": "commentFee",
              "type": "uint256"
            },
            {
              "indexed": false,
              "internalType": "uint256",
              "name": "voteFee",
              "type": "uint256"
            }
          ],
          "name": "FeesUpdated",
          "type": "event"
        },
        {
          "anonymous": false,
          "inputs": [
            {
              "indexed": true,
              "internalType": "address",
              "name": "to",
              "type": "address"
            },
            {
              "indexed": false,
              "internalType": "uint256",
              "name": "amount",
              "type": "uint256"
            }
          ],
          "name": "FeesWithdrawn",
          "type": "event"
        },
        {
          "anonymous": false,
          "inputs": [
            {
              "indexed": true,
              "internalType": "uint256",
              "name": "projectId",
              "type": "uint256"
            },
            {
              "indexed": false,
              "internalType": "string",
              "name": "title",
              "type": "string"
            }
          ],
          "name": "ProjectCreated",
          "type": "event"
        },
        {
          "anonymous": false,
          "inputs": [
            {
              "indexed": true,
              "internalType": "uint256",
              "name": "projectId",
              "type": "uint256"
            },
            {
              "indexed": true,
              "internalType": "address",
              "name": "user",
              "type": "address"
            }
          ],
          "name": "VotedTrust",
          "type": "event"
        },
        {
          "anonymous": false,
          "inputs": [
            {
              "indexed": true,
              "internalType": "uint256",
              "name": "projectId",
              "type": "uint256"
            },
            {
              "indexed": true,
              "internalType": "address",
              "name": "user",
              "type": "address"
            }
          ],
          "name": "VotedWithdraw",
          "type": "event"
        },
        {
          "anonymous": false,
          "inputs": [
            {
              "indexed": true,
              "internalType": "uint256",
              "name": "projectId",
              "type": "uint256"
            },
            {
              "indexed": true,
              "internalType": "address",
              "name": "to",
              "type": "address"
            },
            {
              "indexed": false,
              "internalType": "uint256",
              "name": "amount",
              "type": "uint256"
            }
          ],
          "name": "Withdrawn",
          "type": "event"
        },
        {
          "inputs": [],
          "name": "accumulatedFees",
          "outputs": [
            {
              "internalType": "uint256",
              "name": "",
              "type": "uint256"
            }
          ],
          "stateMutability": "view",
          "type": "function"
        },
        {
          "inputs": [
            {
              "internalType": "uint256",
              "name": "projectId",
              "type": "uint256"
            },
            {
              "internalType": "string",
              "name": "content",
              "type": "string"
            },
            {
              "internalType": "uint8",
              "name": "rating",
              "type": "uint8"
            }
          ],
          "name": "addComment",
          "outputs": [],
          "stateMutability": "payable",
          "type": "function"
        },
        {
          "inputs": [],
          "name": "commentFee",
          "outputs": [
            {
              "internalType": "uint256",
              "name": "",
              "type": "uint256"
            }
          ],
          "stateMutability": "view",
          "type": "function"
        },
        {
          "inputs": [
            {
              "internalType": "string",
              "name": "title",
              "type": "string"
            },
            {
              "internalType": "string",
              "name": "description",
              "type": "string"
            },
            {
              "internalType": "string",
              "name": "image",
              "type": "string"
            },
            {
              "internalType": "string",
              "name": "teamJson",
              "type": "string"
            },
            {
              "internalType": "string",
              "name": "tokenName",
              "type": "string"
            },
            {
              "internalType": "string",
              "name": "tokenSymbol",
              "type": "string"
            },
            {
              "internalType": "address",
              "name": "tokenAddress",
              "type": "address"
            },
            {
              "internalType": "uint256",
              "name": "tokenPrice",
              "type": "uint256"
            },
            {
              "internalType": "uint256",
              "name": "goal",
              "type": "uint256"
            },
            {
              "internalType": "uint256",
              "name": "projectStart",
              "type": "uint256"
            },
            {
              "internalType": "uint256",
              "name": "projectEnd",
              "type": "uint256"
            },
            {
              "internalType": "uint256",
              "name": "iocStart",
              "type": "uint256"
            },
            {
              "internalType": "uint256",
              "name": "iocEnd",
              "type": "uint256"
            }
          ],
          "name": "createProject",
          "outputs": [
            {
              "internalType": "uint256",
              "name": "",
              "type": "uint256"
            }
          ],
          "stateMutability": "nonpayable",
          "type": "function"
        },
        {
          "inputs": [
            {
              "internalType": "uint256",
              "name": "projectId",
              "type": "uint256"
            }
          ],
          "name": "donate",
          "outputs": [],
          "stateMutability": "payable",
          "type": "function"
        },
        {
          "inputs": [
            {
              "internalType": "uint256",
              "name": "projectId",
              "type": "uint256"
            },
            {
              "internalType": "uint256",
              "name": "index",
              "type": "uint256"
            }
          ],
          "name": "getComment",
          "outputs": [
            {
              "internalType": "address",
              "name": "user",
              "type": "address"
            },
            {
              "internalType": "string",
              "name": "content",
              "type": "string"
            },
            {
              "internalType": "uint8",
              "name": "rating",
              "type": "uint8"
            },
            {
              "internalType": "uint256",
              "name": "timestamp",
              "type": "uint256"
            }
          ],
          "stateMutability": "view",
          "type": "function"
        },
        {
          "inputs": [
            {
              "internalType": "uint256",
              "name": "projectId",
              "type": "uint256"
            }
          ],
          "name": "getCommentsCount",
          "outputs": [
            {
              "internalType": "uint256",
              "name": "",
              "type": "uint256"
            }
          ],
          "stateMutability": "view",
          "type": "function"
        },
        {
          "inputs": [],
          "name": "getProjectsCount",
          "outputs": [
            {
              "internalType": "uint256",
              "name": "",
              "type": "uint256"
            }
          ],
          "stateMutability": "view",
          "type": "function"
        },
        {
          "inputs": [],
          "name": "owner",
          "outputs": [
            {
              "internalType": "address",
              "name": "",
              "type": "address"
            }
          ],
          "stateMutability": "view",
          "type": "function"
        },
        {
          "inputs": [],
          "name": "projectCount",
          "outputs": [
            {
              "internalType": "uint256",
              "name": "",
              "type": "uint256"
            }
          ],
          "stateMutability": "view",
          "type": "function"
        },
        {
          "inputs": [
            {
              "internalType": "uint256",
              "name": "",
              "type": "uint256"
            }
          ],
          "name": "projects",
          "outputs": [
            {
              "internalType": "uint256",
              "name": "id",
              "type": "uint256"
            },
            {
              "internalType": "string",
              "name": "title",
              "type": "string"
            },
            {
              "internalType": "string",
              "name": "description",
              "type": "string"
            },
            {
              "internalType": "string",
              "name": "image",
              "type": "string"
            },
            {
              "internalType": "string",
              "name": "teamJson",
              "type": "string"
            },
            {
              "internalType": "string",
              "name": "tokenName",
              "type": "string"
            },
            {
              "internalType": "string",
              "name": "tokenSymbol",
              "type": "string"
            },
            {
              "internalType": "address",
              "name": "tokenAddress",
              "type": "address"
            },
            {
              "internalType": "uint256",
              "name": "tokenPrice",
              "type": "uint256"
            },
            {
              "internalType": "uint256",
              "name": "goal",
              "type": "uint256"
            },
            {
              "internalType": "uint256",
              "name": "totalDonated",
              "type": "uint256"
            },
            {
              "internalType": "uint256",
              "name": "projectStart",
              "type": "uint256"
            },
            {
              "internalType": "uint256",
              "name": "projectEnd",
              "type": "uint256"
            },
            {
              "internalType": "uint256",
              "name": "iocStart",
              "type": "uint256"
            },
            {
              "internalType": "uint256",
              "name": "iocEnd",
              "type": "uint256"
            },
            {
              "internalType": "uint256",
              "name": "trustVotes",
              "type": "uint256"
            },
            {
              "internalType": "uint256",
              "name": "withdrawVotes",
              "type": "uint256"
            },
            {
              "internalType": "enum StudentStartupFund.ProjectStatus",
              "name": "status",
              "type": "uint8"
            },
            {
              "internalType": "bool",
              "name": "active",
              "type": "bool"
            }
          ],
          "stateMutability": "view",
          "type": "function"
        },
        {
          "inputs": [
            {
              "internalType": "uint256",
              "name": "_commentFee",
              "type": "uint256"
            },
            {
              "internalType": "uint256",
              "name": "_voteFee",
              "type": "uint256"
            }
          ],
          "name": "setFees",
          "outputs": [],
          "stateMutability": "nonpayable",
          "type": "function"
        },
        {
          "inputs": [
            {
              "internalType": "uint256",
              "name": "projectId",
              "type": "uint256"
            },
            {
              "internalType": "bool",
              "name": "active",
              "type": "bool"
            }
          ],
          "name": "setProjectActive",
          "outputs": [],
          "stateMutability": "nonpayable",
          "type": "function"
        },
        {
          "inputs": [],
          "name": "voteFee",
          "outputs": [
            {
              "internalType": "uint256",
              "name": "",
              "type": "uint256"
            }
          ],
          "stateMutability": "view",
          "type": "function"
        },
        {
          "inputs": [
            {
              "internalType": "uint256",
              "name": "projectId",
              "type": "uint256"
            }
          ],
          "name": "voteTrust",
          "outputs": [],
          "stateMutability": "payable",
          "type": "function"
        },
        {
          "inputs": [
            {
              "internalType": "uint256",
              "name": "projectId",
              "type": "uint256"
            }
          ],
          "name": "voteWithdraw",
          "outputs": [],
          "stateMutability": "payable",
          "type": "function"
        },
        {
          "inputs": [
            {
              "internalType": "uint256",
              "name": "",
              "type": "uint256"
            },
            {
              "internalType": "address",
              "name": "",
              "type": "address"
            }
          ],
          "name": "votedTrust",
          "outputs": [
            {
              "internalType": "bool",
              "name": "",
              "type": "bool"
            }
          ],
          "stateMutability": "view",
          "type": "function"
        },
        {
          "inputs": [
            {
              "internalType": "uint256",
              "name": "",
              "type": "uint256"
            },
            {
              "internalType": "address",
              "name": "",
              "type": "address"
            }
          ],
          "name": "votedWithdraw",
          "outputs": [
            {
              "internalType": "bool",
              "name": "",
              "type": "bool"
            }
          ],
          "stateMutability": "view",
          "type": "function"
        },
        {
          "inputs": [
            {
              "internalType": "uint256",
              "name": "projectId",
              "type": "uint256"
            },
            {
              "internalType": "address payable",
              "name": "to",
              "type": "address"
            },
            {
              "internalType": "uint256",
              "name": "amount",
              "type": "uint256"
            }
          ],
          "name": "withdraw",
          "outputs": [],
          "stateMutability": "nonpayable",
          "type": "function"
        },
        {
          "inputs": [
            {
              "internalType": "address payable",
              "name": "to",
              "type": "address"
            }
          ],
          "name": "withdrawFees",
          "outputs": [],
          "stateMutability": "nonpayable",
          "type": "function"
        }
      ],
      "evm": {
        "bytecode": {
          "linkReferences": {},
          "object": "60808060405234603657655af3107a40006001819055600255600080546001600160a01b03191633179055611f06908161003c8239f35b600080fdfe610100604052600436101561001357600080fd5b60003560e01c80630b78f9c014611af1578063107046bd14611909578063164e68de1461183f578063272f04ab1461173e5780632c871447146116405780632f597db5146115d457806336fbad26146115b657806344b76269146111cf57806348892753146111035780634c9b78da146110ca578063587f5ed7146110ac57806385576a311461105f5780638da5cb5b146110365780639e5c5ff8146104a0578063b40548dd14610482578063da2b4c1e14610464578063df3faafe14610417578063e4a8f18b146103f9578063e63697c8146102435763f14faf6f146100f957600080fd5b602036600319011261023e576004356101156004548210611db7565b34156102045761012481611b62565b5060ff601182015460081c16156101cc57600d810154421015806101be575b1561018757600a01610156348254611e39565b9055604051903482527f0b5b4c52969ff7329ecf7ee536409fda87812b15a8622bc6e8cdeab3aee14a2660203393a3005b60405162461bcd60e51b815260206004820152600f60248201526e4e6f7420696e20494f432074696d6560881b6044820152606490fd5b50600e810154421115610143565b60405162461bcd60e51b815260206004820152601060248201526f50726f6a65637420696e61637469766560801b6044820152606490fd5b60405162461bcd60e51b81526020600482015260126024820152710416d6f756e74206d757374206265203e20360741b6044820152606490fd5b600080fd5b3461023e57606036600319011261023e5760043561025f611cd7565b906044359161027960018060a01b03600054163314611d43565b6102866004548310611db7565b6001600160a01b03169161029b831515611d7c565b600360106102a884611b62565b500154106103c157600a6102bb83611b62565b500154811161038a576102d14760035490611e62565b811161034e57600a6102e283611b62565b50016102ef828254611e62565b9055600081848115610344575b600092839283928392f1156103385760207fcf7d23a3cbe4e8b36ff82fd1b05b1b17373dc7804b4ebbd6e2356716ef20237291604051908152a3005b6040513d6000823e3d90fd5b6108fc92506102fc565b60405162461bcd60e51b8152602060048201526014602482015273496e73756666696369656e742062616c616e636560601b6044820152606490fd5b60405162461bcd60e51b815260206004820152600f60248201526e115e18d959591cc8191bdb985d1959608a1b6044820152606490fd5b60405162461bcd60e51b815260206004820152601060248201526f4e6f7420656e6f75676820766f74657360801b6044820152606490fd5b3461023e57600036600319011261023e576020600454604051908152f35b3461023e57604036600319011261023e57610430611cd7565b600435600052600860205260406000209060018060a01b0316600052602052602060ff604060002054166040519015158152f35b3461023e57600036600319011261023e576020600254604051908152f35b3461023e57600036600319011261023e576020600154604051908152f35b3461023e576101a036600319011261023e576004356001600160401b03811161023e576104d1903690600401611ced565b6024356001600160401b03811161023e576104f0903690600401611ced565b6044356001600160401b03811161023e5761050f903690600401611ced565b906064356001600160401b03811161023e5761052f903690600401611ced565b916084356001600160401b03811161023e5761054f903690600401611ced565b60a4356001600160401b03811161023e5761056e903690600401611ced565b60c4356001600160a01b0381169081900361023e578661010435610124359261014435946101643596610184356105b060018060a01b03600054163314611d43565b80988098809880985115611000578715610fc857159081610fbf575b50610fa7575b159081610f9e575b50610f70575b87871015610f3957858511610efd576004549a6105fe898989611e6f565b996040519b6102608d018d81106001600160401b03821117610ade578f908f8f906020926040528152015260408d015260608c015260808b015260a08a015260c089015260e088015260e43561010088015261012087015260006101408701526101608601526101808501526101a08401526101c083015260006101e083015260006102008301526005811015610a00576102208201526001610240820152600160401b821015610ade57600182016004556106b982611b62565b610ee7578151815560208201518051906001600160401b038211610ade5781906106e66001850154611b97565b601f8111610e94575b50602090601f8311600114610e2357600092610e18575b50508160011b916000199060031b1c19161760018201555b60408201518051906001600160401b038211610ade5781906107436002850154611b97565b601f8111610dc5575b50602090601f8311600114610d5457600092610d49575b50508160011b916000199060031b1c19161760028201555b60608201518051906001600160401b038211610ade5781906107a06003850154611b97565b601f8111610cf6575b50602090601f8311600114610c8557600092610c7a575b50508160011b916000199060031b1c19161760038201555b6004810160808301518051906001600160401b038211610ade5781906107fe8454611b97565b601f8111610c27575b50602090601f8311600114610bc257600092610bb7575b50508160011b916000199060031b1c19161790555b6005810160a08301518051906001600160401b038211610ade5781906108598454611b97565b601f8111610b64575b50602090601f8311600114610aff57600092610af4575b50508160011b916000199060031b1c19161790555b60c08201518051906001600160401b038211610ade576108b16006840154611b97565b601f8111610a93575b50602090601f8311600114610a2157601193929160009183610a16575b50508160011b916000199060031b1c19161760068201555b60e08301516007820180546001600160a01b0319166001600160a01b039290921691909117905561010083015160088201556101208301516009820155610140830151600a820155610160830151600b820155610180830151600c8201556101a0830151600d8201556101c0830151600e8201556101e0830151600f82015561020083015160108201556102208301519101906005811015610a00578154610240939093015161ffff1990931660ff9091161791151560081b61ff001691909117905560209181907fed06d1e70f1faa0e1750def1b3a1d942390a8f47d03679c9025a1c38dc34fe7b906109f59060045460055560405191829187835287830190611c96565b0390a2604051908152f35b634e487b7160e01b600052602160045260246000fd5b0151905087806108d7565b9060068401600052806000209160005b601f1985168110610a7b575091839160019360119695601f19811610610a62575b505050811b0160068201556108ef565b015160001960f88460031b161c19169055878080610a52565b91926020600181928685015181550194019201610a31565b600684016000526020600020601f840160051c81019160208510610ad4575b601f0160051c01905b818110610ac857506108ba565b60008155600101610abb565b9091508190610ab2565b634e487b7160e01b600052604160045260246000fd5b015190508780610879565b60008581528281209350601f198516905b818110610b4c5750908460019594939210610b33575b505050811b01905561088e565b015160001960f88460031b161c19169055878080610b26565b92936020600181928786015181550195019301610b10565b909150836000526020600020601f840160051c81019160208510610bad575b90601f859493920160051c01905b818110610b9e5750610862565b60008155849350600101610b91565b9091508190610b83565b01519050878061081e565b60008581528281209350601f198516905b818110610c0f5750908460019594939210610bf6575b505050811b019055610833565b015160001960f88460031b161c19169055878080610be9565b92936020600181928786015181550195019301610bd3565b909150836000526020600020601f840160051c81019160208510610c70575b90601f859493920160051c01905b818110610c615750610807565b60008155849350600101610c54565b9091508190610c46565b0151905086806107c0565b92506003840160005280600020906000935b601f1984168510610cdb576001945083601f19811610610cc2575b505050811b0160038201556107d8565b015160001960f88460031b161c19169055868080610cb2565b81810151835560209485019460019093019290910190610c97565b909150600384016000526020600020601f840160051c810160208510610d42575b90849392915b601f830160051c82018110610d335750506107a9565b60008155859450600101610d1d565b5080610d17565b015190508680610763565b92506002840160005280600020906000935b601f1984168510610daa576001945083601f19811610610d91575b505050811b01600282015561077b565b015160001960f88460031b161c19169055868080610d81565b81810151835560209485019460019093019290910190610d66565b909150600284016000526020600020601f840160051c810160208510610e11575b90849392915b601f830160051c82018110610e0257505061074c565b60008155859450600101610dec565b5080610de6565b015190508680610706565b92506001840160005280600020906000935b601f1984168510610e79576001945083601f19811610610e60575b505050811b01600182015561071e565b015160001960f88460031b161c19169055868080610e50565b81810151835560209485019460019093019290910190610e35565b909150600184016000526020600020601f840160051c810160208510610ee0575b90849392915b601f830160051c82018110610ed15750506106ef565b60008155859450600101610ebb565b5080610eb5565b634e487b7160e01b600052600060045260246000fd5b60405162461bcd60e51b8152602060048201526014602482015273141c9bda9958dd081cdd185c9d080f0f48195b9960621b6044820152606490fd5b60405162461bcd60e51b815260206004820152600f60248201526e1253d0c81cdd185c9d080f08195b99608a1b6044820152606490fd5b965042955062278d008601808711610f8857966105e0565b634e487b7160e01b600052601160045260246000fd5b9050158d6105da565b96504295506276a7008601808711610f8857966105d2565b9050158f6105cc565b60405162461bcd60e51b815260206004820152601060248201526f0476f616c206d757374206265203e20360841b6044820152606490fd5b60405162461bcd60e51b815260206004820152600e60248201526d151a5d1b19481c995c5d5a5c995960921b6044820152606490fd5b3461023e57600036600319011261023e576000546040516001600160a01b039091168152602090f35b3461023e57604036600319011261023e57611078611cd7565b600435600052600760205260406000209060018060a01b0316600052602052602060ff604060002054166040519015158152f35b3461023e57600036600319011261023e576020600354604051908152f35b3461023e57602036600319011261023e576004356110eb6004548210611db7565b60005260066020526020604060002054604051908152f35b3461023e5761111136611b4c565b61111e6004548310611db7565b81600052600660205260406000205481101561119a5761114a9160005260066020526040600020611e46565b5060018060a01b0381541660ff60028301541661116e600160038501549401611bf2565b9261118b6040519485948552608060208601526080850190611c96565b91604084015260608301520390f35b60405162461bcd60e51b815260206004820152600d60248201526c092dcecc2d8d2c840d2dcc8caf609b1b6044820152606490fd5b606036600319011261023e576004356024356001600160401b03811161023e576111fd903690600401611ced565b6044359160ff831680930361023e576112196004548210611db7565b6001543410611571578151156115395760018310158061152e575b156114fc576000818152600960209081526040808320338452909152902054603c8101908110610f885742106114b85761127034600354611e39565b600355806000526009602052604060002060018060a01b0333166000526020526040600020429055806000526006602052604060002092604051608081018181106001600160401b03821117610ade5760405233815260208101948486526040820183815260608301914283528054600160401b811015610ade576112fa91600182018155611e46565b939093610ee7575183546001600160a01b0319166001600160a01b03919091161783559551805190969060018401906001600160401b038111610ade576113418254611b97565b601f8111611470575b506020601f82116001146113e35790806003959493927f75af7a249fd33f32da5aebdf42415cf43a79f1a958cb5d25980d825bb6c4a541999a9b6000926113d8575b50508160011b9160001990871b1c19161790555b60ff6002850191511660ff198254161790555191015560405190815260406020820152806113d333956040830190611c96565b0390a3005b015190508b8061138c565b601f1982169983600052816000209a60005b81811061145857509a60019284926003989796957f75af7a249fd33f32da5aebdf42415cf43a79f1a958cb5d25980d825bb6c4a5419c9d9e10611440575b505050811b0190556113a0565b015160001983891b60f8161c191690558b8080611433565b838301518d556001909c019b602093840193016113f5565b826000526020600020601f830160051c810191602084106114ae575b601f0160051c01905b8181106114a2575061134a565b60008155600101611495565b909150819061148c565b606460405162461bcd60e51b815260206004820152602060248201527f506c65617365207761697420363073206265747765656e20636f6d6d656e74736044820152fd5b60405162461bcd60e51b815260206004820152600a602482015269526174696e6720312d3560b01b6044820152606490fd5b506005831115611234565b60405162461bcd60e51b815260206004820152601060248201526f10dbdb9d195b9d081c995c5d5a5c995960821b6044820152606490fd5b60405162461bcd60e51b815260206004820152601860248201527f496e73756666696369656e7420636f6d6d656e742066656500000000000000006044820152606490fd5b3461023e57600036600319011261023e576020600554604051908152f35b3461023e57604036600319011261023e57600435602435801515810361023e57601161162461163e9361161260018060a01b03600054163314611d43565b61161f6004548210611db7565b611b62565b50019061ff00825491151560081b169061ff001916179055565b005b602036600319011261023e5760043561165c6004548210611db7565b61166a600254341015611df5565b600081815260076020908152604080832033845290915290205460ff166117035761169734600354611e39565b60035560008181526007602090815260408083203384529091529020805460ff19166001179055600f6116c982611b62565b500180549060018201809211610f88575533907fb31d078aff93840e07bd4feb45e413ef1141e91543e8f7c6f7e17b18963319b0600080a3005b60405162461bcd60e51b8152602060048201526013602482015272105b1c9958591e481d9bdd1959081d1c9d5cdd606a1b6044820152606490fd5b602036600319011261023e5760043561175a6004548210611db7565b611768600254341015611df5565b600081815260086020908152604080832033845290915290205460ff166118015761179534600354611e39565b60035560008181526008602090815260408083203384529091529020805460ff1916600117905560106117c782611b62565b500180549060018201809211610f88575533907f5e3e2b315b7a0c8f5b16c6826fea3480c2b34a38cee053a916bd6bc4569756f0600080a3005b60405162461bcd60e51b8152602060048201526016602482015275416c726561647920766f74656420776974686472617760501b6044820152606490fd5b3461023e57602036600319011261023e576004356001600160a01b0381169081900361023e5761187a60018060a01b03600054163314611d43565b611885811515611d7c565b60035480156118ce5760006003556000808080848682f1156103385760207fc0819c13be868895eb93e40eaceb96de976442fa1d404e5c55f14bb65a8c489a91604051908152a2005b60405162461bcd60e51b81526020600482015260136024820152724e6f206665657320746f20776974686472617760681b6044820152606490fd5b3461023e57602036600319011261023e5760043560045481101561023e5761193090611b62565b5080549061194060018201611bf2565b60e0528061195060028201611bf2565b9261195d60038301611bf2565b9361196a60048401611bf2565b9461197760058501611bf2565b9561198460068601611bf2565b96600160a01b60019003600787015416608052600886015497600987015490600a88015492600b89015494600c8a015496600d8b015498600e8c01549a600f8d01549c601001549d6011015460c05260405160a05260a0515260a051602001610260905260a0516102600160e051906119fc91611c96565b60a051810360a05160400152611a1191611c96565b60a051810360a05160600152611a2691611c96565b60a051810360a05160800152611a3b91611c96565b60a051810360a05160a00152611a5091611c96565b60a051810360a05160c00152611a6591611c96565b9860805160a05160e0015260a051610100015260a051610120015260a051610140015260a051610160015260a051610180015260a0516101a0015260a0516101c0015260a0516101e0015260a051610200015260c05160ff1660051115610a005760ff60c0511661022060a051015260ff60c05160081c16151561024060a051015260a051900360a051f35b3461023e577f5c6323bf1c2d7aaea2c091a4751c1c87af7f2864650c336507a77d0557af37a16040611b2236611b4c565b611b3760018060a01b03600054163314611d43565b816001558060025582519182526020820152a1005b604090600319011261023e576004359060243590565b600454811015611b815760046000526012602060002091020190600090565b634e487b7160e01b600052603260045260246000fd5b90600182811c92168015611bc7575b6020831014611bb157565b634e487b7160e01b600052602260045260246000fd5b91607f1691611ba6565b90601f801991011681019081106001600160401b03821117610ade57604052565b9060405191826000825492611c0684611b97565b8084529360018116908115611c745750600114611c2d575b50611c2b92500383611bd1565b565b90506000929192526020600020906000915b818310611c58575050906020611c2b9282010138611c1e565b6020919350806001915483858901015201910190918492611c3f565b905060209250611c2b94915060ff191682840152151560051b82010138611c1e565b919082519283825260005b848110611cc2575050826000602080949584010152601f8019910116010190565b80602080928401015182828601015201611ca1565b602435906001600160a01b038216820361023e57565b81601f8201121561023e578035906001600160401b038211610ade5760405192611d21601f8401601f191660200185611bd1565b8284526020838301011161023e57816000926020809301838601378301015290565b15611d4a57565b60405162461bcd60e51b815260206004820152600a60248201526927b7363c9037bbb732b960b11b6044820152606490fd5b15611d8357565b60405162461bcd60e51b815260206004820152600c60248201526b5a65726f206164647265737360a01b6044820152606490fd5b15611dbe57565b60405162461bcd60e51b815260206004820152600f60248201526e125b9d985b1a59081c1c9bda9958dd608a1b6044820152606490fd5b15611dfc57565b60405162461bcd60e51b8152602060048201526015602482015274496e73756666696369656e7420766f74652066656560581b6044820152606490fd5b91908201809211610f8857565b8054821015611b815760005260206000209060021b0190600090565b91908203918211610f8857565b919082151580611ec7575b611ebf5742101580611eb5575b611eae5742119081611ea3575b50611e9e57600090565b600290565b905042111538611e94565b5050600190565b5080421115611e87565b505050600390565b50824211611e7a56fea26469706673582212208201315b98cff70f1a778e4904b12a2d57dd02ab49cdd73bc3037e755e843da464736f6c634300081c0033",
          "opcodes": "PUSH1 0x80 DUP1 PUSH1 0x40 MSTORE CALLVALUE PUSH1 0x36 JUMPI PUSH6 0x5AF3107A4000 PUSH1 0x1 DUP2 SWAP1 SSTORE PUSH1 0x2 SSTORE PUSH1 0x0 DUP1 SLOAD PUSH1 0x1 PUSH1 0x1 PUSH1 0xA0 SHL SUB NOT AND CALLER OR SWAP1 SSTORE PUSH2 0x1F06 SWAP1 DUP2 PUSH2 0x3C DUP3 CODECOPY RETURN JUMPDEST PUSH1 0x0 DUP1 REVERT INVALID PUSH2 0x100 PUSH1 0x40 MSTORE PUSH1 0x4 CALLDATASIZE LT ISZERO PUSH2 0x13 JUMPI PUSH1 0x0 DUP1 REVERT JUMPDEST PUSH1 0x0 CALLDATALOAD PUSH1 0xE0 SHR DUP1 PUSH4 0xB78F9C0 EQ PUSH2 0x1AF1 JUMPI DUP1 PUSH4 0x107046BD EQ PUSH2 0x1909 JUMPI DUP1 PUSH4 0x164E68DE EQ PUSH2 0x183F JUMPI DUP1 PUSH4 0x272F04AB EQ PUSH2 0x173E JUMPI DUP1 PUSH4 0x2C871447 EQ PUSH2 0x1640 JUMPI DUP1 PUSH4 0x2F597DB5 EQ PUSH2 0x15D4 JUMPI DUP1 PUSH4 0x36FBAD26 EQ PUSH2 0x15B6 JUMPI DUP1 PUSH4 0x44B76269 EQ PUSH2 0x11CF JUMPI DUP1 PUSH4 0x48892753 EQ PUSH2 0x1103 JUMPI DUP1 PUSH4 0x4C9B78DA EQ PUSH2 0x10CA JUMPI DUP1 PUSH4 0x587F5ED7 EQ PUSH2 0x10AC JUMPI DUP1 PUSH4 0x85576A31 EQ PUSH2 0x105F JUMPI DUP1 PUSH4 0x8DA5CB5B EQ PUSH2 0x1036 JUMPI DUP1 PUSH4 0x9E5C5FF8 EQ PUSH2 0x4A0 JUMPI DUP1 PUSH4 0xB40548DD EQ PUSH2 0x482 JUMPI DUP1 PUSH4 0xDA2B4C1E EQ PUSH2 0x464 JUMPI DUP1 PUSH4 0xDF3FAAFE EQ PUSH2 0x417 JUMPI DUP1 PUSH4 0xE4A8F18B EQ PUSH2 0x3F9 JUMPI DUP1 PUSH4 0xE63697C8 EQ PUSH2 0x243 JUMPI PUSH4 0xF14FAF6F EQ PUSH2 0xF9 JUMPI PUSH1 0x0 DUP1 REVERT JUMPDEST PUSH1 0x20 CALLDATASIZE PUSH1 0x3 NOT ADD SLT PUSH2 0x23E JUMPI PUSH1 0x4 CALLDATALOAD PUSH2 0x115 PUSH1 0x4 SLOAD DUP3 LT PUSH2 0x1DB7 JUMP JUMPDEST CALLVALUE ISZERO PUSH2 0x204 JUMPI PUSH2 0x124 DUP2 PUSH2 0x1B62 JUMP JUMPDEST POP PUSH1 0xFF PUSH1 0x11 DUP3 ADD SLOAD PUSH1 0x8 SHR AND ISZERO PUSH2 0x1CC JUMPI PUSH1 0xD DUP2 ADD SLOAD TIMESTAMP LT ISZERO DUP1 PUSH2 0x1BE JUMPI JUMPDEST ISZERO PUSH2 0x187 JUMPI PUSH1 0xA ADD PUSH2 0x156 CALLVALUE DUP3 SLOAD PUSH2 0x1E39 JUMP JUMPDEST SWAP1 SSTORE PUSH1 0x40 MLOAD SWAP1 CALLVALUE DUP3 MSTORE PUSH32 0xB5B4C52969FF7329ECF7EE536409FDA87812B15A8622BC6E8CDEAB3AEE14A26 PUSH1 0x20 CALLER SWAP4 LOG3 STOP JUMPDEST PUSH1 0x40 MLOAD PUSH3 0x461BCD PUSH1 0xE5 SHL DUP2 MSTORE PUSH1 0x20 PUSH1 0x4 DUP3 ADD MSTORE PUSH1 0xF PUSH1 0x24 DUP3 ADD MSTORE PUSH15 0x4E6F7420696E20494F432074696D65 PUSH1 0x88 SHL PUSH1 0x44 DUP3 ADD MSTORE PUSH1 0x64 SWAP1 REVERT JUMPDEST POP PUSH1 0xE DUP2 ADD SLOAD TIMESTAMP GT ISZERO PUSH2 0x143 JUMP JUMPDEST PUSH1 0x40 MLOAD PUSH3 0x461BCD PUSH1 0xE5 SHL DUP2 MSTORE PUSH1 0x20 PUSH1 0x4 DUP3 ADD MSTORE PUSH1 0x10 PUSH1 0x24 DUP3 ADD MSTORE PUSH16 0x50726F6A65637420696E616374697665 PUSH1 0x80 SHL PUSH1 0x44 DUP3 ADD MSTORE PUSH1 0x64 SWAP1 REVERT JUMPDEST PUSH1 0x40 MLOAD PUSH3 0x461BCD PUSH1 0xE5 SHL DUP2 MSTORE PUSH1 0x20 PUSH1 0x4 DUP3 ADD MSTORE PUSH1 0x12 PUSH1 0x24 DUP3 ADD MSTORE PUSH18 0x416D6F756E74206D757374206265203E203 PUSH1 0x74 SHL PUSH1 0x44 DUP3 ADD MSTORE PUSH1 0x64 SWAP1 REVERT JUMPDEST PUSH1 0x0 DUP1 REVERT JUMPDEST CALLVALUE PUSH2 0x23E JUMPI PUSH1 0x60 CALLDATASIZE PUSH1 0x3 NOT ADD SLT PUSH2 0x23E JUMPI PUSH1 0x4 CALLDATALOAD PUSH2 0x25F PUSH2 0x1CD7 JUMP JUMPDEST SWAP1 PUSH1 0x44 CALLDATALOAD SWAP2 PUSH2 0x279 PUSH1 0x1 DUP1 PUSH1 0xA0 SHL SUB PUSH1 0x0 SLOAD AND CALLER EQ PUSH2 0x1D43 JUMP JUMPDEST PUSH2 0x286 PUSH1 0x4 SLOAD DUP4 LT PUSH2 0x1DB7 JUMP JUMPDEST PUSH1 0x1 PUSH1 0x1 PUSH1 0xA0 SHL SUB AND SWAP2 PUSH2 0x29B DUP4 ISZERO ISZERO PUSH2 0x1D7C JUMP JUMPDEST PUSH1 0x3 PUSH1 0x10 PUSH2 0x2A8 DUP5 PUSH2 0x1B62 JUMP JUMPDEST POP ADD SLOAD LT PUSH2 0x3C1 JUMPI PUSH1 0xA PUSH2 0x2BB DUP4 PUSH2 0x1B62 JUMP JUMPDEST POP ADD SLOAD DUP2 GT PUSH2 0x38A JUMPI PUSH2 0x2D1 SELFBALANCE PUSH1 0x3 SLOAD SWAP1 PUSH2 0x1E62 JUMP JUMPDEST DUP2 GT PUSH2 0x34E JUMPI PUSH1 0xA PUSH2 0x2E2 DUP4 PUSH2 0x1B62 JUMP JUMPDEST POP ADD PUSH2 0x2EF DUP3 DUP3 SLOAD PUSH2 0x1E62 JUMP JUMPDEST SWAP1 SSTORE PUSH1 0x0 DUP2 DUP5 DUP2 ISZERO PUSH2 0x344 JUMPI JUMPDEST PUSH1 0x0 SWAP3 DUP4 SWAP3 DUP4 SWAP3 DUP4 SWAP3 CALL ISZERO PUSH2 0x338 JUMPI PUSH1 0x20 PUSH32 0xCF7D23A3CBE4E8B36FF82FD1B05B1B17373DC7804B4EBBD6E2356716EF202372 SWAP2 PUSH1 0x40 MLOAD SWAP1 DUP2 MSTORE LOG3 STOP JUMPDEST PUSH1 0x40 MLOAD RETURNDATASIZE PUSH1 0x0 DUP3 RETURNDATACOPY RETURNDATASIZE SWAP1 REVERT JUMPDEST PUSH2 0x8FC SWAP3 POP PUSH2 0x2FC JUMP JUMPDEST PUSH1 0x40 MLOAD PUSH3 0x461BCD PUSH1 0xE5 SHL DUP2 MSTORE PUSH1 0x20 PUSH1 0x4 DUP3 ADD MSTORE PUSH1 0x14 PUSH1 0x24 DUP3 ADD MSTORE PUSH20 0x496E73756666696369656E742062616C616E6365 PUSH1 0x60 SHL PUSH1 0x44 DUP3 ADD MSTORE PUSH1 0x64 SWAP1 REVERT JUMPDEST PUSH1 0x40 MLOAD PUSH3 0x461BCD PUSH1 0xE5 SHL DUP2 MSTORE PUSH1 0x20 PUSH1 0x4 DUP3 ADD MSTORE PUSH1 0xF PUSH1 0x24 DUP3 ADD MSTORE PUSH15 0x115E18D959591CC8191BDB985D1959 PUSH1 0x8A SHL PUSH1 0x44 DUP3 ADD MSTORE PUSH1 0x64 SWAP1 REVERT JUMPDEST PUSH1 0x40 MLOAD PUSH3 0x461BCD PUSH1 0xE5 SHL DUP2 MSTORE PUSH1 0x20 PUSH1 0x4 DUP3 ADD MSTORE PUSH1 0x10 PUSH1 0x24 DUP3 ADD MSTORE PUSH16 0x4E6F7420656E6F75676820766F746573 PUSH1 0x80 SHL PUSH1 0x44 DUP3 ADD MSTORE PUSH1 0x64 SWAP1 REVERT JUMPDEST CALLVALUE PUSH2 0x23E JUMPI PUSH1 0x0 CALLDATASIZE PUSH1 0x3 NOT ADD SLT PUSH2 0x23E JUMPI PUSH1 0x20 PUSH1 0x4 SLOAD PUSH1 0x40 MLOAD SWAP1 DUP2 MSTORE RETURN JUMPDEST CALLVALUE PUSH2 0x23E JUMPI PUSH1 0x40 CALLDATASIZE PUSH1 0x3 NOT ADD SLT PUSH2 0x23E JUMPI PUSH2 0x430 PUSH2 0x1CD7 JUMP JUMPDEST PUSH1 0x4 CALLDATALOAD PUSH1 0x0 MSTORE PUSH1 0x8 PUSH1 0x20 MSTORE PUSH1 0x40 PUSH1 0x0 KECCAK256 SWAP1 PUSH1 0x1 DUP1 PUSH1 0xA0 SHL SUB AND PUSH1 0x0 MSTORE PUSH1 0x20 MSTORE PUSH1 0x20 PUSH1 0xFF PUSH1 0x40 PUSH1 0x0 KECCAK256 SLOAD AND PUSH1 0x40 MLOAD SWAP1 ISZERO ISZERO DUP2 MSTORE RETURN JUMPDEST CALLVALUE PUSH2 0x23E JUMPI PUSH1 0x0 CALLDATASIZE PUSH1 0x3 NOT ADD SLT PUSH2 0x23E JUMPI PUSH1 0x20 PUSH1 0x2 SLOAD PUSH1 0x40 MLOAD SWAP1 DUP2 MSTORE RETURN JUMPDEST CALLVALUE PUSH2 0x23E JUMPI PUSH1 0x0 CALLDATASIZE PUSH1 0x3 NOT ADD SLT PUSH2 0x23E JUMPI PUSH1 0x20 PUSH1 0x1 SLOAD PUSH1 0x40 MLOAD SWAP1 DUP2 MSTORE RETURN JUMPDEST CALLVALUE PUSH2 0x23E JUMPI PUSH2 0x1A0 CALLDATASIZE PUSH1 0x3 NOT ADD SLT PUSH2 0x23E JUMPI PUSH1 0x4 CALLDATALOAD PUSH1 0x1 PUSH1 0x1 PUSH1 0x40 SHL SUB DUP2 GT PUSH2 0x23E JUMPI PUSH2 0x4D1 SWAP1 CALLDATASIZE SWAP1 PUSH1 0x4 ADD PUSH2 0x1CED JUMP JUMPDEST PUSH1 0x24 CALLDATALOAD PUSH1 0x1 PUSH1 0x1 PUSH1 0x40 SHL SUB DUP2 GT PUSH2 0x23E JUMPI PUSH2 0x4F0 SWAP1 CALLDATASIZE SWAP1 PUSH1 0x4 ADD PUSH2 0x1CED JUMP JUMPDEST PUSH1 0x44 CALLDATALOAD PUSH1 0x1 PUSH1 0x1 PUSH1 0x40 SHL SUB DUP2 GT PUSH2 0x23E JUMPI PUSH2 0x50F SWAP1 CALLDATASIZE SWAP1 PUSH1 0x4 ADD PUSH2 0x1CED JUMP JUMPDEST SWAP1 PUSH1 0x64 CALLDATALOAD PUSH1 0x1 PUSH1 0x1 PUSH1 0x40 SHL SUB DUP2 GT PUSH2 0x23E JUMPI PUSH2 0x52F SWAP1 CALLDATASIZE SWAP1 PUSH1 0x4 ADD PUSH2 0x1CED JUMP JUMPDEST SWAP2 PUSH1 0x84 CALLDATALOAD PUSH1 0x1 PUSH1 0x1 PUSH1 0x40 SHL SUB DUP2 GT PUSH2 0x23E JUMPI PUSH2 0x54F SWAP1 CALLDATASIZE SWAP1 PUSH1 0x4 ADD PUSH2 0x1CED JUMP JUMPDEST PUSH1 0xA4 CALLDATALOAD PUSH1 0x1 PUSH1 0x1 PUSH1 0x40 SHL SUB DUP2 GT PUSH2 0x23E JUMPI PUSH2 0x56E SWAP1 CALLDATASIZE SWAP1 PUSH1 0x4 ADD PUSH2 0x1CED JUMP JUMPDEST PUSH1 0xC4 CALLDATALOAD PUSH1 0x1 PUSH1 0x1 PUSH1 0xA0 SHL SUB DUP2 AND SWAP1 DUP2 SWAP1 SUB PUSH2 0x23E JUMPI DUP7 PUSH2 0x104 CALLDATALOAD PUSH2 0x124 CALLDATALOAD SWAP3 PUSH2 0x144 CALLDATALOAD SWAP5 PUSH2 0x164 CALLDATALOAD SWAP7 PUSH2 0x184 CALLDATALOAD PUSH2 0x5B0 PUSH1 0x1 DUP1 PUSH1 0xA0 SHL SUB PUSH1 0x0 SLOAD AND CALLER EQ PUSH2 0x1D43 JUMP JUMPDEST DUP1 SWAP9 DUP1 SWAP9 DUP1 SWAP9 DUP1 SWAP9 MLOAD ISZERO PUSH2 0x1000 JUMPI DUP8 ISZERO PUSH2 0xFC8 JUMPI ISZERO SWAP1 DUP2 PUSH2 0xFBF JUMPI JUMPDEST POP PUSH2 0xFA7 JUMPI JUMPDEST ISZERO SWAP1 DUP2 PUSH2 0xF9E JUMPI JUMPDEST POP PUSH2 0xF70 JUMPI JUMPDEST DUP8 DUP8 LT ISZERO PUSH2 0xF39 JUMPI DUP6 DUP6 GT PUSH2 0xEFD JUMPI PUSH1 0x4 SLOAD SWAP11 PUSH2 0x5FE DUP10 DUP10 DUP10 PUSH2 0x1E6F JUMP JUMPDEST SWAP10 PUSH1 0x40 MLOAD SWAP12 PUSH2 0x260 DUP14 ADD DUP14 DUP2 LT PUSH1 0x1 PUSH1 0x1 PUSH1 0x40 SHL SUB DUP3 GT OR PUSH2 0xADE JUMPI DUP16 SWAP1 DUP16 DUP16 SWAP1 PUSH1 0x20 SWAP3 PUSH1 0x40 MSTORE DUP2 MSTORE ADD MSTORE PUSH1 0x40 DUP14 ADD MSTORE PUSH1 0x60 DUP13 ADD MSTORE PUSH1 0x80 DUP12 ADD MSTORE PUSH1 0xA0 DUP11 ADD MSTORE PUSH1 0xC0 DUP10 ADD MSTORE PUSH1 0xE0 DUP9 ADD MSTORE PUSH1 0xE4 CALLDATALOAD PUSH2 0x100 DUP9 ADD MSTORE PUSH2 0x120 DUP8 ADD MSTORE PUSH1 0x0 PUSH2 0x140 DUP8 ADD MSTORE PUSH2 0x160 DUP7 ADD MSTORE PUSH2 0x180 DUP6 ADD MSTORE PUSH2 0x1A0 DUP5 ADD MSTORE PUSH2 0x1C0 DUP4 ADD MSTORE PUSH1 0x0 PUSH2 0x1E0 DUP4 ADD MSTORE PUSH1 0x0 PUSH2 0x200 DUP4 ADD MSTORE PUSH1 0x5 DUP2 LT ISZERO PUSH2 0xA00 JUMPI PUSH2 0x220 DUP3 ADD MSTORE PUSH1 0x1 PUSH2 0x240 DUP3 ADD MSTORE PUSH1 0x1 PUSH1 0x40 SHL DUP3 LT ISZERO PUSH2 0xADE JUMPI PUSH1 0x1 DUP3 ADD PUSH1 0x4 SSTORE PUSH2 0x6B9 DUP3 PUSH2 0x1B62 JUMP JUMPDEST PUSH2 0xEE7 JUMPI DUP2 MLOAD DUP2 SSTORE PUSH1 0x20 DUP3 ADD MLOAD DUP1 MLOAD SWAP1 PUSH1 0x1 PUSH1 0x1 PUSH1 0x40 SHL SUB DUP3 GT PUSH2 0xADE JUMPI DUP2 SWAP1 PUSH2 0x6E6 PUSH1 0x1 DUP6 ADD SLOAD PUSH2 0x1B97 JUMP JUMPDEST PUSH1 0x1F DUP2 GT PUSH2 0xE94 JUMPI JUMPDEST POP PUSH1 0x20 SWAP1 PUSH1 0x1F DUP4 GT PUSH1 0x1 EQ PUSH2 0xE23 JUMPI PUSH1 0x0 SWAP3 PUSH2 0xE18 JUMPI JUMPDEST POP POP DUP2 PUSH1 0x1 SHL SWAP2 PUSH1 0x0 NOT SWAP1 PUSH1 0x3 SHL SHR NOT AND OR PUSH1 0x1 DUP3 ADD SSTORE JUMPDEST PUSH1 0x40 DUP3 ADD MLOAD DUP1 MLOAD SWAP1 PUSH1 0x1 PUSH1 0x1 PUSH1 0x40 SHL SUB DUP3 GT PUSH2 0xADE JUMPI DUP2 SWAP1 PUSH2 0x743 PUSH1 0x2 DUP6 ADD SLOAD PUSH2 0x1B97 JUMP JUMPDEST PUSH1 0x1F DUP2 GT PUSH2 0xDC5 JUMPI JUMPDEST POP PUSH1 0x20 SWAP1 PUSH1 0x1F DUP4 GT PUSH1 0x1 EQ PUSH2 0xD54 JUMPI PUSH1 0x0 SWAP3 PUSH2 0xD49 JUMPI JUMPDEST POP POP DUP2 PUSH1 0x1 SHL SWAP2 PUSH1 0x0 NOT SWAP1 PUSH1 0x3 SHL SHR NOT AND OR PUSH1 0x2 DUP3 ADD SSTORE JUMPDEST PUSH1 0x60 DUP3 ADD MLOAD DUP1 MLOAD SWAP1 PUSH1 0x1 PUSH1 0x1 PUSH1 0x40 SHL SUB DUP3 GT PUSH2 0xADE JUMPI DUP2 SWAP1 PUSH2 0x7A0 PUSH1 0x3 DUP6 ADD SLOAD PUSH2 0x1B97 JUMP JUMPDEST PUSH1 0x1F DUP2 GT PUSH2 0xCF6 JUMPI JUMPDEST POP PUSH1 0x20 SWAP1 PUSH1 0x1F DUP4 GT PUSH1 0x1 EQ PUSH2 0xC85 JUMPI PUSH1 0x0 SWAP3 PUSH2 0xC7A JUMPI JUMPDEST POP POP DUP2 PUSH1 0x1 SHL SWAP2 PUSH1 0x0 NOT SWAP1 PUSH1 0x3 SHL SHR NOT AND OR PUSH1 0x3 DUP3 ADD SSTORE JUMPDEST PUSH1 0x4 DUP2 ADD PUSH1 0x80 DUP4 ADD MLOAD DUP1 MLOAD SWAP1 PUSH1 0x1 PUSH1 0x1 PUSH1 0x40 SHL SUB DUP3 GT PUSH2 0xADE JUMPI DUP2 SWAP1 PUSH2 0x7FE DUP5 SLOAD PUSH2 0x1B97 JUMP JUMPDEST PUSH1 0x1F DUP2 GT PUSH2 0xC27 JUMPI JUMPDEST POP PUSH1 0x20 SWAP1 PUSH1 0x1F DUP4 GT PUSH1 0x1 EQ PUSH2 0xBC2 JUMPI PUSH1 0x0 SWAP3 PUSH2 0xBB7 JUMPI JUMPDEST POP POP DUP2 PUSH1 0x1 SHL SWAP2 PUSH1 0x0 NOT SWAP1 PUSH1 0x3 SHL SHR NOT AND OR SWAP1 SSTORE JUMPDEST PUSH1 0x5 DUP2 ADD PUSH1 0xA0 DUP4 ADD MLOAD DUP1 MLOAD SWAP1 PUSH1 0x1 PUSH1 0x1 PUSH1 0x40 SHL SUB DUP3 GT PUSH2 0xADE JUMPI DUP2 SWAP1 PUSH2 0x859 DUP5 SLOAD PUSH2 0x1B97 JUMP JUMPDEST PUSH1 0x1F DUP2 GT PUSH2 0xB64 JUMPI JUMPDEST POP PUSH1 0x20 SWAP1 PUSH1 0x1F DUP4 GT PUSH1 0x1 EQ PUSH2 0xAFF JUMPI PUSH1 0x0 SWAP3 PUSH2 0xAF4 JUMPI JUMPDEST POP POP DUP2 PUSH1 0x1 SHL SWAP2 PUSH1 0x0 NOT SWAP1 PUSH1 0x3 SHL SHR NOT AND OR SWAP1 SSTORE JUMPDEST PUSH1 0xC0 DUP3 ADD MLOAD DUP1 MLOAD SWAP1 PUSH1 0x1 PUSH1 0x1 PUSH1 0x40 SHL SUB DUP3 GT PUSH2 0xADE JUMPI PUSH2 0x8B1 PUSH1 0x6 DUP5 ADD SLOAD PUSH2 0x1B97 JUMP JUMPDEST PUSH1 0x1F DUP2 GT PUSH2 0xA93 JUMPI JUMPDEST POP PUSH1 0x20 SWAP1 PUSH1 0x1F DUP4 GT PUSH1 0x1 EQ PUSH2 0xA21 JUMPI PUSH1 0x11 SWAP4 SWAP3 SWAP2 PUSH1 0x0 SWAP2 DUP4 PUSH2 0xA16 JUMPI JUMPDEST POP POP DUP2 PUSH1 0x1 SHL SWAP2 PUSH1 0x0 NOT SWAP1 PUSH1 0x3 SHL SHR NOT AND OR PUSH1 0x6 DUP3 ADD SSTORE JUMPDEST PUSH1 0xE0 DUP4 ADD MLOAD PUSH1 0x7 DUP3 ADD DUP1 SLOAD PUSH1 0x1 PUSH1 0x1 PUSH1 0xA0 SHL SUB NOT AND PUSH1 0x1 PUSH1 0x1 PUSH1 0xA0 SHL SUB SWAP3 SWAP1 SWAP3 AND SWAP2 SWAP1 SWAP2 OR SWAP1 SSTORE PUSH2 0x100 DUP4 ADD MLOAD PUSH1 0x8 DUP3 ADD SSTORE PUSH2 0x120 DUP4 ADD MLOAD PUSH1 0x9 DUP3 ADD SSTORE PUSH2 0x140 DUP4 ADD MLOAD PUSH1 0xA DUP3 ADD SSTORE PUSH2 0x160 DUP4 ADD MLOAD PUSH1 0xB DUP3 ADD SSTORE PUSH2 0x180 DUP4 ADD MLOAD PUSH1 0xC DUP3 ADD SSTORE PUSH2 0x1A0 DUP4 ADD MLOAD PUSH1 0xD DUP3 ADD SSTORE PUSH2 0x1C0 DUP4 ADD MLOAD PUSH1 0xE DUP3 ADD SSTORE PUSH2 0x1E0 DUP4 ADD MLOAD PUSH1 0xF DUP3 ADD SSTORE PUSH2 0x200 DUP4 ADD MLOAD PUSH1 0x10 DUP3 ADD SSTORE PUSH2 0x220 DUP4 ADD MLOAD SWAP2 ADD SWAP1 PUSH1 0x5 DUP2 LT ISZERO PUSH2 0xA00 JUMPI DUP2 SLOAD PUSH2 0x240 SWAP4 SWAP1 SWAP4 ADD MLOAD PUSH2 0xFFFF NOT SWAP1 SWAP4 AND PUSH1 0xFF SWAP1 SWAP2 AND OR SWAP2 ISZERO ISZERO PUSH1 0x8 SHL PUSH2 0xFF00 AND SWAP2 SWAP1 SWAP2 OR SWAP1 SSTORE PUSH1 0x20 SWAP2 DUP2 SWAP1 PUSH32 0xED06D1E70F1FAA0E1750DEF1B3A1D942390A8F47D03679C9025A1C38DC34FE7B SWAP1 PUSH2 0x9F5 SWAP1 PUSH1 0x4 SLOAD PUSH1 0x5 SSTORE PUSH1 0x40 MLOAD SWAP2 DUP3 SWAP2 DUP8 DUP4 MSTORE DUP8 DUP4 ADD SWAP1 PUSH2 0x1C96 JUMP JUMPDEST SUB SWAP1 LOG2 PUSH1 0x40 MLOAD SWAP1 DUP2 MSTORE RETURN JUMPDEST PUSH4 0x4E487B71 PUSH1 0xE0 SHL PUSH1 0x0 MSTORE PUSH1 0x21 PUSH1 0x4 MSTORE PUSH1 0x24 PUSH1 0x0 REVERT JUMPDEST ADD MLOAD SWAP1 POP DUP8 DUP1 PUSH2 0x8D7 JUMP JUMPDEST SWAP1 PUSH1 0x6 DUP5 ADD PUSH1 0x0 MSTORE DUP1 PUSH1 0x0 KECCAK256 SWAP2 PUSH1 0x0 JUMPDEST PUSH1 0x1F NOT DUP6 AND DUP2 LT PUSH2 0xA7B JUMPI POP SWAP2 DUP4 SWAP2 PUSH1 0x1 SWAP4 PUSH1 0x11 SWAP7 SWAP6 PUSH1 0x1F NOT DUP2 AND LT PUSH2 0xA62 JUMPI JUMPDEST POP POP POP DUP2 SHL ADD PUSH1 0x6 DUP3 ADD SSTORE PUSH2 0x8EF JUMP JUMPDEST ADD MLOAD PUSH1 0x0 NOT PUSH1 0xF8 DUP5 PUSH1 0x3 SHL AND SHR NOT AND SWAP1 SSTORE DUP8 DUP1 DUP1 PUSH2 0xA52 JUMP JUMPDEST SWAP2 SWAP3 PUSH1 0x20 PUSH1 0x1 DUP2 SWAP3 DUP7 DUP6 ADD MLOAD DUP2 SSTORE ADD SWAP5 ADD SWAP3 ADD PUSH2 0xA31 JUMP JUMPDEST PUSH1 0x6 DUP5 ADD PUSH1 0x0 MSTORE PUSH1 0x20 PUSH1 0x0 KECCAK256 PUSH1 0x1F DUP5 ADD PUSH1 0x5 SHR DUP2 ADD SWAP2 PUSH1 0x20 DUP6 LT PUSH2 0xAD4 JUMPI JUMPDEST PUSH1 0x1F ADD PUSH1 0x5 SHR ADD SWAP1 JUMPDEST DUP2 DUP2 LT PUSH2 0xAC8 JUMPI POP PUSH2 0x8BA JUMP JUMPDEST PUSH1 0x0 DUP2 SSTORE PUSH1 0x1 ADD PUSH2 0xABB JUMP JUMPDEST SWAP1 SWAP2 POP DUP2 SWAP1 PUSH2 0xAB2 JUMP JUMPDEST PUSH4 0x4E487B71 PUSH1 0xE0 SHL PUSH1 0x0 MSTORE PUSH1 0x41 PUSH1 0x4 MSTORE PUSH1 0x24 PUSH1 0x0 REVERT JUMPDEST ADD MLOAD SWAP1 POP DUP8 DUP1 PUSH2 0x879 JUMP JUMPDEST PUSH1 0x0 DUP6 DUP2 MSTORE DUP3 DUP2 KECCAK256 SWAP4 POP PUSH1 0x1F NOT DUP6 AND SWAP1 JUMPDEST DUP2 DUP2 LT PUSH2 0xB4C JUMPI POP SWAP1 DUP5 PUSH1 0x1 SWAP6 SWAP5 SWAP4 SWAP3 LT PUSH2 0xB33 JUMPI JUMPDEST POP POP POP DUP2 SHL ADD SWAP1 SSTORE PUSH2 0x88E JUMP JUMPDEST ADD MLOAD PUSH1 0x0 NOT PUSH1 0xF8 DUP5 PUSH1 0x3 SHL AND SHR NOT AND SWAP1 SSTORE DUP8 DUP1 DUP1 PUSH2 0xB26 JUMP JUMPDEST SWAP3 SWAP4 PUSH1 0x20 PUSH1 0x1 DUP2 SWAP3 DUP8 DUP7 ADD MLOAD DUP2 SSTORE ADD SWAP6 ADD SWAP4 ADD PUSH2 0xB10 JUMP JUMPDEST SWAP1 SWAP2 POP DUP4 PUSH1 0x0 MSTORE PUSH1 0x20 PUSH1 0x0 KECCAK256 PUSH1 0x1F DUP5 ADD PUSH1 0x5 SHR DUP2 ADD SWAP2 PUSH1 0x20 DUP6 LT PUSH2 0xBAD JUMPI JUMPDEST SWAP1 PUSH1 0x1F DUP6 SWAP5 SWAP4 SWAP3 ADD PUSH1 0x5 SHR ADD SWAP1 JUMPDEST DUP2 DUP2 LT PUSH2 0xB9E JUMPI POP PUSH2 0x862 JUMP JUMPDEST PUSH1 0x0 DUP2 SSTORE DUP5 SWAP4 POP PUSH1 0x1 ADD PUSH2 0xB91 JUMP JUMPDEST SWAP1 SWAP2 POP DUP2 SWAP1 PUSH2 0xB83 JUMP JUMPDEST ADD MLOAD SWAP1 POP DUP8 DUP1 PUSH2 0x81E JUMP JUMPDEST PUSH1 0x0 DUP6 DUP2 MSTORE DUP3 DUP2 KECCAK256 SWAP4 POP PUSH1 0x1F NOT DUP6 AND SWAP1 JUMPDEST DUP2 DUP2 LT PUSH2 0xC0F JUMPI POP SWAP1 DUP5 PUSH1 0x1 SWAP6 SWAP5 SWAP4 SWAP3 LT PUSH2 0xBF6 JUMPI JUMPDEST POP POP POP DUP2 SHL ADD SWAP1 SSTORE PUSH2 0x833 JUMP JUMPDEST ADD MLOAD PUSH1 0x0 NOT PUSH1 0xF8 DUP5 PUSH1 0x3 SHL AND SHR NOT AND SWAP1 SSTORE DUP8 DUP1 DUP1 PUSH2 0xBE9 JUMP JUMPDEST SWAP3 SWAP4 PUSH1 0x20 PUSH1 0x1 DUP2 SWAP3 DUP8 DUP7 ADD MLOAD DUP2 SSTORE ADD SWAP6 ADD SWAP4 ADD PUSH2 0xBD3 JUMP JUMPDEST SWAP1 SWAP2 POP DUP4 PUSH1 0x0 MSTORE PUSH1 0x20 PUSH1 0x0 KECCAK256 PUSH1 0x1F DUP5 ADD PUSH1 0x5 SHR DUP2 ADD SWAP2 PUSH1 0x20 DUP6 LT PUSH2 0xC70 JUMPI JUMPDEST SWAP1 PUSH1 0x1F DUP6 SWAP5 SWAP4 SWAP3 ADD PUSH1 0x5 SHR ADD SWAP1 JUMPDEST DUP2 DUP2 LT PUSH2 0xC61 JUMPI POP PUSH2 0x807 JUMP JUMPDEST PUSH1 0x0 DUP2 SSTORE DUP5 SWAP4 POP PUSH1 0x1 ADD PUSH2 0xC54 JUMP JUMPDEST SWAP1 SWAP2 POP DUP2 SWAP1 PUSH2 0xC46 JUMP JUMPDEST ADD MLOAD SWAP1 POP DUP7 DUP1 PUSH2 0x7C0 JUMP JUMPDEST SWAP3 POP PUSH1 0x3 DUP5 ADD PUSH1 0x0 MSTORE DUP1 PUSH1 0x0 KECCAK256 SWAP1 PUSH1 0x0 SWAP4 JUMPDEST PUSH1 0x1F NOT DUP5 AND DUP6 LT PUSH2 0xCDB JUMPI PUSH1 0x1 SWAP5 POP DUP4 PUSH1 0x1F NOT DUP2 AND LT PUSH2 0xCC2 JUMPI JUMPDEST POP POP POP DUP2 SHL ADD PUSH1 0x3 DUP3 ADD SSTORE PUSH2 0x7D8 JUMP JUMPDEST ADD MLOAD PUSH1 0x0 NOT PUSH1 0xF8 DUP5 PUSH1 0x3 SHL AND SHR NOT AND SWAP1 SSTORE DUP7 DUP1 DUP1 PUSH2 0xCB2 JUMP JUMPDEST DUP2 DUP2 ADD MLOAD DUP4 SSTORE PUSH1 0x20 SWAP5 DUP6 ADD SWAP5 PUSH1 0x1 SWAP1 SWAP4 ADD SWAP3 SWAP1 SWAP2 ADD SWAP1 PUSH2 0xC97 JUMP JUMPDEST SWAP1 SWAP2 POP PUSH1 0x3 DUP5 ADD PUSH1 0x0 MSTORE PUSH1 0x20 PUSH1 0x0 KECCAK256 PUSH1 0x1F DUP5 ADD PUSH1 0x5 SHR DUP2 ADD PUSH1 0x20 DUP6 LT PUSH2 0xD42 JUMPI JUMPDEST SWAP1 DUP5 SWAP4 SWAP3 SWAP2 JUMPDEST PUSH1 0x1F DUP4 ADD PUSH1 0x5 SHR DUP3 ADD DUP2 LT PUSH2 0xD33 JUMPI POP POP PUSH2 0x7A9 JUMP JUMPDEST PUSH1 0x0 DUP2 SSTORE DUP6 SWAP5 POP PUSH1 0x1 ADD PUSH2 0xD1D JUMP JUMPDEST POP DUP1 PUSH2 0xD17 JUMP JUMPDEST ADD MLOAD SWAP1 POP DUP7 DUP1 PUSH2 0x763 JUMP JUMPDEST SWAP3 POP PUSH1 0x2 DUP5 ADD PUSH1 0x0 MSTORE DUP1 PUSH1 0x0 KECCAK256 SWAP1 PUSH1 0x0 SWAP4 JUMPDEST PUSH1 0x1F NOT DUP5 AND DUP6 LT PUSH2 0xDAA JUMPI PUSH1 0x1 SWAP5 POP DUP4 PUSH1 0x1F NOT DUP2 AND LT PUSH2 0xD91 JUMPI JUMPDEST POP POP POP DUP2 SHL ADD PUSH1 0x2 DUP3 ADD SSTORE PUSH2 0x77B JUMP JUMPDEST ADD MLOAD PUSH1 0x0 NOT PUSH1 0xF8 DUP5 PUSH1 0x3 SHL AND SHR NOT AND SWAP1 SSTORE DUP7 DUP1 DUP1 PUSH2 0xD81 JUMP JUMPDEST DUP2 DUP2 ADD MLOAD DUP4 SSTORE PUSH1 0x20 SWAP5 DUP6 ADD SWAP5 PUSH1 0x1 SWAP1 SWAP4 ADD SWAP3 SWAP1 SWAP2 ADD SWAP1 PUSH2 0xD66 JUMP JUMPDEST SWAP1 SWAP2 POP PUSH1 0x2 DUP5 ADD PUSH1 0x0 MSTORE PUSH1 0x20 PUSH1 0x0 KECCAK256 PUSH1 0x1F DUP5 ADD PUSH1 0x5 SHR DUP2 ADD PUSH1 0x20 DUP6 LT PUSH2 0xE11 JUMPI JUMPDEST SWAP1 DUP5 SWAP4 SWAP3 SWAP2 JUMPDEST PUSH1 0x1F DUP4 ADD PUSH1 0x5 SHR DUP3 ADD DUP2 LT PUSH2 0xE02 JUMPI POP POP PUSH2 0x74C JUMP JUMPDEST PUSH1 0x0 DUP2 SSTORE DUP6 SWAP5 POP PUSH1 0x1 ADD PUSH2 0xDEC JUMP JUMPDEST POP DUP1 PUSH2 0xDE6 JUMP JUMPDEST ADD MLOAD SWAP1 POP DUP7 DUP1 PUSH2 0x706 JUMP JUMPDEST SWAP3 POP PUSH1 0x1 DUP5 ADD PUSH1 0x0 MSTORE DUP1 PUSH1 0x0 KECCAK256 SWAP1 PUSH1 0x0 SWAP4 JUMPDEST PUSH1 0x1F NOT DUP5 AND DUP6 LT PUSH2 0xE79 JUMPI PUSH1 0x1 SWAP5 POP DUP4 PUSH1 0x1F NOT DUP2 AND LT PUSH2 0xE60 JUMPI JUMPDEST POP POP POP DUP2 SHL ADD PUSH1 0x1 DUP3 ADD SSTORE PUSH2 0x71E JUMP JUMPDEST ADD MLOAD PUSH1 0x0 NOT PUSH1 0xF8 DUP5 PUSH1 0x3 SHL AND SHR NOT AND SWAP1 SSTORE DUP7 DUP1 DUP1 PUSH2 0xE50 JUMP JUMPDEST DUP2 DUP2 ADD MLOAD DUP4 SSTORE PUSH1 0x20 SWAP5 DUP6 ADD SWAP5 PUSH1 0x1 SWAP1 SWAP4 ADD SWAP3 SWAP1 SWAP2 ADD SWAP1 PUSH2 0xE35 JUMP JUMPDEST SWAP1 SWAP2 POP PUSH1 0x1 DUP5 ADD PUSH1 0x0 MSTORE PUSH1 0x20 PUSH1 0x0 KECCAK256 PUSH1 0x1F DUP5 ADD PUSH1 0x5 SHR DUP2 ADD PUSH1 0x20 DUP6 LT PUSH2 0xEE0 JUMPI JUMPDEST SWAP1 DUP5 SWAP4 SWAP3 SWAP2 JUMPDEST PUSH1 0x1F DUP4 ADD PUSH1 0x5 SHR DUP3 ADD DUP2 LT PUSH2 0xED1 JUMPI POP POP PUSH2 0x6EF JUMP JUMPDEST PUSH1 0x0 DUP2 SSTORE DUP6 SWAP5 POP PUSH1 0x1 ADD PUSH2 0xEBB JUMP JUMPDEST POP DUP1 PUSH2 0xEB5 JUMP JUMPDEST PUSH4 0x4E487B71 PUSH1 0xE0 SHL PUSH1 0x0 MSTORE PUSH1 0x0 PUSH1 0x4 MSTORE PUSH1 0x24 PUSH1 0x0 REVERT JUMPDEST PUSH1 0x40 MLOAD PUSH3 0x461BCD PUSH1 0xE5 SHL DUP2 MSTORE PUSH1 0x20 PUSH1 0x4 DUP3 ADD MSTORE PUSH1 0x14 PUSH1 0x24 DUP3 ADD MSTORE PUSH20 0x141C9BDA9958DD081CDD185C9D080F0F48195B99 PUSH1 0x62 SHL PUSH1 0x44 DUP3 ADD MSTORE PUSH1 0x64 SWAP1 REVERT JUMPDEST PUSH1 0x40 MLOAD PUSH3 0x461BCD PUSH1 0xE5 SHL DUP2 MSTORE PUSH1 0x20 PUSH1 0x4 DUP3 ADD MSTORE PUSH1 0xF PUSH1 0x24 DUP3 ADD MSTORE PUSH15 0x1253D0C81CDD185C9D080F08195B99 PUSH1 0x8A SHL PUSH1 0x44 DUP3 ADD MSTORE PUSH1 0x64 SWAP1 REVERT JUMPDEST SWAP7 POP TIMESTAMP SWAP6 POP PUSH3 0x278D00 DUP7 ADD DUP1 DUP8 GT PUSH2 0xF88 JUMPI SWAP7 PUSH2 0x5E0 JUMP JUMPDEST PUSH4 0x4E487B71 PUSH1 0xE0 SHL PUSH1 0x0 MSTORE PUSH1 0x11 PUSH1 0x4 MSTORE PUSH1 0x24 PUSH1 0x0 REVERT JUMPDEST SWAP1 POP ISZERO DUP14 PUSH2 0x5DA JUMP JUMPDEST SWAP7 POP TIMESTAMP SWAP6 POP PUSH3 0x76A700 DUP7 ADD DUP1 DUP8 GT PUSH2 0xF88 JUMPI SWAP7 PUSH2 0x5D2 JUMP JUMPDEST SWAP1 POP ISZERO DUP16 PUSH2 0x5CC JUMP JUMPDEST PUSH1 0x40 MLOAD PUSH3 0x461BCD PUSH1 0xE5 SHL DUP2 MSTORE PUSH1 0x20 PUSH1 0x4 DUP3 ADD MSTORE PUSH1 0x10 PUSH1 0x24 DUP3 ADD MSTORE PUSH16 0x476F616C206D757374206265203E203 PUSH1 0x84 SHL PUSH1 0x44 DUP3 ADD MSTORE PUSH1 0x64 SWAP1 REVERT JUMPDEST PUSH1 0x40 MLOAD PUSH3 0x461BCD PUSH1 0xE5 SHL DUP2 MSTORE PUSH1 0x20 PUSH1 0x4 DUP3 ADD MSTORE PUSH1 0xE PUSH1 0x24 DUP3 ADD MSTORE PUSH14 0x151A5D1B19481C995C5D5A5C9959 PUSH1 0x92 SHL PUSH1 0x44 DUP3 ADD MSTORE PUSH1 0x64 SWAP1 REVERT JUMPDEST CALLVALUE PUSH2 0x23E JUMPI PUSH1 0x0 CALLDATASIZE PUSH1 0x3 NOT ADD SLT PUSH2 0x23E JUMPI PUSH1 0x0 SLOAD PUSH1 0x40 MLOAD PUSH1 0x1 PUSH1 0x1 PUSH1 0xA0 SHL SUB SWAP1 SWAP2 AND DUP2 MSTORE PUSH1 0x20 SWAP1 RETURN JUMPDEST CALLVALUE PUSH2 0x23E JUMPI PUSH1 0x40 CALLDATASIZE PUSH1 0x3 NOT ADD SLT PUSH2 0x23E JUMPI PUSH2 0x1078 PUSH2 0x1CD7 JUMP JUMPDEST PUSH1 0x4 CALLDATALOAD PUSH1 0x0 MSTORE PUSH1 0x7 PUSH1 0x20 MSTORE PUSH1 0x40 PUSH1 0x0 KECCAK256 SWAP1 PUSH1 0x1 DUP1 PUSH1 0xA0 SHL SUB AND PUSH1 0x0 MSTORE PUSH1 0x20 MSTORE PUSH1 0x20 PUSH1 0xFF PUSH1 0x40 PUSH1 0x0 KECCAK256 SLOAD AND PUSH1 0x40 MLOAD SWAP1 ISZERO ISZERO DUP2 MSTORE RETURN JUMPDEST CALLVALUE PUSH2 0x23E JUMPI PUSH1 0x0 CALLDATASIZE PUSH1 0x3 NOT ADD SLT PUSH2 0x23E JUMPI PUSH1 0x20 PUSH1 0x3 SLOAD PUSH1 0x40 MLOAD SWAP1 DUP2 MSTORE RETURN JUMPDEST CALLVALUE PUSH2 0x23E JUMPI PUSH1 0x20 CALLDATASIZE PUSH1 0x3 NOT ADD SLT PUSH2 0x23E JUMPI PUSH1 0x4 CALLDATALOAD PUSH2 0x10EB PUSH1 0x4 SLOAD DUP3 LT PUSH2 0x1DB7 JUMP JUMPDEST PUSH1 0x0 MSTORE PUSH1 0x6 PUSH1 0x20 MSTORE PUSH1 0x20 PUSH1 0x40 PUSH1 0x0 KECCAK256 SLOAD PUSH1 0x40 MLOAD SWAP1 DUP2 MSTORE RETURN JUMPDEST CALLVALUE PUSH2 0x23E JUMPI PUSH2 0x1111 CALLDATASIZE PUSH2 0x1B4C JUMP JUMPDEST PUSH2 0x111E PUSH1 0x4 SLOAD DUP4 LT PUSH2 0x1DB7 JUMP JUMPDEST DUP2 PUSH1 0x0 MSTORE PUSH1 0x6 PUSH1 0x20 MSTORE PUSH1 0x40 PUSH1 0x0 KECCAK256 SLOAD DUP2 LT ISZERO PUSH2 0x119A JUMPI PUSH2 0x114A SWAP2 PUSH1 0x0 MSTORE PUSH1 0x6 PUSH1 0x20 MSTORE PUSH1 0x40 PUSH1 0x0 KECCAK256 PUSH2 0x1E46 JUMP JUMPDEST POP PUSH1 0x1 DUP1 PUSH1 0xA0 SHL SUB DUP2 SLOAD AND PUSH1 0xFF PUSH1 0x2 DUP4 ADD SLOAD AND PUSH2 0x116E PUSH1 0x1 PUSH1 0x3 DUP6 ADD SLOAD SWAP5 ADD PUSH2 0x1BF2 JUMP JUMPDEST SWAP3 PUSH2 0x118B PUSH1 0x40 MLOAD SWAP5 DUP6 SWAP5 DUP6 MSTORE PUSH1 0x80 PUSH1 0x20 DUP7 ADD MSTORE PUSH1 0x80 DUP6 ADD SWAP1 PUSH2 0x1C96 JUMP JUMPDEST SWAP2 PUSH1 0x40 DUP5 ADD MSTORE PUSH1 0x60 DUP4 ADD MSTORE SUB SWAP1 RETURN JUMPDEST PUSH1 0x40 MLOAD PUSH3 0x461BCD PUSH1 0xE5 SHL DUP2 MSTORE PUSH1 0x20 PUSH1 0x4 DUP3 ADD MSTORE PUSH1 0xD PUSH1 0x24 DUP3 ADD MSTORE PUSH13 0x92DCECC2D8D2C840D2DCC8CAF PUSH1 0x9B SHL PUSH1 0x44 DUP3 ADD MSTORE PUSH1 0x64 SWAP1 REVERT JUMPDEST PUSH1 0x60 CALLDATASIZE PUSH1 0x3 NOT ADD SLT PUSH2 0x23E JUMPI PUSH1 0x4 CALLDATALOAD PUSH1 0x24 CALLDATALOAD PUSH1 0x1 PUSH1 0x1 PUSH1 0x40 SHL SUB DUP2 GT PUSH2 0x23E JUMPI PUSH2 0x11FD SWAP1 CALLDATASIZE SWAP1 PUSH1 0x4 ADD PUSH2 0x1CED JUMP JUMPDEST PUSH1 0x44 CALLDATALOAD SWAP2 PUSH1 0xFF DUP4 AND DUP1 SWAP4 SUB PUSH2 0x23E JUMPI PUSH2 0x1219 PUSH1 0x4 SLOAD DUP3 LT PUSH2 0x1DB7 JUMP JUMPDEST PUSH1 0x1 SLOAD CALLVALUE LT PUSH2 0x1571 JUMPI DUP2 MLOAD ISZERO PUSH2 0x1539 JUMPI PUSH1 0x1 DUP4 LT ISZERO DUP1 PUSH2 0x152E JUMPI JUMPDEST ISZERO PUSH2 0x14FC JUMPI PUSH1 0x0 DUP2 DUP2 MSTORE PUSH1 0x9 PUSH1 0x20 SWAP1 DUP2 MSTORE PUSH1 0x40 DUP1 DUP4 KECCAK256 CALLER DUP5 MSTORE SWAP1 SWAP2 MSTORE SWAP1 KECCAK256 SLOAD PUSH1 0x3C DUP2 ADD SWAP1 DUP2 LT PUSH2 0xF88 JUMPI TIMESTAMP LT PUSH2 0x14B8 JUMPI PUSH2 0x1270 CALLVALUE PUSH1 0x3 SLOAD PUSH2 0x1E39 JUMP JUMPDEST PUSH1 0x3 SSTORE DUP1 PUSH1 0x0 MSTORE PUSH1 0x9 PUSH1 0x20 MSTORE PUSH1 0x40 PUSH1 0x0 KECCAK256 PUSH1 0x1 DUP1 PUSH1 0xA0 SHL SUB CALLER AND PUSH1 0x0 MSTORE PUSH1 0x20 MSTORE PUSH1 0x40 PUSH1 0x0 KECCAK256 TIMESTAMP SWAP1 SSTORE DUP1 PUSH1 0x0 MSTORE PUSH1 0x6 PUSH1 0x20 MSTORE PUSH1 0x40 PUSH1 0x0 KECCAK256 SWAP3 PUSH1 0x40 MLOAD PUSH1 0x80 DUP2 ADD DUP2 DUP2 LT PUSH1 0x1 PUSH1 0x1 PUSH1 0x40 SHL SUB DUP3 GT OR PUSH2 0xADE JUMPI PUSH1 0x40 MSTORE CALLER DUP2 MSTORE PUSH1 0x20 DUP2 ADD SWAP5 DUP5 DUP7 MSTORE PUSH1 0x40 DUP3 ADD DUP4 DUP2 MSTORE PUSH1 0x60 DUP4 ADD SWAP2 TIMESTAMP DUP4 MSTORE DUP1 SLOAD PUSH1 0x1 PUSH1 0x40 SHL DUP2 LT ISZERO PUSH2 0xADE JUMPI PUSH2 0x12FA SWAP2 PUSH1 0x1 DUP3 ADD DUP2 SSTORE PUSH2 0x1E46 JUMP JUMPDEST SWAP4 SWAP1 SWAP4 PUSH2 0xEE7 JUMPI MLOAD DUP4 SLOAD PUSH1 0x1 PUSH1 0x1 PUSH1 0xA0 SHL SUB NOT AND PUSH1 0x1 PUSH1 0x1 PUSH1 0xA0 SHL SUB SWAP2 SWAP1 SWAP2 AND OR DUP4 SSTORE SWAP6 MLOAD DUP1 MLOAD SWAP1 SWAP7 SWAP1 PUSH1 0x1 DUP5 ADD SWAP1 PUSH1 0x1 PUSH1 0x1 PUSH1 0x40 SHL SUB DUP2 GT PUSH2 0xADE JUMPI PUSH2 0x1341 DUP3 SLOAD PUSH2 0x1B97 JUMP JUMPDEST PUSH1 0x1F DUP2 GT PUSH2 0x1470 JUMPI JUMPDEST POP PUSH1 0x20 PUSH1 0x1F DUP3 GT PUSH1 0x1 EQ PUSH2 0x13E3 JUMPI SWAP1 DUP1 PUSH1 0x3 SWAP6 SWAP5 SWAP4 SWAP3 PUSH32 0x75AF7A249FD33F32DA5AEBDF42415CF43A79F1A958CB5D25980D825BB6C4A541 SWAP10 SWAP11 SWAP12 PUSH1 0x0 SWAP3 PUSH2 0x13D8 JUMPI JUMPDEST POP POP DUP2 PUSH1 0x1 SHL SWAP2 PUSH1 0x0 NOT SWAP1 DUP8 SHL SHR NOT AND OR SWAP1 SSTORE JUMPDEST PUSH1 0xFF PUSH1 0x2 DUP6 ADD SWAP2 MLOAD AND PUSH1 0xFF NOT DUP3 SLOAD AND OR SWAP1 SSTORE MLOAD SWAP2 ADD SSTORE PUSH1 0x40 MLOAD SWAP1 DUP2 MSTORE PUSH1 0x40 PUSH1 0x20 DUP3 ADD MSTORE DUP1 PUSH2 0x13D3 CALLER SWAP6 PUSH1 0x40 DUP4 ADD SWAP1 PUSH2 0x1C96 JUMP JUMPDEST SUB SWAP1 LOG3 STOP JUMPDEST ADD MLOAD SWAP1 POP DUP12 DUP1 PUSH2 0x138C JUMP JUMPDEST PUSH1 0x1F NOT DUP3 AND SWAP10 DUP4 PUSH1 0x0 MSTORE DUP2 PUSH1 0x0 KECCAK256 SWAP11 PUSH1 0x0 JUMPDEST DUP2 DUP2 LT PUSH2 0x1458 JUMPI POP SWAP11 PUSH1 0x1 SWAP3 DUP5 SWAP3 PUSH1 0x3 SWAP9 SWAP8 SWAP7 SWAP6 PUSH32 0x75AF7A249FD33F32DA5AEBDF42415CF43A79F1A958CB5D25980D825BB6C4A541 SWAP13 SWAP14 SWAP15 LT PUSH2 0x1440 JUMPI JUMPDEST POP POP POP DUP2 SHL ADD SWAP1 SSTORE PUSH2 0x13A0 JUMP JUMPDEST ADD MLOAD PUSH1 0x0 NOT DUP4 DUP10 SHL PUSH1 0xF8 AND SHR NOT AND SWAP1 SSTORE DUP12 DUP1 DUP1 PUSH2 0x1433 JUMP JUMPDEST DUP4 DUP4 ADD MLOAD DUP14 SSTORE PUSH1 0x1 SWAP1 SWAP13 ADD SWAP12 PUSH1 0x20 SWAP4 DUP5 ADD SWAP4 ADD PUSH2 0x13F5 JUMP JUMPDEST DUP3 PUSH1 0x0 MSTORE PUSH1 0x20 PUSH1 0x0 KECCAK256 PUSH1 0x1F DUP4 ADD PUSH1 0x5 SHR DUP2 ADD SWAP2 PUSH1 0x20 DUP5 LT PUSH2 0x14AE JUMPI JUMPDEST PUSH1 0x1F ADD PUSH1 0x5 SHR ADD SWAP1 JUMPDEST DUP2 DUP2 LT PUSH2 0x14A2 JUMPI POP PUSH2 0x134A JUMP JUMPDEST PUSH1 0x0 DUP2 SSTORE PUSH1 0x1 ADD PUSH2 0x1495 JUMP JUMPDEST SWAP1 SWAP2 POP DUP2 SWAP1 PUSH2 0x148C JUMP JUMPDEST PUSH1 0x64 PUSH1 0x40 MLOAD PUSH3 0x461BCD PUSH1 0xE5 SHL DUP2 MSTORE PUSH1 0x20 PUSH1 0x4 DUP3 ADD MSTORE PUSH1 0x20 PUSH1 0x24 DUP3 ADD MSTORE PUSH32 0x506C65617365207761697420363073206265747765656E20636F6D6D656E7473 PUSH1 0x44 DUP3 ADD MSTORE REVERT JUMPDEST PUSH1 0x40 MLOAD PUSH3 0x461BCD PUSH1 0xE5 SHL DUP2 MSTORE PUSH1 0x20 PUSH1 0x4 DUP3 ADD MSTORE PUSH1 0xA PUSH1 0x24 DUP3 ADD MSTORE PUSH10 0x526174696E6720312D35 PUSH1 0xB0 SHL PUSH1 0x44 DUP3 ADD MSTORE PUSH1 0x64 SWAP1 REVERT JUMPDEST POP PUSH1 0x5 DUP4 GT ISZERO PUSH2 0x1234 JUMP JUMPDEST PUSH1 0x40 MLOAD PUSH3 0x461BCD PUSH1 0xE5 SHL DUP2 MSTORE PUSH1 0x20 PUSH1 0x4 DUP3 ADD MSTORE PUSH1 0x10 PUSH1 0x24 DUP3 ADD MSTORE PUSH16 0x10DBDB9D195B9D081C995C5D5A5C9959 PUSH1 0x82 SHL PUSH1 0x44 DUP3 ADD MSTORE PUSH1 0x64 SWAP1 REVERT JUMPDEST PUSH1 0x40 MLOAD PUSH3 0x461BCD PUSH1 0xE5 SHL DUP2 MSTORE PUSH1 0x20 PUSH1 0x4 DUP3 ADD MSTORE PUSH1 0x18 PUSH1 0x24 DUP3 ADD MSTORE PUSH32 0x496E73756666696369656E7420636F6D6D656E74206665650000000000000000 PUSH1 0x44 DUP3 ADD MSTORE PUSH1 0x64 SWAP1 REVERT JUMPDEST CALLVALUE PUSH2 0x23E JUMPI PUSH1 0x0 CALLDATASIZE PUSH1 0x3 NOT ADD SLT PUSH2 0x23E JUMPI PUSH1 0x20 PUSH1 0x5 SLOAD PUSH1 0x40 MLOAD SWAP1 DUP2 MSTORE RETURN JUMPDEST CALLVALUE PUSH2 0x23E JUMPI PUSH1 0x40 CALLDATASIZE PUSH1 0x3 NOT ADD SLT PUSH2 0x23E JUMPI PUSH1 0x4 CALLDATALOAD PUSH1 0x24 CALLDATALOAD DUP1 ISZERO ISZERO DUP2 SUB PUSH2 0x23E JUMPI PUSH1 0x11 PUSH2 0x1624 PUSH2 0x163E SWAP4 PUSH2 0x1612 PUSH1 0x1 DUP1 PUSH1 0xA0 SHL SUB PUSH1 0x0 SLOAD AND CALLER EQ PUSH2 0x1D43 JUMP JUMPDEST PUSH2 0x161F PUSH1 0x4 SLOAD DUP3 LT PUSH2 0x1DB7 JUMP JUMPDEST PUSH2 0x1B62 JUMP JUMPDEST POP ADD SWAP1 PUSH2 0xFF00 DUP3 SLOAD SWAP2 ISZERO ISZERO PUSH1 0x8 SHL AND SWAP1 PUSH2 0xFF00 NOT AND OR SWAP1 SSTORE JUMP JUMPDEST STOP JUMPDEST PUSH1 0x20 CALLDATASIZE PUSH1 0x3 NOT ADD SLT PUSH2 0x23E JUMPI PUSH1 0x4 CALLDATALOAD PUSH2 0x165C PUSH1 0x4 SLOAD DUP3 LT PUSH2 0x1DB7 JUMP JUMPDEST PUSH2 0x166A PUSH1 0x2 SLOAD CALLVALUE LT ISZERO PUSH2 0x1DF5 JUMP JUMPDEST PUSH1 0x0 DUP2 DUP2 MSTORE PUSH1 0x7 PUSH1 0x20 SWAP1 DUP2 MSTORE PUSH1 0x40 DUP1 DUP4 KECCAK256 CALLER DUP5 MSTORE SWAP1 SWAP2 MSTORE SWAP1 KECCAK256 SLOAD PUSH1 0xFF AND PUSH2 0x1703 JUMPI PUSH2 0x1697 CALLVALUE PUSH1 0x3 SLOAD PUSH2 0x1E39 JUMP JUMPDEST PUSH1 0x3 SSTORE PUSH1 0x0 DUP2 DUP2 MSTORE PUSH1 0x7 PUSH1 0x20 SWAP1 DUP2 MSTORE PUSH1 0x40 DUP1 DUP4 KECCAK256 CALLER DUP5 MSTORE SWAP1 SWAP2 MSTORE SWAP1 KECCAK256 DUP1 SLOAD PUSH1 0xFF NOT AND PUSH1 0x1 OR SWAP1 SSTORE PUSH1 0xF PUSH2 0x16C9 DUP3 PUSH2 0x1B62 JUMP JUMPDEST POP ADD DUP1 SLOAD SWAP1 PUSH1 0x1 DUP3 ADD DUP1 SWAP3 GT PUSH2 0xF88 JUMPI SSTORE CALLER SWAP1 PUSH32 0xB31D078AFF93840E07BD4FEB45E413EF1141E91543E8F7C6F7E17B18963319B0 PUSH1 0x0 DUP1 LOG3 STOP JUMPDEST PUSH1 0x40 MLOAD PUSH3 0x461BCD PUSH1 0xE5 SHL DUP2 MSTORE PUSH1 0x20 PUSH1 0x4 DUP3 ADD MSTORE PUSH1 0x13 PUSH1 0x24 DUP3 ADD MSTORE PUSH19 0x105B1C9958591E481D9BDD1959081D1C9D5CDD PUSH1 0x6A SHL PUSH1 0x44 DUP3 ADD MSTORE PUSH1 0x64 SWAP1 REVERT JUMPDEST PUSH1 0x20 CALLDATASIZE PUSH1 0x3 NOT ADD SLT PUSH2 0x23E JUMPI PUSH1 0x4 CALLDATALOAD PUSH2 0x175A PUSH1 0x4 SLOAD DUP3 LT PUSH2 0x1DB7 JUMP JUMPDEST PUSH2 0x1768 PUSH1 0x2 SLOAD CALLVALUE LT ISZERO PUSH2 0x1DF5 JUMP JUMPDEST PUSH1 0x0 DUP2 DUP2 MSTORE PUSH1 0x8 PUSH1 0x20 SWAP1 DUP2 MSTORE PUSH1 0x40 DUP1 DUP4 KECCAK256 CALLER DUP5 MSTORE SWAP1 SWAP2 MSTORE SWAP1 KECCAK256 SLOAD PUSH1 0xFF AND PUSH2 0x1801 JUMPI PUSH2 0x1795 CALLVALUE PUSH1 0x3 SLOAD PUSH2 0x1E39 JUMP JUMPDEST PUSH1 0x3 SSTORE PUSH1 0x0 DUP2 DUP2 MSTORE PUSH1 0x8 PUSH1 0x20 SWAP1 DUP2 MSTORE PUSH1 0x40 DUP1 DUP4 KECCAK256 CALLER DUP5 MSTORE SWAP1 SWAP2 MSTORE SWAP1 KECCAK256 DUP1 SLOAD PUSH1 0xFF NOT AND PUSH1 0x1 OR SWAP1 SSTORE PUSH1 0x10 PUSH2 0x17C7 DUP3 PUSH2 0x1B62 JUMP JUMPDEST POP ADD DUP1 SLOAD SWAP1 PUSH1 0x1 DUP3 ADD DUP1 SWAP3 GT PUSH2 0xF88 JUMPI SSTORE CALLER SWAP1 PUSH32 0x5E3E2B315B7A0C8F5B16C6826FEA3480C2B34A38CEE053A916BD6BC4569756F0 PUSH1 0x0 DUP1 LOG3 STOP JUMPDEST PUSH1 0x40 MLOAD PUSH3 0x461BCD PUSH1 0xE5 SHL DUP2 MSTORE PUSH1 0x20 PUSH1 0x4 DUP3 ADD MSTORE PUSH1 0x16 PUSH1 0x24 DUP3 ADD MSTORE PUSH22 0x416C726561647920766F746564207769746864726177 PUSH1 0x50 SHL PUSH1 0x44 DUP3 ADD MSTORE PUSH1 0x64 SWAP1 REVERT JUMPDEST CALLVALUE PUSH2 0x23E JUMPI PUSH1 0x20 CALLDATASIZE PUSH1 0x3 NOT ADD SLT PUSH2 0x23E JUMPI PUSH1 0x4 CALLDATALOAD PUSH1 0x1 PUSH1 0x1 PUSH1 0xA0 SHL SUB DUP2 AND SWAP1 DUP2 SWAP1 SUB PUSH2 0x23E JUMPI PUSH2 0x187A PUSH1 0x1 DUP1 PUSH1 0xA0 SHL SUB PUSH1 0x0 SLOAD AND CALLER EQ PUSH2 0x1D43 JUMP JUMPDEST PUSH2 0x1885 DUP2 ISZERO ISZERO PUSH2 0x1D7C JUMP JUMPDEST PUSH1 0x3 SLOAD DUP1 ISZERO PUSH2 0x18CE JUMPI PUSH1 0x0 PUSH1 0x3 SSTORE PUSH1 0x0 DUP1 DUP1 DUP1 DUP5 DUP7 DUP3 CALL ISZERO PUSH2 0x338 JUMPI PUSH1 0x20 PUSH32 0xC0819C13BE868895EB93E40EACEB96DE976442FA1D404E5C55F14BB65A8C489A SWAP2 PUSH1 0x40 MLOAD SWAP1 DUP2 MSTORE LOG2 STOP JUMPDEST PUSH1 0x40 MLOAD PUSH3 0x461BCD PUSH1 0xE5 SHL DUP2 MSTORE PUSH1 0x20 PUSH1 0x4 DUP3 ADD MSTORE PUSH1 0x13 PUSH1 0x24 DUP3 ADD MSTORE PUSH19 0x4E6F206665657320746F207769746864726177 PUSH1 0x68 SHL PUSH1 0x44 DUP3 ADD MSTORE PUSH1 0x64 SWAP1 REVERT JUMPDEST CALLVALUE PUSH2 0x23E JUMPI PUSH1 0x20 CALLDATASIZE PUSH1 0x3 NOT ADD SLT PUSH2 0x23E JUMPI PUSH1 0x4 CALLDATALOAD PUSH1 0x4 SLOAD DUP2 LT ISZERO PUSH2 0x23E JUMPI PUSH2 0x1930 SWAP1 PUSH2 0x1B62 JUMP JUMPDEST POP DUP1 SLOAD SWAP1 PUSH2 0x1940 PUSH1 0x1 DUP3 ADD PUSH2 0x1BF2 JUMP JUMPDEST PUSH1 0xE0 MSTORE DUP1 PUSH2 0x1950 PUSH1 0x2 DUP3 ADD PUSH2 0x1BF2 JUMP JUMPDEST SWAP3 PUSH2 0x195D PUSH1 0x3 DUP4 ADD PUSH2 0x1BF2 JUMP JUMPDEST SWAP4 PUSH2 0x196A PUSH1 0x4 DUP5 ADD PUSH2 0x1BF2 JUMP JUMPDEST SWAP5 PUSH2 0x1977 PUSH1 0x5 DUP6 ADD PUSH2 0x1BF2 JUMP JUMPDEST SWAP6 PUSH2 0x1984 PUSH1 0x6 DUP7 ADD PUSH2 0x1BF2 JUMP JUMPDEST SWAP7 PUSH1 0x1 PUSH1 0xA0 SHL PUSH1 0x1 SWAP1 SUB PUSH1 0x7 DUP8 ADD SLOAD AND PUSH1 0x80 MSTORE PUSH1 0x8 DUP7 ADD SLOAD SWAP8 PUSH1 0x9 DUP8 ADD SLOAD SWAP1 PUSH1 0xA DUP9 ADD SLOAD SWAP3 PUSH1 0xB DUP10 ADD SLOAD SWAP5 PUSH1 0xC DUP11 ADD SLOAD SWAP7 PUSH1 0xD DUP12 ADD SLOAD SWAP9 PUSH1 0xE DUP13 ADD SLOAD SWAP11 PUSH1 0xF DUP14 ADD SLOAD SWAP13 PUSH1 0x10 ADD SLOAD SWAP14 PUSH1 0x11 ADD SLOAD PUSH1 0xC0 MSTORE PUSH1 0x40 MLOAD PUSH1 0xA0 MSTORE PUSH1 0xA0 MLOAD MSTORE PUSH1 0xA0 MLOAD PUSH1 0x20 ADD PUSH2 0x260 SWAP1 MSTORE PUSH1 0xA0 MLOAD PUSH2 0x260 ADD PUSH1 0xE0 MLOAD SWAP1 PUSH2 0x19FC SWAP2 PUSH2 0x1C96 JUMP JUMPDEST PUSH1 0xA0 MLOAD DUP2 SUB PUSH1 0xA0 MLOAD PUSH1 0x40 ADD MSTORE PUSH2 0x1A11 SWAP2 PUSH2 0x1C96 JUMP JUMPDEST PUSH1 0xA0 MLOAD DUP2 SUB PUSH1 0xA0 MLOAD PUSH1 0x60 ADD MSTORE PUSH2 0x1A26 SWAP2 PUSH2 0x1C96 JUMP JUMPDEST PUSH1 0xA0 MLOAD DUP2 SUB PUSH1 0xA0 MLOAD PUSH1 0x80 ADD MSTORE PUSH2 0x1A3B SWAP2 PUSH2 0x1C96 JUMP JUMPDEST PUSH1 0xA0 MLOAD DUP2 SUB PUSH1 0xA0 MLOAD PUSH1 0xA0 ADD MSTORE PUSH2 0x1A50 SWAP2 PUSH2 0x1C96 JUMP JUMPDEST PUSH1 0xA0 MLOAD DUP2 SUB PUSH1 0xA0 MLOAD PUSH1 0xC0 ADD MSTORE PUSH2 0x1A65 SWAP2 PUSH2 0x1C96 JUMP JUMPDEST SWAP9 PUSH1 0x80 MLOAD PUSH1 0xA0 MLOAD PUSH1 0xE0 ADD MSTORE PUSH1 0xA0 MLOAD PUSH2 0x100 ADD MSTORE PUSH1 0xA0 MLOAD PUSH2 0x120 ADD MSTORE PUSH1 0xA0 MLOAD PUSH2 0x140 ADD MSTORE PUSH1 0xA0 MLOAD PUSH2 0x160 ADD MSTORE PUSH1 0xA0 MLOAD PUSH2 0x180 ADD MSTORE PUSH1 0xA0 MLOAD PUSH2 0x1A0 ADD MSTORE PUSH1 0xA0 MLOAD PUSH2 0x1C0 ADD MSTORE PUSH1 0xA0 MLOAD PUSH2 0x1E0 ADD MSTORE PUSH1 0xA0 MLOAD PUSH2 0x200 ADD MSTORE PUSH1 0xC0 MLOAD PUSH1 0xFF AND PUSH1 0x5 GT ISZERO PUSH2 0xA00 JUMPI PUSH1 0xFF PUSH1 0xC0 MLOAD AND PUSH2 0x220 PUSH1 0xA0 MLOAD ADD MSTORE PUSH1 0xFF PUSH1 0xC0 MLOAD PUSH1 0x8 SHR AND ISZERO ISZERO PUSH2 0x240 PUSH1 0xA0 MLOAD ADD MSTORE PUSH1 0xA0 MLOAD SWAP1 SUB PUSH1 0xA0 MLOAD RETURN JUMPDEST CALLVALUE PUSH2 0x23E JUMPI PUSH32 0x5C6323BF1C2D7AAEA2C091A4751C1C87AF7F2864650C336507A77D0557AF37A1 PUSH1 0x40 PUSH2 0x1B22 CALLDATASIZE PUSH2 0x1B4C JUMP JUMPDEST PUSH2 0x1B37 PUSH1 0x1 DUP1 PUSH1 0xA0 SHL SUB PUSH1 0x0 SLOAD AND CALLER EQ PUSH2 0x1D43 JUMP JUMPDEST DUP2 PUSH1 0x1 SSTORE DUP1 PUSH1 0x2 SSTORE DUP3 MLOAD SWAP2 DUP3 MSTORE PUSH1 0x20 DUP3 ADD MSTORE LOG1 STOP JUMPDEST PUSH1 0x40 SWAP1 PUSH1 0x3 NOT ADD SLT PUSH2 0x23E JUMPI PUSH1 0x4 CALLDATALOAD SWAP1 PUSH1 0x24 CALLDATALOAD SWAP1 JUMP JUMPDEST PUSH1 0x4 SLOAD DUP2 LT ISZERO PUSH2 0x1B81 JUMPI PUSH1 0x4 PUSH1 0x0 MSTORE PUSH1 0x12 PUSH1 0x20 PUSH1 0x0 KECCAK256 SWAP2 MUL ADD SWAP1 PUSH1 0x0 SWAP1 JUMP JUMPDEST PUSH4 0x4E487B71 PUSH1 0xE0 SHL PUSH1 0x0 MSTORE PUSH1 0x32 PUSH1 0x4 MSTORE PUSH1 0x24 PUSH1 0x0 REVERT JUMPDEST SWAP1 PUSH1 0x1 DUP3 DUP2 SHR SWAP3 AND DUP1 ISZERO PUSH2 0x1BC7 JUMPI JUMPDEST PUSH1 0x20 DUP4 LT EQ PUSH2 0x1BB1 JUMPI JUMP JUMPDEST PUSH4 0x4E487B71 PUSH1 0xE0 SHL PUSH1 0x0 MSTORE PUSH1 0x22 PUSH1 0x4 MSTORE PUSH1 0x24 PUSH1 0x0 REVERT JUMPDEST SWAP2 PUSH1 0x7F AND SWAP2 PUSH2 0x1BA6 JUMP JUMPDEST SWAP1 PUSH1 0x1F DUP1 NOT SWAP2 ADD AND DUP2 ADD SWAP1 DUP2 LT PUSH1 0x1 PUSH1 0x1 PUSH1 0x40 SHL SUB DUP3 GT OR PUSH2 0xADE JUMPI PUSH1 0x40 MSTORE JUMP JUMPDEST SWAP1 PUSH1 0x40 MLOAD SWAP2 DUP3 PUSH1 0x0 DUP3 SLOAD SWAP3 PUSH2 0x1C06 DUP5 PUSH2 0x1B97 JUMP JUMPDEST DUP1 DUP5 MSTORE SWAP4 PUSH1 0x1 DUP2 AND SWAP1 DUP2 ISZERO PUSH2 0x1C74 JUMPI POP PUSH1 0x1 EQ PUSH2 0x1C2D JUMPI JUMPDEST POP PUSH2 0x1C2B SWAP3 POP SUB DUP4 PUSH2 0x1BD1 JUMP JUMPDEST JUMP JUMPDEST SWAP1 POP PUSH1 0x0 SWAP3 SWAP2 SWAP3 MSTORE PUSH1 0x20 PUSH1 0x0 KECCAK256 SWAP1 PUSH1 0x0 SWAP2 JUMPDEST DUP2 DUP4 LT PUSH2 0x1C58 JUMPI POP POP SWAP1 PUSH1 0x20 PUSH2 0x1C2B SWAP3 DUP3 ADD ADD CODESIZE PUSH2 0x1C1E JUMP JUMPDEST PUSH1 0x20 SWAP2 SWAP4 POP DUP1 PUSH1 0x1 SWAP2 SLOAD DUP4 DUP6 DUP10 ADD ADD MSTORE ADD SWAP2 ADD SWAP1 SWAP2 DUP5 SWAP3 PUSH2 0x1C3F JUMP JUMPDEST SWAP1 POP PUSH1 0x20 SWAP3 POP PUSH2 0x1C2B SWAP5 SWAP2 POP PUSH1 0xFF NOT AND DUP3 DUP5 ADD MSTORE ISZERO ISZERO PUSH1 0x5 SHL DUP3 ADD ADD CODESIZE PUSH2 0x1C1E JUMP JUMPDEST SWAP2 SWAP1 DUP3 MLOAD SWAP3 DUP4 DUP3 MSTORE PUSH1 0x0 JUMPDEST DUP5 DUP2 LT PUSH2 0x1CC2 JUMPI POP POP DUP3 PUSH1 0x0 PUSH1 0x20 DUP1 SWAP5 SWAP6 DUP5 ADD ADD MSTORE PUSH1 0x1F DUP1 NOT SWAP2 ADD AND ADD ADD SWAP1 JUMP JUMPDEST DUP1 PUSH1 0x20 DUP1 SWAP3 DUP5 ADD ADD MLOAD DUP3 DUP3 DUP7 ADD ADD MSTORE ADD PUSH2 0x1CA1 JUMP JUMPDEST PUSH1 0x24 CALLDATALOAD SWAP1 PUSH1 0x1 PUSH1 0x1 PUSH1 0xA0 SHL SUB DUP3 AND DUP3 SUB PUSH2 0x23E JUMPI JUMP JUMPDEST DUP2 PUSH1 0x1F DUP3 ADD SLT ISZERO PUSH2 0x23E JUMPI DUP1 CALLDATALOAD SWAP1 PUSH1 0x1 PUSH1 0x1 PUSH1 0x40 SHL SUB DUP3 GT PUSH2 0xADE JUMPI PUSH1 0x40 MLOAD SWAP3 PUSH2 0x1D21 PUSH1 0x1F DUP5 ADD PUSH1 0x1F NOT AND PUSH1 0x20 ADD DUP6 PUSH2 0x1BD1 JUMP JUMPDEST DUP3 DUP5 MSTORE PUSH1 0x20 DUP4 DUP4 ADD ADD GT PUSH2 0x23E JUMPI DUP2 PUSH1 0x0 SWAP3 PUSH1 0x20 DUP1 SWAP4 ADD DUP4 DUP7 ADD CALLDATACOPY DUP4 ADD ADD MSTORE SWAP1 JUMP JUMPDEST ISZERO PUSH2 0x1D4A JUMPI JUMP JUMPDEST PUSH1 0x40 MLOAD PUSH3 0x461BCD PUSH1 0xE5 SHL DUP2 MSTORE PUSH1 0x20 PUSH1 0x4 DUP3 ADD MSTORE PUSH1 0xA PUSH1 0x24 DUP3 ADD MSTORE PUSH10 0x27B7363C9037BBB732B9 PUSH1 0xB1 SHL PUSH1 0x44 DUP3 ADD MSTORE PUSH1 0x64 SWAP1 REVERT JUMPDEST ISZERO PUSH2 0x1D83 JUMPI JUMP JUMPDEST PUSH1 0x40 MLOAD PUSH3 0x461BCD PUSH1 0xE5 SHL DUP2 MSTORE PUSH1 0x20 PUSH1 0x4 DUP3 ADD MSTORE PUSH1 0xC PUSH1 0x24 DUP3 ADD MSTORE PUSH12 0x5A65726F2061646472657373 PUSH1 0xA0 SHL PUSH1 0x44 DUP3 ADD MSTORE PUSH1 0x64 SWAP1 REVERT JUMPDEST ISZERO PUSH2 0x1DBE JUMPI JUMP JUMPDEST PUSH1 0x40 MLOAD PUSH3 0x461BCD PUSH1 0xE5 SHL DUP2 MSTORE PUSH1 0x20 PUSH1 0x4 DUP3 ADD MSTORE PUSH1 0xF PUSH1 0x24 DUP3 ADD MSTORE PUSH15 0x125B9D985B1A59081C1C9BDA9958DD PUSH1 0x8A SHL PUSH1 0x44 DUP3 ADD MSTORE PUSH1 0x64 SWAP1 REVERT JUMPDEST ISZERO PUSH2 0x1DFC JUMPI JUMP JUMPDEST PUSH1 0x40 MLOAD PUSH3 0x461BCD PUSH1 0xE5 SHL DUP2 MSTORE PUSH1 0x20 PUSH1 0x4 DUP3 ADD MSTORE PUSH1 0x15 PUSH1 0x24 DUP3 ADD MSTORE PUSH21 0x496E73756666696369656E7420766F746520666565 PUSH1 0x58 SHL PUSH1 0x44 DUP3 ADD MSTORE PUSH1 0x64 SWAP1 REVERT JUMPDEST SWAP2 SWAP1 DUP3 ADD DUP1 SWAP3 GT PUSH2 0xF88 JUMPI JUMP JUMPDEST DUP1 SLOAD DUP3 LT ISZERO PUSH2 0x1B81 JUMPI PUSH1 0x0 MSTORE PUSH1 0x20 PUSH1 0x0 KECCAK256 SWAP1 PUSH1 0x2 SHL ADD SWAP1 PUSH1 0x0 SWAP1 JUMP JUMPDEST SWAP2 SWAP1 DUP3 SUB SWAP2 DUP3 GT PUSH2 0xF88 JUMPI JUMP JUMPDEST SWAP2 SWAP1 DUP3 ISZERO ISZERO DUP1 PUSH2 0x1EC7 JUMPI JUMPDEST PUSH2 0x1EBF JUMPI TIMESTAMP LT ISZERO DUP1 PUSH2 0x1EB5 JUMPI JUMPDEST PUSH2 0x1EAE JUMPI TIMESTAMP GT SWAP1 DUP2 PUSH2 0x1EA3 JUMPI JUMPDEST POP PUSH2 0x1E9E JUMPI PUSH1 0x0 SWAP1 JUMP JUMPDEST PUSH1 0x2 SWAP1 JUMP JUMPDEST SWAP1 POP TIMESTAMP GT ISZERO CODESIZE PUSH2 0x1E94 JUMP JUMPDEST POP POP PUSH1 0x1 SWAP1 JUMP JUMPDEST POP DUP1 TIMESTAMP GT ISZERO PUSH2 0x1E87 JUMP JUMPDEST POP POP POP PUSH1 0x3 SWAP1 JUMP JUMPDEST POP DUP3 TIMESTAMP GT PUSH2 0x1E7A JUMP INVALID LOG2 PUSH5 0x6970667358 0x22 SLT KECCAK256 DUP3 ADD BALANCE JUMPDEST SWAP9 0xCF 0xF7 0xF BYTE PUSH24 0x8E4904B12A2D57DD02AB49CDD73BC3037E755E843DA46473 PUSH16 0x6C634300081C00330000000000000000 "
        },
        "methodIdentifiers": {
          "accumulatedFees()": "587f5ed7",
          "addComment(uint256,string,uint8)": "44b76269",
          "commentFee()": "b40548dd",
          "createProject(string,string,string,string,string,string,address,uint256,uint256,uint256,uint256,uint256,uint256)": "9e5c5ff8",
          "donate(uint256)": "f14faf6f",
          "getComment(uint256,uint256)": "48892753",
          "getCommentsCount(uint256)": "4c9b78da",
          "getProjectsCount()": "e4a8f18b",
          "owner()": "8da5cb5b",
          "projectCount()": "36fbad26",
          "projects(uint256)": "107046bd",
          "setFees(uint256,uint256)": "0b78f9c0",
          "setProjectActive(uint256,bool)": "2f597db5",
          "voteFee()": "da2b4c1e",
          "voteTrust(uint256)": "2c871447",
          "voteWithdraw(uint256)": "272f04ab",
          "votedTrust(uint256,address)": "85576a31",
          "votedWithdraw(uint256,address)": "df3faafe",
          "withdraw(uint256,address,uint256)": "e63697c8",
          "withdrawFees(address)": "164e68de"
        }
      }
    }
  }
}