{
  "_format": "hh-sol-artifact-1",
  "contractName": "StudentStartupFund",
  "sourceName": "contracts/StudentStartupFund.sol",
  "abi": [
    {
      "inputs": [],
      "stateMutability": "nonpayable",
      "type": "constructor"
    },
    {
      "anonymous": false,
      "inputs": [
        {
          "indexed": true,
          "internalType": "uint256",
          "name": "projectId",
          "type": "uint256"
        },
        {
          "indexed": true,
          "internalType": "address",
          "name": "user",
          "type": "address"
        },
        {
          "indexed": false,
          "internalType": "uint8",
          "name": "rating",
          "type": "uint8"
        },
        {
          "indexed": false,
          "internalType": "string",
          "name": "content",
          "type": "string"
        }
      ],
      "name": "CommentAdded",
      "type": "event"
    },
    {
      "anonymous": false,
      "inputs": [
        {
          "indexed": true,
          "internalType": "uint256",
          "name": "projectId",
          "type": "uint256"
        },
        {
          "indexed": true,
          "internalType": "address",
          "name": "user",
          "type": "address"
        },
        {
          "indexed": false,
          "internalType": "uint256",
          "name": "amount",
          "type": "uint256"
        }
      ],
      "name": "DividendClaimed",
      "type": "event"
    },
    {
      "anonymous": false,
      "inputs": [
        {
          "indexed": true,
          "internalType": "uint256",
          "name": "projectId",
          "type": "uint256"
        },
        {
          "indexed": true,
          "internalType": "address",
          "name": "donor",
          "type": "address"
        },
        {
          "indexed": false,
          "internalType": "uint256",
          "name": "amount",
          "type": "uint256"
        }
      ],
      "name": "DonationReceived",
      "type": "event"
    },
    {
      "anonymous": false,
      "inputs": [
        {
          "indexed": true,
          "internalType": "uint256",
          "name": "projectId",
          "type": "uint256"
        },
        {
          "indexed": false,
          "internalType": "string",
          "name": "title",
          "type": "string"
        }
      ],
      "name": "ProjectCreated",
      "type": "event"
    },
    {
      "anonymous": false,
      "inputs": [
        {
          "indexed": true,
          "internalType": "uint256",
          "name": "projectId",
          "type": "uint256"
        },
        {
          "indexed": true,
          "internalType": "address",
          "name": "treasury",
          "type": "address"
        },
        {
          "indexed": false,
          "internalType": "uint256",
          "name": "treasuryAmount",
          "type": "uint256"
        },
        {
          "indexed": false,
          "internalType": "uint256",
          "name": "dividendPool",
          "type": "uint256"
        }
      ],
      "name": "ProjectDisbursed",
      "type": "event"
    },
    {
      "anonymous": false,
      "inputs": [
        {
          "indexed": true,
          "internalType": "uint256",
          "name": "projectId",
          "type": "uint256"
        },
        {
          "indexed": true,
          "internalType": "address",
          "name": "user",
          "type": "address"
        }
      ],
      "name": "VotedTrust",
      "type": "event"
    },
    {
      "anonymous": false,
      "inputs": [
        {
          "indexed": true,
          "internalType": "uint256",
          "name": "projectId",
          "type": "uint256"
        },
        {
          "indexed": true,
          "internalType": "address",
          "name": "user",
          "type": "address"
        }
      ],
      "name": "VotedWithdraw",
      "type": "event"
    },
    {
      "anonymous": false,
      "inputs": [
        {
          "indexed": true,
          "internalType": "uint256",
          "name": "projectId",
          "type": "uint256"
        },
        {
          "indexed": true,
          "internalType": "address",
          "name": "to",
          "type": "address"
        },
        {
          "indexed": false,
          "internalType": "uint256",
          "name": "amount",
          "type": "uint256"
        }
      ],
      "name": "Withdrawn",
      "type": "event"
    },
    {
      "inputs": [
        {
          "internalType": "uint256",
          "name": "projectId",
          "type": "uint256"
        },
        {
          "internalType": "string",
          "name": "content",
          "type": "string"
        },
        {
          "internalType": "uint8",
          "name": "rating",
          "type": "uint8"
        }
      ],
      "name": "addComment",
      "outputs": [],
      "stateMutability": "nonpayable",
      "type": "function"
    },
    {
      "inputs": [
        {
          "internalType": "uint256",
          "name": "projectId",
          "type": "uint256"
        }
      ],
      "name": "claimDividends",
      "outputs": [],
      "stateMutability": "nonpayable",
      "type": "function"
    },
    {
      "inputs": [
        {
          "internalType": "uint256",
          "name": "",
          "type": "uint256"
        },
        {
          "internalType": "address",
          "name": "",
          "type": "address"
        }
      ],
      "name": "claimedDividends",
      "outputs": [
        {
          "internalType": "uint256",
          "name": "",
          "type": "uint256"
        }
      ],
      "stateMutability": "view",
      "type": "function"
    },
    {
      "inputs": [
        {
          "internalType": "string",
          "name": "title",
          "type": "string"
        },
        {
          "internalType": "string",
          "name": "description",
          "type": "string"
        },
        {
          "internalType": "string",
          "name": "image",
          "type": "string"
        },
        {
          "internalType": "string",
          "name": "teamJson",
          "type": "string"
        },
        {
          "internalType": "string",
          "name": "tokenName",
          "type": "string"
        },
        {
          "internalType": "string",
          "name": "tokenSymbol",
          "type": "string"
        },
        {
          "internalType": "address",
          "name": "tokenAddress",
          "type": "address"
        },
        {
          "internalType": "uint256",
          "name": "tokenPrice",
          "type": "uint256"
        },
        {
          "internalType": "uint256",
          "name": "goal",
          "type": "uint256"
        },
        {
          "internalType": "uint256",
          "name": "projectStart",
          "type": "uint256"
        },
        {
          "internalType": "uint256",
          "name": "projectEnd",
          "type": "uint256"
        },
        {
          "internalType": "uint256",
          "name": "iocStart",
          "type": "uint256"
        },
        {
          "internalType": "uint256",
          "name": "iocEnd",
          "type": "uint256"
        }
      ],
      "name": "createProject",
      "outputs": [
        {
          "internalType": "uint256",
          "name": "",
          "type": "uint256"
        }
      ],
      "stateMutability": "nonpayable",
      "type": "function"
    },
    {
      "inputs": [
        {
          "internalType": "uint256",
          "name": "projectId",
          "type": "uint256"
        }
      ],
      "name": "donate",
      "outputs": [],
      "stateMutability": "payable",
      "type": "function"
    },
    {
      "inputs": [
        {
          "internalType": "uint256",
          "name": "",
          "type": "uint256"
        },
        {
          "internalType": "address",
          "name": "",
          "type": "address"
        }
      ],
      "name": "donatedByUser",
      "outputs": [
        {
          "internalType": "uint256",
          "name": "",
          "type": "uint256"
        }
      ],
      "stateMutability": "view",
      "type": "function"
    },
    {
      "inputs": [
        {
          "internalType": "uint256",
          "name": "projectId",
          "type": "uint256"
        },
        {
          "internalType": "address payable",
          "name": "treasury",
          "type": "address"
        },
        {
          "internalType": "uint256",
          "name": "dividendAmount",
          "type": "uint256"
        }
      ],
      "name": "finalizeDividends",
      "outputs": [],
      "stateMutability": "nonpayable",
      "type": "function"
    },
    {
      "inputs": [
        {
          "internalType": "uint256",
          "name": "projectId",
          "type": "uint256"
        },
        {
          "internalType": "address",
          "name": "user",
          "type": "address"
        }
      ],
      "name": "getClaimableDividends",
      "outputs": [
        {
          "internalType": "uint256",
          "name": "",
          "type": "uint256"
        }
      ],
      "stateMutability": "view",
      "type": "function"
    },
    {
      "inputs": [
        {
          "internalType": "uint256",
          "name": "projectId",
          "type": "uint256"
        },
        {
          "internalType": "uint256",
          "name": "index",
          "type": "uint256"
        }
      ],
      "name": "getComment",
      "outputs": [
        {
          "internalType": "address",
          "name": "user",
          "type": "address"
        },
        {
          "internalType": "string",
          "name": "content",
          "type": "string"
        },
        {
          "internalType": "uint8",
          "name": "rating",
          "type": "uint8"
        },
        {
          "internalType": "uint256",
          "name": "timestamp",
          "type": "uint256"
        }
      ],
      "stateMutability": "view",
      "type": "function"
    },
    {
      "inputs": [
        {
          "internalType": "uint256",
          "name": "projectId",
          "type": "uint256"
        }
      ],
      "name": "getCommentsCount",
      "outputs": [
        {
          "internalType": "uint256",
          "name": "",
          "type": "uint256"
        }
      ],
      "stateMutability": "view",
      "type": "function"
    },
    {
      "inputs": [],
      "name": "getProjectsCount",
      "outputs": [
        {
          "internalType": "uint256",
          "name": "",
          "type": "uint256"
        }
      ],
      "stateMutability": "view",
      "type": "function"
    },
    {
      "inputs": [],
      "name": "owner",
      "outputs": [
        {
          "internalType": "address",
          "name": "",
          "type": "address"
        }
      ],
      "stateMutability": "view",
      "type": "function"
    },
    {
      "inputs": [],
      "name": "projectCount",
      "outputs": [
        {
          "internalType": "uint256",
          "name": "",
          "type": "uint256"
        }
      ],
      "stateMutability": "view",
      "type": "function"
    },
    {
      "inputs": [
        {
          "internalType": "uint256",
          "name": "",
          "type": "uint256"
        }
      ],
      "name": "projects",
      "outputs": [
        {
          "internalType": "uint256",
          "name": "id",
          "type": "uint256"
        },
        {
          "internalType": "string",
          "name": "title",
          "type": "string"
        },
        {
          "internalType": "string",
          "name": "description",
          "type": "string"
        },
        {
          "internalType": "string",
          "name": "image",
          "type": "string"
        },
        {
          "internalType": "string",
          "name": "teamJson",
          "type": "string"
        },
        {
          "internalType": "string",
          "name": "tokenName",
          "type": "string"
        },
        {
          "internalType": "string",
          "name": "tokenSymbol",
          "type": "string"
        },
        {
          "internalType": "address",
          "name": "tokenAddress",
          "type": "address"
        },
        {
          "internalType": "uint256",
          "name": "tokenPrice",
          "type": "uint256"
        },
        {
          "internalType": "uint256",
          "name": "goal",
          "type": "uint256"
        },
        {
          "internalType": "uint256",
          "name": "totalDonated",
          "type": "uint256"
        },
        {
          "internalType": "uint256",
          "name": "projectStart",
          "type": "uint256"
        },
        {
          "internalType": "uint256",
          "name": "projectEnd",
          "type": "uint256"
        },
        {
          "internalType": "uint256",
          "name": "iocStart",
          "type": "uint256"
        },
        {
          "internalType": "uint256",
          "name": "iocEnd",
          "type": "uint256"
        },
        {
          "internalType": "uint256",
          "name": "trustVotes",
          "type": "uint256"
        },
        {
          "internalType": "uint256",
          "name": "withdrawVotes",
          "type": "uint256"
        },
        {
          "internalType": "enum StudentStartupFund.ProjectStatus",
          "name": "status",
          "type": "uint8"
        },
        {
          "internalType": "bool",
          "name": "active",
          "type": "bool"
        },
        {
          "internalType": "uint256",
          "name": "dividendPool",
          "type": "uint256"
        },
        {
          "internalType": "uint256",
          "name": "dividendDenominator",
          "type": "uint256"
        },
        {
          "internalType": "bool",
          "name": "dividendsFinalized",
          "type": "bool"
        }
      ],
      "stateMutability": "view",
      "type": "function"
    },
    {
      "inputs": [
        {
          "internalType": "uint256",
          "name": "projectId",
          "type": "uint256"
        },
        {
          "internalType": "bool",
          "name": "active",
          "type": "bool"
        }
      ],
      "name": "setProjectActive",
      "outputs": [],
      "stateMutability": "nonpayable",
      "type": "function"
    },
    {
      "inputs": [
        {
          "internalType": "uint256",
          "name": "projectId",
          "type": "uint256"
        }
      ],
      "name": "voteTrust",
      "outputs": [],
      "stateMutability": "nonpayable",
      "type": "function"
    },
    {
      "inputs": [
        {
          "internalType": "uint256",
          "name": "projectId",
          "type": "uint256"
        }
      ],
      "name": "voteWithdraw",
      "outputs": [],
      "stateMutability": "nonpayable",
      "type": "function"
    },
    {
      "inputs": [
        {
          "internalType": "uint256",
          "name": "",
          "type": "uint256"
        },
        {
          "internalType": "address",
          "name": "",
          "type": "address"
        }
      ],
      "name": "votedTrust",
      "outputs": [
        {
          "internalType": "bool",
          "name": "",
          "type": "bool"
        }
      ],
      "stateMutability": "view",
      "type": "function"
    },
    {
      "inputs": [
        {
          "internalType": "uint256",
          "name": "",
          "type": "uint256"
        },
        {
          "internalType": "address",
          "name": "",
          "type": "address"
        }
      ],
      "name": "votedWithdraw",
      "outputs": [
        {
          "internalType": "bool",
          "name": "",
          "type": "bool"
        }
      ],
      "stateMutability": "view",
      "type": "function"
    },
    {
      "inputs": [
        {
          "internalType": "uint256",
          "name": "projectId",
          "type": "uint256"
        },
        {
          "internalType": "address payable",
          "name": "to",
          "type": "address"
        },
        {
          "internalType": "uint256",
          "name": "amount",
          "type": "uint256"
        }
      ],
      "name": "withdraw",
      "outputs": [],
      "stateMutability": "nonpayable",
      "type": "function"
    }
  ],
  "bytecode": "0x60808060405234602757600080546001600160a01b03191633179055612338908161002d8239f35b600080fdfe6101a0604052600436101561001357600080fd5b60003560e01c8063107046bd14611aa3578063272f04ab1461192e5780632c871447146118285780632f597db5146117ac57806336fbad261461178e57806344b762691461146f578063488927531461139a5780634c9b78da146113615780637ed28f0c1461131957806385576a31146112cc5780638da5cb5b146112a35780639e5c5ff81461069e578063a3cac8a3146104af578063bd7047c4146103cb578063c40619c61461038f578063cff6356714610347578063df3faafe146102fa578063e4a8f18b146102dc578063e63697c8146101e65763f14faf6f146100f957600080fd5b60203660031901126101e1576004356101156001548210611f2a565b610120341515612260565b600a61012b82611d13565b5061013f60ff601183015460081c16611f68565b61015060ff60148301541615611fa7565b600d810154421015806101d3575b61016790612030565b01610173348254612023565b9055806000526004602052604060002060018060a01b03331660005260205260406000206101a2348254612023565b9055604051903482527f0b5b4c52969ff7329ecf7ee536409fda87812b15a8622bc6e8cdeab3aee14a2660203393a3005b50600e81015442111561015e565b600080fd5b346101e1576101f436611f00565b919061020b60018060a01b0360005416331461206e565b6102186001548310611f2a565b6001600160a01b03169161022d8315156120c3565b610238811515612260565b4781116102a05760207fcf7d23a3cbe4e8b36ff82fd1b05b1b17373dc7804b4ebbd6e2356716ef2023729161027d60ff601461027387611d13565b5001541615611fa7565b6102976000808080858a5af161029161210b565b5061213b565b604051908152a3005b60405162461bcd60e51b8152602060048201526014602482015273496e73756666696369656e742062616c616e636560601b6044820152606490fd5b346101e15760003660031901126101e1576020600154604051908152f35b346101e15760403660031901126101e157610313611eea565b600435600052600760205260406000209060018060a01b0316600052602052602060ff604060002054166040519015158152f35b346101e15760403660031901126101e157610360611eea565b600435600052600560205260406000209060018060a01b03166000526020526020604060002054604051908152f35b346101e15760403660031901126101e15760206103c36004356103b0611eea565b906103be6001548210611f2a565b612179565b604051908152f35b346101e15760203660031901126101e1576004356103f560015482106103f081611f2a565b611f2a565b6103ff3382612179565b90811561047757806000526005602052604060002060018060a01b0333166000526020526040600020610433838254612023565b9055610449600080808086335af161029161210b565b6040519182527fa1594d215a577c1905bcb0b5b186a40a0104714277441d4b2ac428c89bf7f4b160203393a3005b60405162461bcd60e51b815260206004820152601060248201526f4e6f7468696e6720746f20636c61696d60801b6044820152606490fd5b346101e1576104bd36611f00565b91906104d460018060a01b0360005416331461206e565b6104e16001548310611f2a565b6104ea82611d13565b5092601484019182549061050160ff831615611fa7565b600e860154421115610669576001600160a01b0316946105228615156120c3565b600a810154938415610631578484116105f457600160119361054486886120fe565b96866012860155601385015560ff19161790550161ff0019815416905581610599575b7fc33b9c84de8be0e2db6e7d47f37c842a16cf90a91afd0329363b576ea8efac7d9160409182519182526020820152a3005b600080808085885af16105aa61210b565b506105675760405162461bcd60e51b815260206004820152601860248201527f5472656173757279207472616e73666572206661696c656400000000000000006044820152606490fd5b60405162461bcd60e51b8152602060048201526015602482015274115e18d959591cc81d1bdd185b08191bdb985d1959605a1b6044820152606490fd5b60405162461bcd60e51b815260206004820152601060248201526f139bc8191bdb985d1a5bdb9cc81e595d60821b6044820152606490fd5b60405162461bcd60e51b815260206004820152600d60248201526c1253d0c81b9bdd08195b991959609a1b6044820152606490fd5b346101e1576101a03660031901126101e1576004356001600160401b0381116101e1576106cf903690600401611ea3565b6024356001600160401b0381116101e1576106ee903690600401611ea3565b906044356001600160401b0381116101e15761070e903690600401611ea3565b906064356001600160401b0381116101e15761072e903690600401611ea3565b916084356001600160401b0381116101e15761074e903690600401611ea3565b60a4356001600160401b0381116101e15761076d903690600401611ea3565b60c4356001600160a01b038116908190036101e1576101043561012435906101443592610164359461018435966107af60018060a01b0360005416331461206e565b878787878d511561126d5787156112355715908161122c575b50611214575b15908161120b575b506111dd575b878710156111a65785851161116a576001549a6107fa8989896122a1565b996040519d8e6102c081019081106001600160401b03821117610d33578f90918f8f90606094604052835260208301526040820152015260808d015260a08c015260c08b015260e08a015260e4356101008a015261012089015260006101408901526101608801526101808701526101a08601526101c085015260006101e085015260006102008501526005811015610c4e5761022084015260016102408401526000610260840152600061028084015260006102a0840152600160401b821015610d3357600182016001556108cf82611d13565b611154578351815560208401518051906001600160401b038211610d335781906108fc6001850154611d48565b601f8111611101575b50602090601f831160011461109057600092611085575b50508160011b916000199060031b1c19161760018201555b60408401518051906001600160401b038211610d335781906109596002850154611d48565b601f8111611032575b50602090601f8311600114610fc157600092610fb6575b50508160011b916000199060031b1c19161760028201555b60608401518051906001600160401b038211610d335781906109b66003850154611d48565b601f8111610f63575b50602090601f8311600114610ef257600092610ee7575b50508160011b916000199060031b1c19161760038201555b60808401518051906001600160401b038211610d33578190610a136004850154611d48565b601f8111610e94575b50602090601f8311600114610e2357600092610e18575b50508160011b916000199060031b1c19161760048201555b60a08401518051906001600160401b038211610d33578190610a706005850154611d48565b601f8111610dc5575b50602090601f8311600114610d5457600092610d49575b50508160011b916000199060031b1c19161760058201555b60c08401518051906001600160401b038211610d33578190610acd6006850154611d48565b601f8111610ce0575b50602090601f8311600114610c6f57600092610c64575b50508160011b916000199060031b1c19161760068201555b60e08401516007820180546001600160a01b0319166001600160a01b039290921691909117905561010084015160088201556101208401516009820155610140840151600a820155610160840151600b820155610180840151600c8201556101a0840151600d8201556101c0840151600e8201556101e0840151600f8201556102008401516010820155610220840151916011820191906005841015610c4e576020956102a06014610c4394610c037fed06d1e70f1faa0e1750def1b3a1d942390a8f47d03679c9025a1c38dc34fe7b978a9960ff80198354169116178155610240860151151561ff00825491151560081b169061ff001916179055565b6102608401516012820155610280840151601382015501910151151560ff8019835416911617905560015460025560405191829187835287830190611e47565b0390a2604051908152f35b634e487b7160e01b600052602160045260246000fd5b015190508680610aed565b92506006840160005280600020906000935b601f1984168510610cc5576001945083601f19811610610cac575b505050811b016006820155610b05565b015160001960f88460031b161c19169055868080610c9c565b81810151835560209485019460019093019290910190610c81565b909150600684016000526020600020601f840160051c810160208510610d2c575b90849392915b601f830160051c82018110610d1d575050610ad6565b60008155859450600101610d07565b5080610d01565b634e487b7160e01b600052604160045260246000fd5b015190508680610a90565b92506005840160005280600020906000935b601f1984168510610daa576001945083601f19811610610d91575b505050811b016005820155610aa8565b015160001960f88460031b161c19169055868080610d81565b81810151835560209485019460019093019290910190610d66565b909150600584016000526020600020601f840160051c810160208510610e11575b90849392915b601f830160051c82018110610e02575050610a79565b60008155859450600101610dec565b5080610de6565b015190508680610a33565b92506004840160005280600020906000935b601f1984168510610e79576001945083601f19811610610e60575b505050811b016004820155610a4b565b015160001960f88460031b161c19169055868080610e50565b81810151835560209485019460019093019290910190610e35565b909150600484016000526020600020601f840160051c810160208510610ee0575b90849392915b601f830160051c82018110610ed1575050610a1c565b60008155859450600101610ebb565b5080610eb5565b0151905086806109d6565b92506003840160005280600020906000935b601f1984168510610f48576001945083601f19811610610f2f575b505050811b0160038201556109ee565b015160001960f88460031b161c19169055868080610f1f565b81810151835560209485019460019093019290910190610f04565b909150600384016000526020600020601f840160051c810160208510610faf575b90849392915b601f830160051c82018110610fa05750506109bf565b60008155859450600101610f8a565b5080610f84565b015190508680610979565b92506002840160005280600020906000935b601f1984168510611017576001945083601f19811610610ffe575b505050811b016002820155610991565b015160001960f88460031b161c19169055868080610fee565b81810151835560209485019460019093019290910190610fd3565b909150600284016000526020600020601f840160051c81016020851061107e575b90849392915b601f830160051c8201811061106f575050610962565b60008155859450600101611059565b5080611053565b01519050868061091c565b92506001840160005280600020906000935b601f19841685106110e6576001945083601f198116106110cd575b505050811b016001820155610934565b015160001960f88460031b161c191690558680806110bd565b818101518355602094850194600190930192909101906110a2565b909150600184016000526020600020601f840160051c81016020851061114d575b90849392915b601f830160051c8201811061113e575050610905565b60008155859450600101611128565b5080611122565b634e487b7160e01b600052600060045260246000fd5b60405162461bcd60e51b8152602060048201526014602482015273141c9bda9958dd081cdd185c9d080f0f48195b9960621b6044820152606490fd5b60405162461bcd60e51b815260206004820152600f60248201526e1253d0c81cdd185c9d080f08195b99608a1b6044820152606490fd5b965042955062278d0086018087116111f557966107dc565b634e487b7160e01b600052601160045260246000fd5b9050158d6107d6565b96504295506276a70086018087116111f557966107ce565b9050158f6107c8565b60405162461bcd60e51b815260206004820152601060248201526f0476f616c206d757374206265203e20360841b6044820152606490fd5b60405162461bcd60e51b815260206004820152600e60248201526d151a5d1b19481c995c5d5a5c995960921b6044820152606490fd5b346101e15760003660031901126101e1576000546040516001600160a01b039091168152602090f35b346101e15760403660031901126101e1576112e5611eea565b600435600052600660205260406000209060018060a01b0316600052602052602060ff604060002054166040519015158152f35b346101e15760403660031901126101e157611332611eea565b600435600052600460205260406000209060018060a01b03166000526020526020604060002054604051908152f35b346101e15760203660031901126101e1576004356113826001548210611f2a565b60005260036020526020604060002054604051908152f35b346101e15760403660031901126101e1576004356024356113be6001548310611f2a565b81600052600360205260406000205481101561143a576113ea91600052600360205260406000206120a7565b5060018060a01b0381541660ff60028301541661140e600160038501549401611da3565b9261142b6040519485948552608060208601526080850190611e47565b91604084015260608301520390f35b60405162461bcd60e51b815260206004820152600d60248201526c092dcecc2d8d2c840d2dcc8caf609b1b6044820152606490fd5b346101e15760603660031901126101e1576004356024356001600160401b0381116101e1576114a2903690600401611ea3565b6044359160ff83168093036101e1576114be6001548210611f2a565b8151156117565760018310158061174b575b15611711576114f160ff60116114e584611d13565b50015460081c16611f68565b806000526003602052604060002092604051608081018181106001600160401b03821117610d335760405233815260208101948486526040820183815260608301914283528054600160401b811015610d3357611553916001820181556120a7565b939093611154575183546001600160a01b0319166001600160a01b03919091161783559551805190969060018401906001600160401b038111610d335761159a8254611d48565b601f81116116c9575b506020601f821160011461163c5790806003959493927f75af7a249fd33f32da5aebdf42415cf43a79f1a958cb5d25980d825bb6c4a541999a9b600092611631575b50508160011b9160001990871b1c19161790555b60ff6002850191511660ff1982541617905551910155604051908152604060208201528061162c33956040830190611e47565b0390a3005b015190508b806115e5565b601f1982169983600052816000209a60005b8181106116b157509a60019284926003989796957f75af7a249fd33f32da5aebdf42415cf43a79f1a958cb5d25980d825bb6c4a5419c9d9e10611699575b505050811b0190556115f9565b015160001983891b60f8161c191690558b808061168c565b838301518d556001909c019b6020938401930161164e565b826000526020600020601f830160051c81019160208410611707575b601f0160051c01905b8181106116fb57506115a3565b600081556001016116ee565b90915081906116e5565b60405162461bcd60e51b8152602060048201526012602482015271526174696e67206d75737420626520312d3560701b6044820152606490fd5b5060058311156114d0565b60405162461bcd60e51b815260206004820152601060248201526f10dbdb9d195b9d081c995c5d5a5c995960821b6044820152606490fd5b346101e15760003660031901126101e1576020600254604051908152f35b346101e15760403660031901126101e15760043560243580151581036101e157601161180c611826936117ea60018060a01b0360005416331461206e565b6117f76001548210611f2a565b61180760ff601461027384611d13565b611d13565b50019061ff00825491151560081b169061ff001916179055565b005b346101e15760203660031901126101e1576004356118496001548210611f2a565b61188f61185582611d13565b5061186960ff601183015460081c16611f68565b61187a60ff60148301541615611fa7565b600d810154421015908161191f575b50612030565b60008181526006602090815260408083203384529091529020546118b69060ff1615611fe7565b60008181526006602090815260408083203384529091529020805460ff19166001179055600f6118e582611d13565b5001805490600182018092116111f5575533907fb31d078aff93840e07bd4feb45e413ef1141e91543e8f7c6f7e17b18963319b0600080a3005b600e9150015442111583611889565b346101e15760203660031901126101e15760043561194f6001548210611f2a565b600e61195a82611d13565b5061196e60ff601183015460081c16611f68565b61197f60ff60148301541615611fa7565b0154421115611a6a57600081815260046020908152604080832033845290915290205415611a375760008181526007602090815260408083203384529091529020546119ce9060ff1615611fe7565b60008181526007602090815260408083203384529091529020805460ff1916600117905560106119fd82611d13565b5001805490600182018092116111f5575533907f5e3e2b315b7a0c8f5b16c6826fea3480c2b34a38cee053a916bd6bc4569756f0600080a3005b60405162461bcd60e51b815260206004820152600b60248201526a2737ba1030903237b737b960a91b6044820152606490fd5b60405162461bcd60e51b81526020600482015260116024820152701253d0c81b9bdd08195b991959081e595d607a1b6044820152606490fd5b346101e15760203660031901126101e1576004356001548110156101e157611aca90611d13565b9061018052506101805154611ae460016101805101611da3565b61012052611af760026101805101611da3565b61014052611b0a60036101805101611da3565b90611b1a60046101805101611da3565b91611b2a60056101805101611da3565b92611b3a60066101805101611da3565b9360018060a01b03600761018051015416610160526008610180510154946009610180510154600a610180510154600b61018051015491611c60600c61018051015494611c4e600d61018051015497611c3d600e6101805101549a611c2b600f6101805101549d60106101805101549f6011610180510154610100526012610180510154608052601361018051015460c05260ff60146101805101541660e05260405160a05260a051526102c0602060a0510152611c19611c046102c060a0510161012051611e47565b60a0518103604060a051015261014051611e47565b9060a0518203606060a0510152611e47565b9060a0518203608060a0510152611e47565b9060a051820360a080510152611e47565b9060a051820360c060a0510152611e47565b986101605160e060a051015261010060a051015261012060a051015261014060a051015261016060a051015261018060a05101526101a060a05101526101c060a05101526101e060a051015261020060a0510152600560ff61010051161015610c4e5760ff610100511661022060a051015260ff6101005160081c16151561024060a051015260805161026060a051015260c05161028060a051015260e05115156102a060a051015260a051900360a051f35b600154811015611d325760016000526015602060002091020190600090565b634e487b7160e01b600052603260045260246000fd5b90600182811c92168015611d78575b6020831014611d6257565b634e487b7160e01b600052602260045260246000fd5b91607f1691611d57565b90601f801991011681019081106001600160401b03821117610d3357604052565b9060405191826000825492611db784611d48565b8084529360018116908115611e255750600114611dde575b50611ddc92500383611d82565b565b90506000929192526020600020906000915b818310611e09575050906020611ddc9282010138611dcf565b6020919350806001915483858901015201910190918492611df0565b905060209250611ddc94915060ff191682840152151560051b82010138611dcf565b919082519283825260005b848110611e73575050826000602080949584010152601f8019910116010190565b80602080928401015182828601015201611e52565b6001600160401b038111610d3357601f01601f191660200190565b81601f820112156101e157803590611eba82611e88565b92611ec86040519485611d82565b828452602083830101116101e157816000926020809301838601378301015290565b602435906001600160a01b03821682036101e157565b60609060031901126101e157600435906024356001600160a01b03811681036101e1579060443590565b15611f3157565b60405162461bcd60e51b815260206004820152600f60248201526e125b9d985b1a59081c1c9bda9958dd608a1b6044820152606490fd5b15611f6f57565b60405162461bcd60e51b815260206004820152601060248201526f50726f6a65637420696e61637469766560801b6044820152606490fd5b15611fae57565b60405162461bcd60e51b8152602060048201526011602482015270105b1c9958591e48199a5b985b1a5e9959607a1b6044820152606490fd5b15611fee57565b60405162461bcd60e51b815260206004820152600d60248201526c105b1c9958591e481d9bdd1959609a1b6044820152606490fd5b919082018092116111f557565b1561203757565b60405162461bcd60e51b815260206004820152600f60248201526e4e6f7420696e20494f432074696d6560881b6044820152606490fd5b1561207557565b60405162461bcd60e51b815260206004820152600a60248201526927b7363c9037bbb732b960b11b6044820152606490fd5b8054821015611d325760005260206000209060021b0190600090565b156120ca57565b60405162461bcd60e51b815260206004820152600c60248201526b5a65726f206164647265737360a01b6044820152606490fd5b919082039182116111f557565b3d15612136573d9061211c82611e88565b9161212a6040519384611d82565b82523d6000602084013e565b606090565b1561214257565b60405162461bcd60e51b815260206004820152600f60248201526e151c985b9cd9995c8819985a5b1959608a1b6044820152606490fd5b9061218382611d13565b5060ff60148201541615612258576012810154908115801561224c575b61224357836000526004602052604060002060018060a01b03841660005260205260406000205491821561223957808302928304036111f55760130154908115612223570491600052600560205260406000209060018060a01b03166000526020526040600020548082111561221c57612219916120fe565b90565b5050600090565b634e487b7160e01b600052601260045260246000fd5b5050505050600090565b50505050600090565b506013810154156121a0565b505050600090565b1561226757565b60405162461bcd60e51b81526020600482015260126024820152710416d6f756e74206d757374206265203e20360741b6044820152606490fd5b9190821515806122f9575b6122f157421015806122e7575b6122e057421190816122d5575b506122d057600090565b600290565b9050421115386122c6565b5050600190565b50804211156122b9565b505050600390565b508242116122ac56fea264697066735822122089a9f72cef76203324e87b522b067bee8fd127aab3b7cbad84ce40ac3849acf864736f6c634300081c0033",
  "linkReferences": {},
  "deployedLinkReferences": {}
}