{
  "_format": "hh-sol-artifact-1",
  "contractName": "StudentStartupFund",
  "sourceName": "contracts/StudentStartupFund.sol",
  "abi": [
    {
      "inputs": [],
      "stateMutability": "nonpayable",
      "type": "constructor"
    },
    {
      "anonymous": false,
      "inputs": [
        {
          "indexed": true,
          "internalType": "uint256",
          "name": "projectId",
          "type": "uint256"
        },
        {
          "indexed": true,
          "internalType": "address",
          "name": "user",
          "type": "address"
        },
        {
          "indexed": false,
          "internalType": "uint8",
          "name": "rating",
          "type": "uint8"
        },
        {
          "indexed": false,
          "internalType": "string",
          "name": "content",
          "type": "string"
        }
      ],
      "name": "CommentAdded",
      "type": "event"
    },
    {
      "anonymous": false,
      "inputs": [
        {
          "indexed": true,
          "internalType": "uint256",
          "name": "projectId",
          "type": "uint256"
        },
        {
          "indexed": true,
          "internalType": "address",
          "name": "donor",
          "type": "address"
        },
        {
          "indexed": false,
          "internalType": "uint256",
          "name": "amount",
          "type": "uint256"
        }
      ],
      "name": "DonationReceived",
      "type": "event"
    },
    {
      "anonymous": false,
      "inputs": [
        {
          "indexed": true,
          "internalType": "uint256",
          "name": "projectId",
          "type": "uint256"
        },
        {
          "indexed": false,
          "internalType": "string",
          "name": "title",
          "type": "string"
        }
      ],
      "name": "ProjectCreated",
      "type": "event"
    },
    {
      "anonymous": false,
      "inputs": [
        {
          "indexed": true,
          "internalType": "uint256",
          "name": "projectId",
          "type": "uint256"
        },
        {
          "indexed": true,
          "internalType": "address",
          "name": "user",
          "type": "address"
        }
      ],
      "name": "VotedTrust",
      "type": "event"
    },
    {
      "anonymous": false,
      "inputs": [
        {
          "indexed": true,
          "internalType": "uint256",
          "name": "projectId",
          "type": "uint256"
        },
        {
          "indexed": true,
          "internalType": "address",
          "name": "user",
          "type": "address"
        }
      ],
      "name": "VotedWithdraw",
      "type": "event"
    },
    {
      "anonymous": false,
      "inputs": [
        {
          "indexed": true,
          "internalType": "uint256",
          "name": "projectId",
          "type": "uint256"
        },
        {
          "indexed": true,
          "internalType": "address",
          "name": "to",
          "type": "address"
        },
        {
          "indexed": false,
          "internalType": "uint256",
          "name": "amount",
          "type": "uint256"
        }
      ],
      "name": "Withdrawn",
      "type": "event"
    },
    {
      "inputs": [
        {
          "internalType": "uint256",
          "name": "projectId",
          "type": "uint256"
        },
        {
          "internalType": "string",
          "name": "content",
          "type": "string"
        },
        {
          "internalType": "uint8",
          "name": "rating",
          "type": "uint8"
        }
      ],
      "name": "addComment",
      "outputs": [],
      "stateMutability": "nonpayable",
      "type": "function"
    },
    {
      "inputs": [
        {
          "internalType": "string",
          "name": "title",
          "type": "string"
        },
        {
          "internalType": "string",
          "name": "description",
          "type": "string"
        },
        {
          "internalType": "string",
          "name": "image",
          "type": "string"
        },
        {
          "internalType": "string",
          "name": "teamJson",
          "type": "string"
        },
        {
          "internalType": "string",
          "name": "tokenName",
          "type": "string"
        },
        {
          "internalType": "string",
          "name": "tokenSymbol",
          "type": "string"
        },
        {
          "internalType": "address",
          "name": "tokenAddress",
          "type": "address"
        },
        {
          "internalType": "uint256",
          "name": "tokenPrice",
          "type": "uint256"
        },
        {
          "internalType": "uint256",
          "name": "goal",
          "type": "uint256"
        },
        {
          "internalType": "uint256",
          "name": "projectStart",
          "type": "uint256"
        },
        {
          "internalType": "uint256",
          "name": "projectEnd",
          "type": "uint256"
        },
        {
          "internalType": "uint256",
          "name": "iocStart",
          "type": "uint256"
        },
        {
          "internalType": "uint256",
          "name": "iocEnd",
          "type": "uint256"
        }
      ],
      "name": "createProject",
      "outputs": [
        {
          "internalType": "uint256",
          "name": "",
          "type": "uint256"
        }
      ],
      "stateMutability": "nonpayable",
      "type": "function"
    },
    {
      "inputs": [
        {
          "internalType": "uint256",
          "name": "projectId",
          "type": "uint256"
        }
      ],
      "name": "donate",
      "outputs": [],
      "stateMutability": "payable",
      "type": "function"
    },
    {
      "inputs": [
        {
          "internalType": "uint256",
          "name": "projectId",
          "type": "uint256"
        },
        {
          "internalType": "uint256",
          "name": "index",
          "type": "uint256"
        }
      ],
      "name": "getComment",
      "outputs": [
        {
          "internalType": "address",
          "name": "user",
          "type": "address"
        },
        {
          "internalType": "string",
          "name": "content",
          "type": "string"
        },
        {
          "internalType": "uint8",
          "name": "rating",
          "type": "uint8"
        },
        {
          "internalType": "uint256",
          "name": "timestamp",
          "type": "uint256"
        }
      ],
      "stateMutability": "view",
      "type": "function"
    },
    {
      "inputs": [
        {
          "internalType": "uint256",
          "name": "projectId",
          "type": "uint256"
        }
      ],
      "name": "getCommentsCount",
      "outputs": [
        {
          "internalType": "uint256",
          "name": "",
          "type": "uint256"
        }
      ],
      "stateMutability": "view",
      "type": "function"
    },
    {
      "inputs": [],
      "name": "getProjectsCount",
      "outputs": [
        {
          "internalType": "uint256",
          "name": "",
          "type": "uint256"
        }
      ],
      "stateMutability": "view",
      "type": "function"
    },
    {
      "inputs": [],
      "name": "owner",
      "outputs": [
        {
          "internalType": "address",
          "name": "",
          "type": "address"
        }
      ],
      "stateMutability": "view",
      "type": "function"
    },
    {
      "inputs": [],
      "name": "projectCount",
      "outputs": [
        {
          "internalType": "uint256",
          "name": "",
          "type": "uint256"
        }
      ],
      "stateMutability": "view",
      "type": "function"
    },
    {
      "inputs": [
        {
          "internalType": "uint256",
          "name": "",
          "type": "uint256"
        }
      ],
      "name": "projects",
      "outputs": [
        {
          "internalType": "uint256",
          "name": "id",
          "type": "uint256"
        },
        {
          "internalType": "string",
          "name": "title",
          "type": "string"
        },
        {
          "internalType": "string",
          "name": "description",
          "type": "string"
        },
        {
          "internalType": "string",
          "name": "image",
          "type": "string"
        },
        {
          "internalType": "string",
          "name": "teamJson",
          "type": "string"
        },
        {
          "internalType": "string",
          "name": "tokenName",
          "type": "string"
        },
        {
          "internalType": "string",
          "name": "tokenSymbol",
          "type": "string"
        },
        {
          "internalType": "address",
          "name": "tokenAddress",
          "type": "address"
        },
        {
          "internalType": "uint256",
          "name": "tokenPrice",
          "type": "uint256"
        },
        {
          "internalType": "uint256",
          "name": "goal",
          "type": "uint256"
        },
        {
          "internalType": "uint256",
          "name": "totalDonated",
          "type": "uint256"
        },
        {
          "internalType": "uint256",
          "name": "projectStart",
          "type": "uint256"
        },
        {
          "internalType": "uint256",
          "name": "projectEnd",
          "type": "uint256"
        },
        {
          "internalType": "uint256",
          "name": "iocStart",
          "type": "uint256"
        },
        {
          "internalType": "uint256",
          "name": "iocEnd",
          "type": "uint256"
        },
        {
          "internalType": "uint256",
          "name": "trustVotes",
          "type": "uint256"
        },
        {
          "internalType": "uint256",
          "name": "withdrawVotes",
          "type": "uint256"
        },
        {
          "internalType": "enum StudentStartupFund.ProjectStatus",
          "name": "status",
          "type": "uint8"
        },
        {
          "internalType": "bool",
          "name": "active",
          "type": "bool"
        }
      ],
      "stateMutability": "view",
      "type": "function"
    },
    {
      "inputs": [
        {
          "internalType": "uint256",
          "name": "projectId",
          "type": "uint256"
        },
        {
          "internalType": "bool",
          "name": "active",
          "type": "bool"
        }
      ],
      "name": "setProjectActive",
      "outputs": [],
      "stateMutability": "nonpayable",
      "type": "function"
    },
    {
      "inputs": [
        {
          "internalType": "uint256",
          "name": "projectId",
          "type": "uint256"
        }
      ],
      "name": "voteTrust",
      "outputs": [],
      "stateMutability": "nonpayable",
      "type": "function"
    },
    {
      "inputs": [
        {
          "internalType": "uint256",
          "name": "projectId",
          "type": "uint256"
        }
      ],
      "name": "voteWithdraw",
      "outputs": [],
      "stateMutability": "nonpayable",
      "type": "function"
    },
    {
      "inputs": [
        {
          "internalType": "uint256",
          "name": "",
          "type": "uint256"
        },
        {
          "internalType": "address",
          "name": "",
          "type": "address"
        }
      ],
      "name": "votedTrust",
      "outputs": [
        {
          "internalType": "bool",
          "name": "",
          "type": "bool"
        }
      ],
      "stateMutability": "view",
      "type": "function"
    },
    {
      "inputs": [
        {
          "internalType": "uint256",
          "name": "",
          "type": "uint256"
        },
        {
          "internalType": "address",
          "name": "",
          "type": "address"
        }
      ],
      "name": "votedWithdraw",
      "outputs": [
        {
          "internalType": "bool",
          "name": "",
          "type": "bool"
        }
      ],
      "stateMutability": "view",
      "type": "function"
    },
    {
      "inputs": [
        {
          "internalType": "uint256",
          "name": "projectId",
          "type": "uint256"
        },
        {
          "internalType": "address payable",
          "name": "to",
          "type": "address"
        },
        {
          "internalType": "uint256",
          "name": "amount",
          "type": "uint256"
        }
      ],
      "name": "withdraw",
      "outputs": [],
      "stateMutability": "nonpayable",
      "type": "function"
    }
  ],
  "bytecode": "0x60808060405234602757600080546001600160a01b03191633179055611b2a908161002d8239f35b600080fdfe610100604052600436101561001357600080fd5b60003560e01c8063107046bd146115ef578063272f04ab1461153e5780632c8714471461148d5780632f597db51461142157806336fbad261461140357806344b762691461110857806348892753146110335780634c9b78da14610ffa57806385576a3114610fad5780638da5cb5b14610f845780639e5c5ff814610404578063df3faafe146103b7578063e4a8f18b14610399578063e63697c8146102235763f14faf6f146100c257600080fd5b602036600319011261021e576004356100de60015482106119b8565b34156101e4576100ed816117d7565b5060ff601182015460081c16156101ac57600d8101544210158061019e575b1561016757600a018054903482018092116101515755604051903482527f0b5b4c52969ff7329ecf7ee536409fda87812b15a8622bc6e8cdeab3aee14a2660203393a3005b634e487b7160e01b600052601160045260246000fd5b60405162461bcd60e51b815260206004820152600f60248201526e4e6f7420696e20494f432074696d6560881b6044820152606490fd5b50600e81015442111561010c565b60405162461bcd60e51b815260206004820152601060248201526f50726f6a65637420696e61637469766560801b6044820152606490fd5b60405162461bcd60e51b81526020600482015260126024820152710416d6f756e74206d757374206265203e20360741b6044820152606490fd5b600080fd5b3461021e57606036600319011261021e576024356001600160a01b038116906004359082900361021e5760443561026560018060a01b03600054163314611a32565b61027260015483106119b8565b821561036557478111610329576003601061028c846117d7565b500154106102f1576000818481156102e7575b600092839283928392f1156102db5760207fcf7d23a3cbe4e8b36ff82fd1b05b1b17373dc7804b4ebbd6e2356716ef20237291604051908152a3005b6040513d6000823e3d90fd5b6108fc925061029f565b60405162461bcd60e51b815260206004820152601060248201526f4e6f7420656e6f75676820766f74657360801b6044820152606490fd5b60405162461bcd60e51b8152602060048201526014602482015273496e73756666696369656e742062616c616e636560601b6044820152606490fd5b60405162461bcd60e51b815260206004820152600c60248201526b5a65726f206164647265737360a01b6044820152606490fd5b3461021e57600036600319011261021e576020600154604051908152f35b3461021e57604036600319011261021e576103d06119a2565b600435600052600560205260406000209060018060a01b0316600052602052602060ff604060002054166040519015158152f35b3461021e576101a036600319011261021e576004356001600160401b03811161021e5761043590369060040161194c565b6024356001600160401b03811161021e5761045490369060040161194c565b6044356001600160401b03811161021e5761047390369060040161194c565b906064356001600160401b03811161021e5761049390369060040161194c565b916084356001600160401b03811161021e576104b390369060040161194c565b60a4356001600160401b03811161021e576104d290369060040161194c565b60c4356001600160a01b0381169081900361021e5786610104356101243592610144359461016435966101843561051460018060a01b03600054163314611a32565b80988098809880985115610f4e578715610f1657159081610f0d575b50610ef5575b159081610eec575b50610ed4575b87871015610e9d57858511610e61576001549a610562898989611a87565b996040519b6102608d018d81106001600160401b03821117610a42578f908f8f906020926040528152015260408d015260608c015260808b015260a08a015260c089015260e088015260e43561010088015261012087015260006101408701526101608601526101808501526101a08401526101c083015260006101e083015260006102008301526005811015610964576102208201526001610240820152600160401b821015610a42576001820160015561061d826117d7565b610e4b578151815560208201518051906001600160401b038211610a4257819061064a600185015461180c565b601f8111610df8575b50602090601f8311600114610d8757600092610d7c575b50508160011b916000199060031b1c19161760018201555b60408201518051906001600160401b038211610a425781906106a7600285015461180c565b601f8111610d29575b50602090601f8311600114610cb857600092610cad575b50508160011b916000199060031b1c19161760028201555b60608201518051906001600160401b038211610a42578190610704600385015461180c565b601f8111610c5a575b50602090601f8311600114610be957600092610bde575b50508160011b916000199060031b1c19161760038201555b6004810160808301518051906001600160401b038211610a42578190610762845461180c565b601f8111610b8b575b50602090601f8311600114610b2657600092610b1b575b50508160011b916000199060031b1c19161790555b6005810160a08301518051906001600160401b038211610a425781906107bd845461180c565b601f8111610ac8575b50602090601f8311600114610a6357600092610a58575b50508160011b916000199060031b1c19161790555b60c08201518051906001600160401b038211610a4257610815600684015461180c565b601f81116109f7575b50602090601f83116001146109855760119392916000918361097a575b50508160011b916000199060031b1c19161760068201555b60e08301516007820180546001600160a01b0319166001600160a01b039290921691909117905561010083015160088201556101208301516009820155610140830151600a820155610160830151600b820155610180830151600c8201556101a0830151600d8201556101c0830151600e8201556101e0830151600f82015561020083015160108201556102208301519101906005811015610964578154610240939093015161ffff1990931660ff9091161791151560081b61ff001691909117905560209181907fed06d1e70f1faa0e1750def1b3a1d942390a8f47d03679c9025a1c38dc34fe7b90610959906001546002556040519182918783528783019061190b565b0390a2604051908152f35b634e487b7160e01b600052602160045260246000fd5b01519050878061083b565b9060068401600052806000209160005b601f19851681106109df575091839160019360119695601f198116106109c6575b505050811b016006820155610853565b015160001960f88460031b161c191690558780806109b6565b91926020600181928685015181550194019201610995565b600684016000526020600020601f840160051c81019160208510610a38575b601f0160051c01905b818110610a2c575061081e565b60008155600101610a1f565b9091508190610a16565b634e487b7160e01b600052604160045260246000fd5b0151905087806107dd565b60008581528281209350601f198516905b818110610ab05750908460019594939210610a97575b505050811b0190556107f2565b015160001960f88460031b161c19169055878080610a8a565b92936020600181928786015181550195019301610a74565b909150836000526020600020601f840160051c81019160208510610b11575b90601f859493920160051c01905b818110610b0257506107c6565b60008155849350600101610af5565b9091508190610ae7565b015190508780610782565b60008581528281209350601f198516905b818110610b735750908460019594939210610b5a575b505050811b019055610797565b015160001960f88460031b161c19169055878080610b4d565b92936020600181928786015181550195019301610b37565b909150836000526020600020601f840160051c81019160208510610bd4575b90601f859493920160051c01905b818110610bc5575061076b565b60008155849350600101610bb8565b9091508190610baa565b015190508680610724565b92506003840160005280600020906000935b601f1984168510610c3f576001945083601f19811610610c26575b505050811b01600382015561073c565b015160001960f88460031b161c19169055868080610c16565b81810151835560209485019460019093019290910190610bfb565b909150600384016000526020600020601f840160051c810160208510610ca6575b90849392915b601f830160051c82018110610c9757505061070d565b60008155859450600101610c81565b5080610c7b565b0151905086806106c7565b92506002840160005280600020906000935b601f1984168510610d0e576001945083601f19811610610cf5575b505050811b0160028201556106df565b015160001960f88460031b161c19169055868080610ce5565b81810151835560209485019460019093019290910190610cca565b909150600284016000526020600020601f840160051c810160208510610d75575b90849392915b601f830160051c82018110610d665750506106b0565b60008155859450600101610d50565b5080610d4a565b01519050868061066a565b92506001840160005280600020906000935b601f1984168510610ddd576001945083601f19811610610dc4575b505050811b016001820155610682565b015160001960f88460031b161c19169055868080610db4565b81810151835560209485019460019093019290910190610d99565b909150600184016000526020600020601f840160051c810160208510610e44575b90849392915b601f830160051c82018110610e35575050610653565b60008155859450600101610e1f565b5080610e19565b634e487b7160e01b600052600060045260246000fd5b60405162461bcd60e51b8152602060048201526014602482015273141c9bda9958dd081cdd185c9d080f0f48195b9960621b6044820152606490fd5b60405162461bcd60e51b815260206004820152600f60248201526e1253d0c81cdd185c9d080f08195b99608a1b6044820152606490fd5b965042955062278d0086018087116101515796610544565b9050158d61053e565b96504295506276a70086018087116101515796610536565b9050158f610530565b60405162461bcd60e51b815260206004820152601060248201526f0476f616c206d757374206265203e20360841b6044820152606490fd5b60405162461bcd60e51b815260206004820152600e60248201526d151a5d1b19481c995c5d5a5c995960921b6044820152606490fd5b3461021e57600036600319011261021e576000546040516001600160a01b039091168152602090f35b3461021e57604036600319011261021e57610fc66119a2565b600435600052600460205260406000209060018060a01b0316600052602052602060ff604060002054166040519015158152f35b3461021e57602036600319011261021e5760043561101b60015482106119b8565b60005260036020526020604060002054604051908152f35b3461021e57604036600319011261021e5760043560243561105760015483106119b8565b8160005260036020526040600020548110156110d3576110839160005260036020526040600020611a6b565b5060018060a01b0381541660ff6002830154166110a7600160038501549401611867565b926110c4604051948594855260806020860152608085019061190b565b91604084015260608301520390f35b60405162461bcd60e51b815260206004820152600d60248201526c092dcecc2d8d2c840d2dcc8caf609b1b6044820152606490fd5b3461021e57606036600319011261021e576004356024356001600160401b03811161021e5761113b90369060040161194c565b6044359160ff831680930361021e5761115760015482106119b8565b8151156113cb576001831015806113c0575b1561138e57806000526003602052604060002092604051608081018181106001600160401b03821117610a425760405233815260208101948486526040820183815260608301914283528054600160401b811015610a42576111d091600182018155611a6b565b939093610e4b575183546001600160a01b0319166001600160a01b03919091161783559551805190969060018401906001600160401b038111610a4257611217825461180c565b601f8111611346575b506020601f82116001146112b95790806003959493927f75af7a249fd33f32da5aebdf42415cf43a79f1a958cb5d25980d825bb6c4a541999a9b6000926112ae575b50508160011b9160001990871b1c19161790555b60ff6002850191511660ff198254161790555191015560405190815260406020820152806112a93395604083019061190b565b0390a3005b015190508b80611262565b601f1982169983600052816000209a60005b81811061132e57509a60019284926003989796957f75af7a249fd33f32da5aebdf42415cf43a79f1a958cb5d25980d825bb6c4a5419c9d9e10611316575b505050811b019055611276565b015160001983891b60f8161c191690558b8080611309565b838301518d556001909c019b602093840193016112cb565b826000526020600020601f830160051c81019160208410611384575b601f0160051c01905b8181106113785750611220565b6000815560010161136b565b9091508190611362565b60405162461bcd60e51b815260206004820152600a602482015269526174696e6720312d3560b01b6044820152606490fd5b506005831115611169565b60405162461bcd60e51b815260206004820152601060248201526f10dbdb9d195b9d081c995c5d5a5c995960821b6044820152606490fd5b3461021e57600036600319011261021e576020600254604051908152f35b3461021e57604036600319011261021e57600435602435801515810361021e57601161147161148b9361145f60018060a01b03600054163314611a32565b61146c60015482106119b8565b6117d7565b50019061ff00825491151560081b169061ff001916179055565b005b3461021e57602036600319011261021e576004356114ae60015482106119b8565b60008181526004602090815260408083203384529091529020546114d59060ff16156119f6565b60008181526004602090815260408083203384529091529020805460ff19166001179055600f611504826117d7565b500180549060018201809211610151575533907fb31d078aff93840e07bd4feb45e413ef1141e91543e8f7c6f7e17b18963319b0600080a3005b3461021e57602036600319011261021e5760043561155f60015482106119b8565b60008181526005602090815260408083203384529091529020546115869060ff16156119f6565b60008181526005602090815260408083203384529091529020805460ff1916600117905560106115b5826117d7565b500180549060018201809211610151575533907f5e3e2b315b7a0c8f5b16c6826fea3480c2b34a38cee053a916bd6bc4569756f0600080a3005b3461021e57602036600319011261021e5760043560015481101561021e57611616906117d7565b5080549061162660018201611867565b60e0528061163660028201611867565b9261164360038301611867565b9361165060048401611867565b9461165d60058501611867565b9561166a60068601611867565b96600160a01b60019003600787015416608052600886015497600987015490600a88015492600b89015494600c8a015496600d8b015498600e8c01549a600f8d01549c601001549d6011015460c05260405160a05260a0515260a051602001610260905260a0516102600160e051906116e29161190b565b60a051810360a051604001526116f79161190b565b60a051810360a0516060015261170c9161190b565b60a051810360a051608001526117219161190b565b60a051810360a05160a001526117369161190b565b60a051810360a05160c0015261174b9161190b565b9860805160a05160e0015260a051610100015260a051610120015260a051610140015260a051610160015260a051610180015260a0516101a0015260a0516101c0015260a0516101e0015260a051610200015260c05160ff16600511156109645760ff60c0511661022060a051015260ff60c05160081c16151561024060a051015260a051900360a051f35b6001548110156117f65760016000526012602060002091020190600090565b634e487b7160e01b600052603260045260246000fd5b90600182811c9216801561183c575b602083101461182657565b634e487b7160e01b600052602260045260246000fd5b91607f169161181b565b90601f801991011681019081106001600160401b03821117610a4257604052565b906040519182600082549261187b8461180c565b80845293600181169081156118e957506001146118a2575b506118a092500383611846565b565b90506000929192526020600020906000915b8183106118cd5750509060206118a09282010138611893565b60209193508060019154838589010152019101909184926118b4565b9050602092506118a094915060ff191682840152151560051b82010138611893565b919082519283825260005b848110611937575050826000602080949584010152601f8019910116010190565b80602080928401015182828601015201611916565b81601f8201121561021e578035906001600160401b038211610a425760405192611980601f8401601f191660200185611846565b8284526020838301011161021e57816000926020809301838601378301015290565b602435906001600160a01b038216820361021e57565b156119bf57565b60405162461bcd60e51b815260206004820152600f60248201526e125b9d985b1a59081c1c9bda9958dd608a1b6044820152606490fd5b156119fd57565b60405162461bcd60e51b815260206004820152600d60248201526c105b1c9958591e481d9bdd1959609a1b6044820152606490fd5b15611a3957565b60405162461bcd60e51b815260206004820152600a60248201526927b7363c9037bbb732b960b11b6044820152606490fd5b80548210156117f65760005260206000209060021b0190600090565b9081151580611aeb575b611ae357421091821580611ad9575b611ad15742119081611ac6575b50611ac057611abb57600090565b600090565b50600290565b905042111538611aad565b505050600190565b5080421115611aa0565b505050600390565b50814211611a9156fea2646970667358221220cf261dce4d2cc371d17c137e352e0c3cd5ca3e31b58b2d9a53d37575eac3bdfb64736f6c634300081c0033",
  "linkReferences": {},
  "deployedLinkReferences": {}
}